{"abi":[{"inputs":[{"internalType":"uint256","name":"_minimum","type":"uint256"},{"internalType":"address","name":"_creator","type":"address"},{"internalType":"uint256","name":"_goal","type":"uint256"},{"internalType":"uint256","name":"_deadline","type":"uint256"}],"stateMutability":"nonpayable","type":"constructor"},{"anonymous":false,"inputs":[{"indexed":false,"internalType":"address","name":"_sender","type":"address"},{"indexed":false,"internalType":"uint256","name":"_value","type":"uint256"}],"name":"ContributeEvent","type":"event"},{"anonymous":false,"inputs":[{"indexed":false,"internalType":"string","name":"_description","type":"string"},{"indexed":false,"internalType":"address","name":"_recipient","type":"address"},{"indexed":false,"internalType":"uint256","name":"_value","type":"uint256"}],"name":"CreateRequestEvent","type":"event"},{"anonymous":false,"inputs":[{"indexed":false,"internalType":"address","name":"_recipient","type":"address"},{"indexed":false,"internalType":"uint256","name":"_value","type":"uint256"}],"name":"FinalizeRequestEvent","type":"event"},{"inputs":[{"internalType":"uint256","name":"_index","type":"uint256"}],"name":"approveRequest","outputs":[],"stateMutability":"nonpayable","type":"function"},{"inputs":[{"internalType":"address","name":"","type":"address"}],"name":"approvers","outputs":[{"internalType":"uint256","name":"","type":"uint256"}],"stateMutability":"view","type":"function"},{"inputs":[],"name":"approversCount","outputs":[{"internalType":"uint256","name":"","type":"uint256"}],"stateMutability":"view","type":"function"},{"inputs":[],"name":"contribute","outputs":[],"stateMutability":"payable","type":"function"},{"inputs":[{"internalType":"string","name":"_description","type":"string"},{"internalType":"uint256","name":"_value","type":"uint256"},{"internalType":"address payable","name":"_recipient","type":"address"}],"name":"createRequest","outputs":[],"stateMutability":"nonpayable","type":"function"},{"inputs":[],"name":"deadline","outputs":[{"internalType":"uint256","name":"","type":"uint256"}],"stateMutability":"view","type":"function"},{"inputs":[{"internalType":"uint256","name":"_index","type":"uint256"}],"name":"finalizeRequest","outputs":[],"stateMutability":"nonpayable","type":"function"},{"inputs":[],"name":"getRefund","outputs":[],"stateMutability":"nonpayable","type":"function"},{"inputs":[],"name":"getRequestsCount","outputs":[{"internalType":"uint256","name":"","type":"uint256"}],"stateMutability":"view","type":"function"},{"inputs":[],"name":"getSummary","outputs":[{"internalType":"uint256","name":"","type":"uint256"},{"internalType":"uint256","name":"","type":"uint256"},{"internalType":"uint256","name":"","type":"uint256"},{"internalType":"uint256","name":"","type":"uint256"},{"internalType":"address","name":"","type":"address"}],"stateMutability":"view","type":"function"},{"inputs":[],"name":"goal","outputs":[{"internalType":"uint256","name":"","type":"uint256"}],"stateMutability":"view","type":"function"},{"inputs":[],"name":"manager","outputs":[{"internalType":"address","name":"","type":"address"}],"stateMutability":"view","type":"function"},{"inputs":[],"name":"minimumContribution","outputs":[{"internalType":"uint256","name":"","type":"uint256"}],"stateMutability":"view","type":"function"},{"inputs":[],"name":"numRequests","outputs":[{"internalType":"uint256","name":"","type":"uint256"}],"stateMutability":"view","type":"function"},{"inputs":[],"name":"raisedAmount","outputs":[{"internalType":"uint256","name":"","type":"uint256"}],"stateMutability":"view","type":"function"},{"inputs":[{"internalType":"uint256","name":"","type":"uint256"}],"name":"requests","outputs":[{"internalType":"string","name":"description","type":"string"},{"internalType":"uint256","name":"value","type":"uint256"},{"internalType":"uint256","name":"approvalCount","type":"uint256"},{"internalType":"address payable","name":"recipient","type":"address"},{"internalType":"bool","name":"complete","type":"bool"}],"stateMutability":"view","type":"function"},{"stateMutability":"payable","type":"receive"}],"devdoc":{"kind":"dev","methods":{},"version":1},"evm":{"assembly":"    /* \"Campaign.sol\":496:4408  contract Campaign {... */\n  mstore(0x40, 0x80)\n    /* \"Campaign.sol\":1411:1629  constructor(uint _minimum, address _creator, uint _goal, uint _deadline) {... */\n  callvalue\n  dup1\n  iszero\n  tag_1\n  jumpi\n  0x00\n  dup1\n  revert\ntag_1:\n  pop\n  mload(0x40)\n  sub(codesize, bytecodeSize)\n  dup1\n  bytecodeSize\n  dup4\n  codecopy\n  dup2\n  dup2\n  add\n  0x40\n  mstore\n  dup2\n  add\n  swap1\n  tag_2\n  swap2\n  swap1\n  tag_3\n  jump\t// in\ntag_2:\n    /* \"Campaign.sol\":1504:1512  _creator */\n  dup3\n    /* \"Campaign.sol\":1494:1501  manager */\n  0x02\n  0x00\n    /* \"Campaign.sol\":1494:1512  manager = _creator */\n  0x0100\n  exp\n  dup2\n  sload\n  dup2\n  0xffffffffffffffffffffffffffffffffffffffff\n  mul\n  not\n  and\n  swap1\n  dup4\n  0xffffffffffffffffffffffffffffffffffffffff\n  and\n  mul\n  or\n  swap1\n  sstore\n  pop\n    /* \"Campaign.sol\":1544:1552  _minimum */\n  dup4\n    /* \"Campaign.sol\":1522:1541  minimumContribution */\n  0x03\n    /* \"Campaign.sol\":1522:1552  minimumContribution = _minimum */\n  dup2\n  swap1\n  sstore\n  pop\n    /* \"Campaign.sol\":1569:1574  _goal */\n  dup2\n    /* \"Campaign.sol\":1562:1566  goal */\n  0x06\n    /* \"Campaign.sol\":1562:1574  goal = _goal */\n  dup2\n  swap1\n  sstore\n  pop\n    /* \"Campaign.sol\":1613:1622  _deadline */\n  dup1\n    /* \"Campaign.sol\":1595:1610  block.timestamp */\n  timestamp\n    /* \"Campaign.sol\":1595:1622  block.timestamp + _deadline */\n  tag_6\n  swap2\n  swap1\n  tag_7\n  jump\t// in\ntag_6:\n    /* \"Campaign.sol\":1584:1592  deadline */\n  0x07\n    /* \"Campaign.sol\":1584:1622  deadline = block.timestamp + _deadline */\n  dup2\n  swap1\n  sstore\n  pop\n    /* \"Campaign.sol\":1411:1629  constructor(uint _minimum, address _creator, uint _goal, uint _deadline) {... */\n  pop\n  pop\n  pop\n  pop\n    /* \"Campaign.sol\":496:4408  contract Campaign {... */\n  jump(tag_8)\n    /* \"#utility.yul\":88:205   */\ntag_10:\n    /* \"#utility.yul\":197:198   */\n  0x00\n    /* \"#utility.yul\":194:195   */\n  dup1\n    /* \"#utility.yul\":187:199   */\n  revert\n    /* \"#utility.yul\":334:411   */\ntag_12:\n    /* \"#utility.yul\":371:378   */\n  0x00\n    /* \"#utility.yul\":400:405   */\n  dup2\n    /* \"#utility.yul\":389:405   */\n  swap1\n  pop\n    /* \"#utility.yul\":334:411   */\n  swap2\n  swap1\n  pop\n  jump\t// out\n    /* \"#utility.yul\":417:539   */\ntag_13:\n    /* \"#utility.yul\":490:514   */\n  tag_26\n    /* \"#utility.yul\":508:513   */\n  dup2\n    /* \"#utility.yul\":490:514   */\n  tag_12\n  jump\t// in\ntag_26:\n    /* \"#utility.yul\":483:488   */\n  dup2\n    /* \"#utility.yul\":480:515   */\n  eq\n    /* \"#utility.yul\":470:533   */\n  tag_27\n  jumpi\n    /* \"#utility.yul\":529:530   */\n  0x00\n    /* \"#utility.yul\":526:527   */\n  dup1\n    /* \"#utility.yul\":519:531   */\n  revert\n    /* \"#utility.yul\":470:533   */\ntag_27:\n    /* \"#utility.yul\":417:539   */\n  pop\n  jump\t// out\n    /* \"#utility.yul\":545:688   */\ntag_14:\n    /* \"#utility.yul\":602:607   */\n  0x00\n    /* \"#utility.yul\":633:639   */\n  dup2\n    /* \"#utility.yul\":627:640   */\n  mload\n    /* \"#utility.yul\":618:640   */\n  swap1\n  pop\n    /* \"#utility.yul\":649:682   */\n  tag_29\n    /* \"#utility.yul\":676:681   */\n  dup2\n    /* \"#utility.yul\":649:682   */\n  tag_13\n  jump\t// in\ntag_29:\n    /* \"#utility.yul\":545:688   */\n  swap3\n  swap2\n  pop\n  pop\n  jump\t// out\n    /* \"#utility.yul\":694:820   */\ntag_15:\n    /* \"#utility.yul\":731:738   */\n  0x00\n    /* \"#utility.yul\":771:813   */\n  0xffffffffffffffffffffffffffffffffffffffff\n    /* \"#utility.yul\":764:769   */\n  dup3\n    /* \"#utility.yul\":760:814   */\n  and\n    /* \"#utility.yul\":749:814   */\n  swap1\n  pop\n    /* \"#utility.yul\":694:820   */\n  swap2\n  swap1\n  pop\n  jump\t// out\n    /* \"#utility.yul\":826:922   */\ntag_16:\n    /* \"#utility.yul\":863:870   */\n  0x00\n    /* \"#utility.yul\":892:916   */\n  tag_32\n    /* \"#utility.yul\":910:915   */\n  dup3\n    /* \"#utility.yul\":892:916   */\n  tag_15\n  jump\t// in\ntag_32:\n    /* \"#utility.yul\":881:916   */\n  swap1\n  pop\n    /* \"#utility.yul\":826:922   */\n  swap2\n  swap1\n  pop\n  jump\t// out\n    /* \"#utility.yul\":928:1050   */\ntag_17:\n    /* \"#utility.yul\":1001:1025   */\n  tag_34\n    /* \"#utility.yul\":1019:1024   */\n  dup2\n    /* \"#utility.yul\":1001:1025   */\n  tag_16\n  jump\t// in\ntag_34:\n    /* \"#utility.yul\":994:999   */\n  dup2\n    /* \"#utility.yul\":991:1026   */\n  eq\n    /* \"#utility.yul\":981:1044   */\n  tag_35\n  jumpi\n    /* \"#utility.yul\":1040:1041   */\n  0x00\n    /* \"#utility.yul\":1037:1038   */\n  dup1\n    /* \"#utility.yul\":1030:1042   */\n  revert\n    /* \"#utility.yul\":981:1044   */\ntag_35:\n    /* \"#utility.yul\":928:1050   */\n  pop\n  jump\t// out\n    /* \"#utility.yul\":1056:1199   */\ntag_18:\n    /* \"#utility.yul\":1113:1118   */\n  0x00\n    /* \"#utility.yul\":1144:1150   */\n  dup2\n    /* \"#utility.yul\":1138:1151   */\n  mload\n    /* \"#utility.yul\":1129:1151   */\n  swap1\n  pop\n    /* \"#utility.yul\":1160:1193   */\n  tag_37\n    /* \"#utility.yul\":1187:1192   */\n  dup2\n    /* \"#utility.yul\":1160:1193   */\n  tag_17\n  jump\t// in\ntag_37:\n    /* \"#utility.yul\":1056:1199   */\n  swap3\n  swap2\n  pop\n  pop\n  jump\t// out\n    /* \"#utility.yul\":1205:2025   */\ntag_3:\n    /* \"#utility.yul\":1302:1308   */\n  0x00\n    /* \"#utility.yul\":1310:1316   */\n  dup1\n    /* \"#utility.yul\":1318:1324   */\n  0x00\n    /* \"#utility.yul\":1326:1332   */\n  dup1\n    /* \"#utility.yul\":1375:1378   */\n  0x80\n    /* \"#utility.yul\":1363:1372   */\n  dup6\n    /* \"#utility.yul\":1354:1361   */\n  dup8\n    /* \"#utility.yul\":1350:1373   */\n  sub\n    /* \"#utility.yul\":1346:1379   */\n  slt\n    /* \"#utility.yul\":1343:1463   */\n  iszero\n  tag_39\n  jumpi\n    /* \"#utility.yul\":1382:1461   */\n  tag_40\n  tag_10\n  jump\t// in\ntag_40:\n    /* \"#utility.yul\":1343:1463   */\ntag_39:\n    /* \"#utility.yul\":1502:1503   */\n  0x00\n    /* \"#utility.yul\":1527:1591   */\n  tag_41\n    /* \"#utility.yul\":1583:1590   */\n  dup8\n    /* \"#utility.yul\":1574:1580   */\n  dup3\n    /* \"#utility.yul\":1563:1572   */\n  dup9\n    /* \"#utility.yul\":1559:1581   */\n  add\n    /* \"#utility.yul\":1527:1591   */\n  tag_14\n  jump\t// in\ntag_41:\n    /* \"#utility.yul\":1517:1591   */\n  swap5\n  pop\n    /* \"#utility.yul\":1473:1601   */\n  pop\n    /* \"#utility.yul\":1640:1642   */\n  0x20\n    /* \"#utility.yul\":1666:1730   */\n  tag_42\n    /* \"#utility.yul\":1722:1729   */\n  dup8\n    /* \"#utility.yul\":1713:1719   */\n  dup3\n    /* \"#utility.yul\":1702:1711   */\n  dup9\n    /* \"#utility.yul\":1698:1720   */\n  add\n    /* \"#utility.yul\":1666:1730   */\n  tag_18\n  jump\t// in\ntag_42:\n    /* \"#utility.yul\":1656:1730   */\n  swap4\n  pop\n    /* \"#utility.yul\":1611:1740   */\n  pop\n    /* \"#utility.yul\":1779:1781   */\n  0x40\n    /* \"#utility.yul\":1805:1869   */\n  tag_43\n    /* \"#utility.yul\":1861:1868   */\n  dup8\n    /* \"#utility.yul\":1852:1858   */\n  dup3\n    /* \"#utility.yul\":1841:1850   */\n  dup9\n    /* \"#utility.yul\":1837:1859   */\n  add\n    /* \"#utility.yul\":1805:1869   */\n  tag_14\n  jump\t// in\ntag_43:\n    /* \"#utility.yul\":1795:1869   */\n  swap3\n  pop\n    /* \"#utility.yul\":1750:1879   */\n  pop\n    /* \"#utility.yul\":1918:1920   */\n  0x60\n    /* \"#utility.yul\":1944:2008   */\n  tag_44\n    /* \"#utility.yul\":2000:2007   */\n  dup8\n    /* \"#utility.yul\":1991:1997   */\n  dup3\n    /* \"#utility.yul\":1980:1989   */\n  dup9\n    /* \"#utility.yul\":1976:1998   */\n  add\n    /* \"#utility.yul\":1944:2008   */\n  tag_14\n  jump\t// in\ntag_44:\n    /* \"#utility.yul\":1934:2008   */\n  swap2\n  pop\n    /* \"#utility.yul\":1889:2018   */\n  pop\n    /* \"#utility.yul\":1205:2025   */\n  swap3\n  swap6\n  swap2\n  swap5\n  pop\n  swap3\n  pop\n  jump\t// out\n    /* \"#utility.yul\":2031:2211   */\ntag_19:\n    /* \"#utility.yul\":2079:2156   */\n  0x4e487b7100000000000000000000000000000000000000000000000000000000\n    /* \"#utility.yul\":2076:2077   */\n  0x00\n    /* \"#utility.yul\":2069:2157   */\n  mstore\n    /* \"#utility.yul\":2176:2180   */\n  0x11\n    /* \"#utility.yul\":2173:2174   */\n  0x04\n    /* \"#utility.yul\":2166:2181   */\n  mstore\n    /* \"#utility.yul\":2200:2204   */\n  0x24\n    /* \"#utility.yul\":2197:2198   */\n  0x00\n    /* \"#utility.yul\":2190:2205   */\n  revert\n    /* \"#utility.yul\":2217:2522   */\ntag_7:\n    /* \"#utility.yul\":2257:2260   */\n  0x00\n    /* \"#utility.yul\":2276:2296   */\n  tag_47\n    /* \"#utility.yul\":2294:2295   */\n  dup3\n    /* \"#utility.yul\":2276:2296   */\n  tag_12\n  jump\t// in\ntag_47:\n    /* \"#utility.yul\":2271:2296   */\n  swap2\n  pop\n    /* \"#utility.yul\":2310:2330   */\n  tag_48\n    /* \"#utility.yul\":2328:2329   */\n  dup4\n    /* \"#utility.yul\":2310:2330   */\n  tag_12\n  jump\t// in\ntag_48:\n    /* \"#utility.yul\":2305:2330   */\n  swap3\n  pop\n    /* \"#utility.yul\":2464:2465   */\n  dup3\n    /* \"#utility.yul\":2396:2462   */\n  0xffffffffffffffffffffffffffffffffffffffffffffffffffffffffffffffff\n    /* \"#utility.yul\":2392:2466   */\n  sub\n    /* \"#utility.yul\":2389:2390   */\n  dup3\n    /* \"#utility.yul\":2386:2467   */\n  gt\n    /* \"#utility.yul\":2383:2490   */\n  iszero\n  tag_49\n  jumpi\n    /* \"#utility.yul\":2470:2488   */\n  tag_50\n  tag_19\n  jump\t// in\ntag_50:\n    /* \"#utility.yul\":2383:2490   */\ntag_49:\n    /* \"#utility.yul\":2514:2515   */\n  dup3\n    /* \"#utility.yul\":2511:2512   */\n  dup3\n    /* \"#utility.yul\":2507:2516   */\n  add\n    /* \"#utility.yul\":2500:2516   */\n  swap1\n  pop\n    /* \"#utility.yul\":2217:2522   */\n  swap3\n  swap2\n  pop\n  pop\n  jump\t// out\n    /* \"Campaign.sol\":496:4408  contract Campaign {... */\ntag_8:\n  dataSize(sub_0)\n  dup1\n  dataOffset(sub_0)\n  0x00\n  codecopy\n  0x00\n  return\nstop\n\nsub_0: assembly {\n        /* \"Campaign.sol\":496:4408  contract Campaign {... */\n      mstore(0x40, 0x80)\n      jumpi(tag_1, lt(calldatasize, 0x04))\n      shr(0xe0, calldataload(0x00))\n      dup1\n      0x82fde093\n      gt\n      tag_19\n      jumpi\n      dup1\n      0xb2d5ae44\n      gt\n      tag_20\n      jumpi\n      dup1\n      0xb2d5ae44\n      eq\n      tag_15\n      jumpi\n      dup1\n      0xc59ee1dc\n      eq\n      tag_16\n      jumpi\n      dup1\n      0xd7bb99ba\n      eq\n      tag_17\n      jumpi\n      dup1\n      0xd7d1bbdb\n      eq\n      tag_18\n      jumpi\n      jump(tag_2)\n    tag_20:\n      dup1\n      0x82fde093\n      eq\n      tag_11\n      jumpi\n      dup1\n      0x8a9cfd55\n      eq\n      tag_12\n      jumpi\n      dup1\n      0x937e09b1\n      eq\n      tag_13\n      jumpi\n      dup1\n      0x9fb42b1f\n      eq\n      tag_14\n      jumpi\n      jump(tag_2)\n    tag_19:\n      dup1\n      0x40193883\n      gt\n      tag_21\n      jumpi\n      dup1\n      0x40193883\n      eq\n      tag_7\n      jumpi\n      dup1\n      0x4051ddac\n      eq\n      tag_8\n      jumpi\n      dup1\n      0x481c6a75\n      eq\n      tag_9\n      jumpi\n      dup1\n      0x81d12c58\n      eq\n      tag_10\n      jumpi\n      jump(tag_2)\n    tag_21:\n      dup1\n      0x03441006\n      eq\n      tag_3\n      jumpi\n      dup1\n      0x0a144391\n      eq\n      tag_4\n      jumpi\n      dup1\n      0x29dcb0cf\n      eq\n      tag_5\n      jumpi\n      dup1\n      0x3410452a\n      eq\n      tag_6\n      jumpi\n      jump(tag_2)\n    tag_1:\n      jumpi(tag_2, calldatasize)\n        /* \"Campaign.sol\":1672:1684  contribute() */\n      tag_24\n        /* \"Campaign.sol\":1672:1682  contribute */\n      tag_25\n        /* \"Campaign.sol\":1672:1684  contribute() */\n      jump\t// in\n    tag_24:\n        /* \"Campaign.sol\":496:4408  contract Campaign {... */\n      stop\n    tag_2:\n      0x00\n      dup1\n      revert\n        /* \"Campaign.sol\":3570:4038  function finalizeRequest(uint _index) public restrictedToManager {... */\n    tag_3:\n      callvalue\n      dup1\n      iszero\n      tag_26\n      jumpi\n      0x00\n      dup1\n      revert\n    tag_26:\n      pop\n      tag_27\n      0x04\n      dup1\n      calldatasize\n      sub\n      dup2\n      add\n      swap1\n      tag_28\n      swap2\n      swap1\n      tag_29\n      jump\t// in\n    tag_28:\n      tag_30\n      jump\t// in\n    tag_27:\n      stop\n        /* \"Campaign.sol\":882:923  mapping(address => uint) public approvers */\n    tag_4:\n      callvalue\n      dup1\n      iszero\n      tag_31\n      jumpi\n      0x00\n      dup1\n      revert\n    tag_31:\n      pop\n      tag_32\n      0x04\n      dup1\n      calldatasize\n      sub\n      dup2\n      add\n      swap1\n      tag_33\n      swap2\n      swap1\n      tag_34\n      jump\t// in\n    tag_33:\n      tag_35\n      jump\t// in\n    tag_32:\n      mload(0x40)\n      tag_36\n      swap2\n      swap1\n      tag_37\n      jump\t// in\n    tag_36:\n      mload(0x40)\n      dup1\n      swap2\n      sub\n      swap1\n      return\n        /* \"Campaign.sol\":984:1004  uint public deadline */\n    tag_5:\n      callvalue\n      dup1\n      iszero\n      tag_38\n      jumpi\n      0x00\n      dup1\n      revert\n    tag_38:\n      pop\n      tag_39\n      tag_40\n      jump\t// in\n    tag_39:\n      mload(0x40)\n      tag_41\n      swap2\n      swap1\n      tag_37\n      jump\t// in\n    tag_41:\n      mload(0x40)\n      dup1\n      swap2\n      sub\n      swap1\n      return\n        /* \"Campaign.sol\":4316:4406  function getRequestsCount() public view returns (uint) {... */\n    tag_6:\n      callvalue\n      dup1\n      iszero\n      tag_42\n      jumpi\n      0x00\n      dup1\n      revert\n    tag_42:\n      pop\n      tag_43\n      tag_44\n      jump\t// in\n    tag_43:\n      mload(0x40)\n      tag_45\n      swap2\n      swap1\n      tag_37\n      jump\t// in\n    tag_45:\n      mload(0x40)\n      dup1\n      swap2\n      sub\n      swap1\n      return\n        /* \"Campaign.sol\":962:978  uint public goal */\n    tag_7:\n      callvalue\n      dup1\n      iszero\n      tag_46\n      jumpi\n      0x00\n      dup1\n      revert\n    tag_46:\n      pop\n      tag_47\n      tag_48\n      jump\t// in\n    tag_47:\n      mload(0x40)\n      tag_49\n      swap2\n      swap1\n      tag_37\n      jump\t// in\n    tag_49:\n      mload(0x40)\n      dup1\n      swap2\n      sub\n      swap1\n      return\n        /* \"Campaign.sol\":4044:4310  function getSummary() public view returns (... */\n    tag_8:\n      callvalue\n      dup1\n      iszero\n      tag_50\n      jumpi\n      0x00\n      dup1\n      revert\n    tag_50:\n      pop\n      tag_51\n      tag_52\n      jump\t// in\n    tag_51:\n      mload(0x40)\n      tag_53\n      swap6\n      swap5\n      swap4\n      swap3\n      swap2\n      swap1\n      tag_54\n      jump\t// in\n    tag_53:\n      mload(0x40)\n      dup1\n      swap2\n      sub\n      swap1\n      return\n        /* \"Campaign.sol\":817:839  address public manager */\n    tag_9:\n      callvalue\n      dup1\n      iszero\n      tag_55\n      jumpi\n      0x00\n      dup1\n      revert\n    tag_55:\n      pop\n      tag_56\n      tag_57\n      jump\t// in\n    tag_56:\n      mload(0x40)\n      tag_58\n      swap2\n      swap1\n      tag_59\n      jump\t// in\n    tag_58:\n      mload(0x40)\n      dup1\n      swap2\n      sub\n      swap1\n      return\n        /* \"Campaign.sol\":741:781  mapping(uint => Request) public requests */\n    tag_10:\n      callvalue\n      dup1\n      iszero\n      tag_60\n      jumpi\n      0x00\n      dup1\n      revert\n    tag_60:\n      pop\n      tag_61\n      0x04\n      dup1\n      calldatasize\n      sub\n      dup2\n      add\n      swap1\n      tag_62\n      swap2\n      swap1\n      tag_29\n      jump\t// in\n    tag_62:\n      tag_63\n      jump\t// in\n    tag_61:\n      mload(0x40)\n      tag_64\n      swap6\n      swap5\n      swap4\n      swap3\n      swap2\n      swap1\n      tag_65\n      jump\t// in\n    tag_64:\n      mload(0x40)\n      dup1\n      swap2\n      sub\n      swap1\n      return\n        /* \"Campaign.sol\":929:955  uint public approversCount */\n    tag_11:\n      callvalue\n      dup1\n      iszero\n      tag_66\n      jumpi\n      0x00\n      dup1\n      revert\n    tag_66:\n      pop\n      tag_67\n      tag_68\n      jump\t// in\n    tag_67:\n      mload(0x40)\n      tag_69\n      swap2\n      swap1\n      tag_37\n      jump\t// in\n    tag_69:\n      mload(0x40)\n      dup1\n      swap2\n      sub\n      swap1\n      return\n        /* \"Campaign.sol\":2637:3127  function createRequest(string memory _description, uint _value, address payable _recipient)... */\n    tag_12:\n      callvalue\n      dup1\n      iszero\n      tag_70\n      jumpi\n      0x00\n      dup1\n      revert\n    tag_70:\n      pop\n      tag_71\n      0x04\n      dup1\n      calldatasize\n      sub\n      dup2\n      add\n      swap1\n      tag_72\n      swap2\n      swap1\n      tag_73\n      jump\t// in\n    tag_72:\n      tag_74\n      jump\t// in\n    tag_71:\n      stop\n        /* \"Campaign.sol\":845:876  uint public minimumContribution */\n    tag_13:\n      callvalue\n      dup1\n      iszero\n      tag_75\n      jumpi\n      0x00\n      dup1\n      revert\n    tag_75:\n      pop\n      tag_76\n      tag_77\n      jump\t// in\n    tag_76:\n      mload(0x40)\n      tag_78\n      swap2\n      swap1\n      tag_37\n      jump\t// in\n    tag_78:\n      mload(0x40)\n      dup1\n      swap2\n      sub\n      swap1\n      return\n        /* \"Campaign.sol\":787:810  uint public numRequests */\n    tag_14:\n      callvalue\n      dup1\n      iszero\n      tag_79\n      jumpi\n      0x00\n      dup1\n      revert\n    tag_79:\n      pop\n      tag_80\n      tag_81\n      jump\t// in\n    tag_80:\n      mload(0x40)\n      tag_82\n      swap2\n      swap1\n      tag_37\n      jump\t// in\n    tag_82:\n      mload(0x40)\n      dup1\n      swap2\n      sub\n      swap1\n      return\n        /* \"Campaign.sol\":2387:2631  function getRefund() public {... */\n    tag_15:\n      callvalue\n      dup1\n      iszero\n      tag_83\n      jumpi\n      0x00\n      dup1\n      revert\n    tag_83:\n      pop\n      tag_84\n      tag_85\n      jump\t// in\n    tag_84:\n      stop\n        /* \"Campaign.sol\":1022:1046  uint public raisedAmount */\n    tag_16:\n      callvalue\n      dup1\n      iszero\n      tag_86\n      jumpi\n      0x00\n      dup1\n      revert\n    tag_86:\n      pop\n      tag_87\n      tag_88\n      jump\t// in\n    tag_87:\n      mload(0x40)\n      tag_89\n      swap2\n      swap1\n      tag_37\n      jump\t// in\n    tag_89:\n      mload(0x40)\n      dup1\n      swap2\n      sub\n      swap1\n      return\n        /* \"Campaign.sol\":1947:2334  function contribute() public payable {... */\n    tag_17:\n      tag_90\n      tag_25\n      jump\t// in\n    tag_90:\n      stop\n        /* \"Campaign.sol\":3133:3517  function approveRequest(uint _index) public {... */\n    tag_18:\n      callvalue\n      dup1\n      iszero\n      tag_91\n      jumpi\n      0x00\n      dup1\n      revert\n    tag_91:\n      pop\n      tag_92\n      0x04\n      dup1\n      calldatasize\n      sub\n      dup2\n      add\n      swap1\n      tag_93\n      swap2\n      swap1\n      tag_29\n      jump\t// in\n    tag_93:\n      tag_94\n      jump\t// in\n    tag_92:\n      stop\n        /* \"Campaign.sol\":1947:2334  function contribute() public payable {... */\n    tag_25:\n        /* \"Campaign.sol\":2020:2028  deadline */\n      sload(0x07)\n        /* \"Campaign.sol\":2002:2017  block.timestamp */\n      timestamp\n        /* \"Campaign.sol\":2002:2028  block.timestamp < deadline */\n      lt\n        /* \"Campaign.sol\":1994:2063  require(block.timestamp < deadline, \"Campaing has already finished!\") */\n      tag_96\n      jumpi\n      mload(0x40)\n      0x08c379a000000000000000000000000000000000000000000000000000000000\n      dup2\n      mstore\n      0x04\n      add\n      tag_97\n      swap1\n      tag_98\n      jump\t// in\n    tag_97:\n      mload(0x40)\n      dup1\n      swap2\n      sub\n      swap1\n      revert\n    tag_96:\n        /* \"Campaign.sol\":2093:2112  minimumContribution */\n      sload(0x03)\n        /* \"Campaign.sol\":2081:2090  msg.value */\n      callvalue\n        /* \"Campaign.sol\":2081:2112  msg.value > minimumContribution */\n      gt\n        /* \"Campaign.sol\":2073:2146  require(msg.value > minimumContribution, \"Minimum Contribution not met!\") */\n      tag_99\n      jumpi\n      mload(0x40)\n      0x08c379a000000000000000000000000000000000000000000000000000000000\n      dup2\n      mstore\n      0x04\n      add\n      tag_100\n      swap1\n      tag_101\n      jump\t// in\n    tag_100:\n      mload(0x40)\n      dup1\n      swap2\n      sub\n      swap1\n      revert\n    tag_99:\n        /* \"Campaign.sol\":2186:2187  0 */\n      0x00\n        /* \"Campaign.sol\":2161:2170  approvers */\n      0x04\n        /* \"Campaign.sol\":2161:2182  approvers[msg.sender] */\n      0x00\n        /* \"Campaign.sol\":2171:2181  msg.sender */\n      caller\n        /* \"Campaign.sol\":2161:2182  approvers[msg.sender] */\n      0xffffffffffffffffffffffffffffffffffffffff\n      and\n      0xffffffffffffffffffffffffffffffffffffffff\n      and\n      dup2\n      mstore\n      0x20\n      add\n      swap1\n      dup2\n      mstore\n      0x20\n      add\n      0x00\n      keccak256\n      sload\n        /* \"Campaign.sol\":2161:2187  approvers[msg.sender] == 0 */\n      eq\n        /* \"Campaign.sol\":2157:2230  if (approvers[msg.sender] == 0) {... */\n      iszero\n      tag_102\n      jumpi\n        /* \"Campaign.sol\":2203:2217  approversCount */\n      0x05\n      0x00\n        /* \"Campaign.sol\":2203:2219  approversCount++ */\n      dup2\n      sload\n      dup1\n      swap3\n      swap2\n      swap1\n      tag_103\n      swap1\n      tag_104\n      jump\t// in\n    tag_103:\n      swap2\n      swap1\n      pop\n      sstore\n      pop\n        /* \"Campaign.sol\":2157:2230  if (approvers[msg.sender] == 0) {... */\n    tag_102:\n        /* \"Campaign.sol\":2264:2273  msg.value */\n      callvalue\n        /* \"Campaign.sol\":2239:2248  approvers */\n      0x04\n        /* \"Campaign.sol\":2239:2260  approvers[msg.sender] */\n      0x00\n        /* \"Campaign.sol\":2249:2259  msg.sender */\n      caller\n        /* \"Campaign.sol\":2239:2260  approvers[msg.sender] */\n      0xffffffffffffffffffffffffffffffffffffffff\n      and\n      0xffffffffffffffffffffffffffffffffffffffff\n      and\n      dup2\n      mstore\n      0x20\n      add\n      swap1\n      dup2\n      mstore\n      0x20\n      add\n      0x00\n      keccak256\n      0x00\n        /* \"Campaign.sol\":2239:2273  approvers[msg.sender] += msg.value */\n      dup3\n      dup3\n      sload\n      tag_105\n      swap2\n      swap1\n      tag_106\n      jump\t// in\n    tag_105:\n      swap3\n      pop\n      pop\n      dup2\n      swap1\n      sstore\n      pop\n        /* \"Campaign.sol\":2289:2327  ContributeEvent(msg.sender, msg.value) */\n      0x2daf61dec57a2c194e9e87958b1a40a5c236b5e8c6041655d664ddbd16c29320\n        /* \"Campaign.sol\":2305:2315  msg.sender */\n      caller\n        /* \"Campaign.sol\":2317:2326  msg.value */\n      callvalue\n        /* \"Campaign.sol\":2289:2327  ContributeEvent(msg.sender, msg.value) */\n      mload(0x40)\n      tag_107\n      swap3\n      swap2\n      swap1\n      tag_108\n      jump\t// in\n    tag_107:\n      mload(0x40)\n      dup1\n      swap2\n      sub\n      swap1\n      log1\n        /* \"Campaign.sol\":1947:2334  function contribute() public payable {... */\n      jump\t// out\n        /* \"Campaign.sol\":3570:4038  function finalizeRequest(uint _index) public restrictedToManager {... */\n    tag_30:\n        /* \"Campaign.sol\":1337:1344  manager */\n      0x02\n      0x00\n      swap1\n      sload\n      swap1\n      0x0100\n      exp\n      swap1\n      div\n      0xffffffffffffffffffffffffffffffffffffffff\n      and\n        /* \"Campaign.sol\":1323:1344  msg.sender == manager */\n      0xffffffffffffffffffffffffffffffffffffffff\n      and\n        /* \"Campaign.sol\":1323:1333  msg.sender */\n      caller\n        /* \"Campaign.sol\":1323:1344  msg.sender == manager */\n      0xffffffffffffffffffffffffffffffffffffffff\n      and\n      eq\n        /* \"Campaign.sol\":1315:1387  require(msg.sender == manager, \"Only manager can call to this funcion!\") */\n      tag_110\n      jumpi\n      mload(0x40)\n      0x08c379a000000000000000000000000000000000000000000000000000000000\n      dup2\n      mstore\n      0x04\n      add\n      tag_111\n      swap1\n      tag_112\n      jump\t// in\n    tag_111:\n      mload(0x40)\n      dup1\n      swap2\n      sub\n      swap1\n      revert\n    tag_110:\n        /* \"Campaign.sol\":3669:3673  goal */\n      sload(0x06)\n        /* \"Campaign.sol\":3653:3665  raisedAmount */\n      sload(0x08)\n        /* \"Campaign.sol\":3653:3673  raisedAmount >= goal */\n      lt\n      iszero\n        /* \"Campaign.sol\":3645:3674  require(raisedAmount >= goal) */\n      tag_114\n      jumpi\n      0x00\n      dup1\n      revert\n    tag_114:\n        /* \"Campaign.sol\":3684:3707  Request storage request */\n      0x00\n        /* \"Campaign.sol\":3710:3718  requests */\n      dup1\n        /* \"Campaign.sol\":3710:3726  requests[_index] */\n      0x00\n        /* \"Campaign.sol\":3719:3725  _index */\n      dup4\n        /* \"Campaign.sol\":3710:3726  requests[_index] */\n      dup2\n      mstore\n      0x20\n      add\n      swap1\n      dup2\n      mstore\n      0x20\n      add\n      0x00\n      keccak256\n        /* \"Campaign.sol\":3684:3726  Request storage request = requests[_index] */\n      swap1\n      pop\n        /* \"Campaign.sol\":3745:3752  request */\n      dup1\n        /* \"Campaign.sol\":3745:3761  request.complete */\n      0x03\n      add\n      0x14\n      swap1\n      sload\n      swap1\n      0x0100\n      exp\n      swap1\n      div\n      0xff\n      and\n        /* \"Campaign.sol\":3744:3761  !request.complete */\n      iszero\n        /* \"Campaign.sol\":3736:3805  require(!request.complete, \"The request has already been completed!\") */\n      tag_115\n      jumpi\n      mload(0x40)\n      0x08c379a000000000000000000000000000000000000000000000000000000000\n      dup2\n      mstore\n      0x04\n      add\n      tag_116\n      swap1\n      tag_117\n      jump\t// in\n    tag_116:\n      mload(0x40)\n      dup1\n      swap2\n      sub\n      swap1\n      revert\n    tag_115:\n        /* \"Campaign.sol\":3865:3866  2 */\n      0x02\n        /* \"Campaign.sol\":3848:3862  approversCount */\n      sload(0x05)\n        /* \"Campaign.sol\":3848:3866  approversCount / 2 */\n      tag_118\n      swap2\n      swap1\n      tag_119\n      jump\t// in\n    tag_118:\n        /* \"Campaign.sol\":3823:3830  request */\n      dup2\n        /* \"Campaign.sol\":3823:3844  request.approvalCount */\n      0x02\n      add\n      sload\n        /* \"Campaign.sol\":3823:3867  request.approvalCount > (approversCount / 2) */\n      gt\n        /* \"Campaign.sol\":3815:3868  require(request.approvalCount > (approversCount / 2)) */\n      tag_120\n      jumpi\n      0x00\n      dup1\n      revert\n    tag_120:\n        /* \"Campaign.sol\":3887:3894  request */\n      dup1\n        /* \"Campaign.sol\":3887:3904  request.recipient */\n      0x03\n      add\n      0x00\n      swap1\n      sload\n      swap1\n      0x0100\n      exp\n      swap1\n      div\n      0xffffffffffffffffffffffffffffffffffffffff\n      and\n        /* \"Campaign.sol\":3887:3913  request.recipient.transfer */\n      0xffffffffffffffffffffffffffffffffffffffff\n      and\n        /* \"Campaign.sol\":3887:3928  request.recipient.transfer(request.value) */\n      0x08fc\n        /* \"Campaign.sol\":3914:3921  request */\n      dup3\n        /* \"Campaign.sol\":3914:3927  request.value */\n      0x01\n      add\n      sload\n        /* \"Campaign.sol\":3887:3928  request.recipient.transfer(request.value) */\n      swap1\n      dup2\n      iszero\n      mul\n      swap1\n      mload(0x40)\n      0x00\n      mload(0x40)\n      dup1\n      dup4\n      sub\n      dup2\n      dup6\n      dup9\n      dup9\n      call\n      swap4\n      pop\n      pop\n      pop\n      pop\n      iszero\n      dup1\n      iszero\n      tag_122\n      jumpi\n      returndatasize\n      0x00\n      dup1\n      returndatacopy\n      revert(0x00, returndatasize)\n    tag_122:\n      pop\n        /* \"Campaign.sol\":3957:3961  true */\n      0x01\n        /* \"Campaign.sol\":3938:3945  request */\n      dup2\n        /* \"Campaign.sol\":3938:3954  request.complete */\n      0x03\n      add\n      0x14\n        /* \"Campaign.sol\":3938:3961  request.complete = true */\n      0x0100\n      exp\n      dup2\n      sload\n      dup2\n      0xff\n      mul\n      not\n      and\n      swap1\n      dup4\n      iszero\n      iszero\n      mul\n      or\n      swap1\n      sstore\n      pop\n        /* \"Campaign.sol\":3977:4031  FinalizeRequestEvent(request.recipient, request.value) */\n      0x2ae767896e987fd31514551c92e54dcd13f83142c6c581a4186921042af354ab\n        /* \"Campaign.sol\":3998:4005  request */\n      dup2\n        /* \"Campaign.sol\":3998:4015  request.recipient */\n      0x03\n      add\n      0x00\n      swap1\n      sload\n      swap1\n      0x0100\n      exp\n      swap1\n      div\n      0xffffffffffffffffffffffffffffffffffffffff\n      and\n        /* \"Campaign.sol\":4017:4024  request */\n      dup3\n        /* \"Campaign.sol\":4017:4030  request.value */\n      0x01\n      add\n      sload\n        /* \"Campaign.sol\":3977:4031  FinalizeRequestEvent(request.recipient, request.value) */\n      mload(0x40)\n      tag_123\n      swap3\n      swap2\n      swap1\n      tag_124\n      jump\t// in\n    tag_123:\n      mload(0x40)\n      dup1\n      swap2\n      sub\n      swap1\n      log1\n        /* \"Campaign.sol\":3635:4038  {... */\n      pop\n        /* \"Campaign.sol\":3570:4038  function finalizeRequest(uint _index) public restrictedToManager {... */\n      pop\n      jump\t// out\n        /* \"Campaign.sol\":882:923  mapping(address => uint) public approvers */\n    tag_35:\n      mstore(0x20, 0x04)\n      dup1\n      0x00\n      mstore\n      keccak256(0x00, 0x40)\n      0x00\n      swap2\n      pop\n      swap1\n      pop\n      sload\n      dup2\n      jump\t// out\n        /* \"Campaign.sol\":984:1004  uint public deadline */\n    tag_40:\n      sload(0x07)\n      dup2\n      jump\t// out\n        /* \"Campaign.sol\":4316:4406  function getRequestsCount() public view returns (uint) {... */\n    tag_44:\n        /* \"Campaign.sol\":4365:4369  uint */\n      0x00\n        /* \"Campaign.sol\":4388:4399  numRequests */\n      sload(0x01)\n        /* \"Campaign.sol\":4381:4399  return numRequests */\n      swap1\n      pop\n        /* \"Campaign.sol\":4316:4406  function getRequestsCount() public view returns (uint) {... */\n      swap1\n      jump\t// out\n        /* \"Campaign.sol\":962:978  uint public goal */\n    tag_48:\n      sload(0x06)\n      dup2\n      jump\t// out\n        /* \"Campaign.sol\":4044:4310  function getSummary() public view returns (... */\n    tag_52:\n        /* \"Campaign.sol\":4096:4100  uint */\n      0x00\n        /* \"Campaign.sol\":4102:4106  uint */\n      dup1\n        /* \"Campaign.sol\":4108:4112  uint */\n      0x00\n        /* \"Campaign.sol\":4114:4118  uint */\n      dup1\n        /* \"Campaign.sol\":4120:4127  address */\n      0x00\n        /* \"Campaign.sol\":4165:4184  minimumContribution */\n      sload(0x03)\n        /* \"Campaign.sol\":4198:4219  address(this).balance */\n      selfbalance\n        /* \"Campaign.sol\":4233:4244  numRequests */\n      sload(0x01)\n        /* \"Campaign.sol\":4258:4272  approversCount */\n      sload(0x05)\n        /* \"Campaign.sol\":4286:4293  manager */\n      0x02\n      0x00\n      swap1\n      sload\n      swap1\n      0x0100\n      exp\n      swap1\n      div\n      0xffffffffffffffffffffffffffffffffffffffff\n      and\n        /* \"Campaign.sol\":4144:4303  return (... */\n      swap5\n      pop\n      swap5\n      pop\n      swap5\n      pop\n      swap5\n      pop\n      swap5\n      pop\n        /* \"Campaign.sol\":4044:4310  function getSummary() public view returns (... */\n      swap1\n      swap2\n      swap3\n      swap4\n      swap5\n      jump\t// out\n        /* \"Campaign.sol\":817:839  address public manager */\n    tag_57:\n      0x02\n      0x00\n      swap1\n      sload\n      swap1\n      0x0100\n      exp\n      swap1\n      div\n      0xffffffffffffffffffffffffffffffffffffffff\n      and\n      dup2\n      jump\t// out\n        /* \"Campaign.sol\":741:781  mapping(uint => Request) public requests */\n    tag_63:\n      mstore(0x20, 0x00)\n      dup1\n      0x00\n      mstore\n      keccak256(0x00, 0x40)\n      0x00\n      swap2\n      pop\n      swap1\n      pop\n      dup1\n      0x00\n      add\n      dup1\n      sload\n      tag_127\n      swap1\n      tag_128\n      jump\t// in\n    tag_127:\n      dup1\n      0x1f\n      add\n      0x20\n      dup1\n      swap2\n      div\n      mul\n      0x20\n      add\n      mload(0x40)\n      swap1\n      dup2\n      add\n      0x40\n      mstore\n      dup1\n      swap3\n      swap2\n      swap1\n      dup2\n      dup2\n      mstore\n      0x20\n      add\n      dup3\n      dup1\n      sload\n      tag_129\n      swap1\n      tag_128\n      jump\t// in\n    tag_129:\n      dup1\n      iszero\n      tag_130\n      jumpi\n      dup1\n      0x1f\n      lt\n      tag_131\n      jumpi\n      0x0100\n      dup1\n      dup4\n      sload\n      div\n      mul\n      dup4\n      mstore\n      swap2\n      0x20\n      add\n      swap2\n      jump(tag_130)\n    tag_131:\n      dup3\n      add\n      swap2\n      swap1\n      0x00\n      mstore\n      keccak256(0x00, 0x20)\n      swap1\n    tag_132:\n      dup2\n      sload\n      dup2\n      mstore\n      swap1\n      0x01\n      add\n      swap1\n      0x20\n      add\n      dup1\n      dup4\n      gt\n      tag_132\n      jumpi\n      dup3\n      swap1\n      sub\n      0x1f\n      and\n      dup3\n      add\n      swap2\n    tag_130:\n      pop\n      pop\n      pop\n      pop\n      pop\n      swap1\n      dup1\n      0x01\n      add\n      sload\n      swap1\n      dup1\n      0x02\n      add\n      sload\n      swap1\n      dup1\n      0x03\n      add\n      0x00\n      swap1\n      sload\n      swap1\n      0x0100\n      exp\n      swap1\n      div\n      0xffffffffffffffffffffffffffffffffffffffff\n      and\n      swap1\n      dup1\n      0x03\n      add\n      0x14\n      swap1\n      sload\n      swap1\n      0x0100\n      exp\n      swap1\n      div\n      0xff\n      and\n      swap1\n      pop\n      dup6\n      jump\t// out\n        /* \"Campaign.sol\":929:955  uint public approversCount */\n    tag_68:\n      sload(0x05)\n      dup2\n      jump\t// out\n        /* \"Campaign.sol\":2637:3127  function createRequest(string memory _description, uint _value, address payable _recipient)... */\n    tag_74:\n        /* \"Campaign.sol\":1337:1344  manager */\n      0x02\n      0x00\n      swap1\n      sload\n      swap1\n      0x0100\n      exp\n      swap1\n      div\n      0xffffffffffffffffffffffffffffffffffffffff\n      and\n        /* \"Campaign.sol\":1323:1344  msg.sender == manager */\n      0xffffffffffffffffffffffffffffffffffffffff\n      and\n        /* \"Campaign.sol\":1323:1333  msg.sender */\n      caller\n        /* \"Campaign.sol\":1323:1344  msg.sender == manager */\n      0xffffffffffffffffffffffffffffffffffffffff\n      and\n      eq\n        /* \"Campaign.sol\":1315:1387  require(msg.sender == manager, \"Only manager can call to this funcion!\") */\n      tag_134\n      jumpi\n      mload(0x40)\n      0x08c379a000000000000000000000000000000000000000000000000000000000\n      dup2\n      mstore\n      0x04\n      add\n      tag_135\n      swap1\n      tag_112\n      jump\t// in\n    tag_135:\n      mload(0x40)\n      dup1\n      swap2\n      sub\n      swap1\n      revert\n    tag_134:\n        /* \"Campaign.sol\":2778:2804  Request storage newRequest */\n      0x00\n        /* \"Campaign.sol\":2807:2815  requests */\n      dup1\n        /* \"Campaign.sol\":2807:2828  requests[numRequests] */\n      0x00\n        /* \"Campaign.sol\":2816:2827  numRequests */\n      sload(0x01)\n        /* \"Campaign.sol\":2807:2828  requests[numRequests] */\n      dup2\n      mstore\n      0x20\n      add\n      swap1\n      dup2\n      mstore\n      0x20\n      add\n      0x00\n      keccak256\n        /* \"Campaign.sol\":2778:2828  Request storage newRequest = requests[numRequests] */\n      swap1\n      pop\n        /* \"Campaign.sol\":2838:2849  numRequests */\n      0x01\n      0x00\n        /* \"Campaign.sol\":2838:2851  numRequests++ */\n      dup2\n      sload\n      dup1\n      swap3\n      swap2\n      swap1\n      tag_137\n      swap1\n      tag_104\n      jump\t// in\n    tag_137:\n      swap2\n      swap1\n      pop\n      sstore\n      pop\n        /* \"Campaign.sol\":2887:2899  _description */\n      dup4\n        /* \"Campaign.sol\":2862:2872  newRequest */\n      dup2\n        /* \"Campaign.sol\":2862:2884  newRequest.description */\n      0x00\n      add\n        /* \"Campaign.sol\":2862:2899  newRequest.description = _description */\n      swap1\n      dup1\n      mload\n      swap1\n      0x20\n      add\n      swap1\n      tag_138\n      swap3\n      swap2\n      swap1\n      tag_139\n      jump\t// in\n    tag_138:\n      pop\n        /* \"Campaign.sol\":2928:2934  _value */\n      dup3\n        /* \"Campaign.sol\":2909:2919  newRequest */\n      dup2\n        /* \"Campaign.sol\":2909:2925  newRequest.value */\n      0x01\n      add\n        /* \"Campaign.sol\":2909:2934  newRequest.value = _value */\n      dup2\n      swap1\n      sstore\n      pop\n        /* \"Campaign.sol\":2967:2977  _recipient */\n      dup2\n        /* \"Campaign.sol\":2944:2954  newRequest */\n      dup2\n        /* \"Campaign.sol\":2944:2964  newRequest.recipient */\n      0x03\n      add\n      0x00\n        /* \"Campaign.sol\":2944:2977  newRequest.recipient = _recipient */\n      0x0100\n      exp\n      dup2\n      sload\n      dup2\n      0xffffffffffffffffffffffffffffffffffffffff\n      mul\n      not\n      and\n      swap1\n      dup4\n      0xffffffffffffffffffffffffffffffffffffffff\n      and\n      mul\n      or\n      swap1\n      sstore\n      pop\n        /* \"Campaign.sol\":3009:3014  false */\n      0x00\n        /* \"Campaign.sol\":2987:2997  newRequest */\n      dup2\n        /* \"Campaign.sol\":2987:3006  newRequest.complete */\n      0x03\n      add\n      0x14\n        /* \"Campaign.sol\":2987:3014  newRequest.complete = false */\n      0x0100\n      exp\n      dup2\n      sload\n      dup2\n      0xff\n      mul\n      not\n      and\n      swap1\n      dup4\n      iszero\n      iszero\n      mul\n      or\n      swap1\n      sstore\n      pop\n        /* \"Campaign.sol\":3051:3052  0 */\n      0x00\n        /* \"Campaign.sol\":3024:3034  newRequest */\n      dup2\n        /* \"Campaign.sol\":3024:3048  newRequest.approvalCount */\n      0x02\n      add\n        /* \"Campaign.sol\":3024:3052  newRequest.approvalCount = 0 */\n      dup2\n      swap1\n      sstore\n      pop\n        /* \"Campaign.sol\":3068:3120  CreateRequestEvent(_description, _recipient, _value) */\n      0x5392bd80651676ccaaedec1afbe841d47e369223df0ba1586110b6426ee87a3a\n        /* \"Campaign.sol\":3087:3099  _description */\n      dup5\n        /* \"Campaign.sol\":3101:3111  _recipient */\n      dup4\n        /* \"Campaign.sol\":3113:3119  _value */\n      dup6\n        /* \"Campaign.sol\":3068:3120  CreateRequestEvent(_description, _recipient, _value) */\n      mload(0x40)\n      tag_140\n      swap4\n      swap3\n      swap2\n      swap1\n      tag_141\n      jump\t// in\n    tag_140:\n      mload(0x40)\n      dup1\n      swap2\n      sub\n      swap1\n      log1\n        /* \"Campaign.sol\":2768:3127  {... */\n      pop\n        /* \"Campaign.sol\":2637:3127  function createRequest(string memory _description, uint _value, address payable _recipient)... */\n      pop\n      pop\n      pop\n      jump\t// out\n        /* \"Campaign.sol\":845:876  uint public minimumContribution */\n    tag_77:\n      sload(0x03)\n      dup2\n      jump\t// out\n        /* \"Campaign.sol\":787:810  uint public numRequests */\n    tag_81:\n      sload(0x01)\n      dup2\n      jump\t// out\n        /* \"Campaign.sol\":2387:2631  function getRefund() public {... */\n    tag_85:\n        /* \"Campaign.sol\":2451:2459  deadline */\n      sload(0x07)\n        /* \"Campaign.sol\":2433:2448  block.timestamp */\n      timestamp\n        /* \"Campaign.sol\":2433:2459  block.timestamp > deadline */\n      gt\n        /* \"Campaign.sol\":2433:2482  block.timestamp > deadline && raisedAmount < goal */\n      dup1\n      iszero\n      tag_143\n      jumpi\n      pop\n        /* \"Campaign.sol\":2478:2482  goal */\n      sload(0x06)\n        /* \"Campaign.sol\":2463:2475  raisedAmount */\n      sload(0x08)\n        /* \"Campaign.sol\":2463:2482  raisedAmount < goal */\n      lt\n        /* \"Campaign.sol\":2433:2482  block.timestamp > deadline && raisedAmount < goal */\n    tag_143:\n        /* \"Campaign.sol\":2425:2483  require(block.timestamp > deadline && raisedAmount < goal) */\n      tag_144\n      jumpi\n      0x00\n      dup1\n      revert\n    tag_144:\n        /* \"Campaign.sol\":2525:2526  0 */\n      0x00\n        /* \"Campaign.sol\":2501:2510  approvers */\n      0x04\n        /* \"Campaign.sol\":2501:2522  approvers[msg.sender] */\n      0x00\n        /* \"Campaign.sol\":2511:2521  msg.sender */\n      caller\n        /* \"Campaign.sol\":2501:2522  approvers[msg.sender] */\n      0xffffffffffffffffffffffffffffffffffffffff\n      and\n      0xffffffffffffffffffffffffffffffffffffffff\n      and\n      dup2\n      mstore\n      0x20\n      add\n      swap1\n      dup2\n      mstore\n      0x20\n      add\n      0x00\n      keccak256\n      sload\n        /* \"Campaign.sol\":2501:2526  approvers[msg.sender] > 0 */\n      gt\n        /* \"Campaign.sol\":2493:2527  require(approvers[msg.sender] > 0) */\n      tag_145\n      jumpi\n      0x00\n      dup1\n      revert\n    tag_145:\n        /* \"Campaign.sol\":2546:2556  msg.sender */\n      caller\n        /* \"Campaign.sol\":2538:2566  payable(msg.sender).transfer */\n      0xffffffffffffffffffffffffffffffffffffffff\n      and\n        /* \"Campaign.sol\":2538:2589  payable(msg.sender).transfer(approvers[msg.sender]) */\n      0x08fc\n        /* \"Campaign.sol\":2567:2576  approvers */\n      0x04\n        /* \"Campaign.sol\":2567:2588  approvers[msg.sender] */\n      0x00\n        /* \"Campaign.sol\":2577:2587  msg.sender */\n      caller\n        /* \"Campaign.sol\":2567:2588  approvers[msg.sender] */\n      0xffffffffffffffffffffffffffffffffffffffff\n      and\n      0xffffffffffffffffffffffffffffffffffffffff\n      and\n      dup2\n      mstore\n      0x20\n      add\n      swap1\n      dup2\n      mstore\n      0x20\n      add\n      0x00\n      keccak256\n      sload\n        /* \"Campaign.sol\":2538:2589  payable(msg.sender).transfer(approvers[msg.sender]) */\n      swap1\n      dup2\n      iszero\n      mul\n      swap1\n      mload(0x40)\n      0x00\n      mload(0x40)\n      dup1\n      dup4\n      sub\n      dup2\n      dup6\n      dup9\n      dup9\n      call\n      swap4\n      pop\n      pop\n      pop\n      pop\n      iszero\n      dup1\n      iszero\n      tag_147\n      jumpi\n      returndatasize\n      0x00\n      dup1\n      returndatacopy\n      revert(0x00, returndatasize)\n    tag_147:\n      pop\n        /* \"Campaign.sol\":2623:2624  0 */\n      0x00\n        /* \"Campaign.sol\":2599:2608  approvers */\n      0x04\n        /* \"Campaign.sol\":2599:2620  approvers[msg.sender] */\n      0x00\n        /* \"Campaign.sol\":2609:2619  msg.sender */\n      caller\n        /* \"Campaign.sol\":2599:2620  approvers[msg.sender] */\n      0xffffffffffffffffffffffffffffffffffffffff\n      and\n      0xffffffffffffffffffffffffffffffffffffffff\n      and\n      dup2\n      mstore\n      0x20\n      add\n      swap1\n      dup2\n      mstore\n      0x20\n      add\n      0x00\n      keccak256\n        /* \"Campaign.sol\":2599:2624  approvers[msg.sender] = 0 */\n      dup2\n      swap1\n      sstore\n      pop\n        /* \"Campaign.sol\":2387:2631  function getRefund() public {... */\n      jump\t// out\n        /* \"Campaign.sol\":1022:1046  uint public raisedAmount */\n    tag_88:\n      sload(0x08)\n      dup2\n      jump\t// out\n        /* \"Campaign.sol\":3133:3517  function approveRequest(uint _index) public {... */\n    tag_94:\n        /* \"Campaign.sol\":3219:3220  0 */\n      0x00\n        /* \"Campaign.sol\":3195:3204  approvers */\n      0x04\n        /* \"Campaign.sol\":3195:3216  approvers[msg.sender] */\n      0x00\n        /* \"Campaign.sol\":3205:3215  msg.sender */\n      caller\n        /* \"Campaign.sol\":3195:3216  approvers[msg.sender] */\n      0xffffffffffffffffffffffffffffffffffffffff\n      and\n      0xffffffffffffffffffffffffffffffffffffffff\n      and\n      dup2\n      mstore\n      0x20\n      add\n      swap1\n      dup2\n      mstore\n      0x20\n      add\n      0x00\n      keccak256\n      sload\n        /* \"Campaign.sol\":3195:3220  approvers[msg.sender] > 0 */\n      gt\n        /* \"Campaign.sol\":3187:3272  require(approvers[msg.sender] > 0, \"You must be a contributor to approve a request!\") */\n      tag_149\n      jumpi\n      mload(0x40)\n      0x08c379a000000000000000000000000000000000000000000000000000000000\n      dup2\n      mstore\n      0x04\n      add\n      tag_150\n      swap1\n      tag_151\n      jump\t// in\n    tag_150:\n      mload(0x40)\n      dup1\n      swap2\n      sub\n      swap1\n      revert\n    tag_149:\n        /* \"Campaign.sol\":3282:3305  Request storage request */\n      0x00\n        /* \"Campaign.sol\":3308:3316  requests */\n      dup1\n        /* \"Campaign.sol\":3308:3324  requests[_index] */\n      0x00\n        /* \"Campaign.sol\":3317:3323  _index */\n      dup4\n        /* \"Campaign.sol\":3308:3324  requests[_index] */\n      dup2\n      mstore\n      0x20\n      add\n      swap1\n      dup2\n      mstore\n      0x20\n      add\n      0x00\n      keccak256\n        /* \"Campaign.sol\":3282:3324  Request storage request = requests[_index] */\n      swap1\n      pop\n        /* \"Campaign.sol\":3343:3350  request */\n      dup1\n        /* \"Campaign.sol\":3343:3367  request.requestApprovers */\n      0x04\n      add\n        /* \"Campaign.sol\":3343:3379  request.requestApprovers[msg.sender] */\n      0x00\n        /* \"Campaign.sol\":3368:3378  msg.sender */\n      caller\n        /* \"Campaign.sol\":3343:3379  request.requestApprovers[msg.sender] */\n      0xffffffffffffffffffffffffffffffffffffffff\n      and\n      0xffffffffffffffffffffffffffffffffffffffff\n      and\n      dup2\n      mstore\n      0x20\n      add\n      swap1\n      dup2\n      mstore\n      0x20\n      add\n      0x00\n      keccak256\n      0x00\n      swap1\n      sload\n      swap1\n      0x0100\n      exp\n      swap1\n      div\n      0xff\n      and\n        /* \"Campaign.sol\":3342:3379  !request.requestApprovers[msg.sender] */\n      iszero\n        /* \"Campaign.sol\":3334:3423  require(!request.requestApprovers[msg.sender], \"You have already approved this request!\") */\n      tag_152\n      jumpi\n      mload(0x40)\n      0x08c379a000000000000000000000000000000000000000000000000000000000\n      dup2\n      mstore\n      0x04\n      add\n      tag_153\n      swap1\n      tag_154\n      jump\t// in\n    tag_153:\n      mload(0x40)\n      dup1\n      swap2\n      sub\n      swap1\n      revert\n    tag_152:\n        /* \"Campaign.sol\":3473:3477  true */\n      0x01\n        /* \"Campaign.sol\":3434:3441  request */\n      dup2\n        /* \"Campaign.sol\":3434:3458  request.requestApprovers */\n      0x04\n      add\n        /* \"Campaign.sol\":3434:3470  request.requestApprovers[msg.sender] */\n      0x00\n        /* \"Campaign.sol\":3459:3469  msg.sender */\n      caller\n        /* \"Campaign.sol\":3434:3470  request.requestApprovers[msg.sender] */\n      0xffffffffffffffffffffffffffffffffffffffff\n      and\n      0xffffffffffffffffffffffffffffffffffffffff\n      and\n      dup2\n      mstore\n      0x20\n      add\n      swap1\n      dup2\n      mstore\n      0x20\n      add\n      0x00\n      keccak256\n      0x00\n        /* \"Campaign.sol\":3434:3477  request.requestApprovers[msg.sender] = true */\n      0x0100\n      exp\n      dup2\n      sload\n      dup2\n      0xff\n      mul\n      not\n      and\n      swap1\n      dup4\n      iszero\n      iszero\n      mul\n      or\n      swap1\n      sstore\n      pop\n        /* \"Campaign.sol\":3487:3494  request */\n      dup1\n        /* \"Campaign.sol\":3487:3508  request.approvalCount */\n      0x02\n      add\n      0x00\n        /* \"Campaign.sol\":3487:3510  request.approvalCount++ */\n      dup2\n      sload\n      dup1\n      swap3\n      swap2\n      swap1\n      tag_155\n      swap1\n      tag_104\n      jump\t// in\n    tag_155:\n      swap2\n      swap1\n      pop\n      sstore\n      pop\n        /* \"Campaign.sol\":3177:3517  {... */\n      pop\n        /* \"Campaign.sol\":3133:3517  function approveRequest(uint _index) public {... */\n      pop\n      jump\t// out\n    tag_139:\n      dup3\n      dup1\n      sload\n      tag_156\n      swap1\n      tag_128\n      jump\t// in\n    tag_156:\n      swap1\n      0x00\n      mstore\n      keccak256(0x00, 0x20)\n      swap1\n      0x1f\n      add\n      0x20\n      swap1\n      div\n      dup2\n      add\n      swap3\n      dup3\n      tag_158\n      jumpi\n      0x00\n      dup6\n      sstore\n      jump(tag_157)\n    tag_158:\n      dup3\n      0x1f\n      lt\n      tag_159\n      jumpi\n      dup1\n      mload\n      not(0xff)\n      and\n      dup4\n      dup1\n      add\n      or\n      dup6\n      sstore\n      jump(tag_157)\n    tag_159:\n      dup3\n      dup1\n      add\n      0x01\n      add\n      dup6\n      sstore\n      dup3\n      iszero\n      tag_157\n      jumpi\n      swap2\n      dup3\n      add\n    tag_160:\n      dup3\n      dup2\n      gt\n      iszero\n      tag_161\n      jumpi\n      dup3\n      mload\n      dup3\n      sstore\n      swap2\n      0x20\n      add\n      swap2\n      swap1\n      0x01\n      add\n      swap1\n      jump(tag_160)\n    tag_161:\n    tag_157:\n      pop\n      swap1\n      pop\n      tag_162\n      swap2\n      swap1\n      tag_163\n      jump\t// in\n    tag_162:\n      pop\n      swap1\n      jump\t// out\n    tag_163:\n    tag_164:\n      dup1\n      dup3\n      gt\n      iszero\n      tag_165\n      jumpi\n      0x00\n      dup2\n      0x00\n      swap1\n      sstore\n      pop\n      0x01\n      add\n      jump(tag_164)\n    tag_165:\n      pop\n      swap1\n      jump\t// out\n        /* \"#utility.yul\":7:82   */\n    tag_166:\n        /* \"#utility.yul\":40:46   */\n      0x00\n        /* \"#utility.yul\":73:75   */\n      0x40\n        /* \"#utility.yul\":67:76   */\n      mload\n        /* \"#utility.yul\":57:76   */\n      swap1\n      pop\n        /* \"#utility.yul\":7:82   */\n      swap1\n      jump\t// out\n        /* \"#utility.yul\":88:205   */\n    tag_167:\n        /* \"#utility.yul\":197:198   */\n      0x00\n        /* \"#utility.yul\":194:195   */\n      dup1\n        /* \"#utility.yul\":187:199   */\n      revert\n        /* \"#utility.yul\":211:328   */\n    tag_168:\n        /* \"#utility.yul\":320:321   */\n      0x00\n        /* \"#utility.yul\":317:318   */\n      dup1\n        /* \"#utility.yul\":310:322   */\n      revert\n        /* \"#utility.yul\":334:411   */\n    tag_169:\n        /* \"#utility.yul\":371:378   */\n      0x00\n        /* \"#utility.yul\":400:405   */\n      dup2\n        /* \"#utility.yul\":389:405   */\n      swap1\n      pop\n        /* \"#utility.yul\":334:411   */\n      swap2\n      swap1\n      pop\n      jump\t// out\n        /* \"#utility.yul\":417:539   */\n    tag_170:\n        /* \"#utility.yul\":490:514   */\n      tag_224\n        /* \"#utility.yul\":508:513   */\n      dup2\n        /* \"#utility.yul\":490:514   */\n      tag_169\n      jump\t// in\n    tag_224:\n        /* \"#utility.yul\":483:488   */\n      dup2\n        /* \"#utility.yul\":480:515   */\n      eq\n        /* \"#utility.yul\":470:533   */\n      tag_225\n      jumpi\n        /* \"#utility.yul\":529:530   */\n      0x00\n        /* \"#utility.yul\":526:527   */\n      dup1\n        /* \"#utility.yul\":519:531   */\n      revert\n        /* \"#utility.yul\":470:533   */\n    tag_225:\n        /* \"#utility.yul\":417:539   */\n      pop\n      jump\t// out\n        /* \"#utility.yul\":545:684   */\n    tag_171:\n        /* \"#utility.yul\":591:596   */\n      0x00\n        /* \"#utility.yul\":629:635   */\n      dup2\n        /* \"#utility.yul\":616:636   */\n      calldataload\n        /* \"#utility.yul\":607:636   */\n      swap1\n      pop\n        /* \"#utility.yul\":645:678   */\n      tag_227\n        /* \"#utility.yul\":672:677   */\n      dup2\n        /* \"#utility.yul\":645:678   */\n      tag_170\n      jump\t// in\n    tag_227:\n        /* \"#utility.yul\":545:684   */\n      swap3\n      swap2\n      pop\n      pop\n      jump\t// out\n        /* \"#utility.yul\":690:1019   */\n    tag_29:\n        /* \"#utility.yul\":749:755   */\n      0x00\n        /* \"#utility.yul\":798:800   */\n      0x20\n        /* \"#utility.yul\":786:795   */\n      dup3\n        /* \"#utility.yul\":777:784   */\n      dup5\n        /* \"#utility.yul\":773:796   */\n      sub\n        /* \"#utility.yul\":769:801   */\n      slt\n        /* \"#utility.yul\":766:885   */\n      iszero\n      tag_229\n      jumpi\n        /* \"#utility.yul\":804:883   */\n      tag_230\n      tag_167\n      jump\t// in\n    tag_230:\n        /* \"#utility.yul\":766:885   */\n    tag_229:\n        /* \"#utility.yul\":924:925   */\n      0x00\n        /* \"#utility.yul\":949:1002   */\n      tag_231\n        /* \"#utility.yul\":994:1001   */\n      dup5\n        /* \"#utility.yul\":985:991   */\n      dup3\n        /* \"#utility.yul\":974:983   */\n      dup6\n        /* \"#utility.yul\":970:992   */\n      add\n        /* \"#utility.yul\":949:1002   */\n      tag_171\n      jump\t// in\n    tag_231:\n        /* \"#utility.yul\":939:1002   */\n      swap2\n      pop\n        /* \"#utility.yul\":895:1012   */\n      pop\n        /* \"#utility.yul\":690:1019   */\n      swap3\n      swap2\n      pop\n      pop\n      jump\t// out\n        /* \"#utility.yul\":1025:1151   */\n    tag_172:\n        /* \"#utility.yul\":1062:1069   */\n      0x00\n        /* \"#utility.yul\":1102:1144   */\n      0xffffffffffffffffffffffffffffffffffffffff\n        /* \"#utility.yul\":1095:1100   */\n      dup3\n        /* \"#utility.yul\":1091:1145   */\n      and\n        /* \"#utility.yul\":1080:1145   */\n      swap1\n      pop\n        /* \"#utility.yul\":1025:1151   */\n      swap2\n      swap1\n      pop\n      jump\t// out\n        /* \"#utility.yul\":1157:1253   */\n    tag_173:\n        /* \"#utility.yul\":1194:1201   */\n      0x00\n        /* \"#utility.yul\":1223:1247   */\n      tag_234\n        /* \"#utility.yul\":1241:1246   */\n      dup3\n        /* \"#utility.yul\":1223:1247   */\n      tag_172\n      jump\t// in\n    tag_234:\n        /* \"#utility.yul\":1212:1247   */\n      swap1\n      pop\n        /* \"#utility.yul\":1157:1253   */\n      swap2\n      swap1\n      pop\n      jump\t// out\n        /* \"#utility.yul\":1259:1381   */\n    tag_174:\n        /* \"#utility.yul\":1332:1356   */\n      tag_236\n        /* \"#utility.yul\":1350:1355   */\n      dup2\n        /* \"#utility.yul\":1332:1356   */\n      tag_173\n      jump\t// in\n    tag_236:\n        /* \"#utility.yul\":1325:1330   */\n      dup2\n        /* \"#utility.yul\":1322:1357   */\n      eq\n        /* \"#utility.yul\":1312:1375   */\n      tag_237\n      jumpi\n        /* \"#utility.yul\":1371:1372   */\n      0x00\n        /* \"#utility.yul\":1368:1369   */\n      dup1\n        /* \"#utility.yul\":1361:1373   */\n      revert\n        /* \"#utility.yul\":1312:1375   */\n    tag_237:\n        /* \"#utility.yul\":1259:1381   */\n      pop\n      jump\t// out\n        /* \"#utility.yul\":1387:1526   */\n    tag_175:\n        /* \"#utility.yul\":1433:1438   */\n      0x00\n        /* \"#utility.yul\":1471:1477   */\n      dup2\n        /* \"#utility.yul\":1458:1478   */\n      calldataload\n        /* \"#utility.yul\":1449:1478   */\n      swap1\n      pop\n        /* \"#utility.yul\":1487:1520   */\n      tag_239\n        /* \"#utility.yul\":1514:1519   */\n      dup2\n        /* \"#utility.yul\":1487:1520   */\n      tag_174\n      jump\t// in\n    tag_239:\n        /* \"#utility.yul\":1387:1526   */\n      swap3\n      swap2\n      pop\n      pop\n      jump\t// out\n        /* \"#utility.yul\":1532:1861   */\n    tag_34:\n        /* \"#utility.yul\":1591:1597   */\n      0x00\n        /* \"#utility.yul\":1640:1642   */\n      0x20\n        /* \"#utility.yul\":1628:1637   */\n      dup3\n        /* \"#utility.yul\":1619:1626   */\n      dup5\n        /* \"#utility.yul\":1615:1638   */\n      sub\n        /* \"#utility.yul\":1611:1643   */\n      slt\n        /* \"#utility.yul\":1608:1727   */\n      iszero\n      tag_241\n      jumpi\n        /* \"#utility.yul\":1646:1725   */\n      tag_242\n      tag_167\n      jump\t// in\n    tag_242:\n        /* \"#utility.yul\":1608:1727   */\n    tag_241:\n        /* \"#utility.yul\":1766:1767   */\n      0x00\n        /* \"#utility.yul\":1791:1844   */\n      tag_243\n        /* \"#utility.yul\":1836:1843   */\n      dup5\n        /* \"#utility.yul\":1827:1833   */\n      dup3\n        /* \"#utility.yul\":1816:1825   */\n      dup6\n        /* \"#utility.yul\":1812:1834   */\n      add\n        /* \"#utility.yul\":1791:1844   */\n      tag_175\n      jump\t// in\n    tag_243:\n        /* \"#utility.yul\":1781:1844   */\n      swap2\n      pop\n        /* \"#utility.yul\":1737:1854   */\n      pop\n        /* \"#utility.yul\":1532:1861   */\n      swap3\n      swap2\n      pop\n      pop\n      jump\t// out\n        /* \"#utility.yul\":1867:1985   */\n    tag_176:\n        /* \"#utility.yul\":1954:1978   */\n      tag_245\n        /* \"#utility.yul\":1972:1977   */\n      dup2\n        /* \"#utility.yul\":1954:1978   */\n      tag_169\n      jump\t// in\n    tag_245:\n        /* \"#utility.yul\":1949:1952   */\n      dup3\n        /* \"#utility.yul\":1942:1979   */\n      mstore\n        /* \"#utility.yul\":1867:1985   */\n      pop\n      pop\n      jump\t// out\n        /* \"#utility.yul\":1991:2213   */\n    tag_37:\n        /* \"#utility.yul\":2084:2088   */\n      0x00\n        /* \"#utility.yul\":2122:2124   */\n      0x20\n        /* \"#utility.yul\":2111:2120   */\n      dup3\n        /* \"#utility.yul\":2107:2125   */\n      add\n        /* \"#utility.yul\":2099:2125   */\n      swap1\n      pop\n        /* \"#utility.yul\":2135:2206   */\n      tag_247\n        /* \"#utility.yul\":2203:2204   */\n      0x00\n        /* \"#utility.yul\":2192:2201   */\n      dup4\n        /* \"#utility.yul\":2188:2205   */\n      add\n        /* \"#utility.yul\":2179:2185   */\n      dup5\n        /* \"#utility.yul\":2135:2206   */\n      tag_176\n      jump\t// in\n    tag_247:\n        /* \"#utility.yul\":1991:2213   */\n      swap3\n      swap2\n      pop\n      pop\n      jump\t// out\n        /* \"#utility.yul\":2219:2337   */\n    tag_177:\n        /* \"#utility.yul\":2306:2330   */\n      tag_249\n        /* \"#utility.yul\":2324:2329   */\n      dup2\n        /* \"#utility.yul\":2306:2330   */\n      tag_173\n      jump\t// in\n    tag_249:\n        /* \"#utility.yul\":2301:2304   */\n      dup3\n        /* \"#utility.yul\":2294:2331   */\n      mstore\n        /* \"#utility.yul\":2219:2337   */\n      pop\n      pop\n      jump\t// out\n        /* \"#utility.yul\":2343:3007   */\n    tag_54:\n        /* \"#utility.yul\":2548:2552   */\n      0x00\n        /* \"#utility.yul\":2586:2589   */\n      0xa0\n        /* \"#utility.yul\":2575:2584   */\n      dup3\n        /* \"#utility.yul\":2571:2590   */\n      add\n        /* \"#utility.yul\":2563:2590   */\n      swap1\n      pop\n        /* \"#utility.yul\":2600:2671   */\n      tag_251\n        /* \"#utility.yul\":2668:2669   */\n      0x00\n        /* \"#utility.yul\":2657:2666   */\n      dup4\n        /* \"#utility.yul\":2653:2670   */\n      add\n        /* \"#utility.yul\":2644:2650   */\n      dup9\n        /* \"#utility.yul\":2600:2671   */\n      tag_176\n      jump\t// in\n    tag_251:\n        /* \"#utility.yul\":2681:2753   */\n      tag_252\n        /* \"#utility.yul\":2749:2751   */\n      0x20\n        /* \"#utility.yul\":2738:2747   */\n      dup4\n        /* \"#utility.yul\":2734:2752   */\n      add\n        /* \"#utility.yul\":2725:2731   */\n      dup8\n        /* \"#utility.yul\":2681:2753   */\n      tag_176\n      jump\t// in\n    tag_252:\n        /* \"#utility.yul\":2763:2835   */\n      tag_253\n        /* \"#utility.yul\":2831:2833   */\n      0x40\n        /* \"#utility.yul\":2820:2829   */\n      dup4\n        /* \"#utility.yul\":2816:2834   */\n      add\n        /* \"#utility.yul\":2807:2813   */\n      dup7\n        /* \"#utility.yul\":2763:2835   */\n      tag_176\n      jump\t// in\n    tag_253:\n        /* \"#utility.yul\":2845:2917   */\n      tag_254\n        /* \"#utility.yul\":2913:2915   */\n      0x60\n        /* \"#utility.yul\":2902:2911   */\n      dup4\n        /* \"#utility.yul\":2898:2916   */\n      add\n        /* \"#utility.yul\":2889:2895   */\n      dup6\n        /* \"#utility.yul\":2845:2917   */\n      tag_176\n      jump\t// in\n    tag_254:\n        /* \"#utility.yul\":2927:3000   */\n      tag_255\n        /* \"#utility.yul\":2995:2998   */\n      0x80\n        /* \"#utility.yul\":2984:2993   */\n      dup4\n        /* \"#utility.yul\":2980:2999   */\n      add\n        /* \"#utility.yul\":2971:2977   */\n      dup5\n        /* \"#utility.yul\":2927:3000   */\n      tag_177\n      jump\t// in\n    tag_255:\n        /* \"#utility.yul\":2343:3007   */\n      swap7\n      swap6\n      pop\n      pop\n      pop\n      pop\n      pop\n      pop\n      jump\t// out\n        /* \"#utility.yul\":3013:3235   */\n    tag_59:\n        /* \"#utility.yul\":3106:3110   */\n      0x00\n        /* \"#utility.yul\":3144:3146   */\n      0x20\n        /* \"#utility.yul\":3133:3142   */\n      dup3\n        /* \"#utility.yul\":3129:3147   */\n      add\n        /* \"#utility.yul\":3121:3147   */\n      swap1\n      pop\n        /* \"#utility.yul\":3157:3228   */\n      tag_257\n        /* \"#utility.yul\":3225:3226   */\n      0x00\n        /* \"#utility.yul\":3214:3223   */\n      dup4\n        /* \"#utility.yul\":3210:3227   */\n      add\n        /* \"#utility.yul\":3201:3207   */\n      dup5\n        /* \"#utility.yul\":3157:3228   */\n      tag_177\n      jump\t// in\n    tag_257:\n        /* \"#utility.yul\":3013:3235   */\n      swap3\n      swap2\n      pop\n      pop\n      jump\t// out\n        /* \"#utility.yul\":3241:3340   */\n    tag_178:\n        /* \"#utility.yul\":3293:3299   */\n      0x00\n        /* \"#utility.yul\":3327:3332   */\n      dup2\n        /* \"#utility.yul\":3321:3333   */\n      mload\n        /* \"#utility.yul\":3311:3333   */\n      swap1\n      pop\n        /* \"#utility.yul\":3241:3340   */\n      swap2\n      swap1\n      pop\n      jump\t// out\n        /* \"#utility.yul\":3346:3515   */\n    tag_179:\n        /* \"#utility.yul\":3430:3441   */\n      0x00\n        /* \"#utility.yul\":3464:3470   */\n      dup3\n        /* \"#utility.yul\":3459:3462   */\n      dup3\n        /* \"#utility.yul\":3452:3471   */\n      mstore\n        /* \"#utility.yul\":3504:3508   */\n      0x20\n        /* \"#utility.yul\":3499:3502   */\n      dup3\n        /* \"#utility.yul\":3495:3509   */\n      add\n        /* \"#utility.yul\":3480:3509   */\n      swap1\n      pop\n        /* \"#utility.yul\":3346:3515   */\n      swap3\n      swap2\n      pop\n      pop\n      jump\t// out\n        /* \"#utility.yul\":3521:3828   */\n    tag_180:\n        /* \"#utility.yul\":3589:3590   */\n      0x00\n        /* \"#utility.yul\":3599:3712   */\n    tag_261:\n        /* \"#utility.yul\":3613:3619   */\n      dup4\n        /* \"#utility.yul\":3610:3611   */\n      dup2\n        /* \"#utility.yul\":3607:3620   */\n      lt\n        /* \"#utility.yul\":3599:3712   */\n      iszero\n      tag_263\n      jumpi\n        /* \"#utility.yul\":3698:3699   */\n      dup1\n        /* \"#utility.yul\":3693:3696   */\n      dup3\n        /* \"#utility.yul\":3689:3700   */\n      add\n        /* \"#utility.yul\":3683:3701   */\n      mload\n        /* \"#utility.yul\":3679:3680   */\n      dup2\n        /* \"#utility.yul\":3674:3677   */\n      dup5\n        /* \"#utility.yul\":3670:3681   */\n      add\n        /* \"#utility.yul\":3663:3702   */\n      mstore\n        /* \"#utility.yul\":3635:3637   */\n      0x20\n        /* \"#utility.yul\":3632:3633   */\n      dup2\n        /* \"#utility.yul\":3628:3638   */\n      add\n        /* \"#utility.yul\":3623:3638   */\n      swap1\n      pop\n        /* \"#utility.yul\":3599:3712   */\n      jump(tag_261)\n    tag_263:\n        /* \"#utility.yul\":3730:3736   */\n      dup4\n        /* \"#utility.yul\":3727:3728   */\n      dup2\n        /* \"#utility.yul\":3724:3737   */\n      gt\n        /* \"#utility.yul\":3721:3822   */\n      iszero\n      tag_264\n      jumpi\n        /* \"#utility.yul\":3810:3811   */\n      0x00\n        /* \"#utility.yul\":3801:3807   */\n      dup5\n        /* \"#utility.yul\":3796:3799   */\n      dup5\n        /* \"#utility.yul\":3792:3808   */\n      add\n        /* \"#utility.yul\":3785:3812   */\n      mstore\n        /* \"#utility.yul\":3721:3822   */\n    tag_264:\n        /* \"#utility.yul\":3570:3828   */\n      pop\n        /* \"#utility.yul\":3521:3828   */\n      pop\n      pop\n      pop\n      jump\t// out\n        /* \"#utility.yul\":3834:3936   */\n    tag_181:\n        /* \"#utility.yul\":3875:3881   */\n      0x00\n        /* \"#utility.yul\":3926:3928   */\n      0x1f\n        /* \"#utility.yul\":3922:3929   */\n      not\n        /* \"#utility.yul\":3917:3919   */\n      0x1f\n        /* \"#utility.yul\":3910:3915   */\n      dup4\n        /* \"#utility.yul\":3906:3920   */\n      add\n        /* \"#utility.yul\":3902:3930   */\n      and\n        /* \"#utility.yul\":3892:3930   */\n      swap1\n      pop\n        /* \"#utility.yul\":3834:3936   */\n      swap2\n      swap1\n      pop\n      jump\t// out\n        /* \"#utility.yul\":3942:4306   */\n    tag_182:\n        /* \"#utility.yul\":4030:4033   */\n      0x00\n        /* \"#utility.yul\":4058:4097   */\n      tag_267\n        /* \"#utility.yul\":4091:4096   */\n      dup3\n        /* \"#utility.yul\":4058:4097   */\n      tag_178\n      jump\t// in\n    tag_267:\n        /* \"#utility.yul\":4113:4184   */\n      tag_268\n        /* \"#utility.yul\":4177:4183   */\n      dup2\n        /* \"#utility.yul\":4172:4175   */\n      dup6\n        /* \"#utility.yul\":4113:4184   */\n      tag_179\n      jump\t// in\n    tag_268:\n        /* \"#utility.yul\":4106:4184   */\n      swap4\n      pop\n        /* \"#utility.yul\":4193:4245   */\n      tag_269\n        /* \"#utility.yul\":4238:4244   */\n      dup2\n        /* \"#utility.yul\":4233:4236   */\n      dup6\n        /* \"#utility.yul\":4226:4230   */\n      0x20\n        /* \"#utility.yul\":4219:4224   */\n      dup7\n        /* \"#utility.yul\":4215:4231   */\n      add\n        /* \"#utility.yul\":4193:4245   */\n      tag_180\n      jump\t// in\n    tag_269:\n        /* \"#utility.yul\":4270:4299   */\n      tag_270\n        /* \"#utility.yul\":4292:4298   */\n      dup2\n        /* \"#utility.yul\":4270:4299   */\n      tag_181\n      jump\t// in\n    tag_270:\n        /* \"#utility.yul\":4265:4268   */\n      dup5\n        /* \"#utility.yul\":4261:4300   */\n      add\n        /* \"#utility.yul\":4254:4300   */\n      swap2\n      pop\n        /* \"#utility.yul\":4034:4306   */\n      pop\n        /* \"#utility.yul\":3942:4306   */\n      swap3\n      swap2\n      pop\n      pop\n      jump\t// out\n        /* \"#utility.yul\":4312:4416   */\n    tag_183:\n        /* \"#utility.yul\":4357:4364   */\n      0x00\n        /* \"#utility.yul\":4386:4410   */\n      tag_272\n        /* \"#utility.yul\":4404:4409   */\n      dup3\n        /* \"#utility.yul\":4386:4410   */\n      tag_172\n      jump\t// in\n    tag_272:\n        /* \"#utility.yul\":4375:4410   */\n      swap1\n      pop\n        /* \"#utility.yul\":4312:4416   */\n      swap2\n      swap1\n      pop\n      jump\t// out\n        /* \"#utility.yul\":4422:4564   */\n    tag_184:\n        /* \"#utility.yul\":4525:4557   */\n      tag_274\n        /* \"#utility.yul\":4551:4556   */\n      dup2\n        /* \"#utility.yul\":4525:4557   */\n      tag_183\n      jump\t// in\n    tag_274:\n        /* \"#utility.yul\":4520:4523   */\n      dup3\n        /* \"#utility.yul\":4513:4558   */\n      mstore\n        /* \"#utility.yul\":4422:4564   */\n      pop\n      pop\n      jump\t// out\n        /* \"#utility.yul\":4570:4660   */\n    tag_185:\n        /* \"#utility.yul\":4604:4611   */\n      0x00\n        /* \"#utility.yul\":4647:4652   */\n      dup2\n        /* \"#utility.yul\":4640:4653   */\n      iszero\n        /* \"#utility.yul\":4633:4654   */\n      iszero\n        /* \"#utility.yul\":4622:4654   */\n      swap1\n      pop\n        /* \"#utility.yul\":4570:4660   */\n      swap2\n      swap1\n      pop\n      jump\t// out\n        /* \"#utility.yul\":4666:4775   */\n    tag_186:\n        /* \"#utility.yul\":4747:4768   */\n      tag_277\n        /* \"#utility.yul\":4762:4767   */\n      dup2\n        /* \"#utility.yul\":4747:4768   */\n      tag_185\n      jump\t// in\n    tag_277:\n        /* \"#utility.yul\":4742:4745   */\n      dup3\n        /* \"#utility.yul\":4735:4769   */\n      mstore\n        /* \"#utility.yul\":4666:4775   */\n      pop\n      pop\n      jump\t// out\n        /* \"#utility.yul\":4781:5556   */\n    tag_65:\n        /* \"#utility.yul\":5016:5020   */\n      0x00\n        /* \"#utility.yul\":5054:5057   */\n      0xa0\n        /* \"#utility.yul\":5043:5052   */\n      dup3\n        /* \"#utility.yul\":5039:5058   */\n      add\n        /* \"#utility.yul\":5031:5058   */\n      swap1\n      pop\n        /* \"#utility.yul\":5104:5113   */\n      dup2\n        /* \"#utility.yul\":5098:5102   */\n      dup2\n        /* \"#utility.yul\":5094:5114   */\n      sub\n        /* \"#utility.yul\":5090:5091   */\n      0x00\n        /* \"#utility.yul\":5079:5088   */\n      dup4\n        /* \"#utility.yul\":5075:5092   */\n      add\n        /* \"#utility.yul\":5068:5115   */\n      mstore\n        /* \"#utility.yul\":5132:5210   */\n      tag_279\n        /* \"#utility.yul\":5205:5209   */\n      dup2\n        /* \"#utility.yul\":5196:5202   */\n      dup9\n        /* \"#utility.yul\":5132:5210   */\n      tag_182\n      jump\t// in\n    tag_279:\n        /* \"#utility.yul\":5124:5210   */\n      swap1\n      pop\n        /* \"#utility.yul\":5220:5292   */\n      tag_280\n        /* \"#utility.yul\":5288:5290   */\n      0x20\n        /* \"#utility.yul\":5277:5286   */\n      dup4\n        /* \"#utility.yul\":5273:5291   */\n      add\n        /* \"#utility.yul\":5264:5270   */\n      dup8\n        /* \"#utility.yul\":5220:5292   */\n      tag_176\n      jump\t// in\n    tag_280:\n        /* \"#utility.yul\":5302:5374   */\n      tag_281\n        /* \"#utility.yul\":5370:5372   */\n      0x40\n        /* \"#utility.yul\":5359:5368   */\n      dup4\n        /* \"#utility.yul\":5355:5373   */\n      add\n        /* \"#utility.yul\":5346:5352   */\n      dup7\n        /* \"#utility.yul\":5302:5374   */\n      tag_176\n      jump\t// in\n    tag_281:\n        /* \"#utility.yul\":5384:5472   */\n      tag_282\n        /* \"#utility.yul\":5468:5470   */\n      0x60\n        /* \"#utility.yul\":5457:5466   */\n      dup4\n        /* \"#utility.yul\":5453:5471   */\n      add\n        /* \"#utility.yul\":5444:5450   */\n      dup6\n        /* \"#utility.yul\":5384:5472   */\n      tag_184\n      jump\t// in\n    tag_282:\n        /* \"#utility.yul\":5482:5549   */\n      tag_283\n        /* \"#utility.yul\":5544:5547   */\n      0x80\n        /* \"#utility.yul\":5533:5542   */\n      dup4\n        /* \"#utility.yul\":5529:5548   */\n      add\n        /* \"#utility.yul\":5520:5526   */\n      dup5\n        /* \"#utility.yul\":5482:5549   */\n      tag_186\n      jump\t// in\n    tag_283:\n        /* \"#utility.yul\":4781:5556   */\n      swap7\n      swap6\n      pop\n      pop\n      pop\n      pop\n      pop\n      pop\n      jump\t// out\n        /* \"#utility.yul\":5562:5679   */\n    tag_187:\n        /* \"#utility.yul\":5671:5672   */\n      0x00\n        /* \"#utility.yul\":5668:5669   */\n      dup1\n        /* \"#utility.yul\":5661:5673   */\n      revert\n        /* \"#utility.yul\":5685:5802   */\n    tag_188:\n        /* \"#utility.yul\":5794:5795   */\n      0x00\n        /* \"#utility.yul\":5791:5792   */\n      dup1\n        /* \"#utility.yul\":5784:5796   */\n      revert\n        /* \"#utility.yul\":5808:5988   */\n    tag_189:\n        /* \"#utility.yul\":5856:5933   */\n      0x4e487b7100000000000000000000000000000000000000000000000000000000\n        /* \"#utility.yul\":5853:5854   */\n      0x00\n        /* \"#utility.yul\":5846:5934   */\n      mstore\n        /* \"#utility.yul\":5953:5957   */\n      0x41\n        /* \"#utility.yul\":5950:5951   */\n      0x04\n        /* \"#utility.yul\":5943:5958   */\n      mstore\n        /* \"#utility.yul\":5977:5981   */\n      0x24\n        /* \"#utility.yul\":5974:5975   */\n      0x00\n        /* \"#utility.yul\":5967:5982   */\n      revert\n        /* \"#utility.yul\":5994:6275   */\n    tag_190:\n        /* \"#utility.yul\":6077:6104   */\n      tag_288\n        /* \"#utility.yul\":6099:6103   */\n      dup3\n        /* \"#utility.yul\":6077:6104   */\n      tag_181\n      jump\t// in\n    tag_288:\n        /* \"#utility.yul\":6069:6075   */\n      dup2\n        /* \"#utility.yul\":6065:6105   */\n      add\n        /* \"#utility.yul\":6207:6213   */\n      dup2\n        /* \"#utility.yul\":6195:6205   */\n      dup2\n        /* \"#utility.yul\":6192:6214   */\n      lt\n        /* \"#utility.yul\":6171:6189   */\n      0xffffffffffffffff\n        /* \"#utility.yul\":6159:6169   */\n      dup3\n        /* \"#utility.yul\":6156:6190   */\n      gt\n        /* \"#utility.yul\":6153:6215   */\n      or\n        /* \"#utility.yul\":6150:6238   */\n      iszero\n      tag_289\n      jumpi\n        /* \"#utility.yul\":6218:6236   */\n      tag_290\n      tag_189\n      jump\t// in\n    tag_290:\n        /* \"#utility.yul\":6150:6238   */\n    tag_289:\n        /* \"#utility.yul\":6258:6268   */\n      dup1\n        /* \"#utility.yul\":6254:6256   */\n      0x40\n        /* \"#utility.yul\":6247:6269   */\n      mstore\n        /* \"#utility.yul\":6037:6275   */\n      pop\n        /* \"#utility.yul\":5994:6275   */\n      pop\n      pop\n      jump\t// out\n        /* \"#utility.yul\":6281:6410   */\n    tag_191:\n        /* \"#utility.yul\":6315:6321   */\n      0x00\n        /* \"#utility.yul\":6342:6362   */\n      tag_292\n      tag_166\n      jump\t// in\n    tag_292:\n        /* \"#utility.yul\":6332:6362   */\n      swap1\n      pop\n        /* \"#utility.yul\":6371:6404   */\n      tag_293\n        /* \"#utility.yul\":6399:6403   */\n      dup3\n        /* \"#utility.yul\":6391:6397   */\n      dup3\n        /* \"#utility.yul\":6371:6404   */\n      tag_190\n      jump\t// in\n    tag_293:\n        /* \"#utility.yul\":6281:6410   */\n      swap2\n      swap1\n      pop\n      jump\t// out\n        /* \"#utility.yul\":6416:6724   */\n    tag_192:\n        /* \"#utility.yul\":6478:6482   */\n      0x00\n        /* \"#utility.yul\":6568:6586   */\n      0xffffffffffffffff\n        /* \"#utility.yul\":6560:6566   */\n      dup3\n        /* \"#utility.yul\":6557:6587   */\n      gt\n        /* \"#utility.yul\":6554:6610   */\n      iszero\n      tag_295\n      jumpi\n        /* \"#utility.yul\":6590:6608   */\n      tag_296\n      tag_189\n      jump\t// in\n    tag_296:\n        /* \"#utility.yul\":6554:6610   */\n    tag_295:\n        /* \"#utility.yul\":6628:6657   */\n      tag_297\n        /* \"#utility.yul\":6650:6656   */\n      dup3\n        /* \"#utility.yul\":6628:6657   */\n      tag_181\n      jump\t// in\n    tag_297:\n        /* \"#utility.yul\":6620:6657   */\n      swap1\n      pop\n        /* \"#utility.yul\":6712:6716   */\n      0x20\n        /* \"#utility.yul\":6706:6710   */\n      dup2\n        /* \"#utility.yul\":6702:6717   */\n      add\n        /* \"#utility.yul\":6694:6717   */\n      swap1\n      pop\n        /* \"#utility.yul\":6416:6724   */\n      swap2\n      swap1\n      pop\n      jump\t// out\n        /* \"#utility.yul\":6730:6884   */\n    tag_193:\n        /* \"#utility.yul\":6814:6820   */\n      dup3\n        /* \"#utility.yul\":6809:6812   */\n      dup2\n        /* \"#utility.yul\":6804:6807   */\n      dup4\n        /* \"#utility.yul\":6791:6821   */\n      calldatacopy\n        /* \"#utility.yul\":6876:6877   */\n      0x00\n        /* \"#utility.yul\":6867:6873   */\n      dup4\n        /* \"#utility.yul\":6862:6865   */\n      dup4\n        /* \"#utility.yul\":6858:6874   */\n      add\n        /* \"#utility.yul\":6851:6878   */\n      mstore\n        /* \"#utility.yul\":6730:6884   */\n      pop\n      pop\n      pop\n      jump\t// out\n        /* \"#utility.yul\":6890:7302   */\n    tag_194:\n        /* \"#utility.yul\":6968:6973   */\n      0x00\n        /* \"#utility.yul\":6993:7059   */\n      tag_300\n        /* \"#utility.yul\":7009:7058   */\n      tag_301\n        /* \"#utility.yul\":7051:7057   */\n      dup5\n        /* \"#utility.yul\":7009:7058   */\n      tag_192\n      jump\t// in\n    tag_301:\n        /* \"#utility.yul\":6993:7059   */\n      tag_191\n      jump\t// in\n    tag_300:\n        /* \"#utility.yul\":6984:7059   */\n      swap1\n      pop\n        /* \"#utility.yul\":7082:7088   */\n      dup3\n        /* \"#utility.yul\":7075:7080   */\n      dup2\n        /* \"#utility.yul\":7068:7089   */\n      mstore\n        /* \"#utility.yul\":7120:7124   */\n      0x20\n        /* \"#utility.yul\":7113:7118   */\n      dup2\n        /* \"#utility.yul\":7109:7125   */\n      add\n        /* \"#utility.yul\":7158:7161   */\n      dup5\n        /* \"#utility.yul\":7149:7155   */\n      dup5\n        /* \"#utility.yul\":7144:7147   */\n      dup5\n        /* \"#utility.yul\":7140:7156   */\n      add\n        /* \"#utility.yul\":7137:7162   */\n      gt\n        /* \"#utility.yul\":7134:7246   */\n      iszero\n      tag_302\n      jumpi\n        /* \"#utility.yul\":7165:7244   */\n      tag_303\n      tag_188\n      jump\t// in\n    tag_303:\n        /* \"#utility.yul\":7134:7246   */\n    tag_302:\n        /* \"#utility.yul\":7255:7296   */\n      tag_304\n        /* \"#utility.yul\":7289:7295   */\n      dup5\n        /* \"#utility.yul\":7284:7287   */\n      dup3\n        /* \"#utility.yul\":7279:7282   */\n      dup6\n        /* \"#utility.yul\":7255:7296   */\n      tag_193\n      jump\t// in\n    tag_304:\n        /* \"#utility.yul\":6974:7302   */\n      pop\n        /* \"#utility.yul\":6890:7302   */\n      swap4\n      swap3\n      pop\n      pop\n      pop\n      jump\t// out\n        /* \"#utility.yul\":7322:7662   */\n    tag_195:\n        /* \"#utility.yul\":7378:7383   */\n      0x00\n        /* \"#utility.yul\":7427:7430   */\n      dup3\n        /* \"#utility.yul\":7420:7424   */\n      0x1f\n        /* \"#utility.yul\":7412:7418   */\n      dup4\n        /* \"#utility.yul\":7408:7425   */\n      add\n        /* \"#utility.yul\":7404:7431   */\n      slt\n        /* \"#utility.yul\":7394:7516   */\n      tag_306\n      jumpi\n        /* \"#utility.yul\":7435:7514   */\n      tag_307\n      tag_187\n      jump\t// in\n    tag_307:\n        /* \"#utility.yul\":7394:7516   */\n    tag_306:\n        /* \"#utility.yul\":7552:7558   */\n      dup2\n        /* \"#utility.yul\":7539:7559   */\n      calldataload\n        /* \"#utility.yul\":7577:7656   */\n      tag_308\n        /* \"#utility.yul\":7652:7655   */\n      dup5\n        /* \"#utility.yul\":7644:7650   */\n      dup3\n        /* \"#utility.yul\":7637:7641   */\n      0x20\n        /* \"#utility.yul\":7629:7635   */\n      dup7\n        /* \"#utility.yul\":7625:7642   */\n      add\n        /* \"#utility.yul\":7577:7656   */\n      tag_194\n      jump\t// in\n    tag_308:\n        /* \"#utility.yul\":7568:7656   */\n      swap2\n      pop\n        /* \"#utility.yul\":7384:7662   */\n      pop\n        /* \"#utility.yul\":7322:7662   */\n      swap3\n      swap2\n      pop\n      pop\n      jump\t// out\n        /* \"#utility.yul\":7668:7806   */\n    tag_196:\n        /* \"#utility.yul\":7749:7781   */\n      tag_310\n        /* \"#utility.yul\":7775:7780   */\n      dup2\n        /* \"#utility.yul\":7749:7781   */\n      tag_183\n      jump\t// in\n    tag_310:\n        /* \"#utility.yul\":7742:7747   */\n      dup2\n        /* \"#utility.yul\":7739:7782   */\n      eq\n        /* \"#utility.yul\":7729:7800   */\n      tag_311\n      jumpi\n        /* \"#utility.yul\":7796:7797   */\n      0x00\n        /* \"#utility.yul\":7793:7794   */\n      dup1\n        /* \"#utility.yul\":7786:7798   */\n      revert\n        /* \"#utility.yul\":7729:7800   */\n    tag_311:\n        /* \"#utility.yul\":7668:7806   */\n      pop\n      jump\t// out\n        /* \"#utility.yul\":7812:7967   */\n    tag_197:\n        /* \"#utility.yul\":7866:7871   */\n      0x00\n        /* \"#utility.yul\":7904:7910   */\n      dup2\n        /* \"#utility.yul\":7891:7911   */\n      calldataload\n        /* \"#utility.yul\":7882:7911   */\n      swap1\n      pop\n        /* \"#utility.yul\":7920:7961   */\n      tag_313\n        /* \"#utility.yul\":7955:7960   */\n      dup2\n        /* \"#utility.yul\":7920:7961   */\n      tag_196\n      jump\t// in\n    tag_313:\n        /* \"#utility.yul\":7812:7967   */\n      swap3\n      swap2\n      pop\n      pop\n      jump\t// out\n        /* \"#utility.yul\":7973:8788   */\n    tag_73:\n        /* \"#utility.yul\":8068:8074   */\n      0x00\n        /* \"#utility.yul\":8076:8082   */\n      dup1\n        /* \"#utility.yul\":8084:8090   */\n      0x00\n        /* \"#utility.yul\":8133:8135   */\n      0x60\n        /* \"#utility.yul\":8121:8130   */\n      dup5\n        /* \"#utility.yul\":8112:8119   */\n      dup7\n        /* \"#utility.yul\":8108:8131   */\n      sub\n        /* \"#utility.yul\":8104:8136   */\n      slt\n        /* \"#utility.yul\":8101:8220   */\n      iszero\n      tag_315\n      jumpi\n        /* \"#utility.yul\":8139:8218   */\n      tag_316\n      tag_167\n      jump\t// in\n    tag_316:\n        /* \"#utility.yul\":8101:8220   */\n    tag_315:\n        /* \"#utility.yul\":8287:8288   */\n      0x00\n        /* \"#utility.yul\":8276:8285   */\n      dup5\n        /* \"#utility.yul\":8272:8289   */\n      add\n        /* \"#utility.yul\":8259:8290   */\n      calldataload\n        /* \"#utility.yul\":8317:8335   */\n      0xffffffffffffffff\n        /* \"#utility.yul\":8309:8315   */\n      dup2\n        /* \"#utility.yul\":8306:8336   */\n      gt\n        /* \"#utility.yul\":8303:8420   */\n      iszero\n      tag_317\n      jumpi\n        /* \"#utility.yul\":8339:8418   */\n      tag_318\n      tag_168\n      jump\t// in\n    tag_318:\n        /* \"#utility.yul\":8303:8420   */\n    tag_317:\n        /* \"#utility.yul\":8444:8507   */\n      tag_319\n        /* \"#utility.yul\":8499:8506   */\n      dup7\n        /* \"#utility.yul\":8490:8496   */\n      dup3\n        /* \"#utility.yul\":8479:8488   */\n      dup8\n        /* \"#utility.yul\":8475:8497   */\n      add\n        /* \"#utility.yul\":8444:8507   */\n      tag_195\n      jump\t// in\n    tag_319:\n        /* \"#utility.yul\":8434:8507   */\n      swap4\n      pop\n        /* \"#utility.yul\":8230:8517   */\n      pop\n        /* \"#utility.yul\":8556:8558   */\n      0x20\n        /* \"#utility.yul\":8582:8635   */\n      tag_320\n        /* \"#utility.yul\":8627:8634   */\n      dup7\n        /* \"#utility.yul\":8618:8624   */\n      dup3\n        /* \"#utility.yul\":8607:8616   */\n      dup8\n        /* \"#utility.yul\":8603:8625   */\n      add\n        /* \"#utility.yul\":8582:8635   */\n      tag_171\n      jump\t// in\n    tag_320:\n        /* \"#utility.yul\":8572:8635   */\n      swap3\n      pop\n        /* \"#utility.yul\":8527:8645   */\n      pop\n        /* \"#utility.yul\":8684:8686   */\n      0x40\n        /* \"#utility.yul\":8710:8771   */\n      tag_321\n        /* \"#utility.yul\":8763:8770   */\n      dup7\n        /* \"#utility.yul\":8754:8760   */\n      dup3\n        /* \"#utility.yul\":8743:8752   */\n      dup8\n        /* \"#utility.yul\":8739:8761   */\n      add\n        /* \"#utility.yul\":8710:8771   */\n      tag_197\n      jump\t// in\n    tag_321:\n        /* \"#utility.yul\":8700:8771   */\n      swap2\n      pop\n        /* \"#utility.yul\":8655:8781   */\n      pop\n        /* \"#utility.yul\":7973:8788   */\n      swap3\n      pop\n      swap3\n      pop\n      swap3\n      jump\t// out\n        /* \"#utility.yul\":8794:8974   */\n    tag_198:\n        /* \"#utility.yul\":8934:8966   */\n      0x43616d7061696e672068617320616c72656164792066696e6973686564210000\n        /* \"#utility.yul\":8930:8931   */\n      0x00\n        /* \"#utility.yul\":8922:8928   */\n      dup3\n        /* \"#utility.yul\":8918:8932   */\n      add\n        /* \"#utility.yul\":8911:8967   */\n      mstore\n        /* \"#utility.yul\":8794:8974   */\n      pop\n      jump\t// out\n        /* \"#utility.yul\":8980:9346   */\n    tag_199:\n        /* \"#utility.yul\":9122:9125   */\n      0x00\n        /* \"#utility.yul\":9143:9210   */\n      tag_324\n        /* \"#utility.yul\":9207:9209   */\n      0x1e\n        /* \"#utility.yul\":9202:9205   */\n      dup4\n        /* \"#utility.yul\":9143:9210   */\n      tag_179\n      jump\t// in\n    tag_324:\n        /* \"#utility.yul\":9136:9210   */\n      swap2\n      pop\n        /* \"#utility.yul\":9219:9312   */\n      tag_325\n        /* \"#utility.yul\":9308:9311   */\n      dup3\n        /* \"#utility.yul\":9219:9312   */\n      tag_198\n      jump\t// in\n    tag_325:\n        /* \"#utility.yul\":9337:9339   */\n      0x20\n        /* \"#utility.yul\":9332:9335   */\n      dup3\n        /* \"#utility.yul\":9328:9340   */\n      add\n        /* \"#utility.yul\":9321:9340   */\n      swap1\n      pop\n        /* \"#utility.yul\":8980:9346   */\n      swap2\n      swap1\n      pop\n      jump\t// out\n        /* \"#utility.yul\":9352:9771   */\n    tag_98:\n        /* \"#utility.yul\":9518:9522   */\n      0x00\n        /* \"#utility.yul\":9556:9558   */\n      0x20\n        /* \"#utility.yul\":9545:9554   */\n      dup3\n        /* \"#utility.yul\":9541:9559   */\n      add\n        /* \"#utility.yul\":9533:9559   */\n      swap1\n      pop\n        /* \"#utility.yul\":9605:9614   */\n      dup2\n        /* \"#utility.yul\":9599:9603   */\n      dup2\n        /* \"#utility.yul\":9595:9615   */\n      sub\n        /* \"#utility.yul\":9591:9592   */\n      0x00\n        /* \"#utility.yul\":9580:9589   */\n      dup4\n        /* \"#utility.yul\":9576:9593   */\n      add\n        /* \"#utility.yul\":9569:9616   */\n      mstore\n        /* \"#utility.yul\":9633:9764   */\n      tag_327\n        /* \"#utility.yul\":9759:9763   */\n      dup2\n        /* \"#utility.yul\":9633:9764   */\n      tag_199\n      jump\t// in\n    tag_327:\n        /* \"#utility.yul\":9625:9764   */\n      swap1\n      pop\n        /* \"#utility.yul\":9352:9771   */\n      swap2\n      swap1\n      pop\n      jump\t// out\n        /* \"#utility.yul\":9777:9956   */\n    tag_200:\n        /* \"#utility.yul\":9917:9948   */\n      0x4d696e696d756d20436f6e747269627574696f6e206e6f74206d657421000000\n        /* \"#utility.yul\":9913:9914   */\n      0x00\n        /* \"#utility.yul\":9905:9911   */\n      dup3\n        /* \"#utility.yul\":9901:9915   */\n      add\n        /* \"#utility.yul\":9894:9949   */\n      mstore\n        /* \"#utility.yul\":9777:9956   */\n      pop\n      jump\t// out\n        /* \"#utility.yul\":9962:10328   */\n    tag_201:\n        /* \"#utility.yul\":10104:10107   */\n      0x00\n        /* \"#utility.yul\":10125:10192   */\n      tag_330\n        /* \"#utility.yul\":10189:10191   */\n      0x1d\n        /* \"#utility.yul\":10184:10187   */\n      dup4\n        /* \"#utility.yul\":10125:10192   */\n      tag_179\n      jump\t// in\n    tag_330:\n        /* \"#utility.yul\":10118:10192   */\n      swap2\n      pop\n        /* \"#utility.yul\":10201:10294   */\n      tag_331\n        /* \"#utility.yul\":10290:10293   */\n      dup3\n        /* \"#utility.yul\":10201:10294   */\n      tag_200\n      jump\t// in\n    tag_331:\n        /* \"#utility.yul\":10319:10321   */\n      0x20\n        /* \"#utility.yul\":10314:10317   */\n      dup3\n        /* \"#utility.yul\":10310:10322   */\n      add\n        /* \"#utility.yul\":10303:10322   */\n      swap1\n      pop\n        /* \"#utility.yul\":9962:10328   */\n      swap2\n      swap1\n      pop\n      jump\t// out\n        /* \"#utility.yul\":10334:10753   */\n    tag_101:\n        /* \"#utility.yul\":10500:10504   */\n      0x00\n        /* \"#utility.yul\":10538:10540   */\n      0x20\n        /* \"#utility.yul\":10527:10536   */\n      dup3\n        /* \"#utility.yul\":10523:10541   */\n      add\n        /* \"#utility.yul\":10515:10541   */\n      swap1\n      pop\n        /* \"#utility.yul\":10587:10596   */\n      dup2\n        /* \"#utility.yul\":10581:10585   */\n      dup2\n        /* \"#utility.yul\":10577:10597   */\n      sub\n        /* \"#utility.yul\":10573:10574   */\n      0x00\n        /* \"#utility.yul\":10562:10571   */\n      dup4\n        /* \"#utility.yul\":10558:10575   */\n      add\n        /* \"#utility.yul\":10551:10598   */\n      mstore\n        /* \"#utility.yul\":10615:10746   */\n      tag_333\n        /* \"#utility.yul\":10741:10745   */\n      dup2\n        /* \"#utility.yul\":10615:10746   */\n      tag_201\n      jump\t// in\n    tag_333:\n        /* \"#utility.yul\":10607:10746   */\n      swap1\n      pop\n        /* \"#utility.yul\":10334:10753   */\n      swap2\n      swap1\n      pop\n      jump\t// out\n        /* \"#utility.yul\":10759:10939   */\n    tag_202:\n        /* \"#utility.yul\":10807:10884   */\n      0x4e487b7100000000000000000000000000000000000000000000000000000000\n        /* \"#utility.yul\":10804:10805   */\n      0x00\n        /* \"#utility.yul\":10797:10885   */\n      mstore\n        /* \"#utility.yul\":10904:10908   */\n      0x11\n        /* \"#utility.yul\":10901:10902   */\n      0x04\n        /* \"#utility.yul\":10894:10909   */\n      mstore\n        /* \"#utility.yul\":10928:10932   */\n      0x24\n        /* \"#utility.yul\":10925:10926   */\n      0x00\n        /* \"#utility.yul\":10918:10933   */\n      revert\n        /* \"#utility.yul\":10945:11178   */\n    tag_104:\n        /* \"#utility.yul\":10984:10987   */\n      0x00\n        /* \"#utility.yul\":11007:11031   */\n      tag_336\n        /* \"#utility.yul\":11025:11030   */\n      dup3\n        /* \"#utility.yul\":11007:11031   */\n      tag_169\n      jump\t// in\n    tag_336:\n        /* \"#utility.yul\":10998:11031   */\n      swap2\n      pop\n        /* \"#utility.yul\":11053:11119   */\n      0xffffffffffffffffffffffffffffffffffffffffffffffffffffffffffffffff\n        /* \"#utility.yul\":11046:11051   */\n      dup3\n        /* \"#utility.yul\":11043:11120   */\n      eq\n        /* \"#utility.yul\":11040:11143   */\n      iszero\n      tag_337\n      jumpi\n        /* \"#utility.yul\":11123:11141   */\n      tag_338\n      tag_202\n      jump\t// in\n    tag_338:\n        /* \"#utility.yul\":11040:11143   */\n    tag_337:\n        /* \"#utility.yul\":11170:11171   */\n      0x01\n        /* \"#utility.yul\":11163:11168   */\n      dup3\n        /* \"#utility.yul\":11159:11172   */\n      add\n        /* \"#utility.yul\":11152:11172   */\n      swap1\n      pop\n        /* \"#utility.yul\":10945:11178   */\n      swap2\n      swap1\n      pop\n      jump\t// out\n        /* \"#utility.yul\":11184:11489   */\n    tag_106:\n        /* \"#utility.yul\":11224:11227   */\n      0x00\n        /* \"#utility.yul\":11243:11263   */\n      tag_340\n        /* \"#utility.yul\":11261:11262   */\n      dup3\n        /* \"#utility.yul\":11243:11263   */\n      tag_169\n      jump\t// in\n    tag_340:\n        /* \"#utility.yul\":11238:11263   */\n      swap2\n      pop\n        /* \"#utility.yul\":11277:11297   */\n      tag_341\n        /* \"#utility.yul\":11295:11296   */\n      dup4\n        /* \"#utility.yul\":11277:11297   */\n      tag_169\n      jump\t// in\n    tag_341:\n        /* \"#utility.yul\":11272:11297   */\n      swap3\n      pop\n        /* \"#utility.yul\":11431:11432   */\n      dup3\n        /* \"#utility.yul\":11363:11429   */\n      0xffffffffffffffffffffffffffffffffffffffffffffffffffffffffffffffff\n        /* \"#utility.yul\":11359:11433   */\n      sub\n        /* \"#utility.yul\":11356:11357   */\n      dup3\n        /* \"#utility.yul\":11353:11434   */\n      gt\n        /* \"#utility.yul\":11350:11457   */\n      iszero\n      tag_342\n      jumpi\n        /* \"#utility.yul\":11437:11455   */\n      tag_343\n      tag_202\n      jump\t// in\n    tag_343:\n        /* \"#utility.yul\":11350:11457   */\n    tag_342:\n        /* \"#utility.yul\":11481:11482   */\n      dup3\n        /* \"#utility.yul\":11478:11479   */\n      dup3\n        /* \"#utility.yul\":11474:11483   */\n      add\n        /* \"#utility.yul\":11467:11483   */\n      swap1\n      pop\n        /* \"#utility.yul\":11184:11489   */\n      swap3\n      swap2\n      pop\n      pop\n      jump\t// out\n        /* \"#utility.yul\":11495:11827   */\n    tag_108:\n        /* \"#utility.yul\":11616:11620   */\n      0x00\n        /* \"#utility.yul\":11654:11656   */\n      0x40\n        /* \"#utility.yul\":11643:11652   */\n      dup3\n        /* \"#utility.yul\":11639:11657   */\n      add\n        /* \"#utility.yul\":11631:11657   */\n      swap1\n      pop\n        /* \"#utility.yul\":11667:11738   */\n      tag_345\n        /* \"#utility.yul\":11735:11736   */\n      0x00\n        /* \"#utility.yul\":11724:11733   */\n      dup4\n        /* \"#utility.yul\":11720:11737   */\n      add\n        /* \"#utility.yul\":11711:11717   */\n      dup6\n        /* \"#utility.yul\":11667:11738   */\n      tag_177\n      jump\t// in\n    tag_345:\n        /* \"#utility.yul\":11748:11820   */\n      tag_346\n        /* \"#utility.yul\":11816:11818   */\n      0x20\n        /* \"#utility.yul\":11805:11814   */\n      dup4\n        /* \"#utility.yul\":11801:11819   */\n      add\n        /* \"#utility.yul\":11792:11798   */\n      dup5\n        /* \"#utility.yul\":11748:11820   */\n      tag_176\n      jump\t// in\n    tag_346:\n        /* \"#utility.yul\":11495:11827   */\n      swap4\n      swap3\n      pop\n      pop\n      pop\n      jump\t// out\n        /* \"#utility.yul\":11833:12058   */\n    tag_203:\n        /* \"#utility.yul\":11973:12007   */\n      0x4f6e6c79206d616e616765722063616e2063616c6c20746f2074686973206675\n        /* \"#utility.yul\":11969:11970   */\n      0x00\n        /* \"#utility.yul\":11961:11967   */\n      dup3\n        /* \"#utility.yul\":11957:11971   */\n      add\n        /* \"#utility.yul\":11950:12008   */\n      mstore\n        /* \"#utility.yul\":12042:12050   */\n      0x6e63696f6e210000000000000000000000000000000000000000000000000000\n        /* \"#utility.yul\":12037:12039   */\n      0x20\n        /* \"#utility.yul\":12029:12035   */\n      dup3\n        /* \"#utility.yul\":12025:12040   */\n      add\n        /* \"#utility.yul\":12018:12051   */\n      mstore\n        /* \"#utility.yul\":11833:12058   */\n      pop\n      jump\t// out\n        /* \"#utility.yul\":12064:12430   */\n    tag_204:\n        /* \"#utility.yul\":12206:12209   */\n      0x00\n        /* \"#utility.yul\":12227:12294   */\n      tag_349\n        /* \"#utility.yul\":12291:12293   */\n      0x26\n        /* \"#utility.yul\":12286:12289   */\n      dup4\n        /* \"#utility.yul\":12227:12294   */\n      tag_179\n      jump\t// in\n    tag_349:\n        /* \"#utility.yul\":12220:12294   */\n      swap2\n      pop\n        /* \"#utility.yul\":12303:12396   */\n      tag_350\n        /* \"#utility.yul\":12392:12395   */\n      dup3\n        /* \"#utility.yul\":12303:12396   */\n      tag_203\n      jump\t// in\n    tag_350:\n        /* \"#utility.yul\":12421:12423   */\n      0x40\n        /* \"#utility.yul\":12416:12419   */\n      dup3\n        /* \"#utility.yul\":12412:12424   */\n      add\n        /* \"#utility.yul\":12405:12424   */\n      swap1\n      pop\n        /* \"#utility.yul\":12064:12430   */\n      swap2\n      swap1\n      pop\n      jump\t// out\n        /* \"#utility.yul\":12436:12855   */\n    tag_112:\n        /* \"#utility.yul\":12602:12606   */\n      0x00\n        /* \"#utility.yul\":12640:12642   */\n      0x20\n        /* \"#utility.yul\":12629:12638   */\n      dup3\n        /* \"#utility.yul\":12625:12643   */\n      add\n        /* \"#utility.yul\":12617:12643   */\n      swap1\n      pop\n        /* \"#utility.yul\":12689:12698   */\n      dup2\n        /* \"#utility.yul\":12683:12687   */\n      dup2\n        /* \"#utility.yul\":12679:12699   */\n      sub\n        /* \"#utility.yul\":12675:12676   */\n      0x00\n        /* \"#utility.yul\":12664:12673   */\n      dup4\n        /* \"#utility.yul\":12660:12677   */\n      add\n        /* \"#utility.yul\":12653:12700   */\n      mstore\n        /* \"#utility.yul\":12717:12848   */\n      tag_352\n        /* \"#utility.yul\":12843:12847   */\n      dup2\n        /* \"#utility.yul\":12717:12848   */\n      tag_204\n      jump\t// in\n    tag_352:\n        /* \"#utility.yul\":12709:12848   */\n      swap1\n      pop\n        /* \"#utility.yul\":12436:12855   */\n      swap2\n      swap1\n      pop\n      jump\t// out\n        /* \"#utility.yul\":12861:13087   */\n    tag_205:\n        /* \"#utility.yul\":13001:13035   */\n      0x54686520726571756573742068617320616c7265616479206265656e20636f6d\n        /* \"#utility.yul\":12997:12998   */\n      0x00\n        /* \"#utility.yul\":12989:12995   */\n      dup3\n        /* \"#utility.yul\":12985:12999   */\n      add\n        /* \"#utility.yul\":12978:13036   */\n      mstore\n        /* \"#utility.yul\":13070:13079   */\n      0x706c657465642100000000000000000000000000000000000000000000000000\n        /* \"#utility.yul\":13065:13067   */\n      0x20\n        /* \"#utility.yul\":13057:13063   */\n      dup3\n        /* \"#utility.yul\":13053:13068   */\n      add\n        /* \"#utility.yul\":13046:13080   */\n      mstore\n        /* \"#utility.yul\":12861:13087   */\n      pop\n      jump\t// out\n        /* \"#utility.yul\":13093:13459   */\n    tag_206:\n        /* \"#utility.yul\":13235:13238   */\n      0x00\n        /* \"#utility.yul\":13256:13323   */\n      tag_355\n        /* \"#utility.yul\":13320:13322   */\n      0x27\n        /* \"#utility.yul\":13315:13318   */\n      dup4\n        /* \"#utility.yul\":13256:13323   */\n      tag_179\n      jump\t// in\n    tag_355:\n        /* \"#utility.yul\":13249:13323   */\n      swap2\n      pop\n        /* \"#utility.yul\":13332:13425   */\n      tag_356\n        /* \"#utility.yul\":13421:13424   */\n      dup3\n        /* \"#utility.yul\":13332:13425   */\n      tag_205\n      jump\t// in\n    tag_356:\n        /* \"#utility.yul\":13450:13452   */\n      0x40\n        /* \"#utility.yul\":13445:13448   */\n      dup3\n        /* \"#utility.yul\":13441:13453   */\n      add\n        /* \"#utility.yul\":13434:13453   */\n      swap1\n      pop\n        /* \"#utility.yul\":13093:13459   */\n      swap2\n      swap1\n      pop\n      jump\t// out\n        /* \"#utility.yul\":13465:13884   */\n    tag_117:\n        /* \"#utility.yul\":13631:13635   */\n      0x00\n        /* \"#utility.yul\":13669:13671   */\n      0x20\n        /* \"#utility.yul\":13658:13667   */\n      dup3\n        /* \"#utility.yul\":13654:13672   */\n      add\n        /* \"#utility.yul\":13646:13672   */\n      swap1\n      pop\n        /* \"#utility.yul\":13718:13727   */\n      dup2\n        /* \"#utility.yul\":13712:13716   */\n      dup2\n        /* \"#utility.yul\":13708:13728   */\n      sub\n        /* \"#utility.yul\":13704:13705   */\n      0x00\n        /* \"#utility.yul\":13693:13702   */\n      dup4\n        /* \"#utility.yul\":13689:13706   */\n      add\n        /* \"#utility.yul\":13682:13729   */\n      mstore\n        /* \"#utility.yul\":13746:13877   */\n      tag_358\n        /* \"#utility.yul\":13872:13876   */\n      dup2\n        /* \"#utility.yul\":13746:13877   */\n      tag_206\n      jump\t// in\n    tag_358:\n        /* \"#utility.yul\":13738:13877   */\n      swap1\n      pop\n        /* \"#utility.yul\":13465:13884   */\n      swap2\n      swap1\n      pop\n      jump\t// out\n        /* \"#utility.yul\":13890:14070   */\n    tag_207:\n        /* \"#utility.yul\":13938:14015   */\n      0x4e487b7100000000000000000000000000000000000000000000000000000000\n        /* \"#utility.yul\":13935:13936   */\n      0x00\n        /* \"#utility.yul\":13928:14016   */\n      mstore\n        /* \"#utility.yul\":14035:14039   */\n      0x12\n        /* \"#utility.yul\":14032:14033   */\n      0x04\n        /* \"#utility.yul\":14025:14040   */\n      mstore\n        /* \"#utility.yul\":14059:14063   */\n      0x24\n        /* \"#utility.yul\":14056:14057   */\n      0x00\n        /* \"#utility.yul\":14049:14064   */\n      revert\n        /* \"#utility.yul\":14076:14261   */\n    tag_119:\n        /* \"#utility.yul\":14116:14117   */\n      0x00\n        /* \"#utility.yul\":14133:14153   */\n      tag_361\n        /* \"#utility.yul\":14151:14152   */\n      dup3\n        /* \"#utility.yul\":14133:14153   */\n      tag_169\n      jump\t// in\n    tag_361:\n        /* \"#utility.yul\":14128:14153   */\n      swap2\n      pop\n        /* \"#utility.yul\":14167:14187   */\n      tag_362\n        /* \"#utility.yul\":14185:14186   */\n      dup4\n        /* \"#utility.yul\":14167:14187   */\n      tag_169\n      jump\t// in\n    tag_362:\n        /* \"#utility.yul\":14162:14187   */\n      swap3\n      pop\n        /* \"#utility.yul\":14206:14207   */\n      dup3\n        /* \"#utility.yul\":14196:14231   */\n      tag_363\n      jumpi\n        /* \"#utility.yul\":14211:14229   */\n      tag_364\n      tag_207\n      jump\t// in\n    tag_364:\n        /* \"#utility.yul\":14196:14231   */\n    tag_363:\n        /* \"#utility.yul\":14253:14254   */\n      dup3\n        /* \"#utility.yul\":14250:14251   */\n      dup3\n        /* \"#utility.yul\":14246:14255   */\n      div\n        /* \"#utility.yul\":14241:14255   */\n      swap1\n      pop\n        /* \"#utility.yul\":14076:14261   */\n      swap3\n      swap2\n      pop\n      pop\n      jump\t// out\n        /* \"#utility.yul\":14267:14327   */\n    tag_208:\n        /* \"#utility.yul\":14295:14298   */\n      0x00\n        /* \"#utility.yul\":14316:14321   */\n      dup2\n        /* \"#utility.yul\":14309:14321   */\n      swap1\n      pop\n        /* \"#utility.yul\":14267:14327   */\n      swap2\n      swap1\n      pop\n      jump\t// out\n        /* \"#utility.yul\":14333:14475   */\n    tag_209:\n        /* \"#utility.yul\":14383:14392   */\n      0x00\n        /* \"#utility.yul\":14416:14469   */\n      tag_367\n        /* \"#utility.yul\":14434:14468   */\n      tag_368\n        /* \"#utility.yul\":14443:14467   */\n      tag_369\n        /* \"#utility.yul\":14461:14466   */\n      dup5\n        /* \"#utility.yul\":14443:14467   */\n      tag_172\n      jump\t// in\n    tag_369:\n        /* \"#utility.yul\":14434:14468   */\n      tag_208\n      jump\t// in\n    tag_368:\n        /* \"#utility.yul\":14416:14469   */\n      tag_172\n      jump\t// in\n    tag_367:\n        /* \"#utility.yul\":14403:14469   */\n      swap1\n      pop\n        /* \"#utility.yul\":14333:14475   */\n      swap2\n      swap1\n      pop\n      jump\t// out\n        /* \"#utility.yul\":14481:14607   */\n    tag_210:\n        /* \"#utility.yul\":14531:14540   */\n      0x00\n        /* \"#utility.yul\":14564:14601   */\n      tag_371\n        /* \"#utility.yul\":14595:14600   */\n      dup3\n        /* \"#utility.yul\":14564:14601   */\n      tag_209\n      jump\t// in\n    tag_371:\n        /* \"#utility.yul\":14551:14601   */\n      swap1\n      pop\n        /* \"#utility.yul\":14481:14607   */\n      swap2\n      swap1\n      pop\n      jump\t// out\n        /* \"#utility.yul\":14613:14747   */\n    tag_211:\n        /* \"#utility.yul\":14671:14680   */\n      0x00\n        /* \"#utility.yul\":14704:14741   */\n      tag_373\n        /* \"#utility.yul\":14735:14740   */\n      dup3\n        /* \"#utility.yul\":14704:14741   */\n      tag_210\n      jump\t// in\n    tag_373:\n        /* \"#utility.yul\":14691:14741   */\n      swap1\n      pop\n        /* \"#utility.yul\":14613:14747   */\n      swap2\n      swap1\n      pop\n      jump\t// out\n        /* \"#utility.yul\":14753:14900   */\n    tag_212:\n        /* \"#utility.yul\":14848:14893   */\n      tag_375\n        /* \"#utility.yul\":14887:14892   */\n      dup2\n        /* \"#utility.yul\":14848:14893   */\n      tag_211\n      jump\t// in\n    tag_375:\n        /* \"#utility.yul\":14843:14846   */\n      dup3\n        /* \"#utility.yul\":14836:14894   */\n      mstore\n        /* \"#utility.yul\":14753:14900   */\n      pop\n      pop\n      jump\t// out\n        /* \"#utility.yul\":14906:15254   */\n    tag_124:\n        /* \"#utility.yul\":15035:15039   */\n      0x00\n        /* \"#utility.yul\":15073:15075   */\n      0x40\n        /* \"#utility.yul\":15062:15071   */\n      dup3\n        /* \"#utility.yul\":15058:15076   */\n      add\n        /* \"#utility.yul\":15050:15076   */\n      swap1\n      pop\n        /* \"#utility.yul\":15086:15165   */\n      tag_377\n        /* \"#utility.yul\":15162:15163   */\n      0x00\n        /* \"#utility.yul\":15151:15160   */\n      dup4\n        /* \"#utility.yul\":15147:15164   */\n      add\n        /* \"#utility.yul\":15138:15144   */\n      dup6\n        /* \"#utility.yul\":15086:15165   */\n      tag_212\n      jump\t// in\n    tag_377:\n        /* \"#utility.yul\":15175:15247   */\n      tag_378\n        /* \"#utility.yul\":15243:15245   */\n      0x20\n        /* \"#utility.yul\":15232:15241   */\n      dup4\n        /* \"#utility.yul\":15228:15246   */\n      add\n        /* \"#utility.yul\":15219:15225   */\n      dup5\n        /* \"#utility.yul\":15175:15247   */\n      tag_176\n      jump\t// in\n    tag_378:\n        /* \"#utility.yul\":14906:15254   */\n      swap4\n      swap3\n      pop\n      pop\n      pop\n      jump\t// out\n        /* \"#utility.yul\":15260:15440   */\n    tag_213:\n        /* \"#utility.yul\":15308:15385   */\n      0x4e487b7100000000000000000000000000000000000000000000000000000000\n        /* \"#utility.yul\":15305:15306   */\n      0x00\n        /* \"#utility.yul\":15298:15386   */\n      mstore\n        /* \"#utility.yul\":15405:15409   */\n      0x22\n        /* \"#utility.yul\":15402:15403   */\n      0x04\n        /* \"#utility.yul\":15395:15410   */\n      mstore\n        /* \"#utility.yul\":15429:15433   */\n      0x24\n        /* \"#utility.yul\":15426:15427   */\n      0x00\n        /* \"#utility.yul\":15419:15434   */\n      revert\n        /* \"#utility.yul\":15446:15766   */\n    tag_128:\n        /* \"#utility.yul\":15490:15496   */\n      0x00\n        /* \"#utility.yul\":15527:15528   */\n      0x02\n        /* \"#utility.yul\":15521:15525   */\n      dup3\n        /* \"#utility.yul\":15517:15529   */\n      div\n        /* \"#utility.yul\":15507:15529   */\n      swap1\n      pop\n        /* \"#utility.yul\":15574:15575   */\n      0x01\n        /* \"#utility.yul\":15568:15572   */\n      dup3\n        /* \"#utility.yul\":15564:15576   */\n      and\n        /* \"#utility.yul\":15595:15613   */\n      dup1\n        /* \"#utility.yul\":15585:15666   */\n      tag_381\n      jumpi\n        /* \"#utility.yul\":15651:15655   */\n      0x7f\n        /* \"#utility.yul\":15643:15649   */\n      dup3\n        /* \"#utility.yul\":15639:15656   */\n      and\n        /* \"#utility.yul\":15629:15656   */\n      swap2\n      pop\n        /* \"#utility.yul\":15585:15666   */\n    tag_381:\n        /* \"#utility.yul\":15713:15715   */\n      0x20\n        /* \"#utility.yul\":15705:15711   */\n      dup3\n        /* \"#utility.yul\":15702:15716   */\n      lt\n        /* \"#utility.yul\":15682:15700   */\n      dup2\n        /* \"#utility.yul\":15679:15717   */\n      eq\n        /* \"#utility.yul\":15676:15760   */\n      iszero\n      tag_382\n      jumpi\n        /* \"#utility.yul\":15732:15750   */\n      tag_383\n      tag_213\n      jump\t// in\n    tag_383:\n        /* \"#utility.yul\":15676:15760   */\n    tag_382:\n        /* \"#utility.yul\":15497:15766   */\n      pop\n        /* \"#utility.yul\":15446:15766   */\n      swap2\n      swap1\n      pop\n      jump\t// out\n        /* \"#utility.yul\":15772:16321   */\n    tag_141:\n        /* \"#utility.yul\":15949:15953   */\n      0x00\n        /* \"#utility.yul\":15987:15989   */\n      0x60\n        /* \"#utility.yul\":15976:15985   */\n      dup3\n        /* \"#utility.yul\":15972:15990   */\n      add\n        /* \"#utility.yul\":15964:15990   */\n      swap1\n      pop\n        /* \"#utility.yul\":16036:16045   */\n      dup2\n        /* \"#utility.yul\":16030:16034   */\n      dup2\n        /* \"#utility.yul\":16026:16046   */\n      sub\n        /* \"#utility.yul\":16022:16023   */\n      0x00\n        /* \"#utility.yul\":16011:16020   */\n      dup4\n        /* \"#utility.yul\":16007:16024   */\n      add\n        /* \"#utility.yul\":16000:16047   */\n      mstore\n        /* \"#utility.yul\":16064:16142   */\n      tag_385\n        /* \"#utility.yul\":16137:16141   */\n      dup2\n        /* \"#utility.yul\":16128:16134   */\n      dup7\n        /* \"#utility.yul\":16064:16142   */\n      tag_182\n      jump\t// in\n    tag_385:\n        /* \"#utility.yul\":16056:16142   */\n      swap1\n      pop\n        /* \"#utility.yul\":16152:16232   */\n      tag_386\n        /* \"#utility.yul\":16228:16230   */\n      0x20\n        /* \"#utility.yul\":16217:16226   */\n      dup4\n        /* \"#utility.yul\":16213:16231   */\n      add\n        /* \"#utility.yul\":16204:16210   */\n      dup6\n        /* \"#utility.yul\":16152:16232   */\n      tag_212\n      jump\t// in\n    tag_386:\n        /* \"#utility.yul\":16242:16314   */\n      tag_387\n        /* \"#utility.yul\":16310:16312   */\n      0x40\n        /* \"#utility.yul\":16299:16308   */\n      dup4\n        /* \"#utility.yul\":16295:16313   */\n      add\n        /* \"#utility.yul\":16286:16292   */\n      dup5\n        /* \"#utility.yul\":16242:16314   */\n      tag_176\n      jump\t// in\n    tag_387:\n        /* \"#utility.yul\":15772:16321   */\n      swap5\n      swap4\n      pop\n      pop\n      pop\n      pop\n      jump\t// out\n        /* \"#utility.yul\":16327:16561   */\n    tag_214:\n        /* \"#utility.yul\":16467:16501   */\n      0x596f75206d757374206265206120636f6e7472696275746f7220746f20617070\n        /* \"#utility.yul\":16463:16464   */\n      0x00\n        /* \"#utility.yul\":16455:16461   */\n      dup3\n        /* \"#utility.yul\":16451:16465   */\n      add\n        /* \"#utility.yul\":16444:16502   */\n      mstore\n        /* \"#utility.yul\":16536:16553   */\n      0x726f766520612072657175657374210000000000000000000000000000000000\n        /* \"#utility.yul\":16531:16533   */\n      0x20\n        /* \"#utility.yul\":16523:16529   */\n      dup3\n        /* \"#utility.yul\":16519:16534   */\n      add\n        /* \"#utility.yul\":16512:16554   */\n      mstore\n        /* \"#utility.yul\":16327:16561   */\n      pop\n      jump\t// out\n        /* \"#utility.yul\":16567:16933   */\n    tag_215:\n        /* \"#utility.yul\":16709:16712   */\n      0x00\n        /* \"#utility.yul\":16730:16797   */\n      tag_390\n        /* \"#utility.yul\":16794:16796   */\n      0x2f\n        /* \"#utility.yul\":16789:16792   */\n      dup4\n        /* \"#utility.yul\":16730:16797   */\n      tag_179\n      jump\t// in\n    tag_390:\n        /* \"#utility.yul\":16723:16797   */\n      swap2\n      pop\n        /* \"#utility.yul\":16806:16899   */\n      tag_391\n        /* \"#utility.yul\":16895:16898   */\n      dup3\n        /* \"#utility.yul\":16806:16899   */\n      tag_214\n      jump\t// in\n    tag_391:\n        /* \"#utility.yul\":16924:16926   */\n      0x40\n        /* \"#utility.yul\":16919:16922   */\n      dup3\n        /* \"#utility.yul\":16915:16927   */\n      add\n        /* \"#utility.yul\":16908:16927   */\n      swap1\n      pop\n        /* \"#utility.yul\":16567:16933   */\n      swap2\n      swap1\n      pop\n      jump\t// out\n        /* \"#utility.yul\":16939:17358   */\n    tag_151:\n        /* \"#utility.yul\":17105:17109   */\n      0x00\n        /* \"#utility.yul\":17143:17145   */\n      0x20\n        /* \"#utility.yul\":17132:17141   */\n      dup3\n        /* \"#utility.yul\":17128:17146   */\n      add\n        /* \"#utility.yul\":17120:17146   */\n      swap1\n      pop\n        /* \"#utility.yul\":17192:17201   */\n      dup2\n        /* \"#utility.yul\":17186:17190   */\n      dup2\n        /* \"#utility.yul\":17182:17202   */\n      sub\n        /* \"#utility.yul\":17178:17179   */\n      0x00\n        /* \"#utility.yul\":17167:17176   */\n      dup4\n        /* \"#utility.yul\":17163:17180   */\n      add\n        /* \"#utility.yul\":17156:17203   */\n      mstore\n        /* \"#utility.yul\":17220:17351   */\n      tag_393\n        /* \"#utility.yul\":17346:17350   */\n      dup2\n        /* \"#utility.yul\":17220:17351   */\n      tag_215\n      jump\t// in\n    tag_393:\n        /* \"#utility.yul\":17212:17351   */\n      swap1\n      pop\n        /* \"#utility.yul\":16939:17358   */\n      swap2\n      swap1\n      pop\n      jump\t// out\n        /* \"#utility.yul\":17364:17590   */\n    tag_216:\n        /* \"#utility.yul\":17504:17538   */\n      0x596f75206861766520616c726561647920617070726f76656420746869732072\n        /* \"#utility.yul\":17500:17501   */\n      0x00\n        /* \"#utility.yul\":17492:17498   */\n      dup3\n        /* \"#utility.yul\":17488:17502   */\n      add\n        /* \"#utility.yul\":17481:17539   */\n      mstore\n        /* \"#utility.yul\":17573:17582   */\n      0x6571756573742100000000000000000000000000000000000000000000000000\n        /* \"#utility.yul\":17568:17570   */\n      0x20\n        /* \"#utility.yul\":17560:17566   */\n      dup3\n        /* \"#utility.yul\":17556:17571   */\n      add\n        /* \"#utility.yul\":17549:17583   */\n      mstore\n        /* \"#utility.yul\":17364:17590   */\n      pop\n      jump\t// out\n        /* \"#utility.yul\":17596:17962   */\n    tag_217:\n        /* \"#utility.yul\":17738:17741   */\n      0x00\n        /* \"#utility.yul\":17759:17826   */\n      tag_396\n        /* \"#utility.yul\":17823:17825   */\n      0x27\n        /* \"#utility.yul\":17818:17821   */\n      dup4\n        /* \"#utility.yul\":17759:17826   */\n      tag_179\n      jump\t// in\n    tag_396:\n        /* \"#utility.yul\":17752:17826   */\n      swap2\n      pop\n        /* \"#utility.yul\":17835:17928   */\n      tag_397\n        /* \"#utility.yul\":17924:17927   */\n      dup3\n        /* \"#utility.yul\":17835:17928   */\n      tag_216\n      jump\t// in\n    tag_397:\n        /* \"#utility.yul\":17953:17955   */\n      0x40\n        /* \"#utility.yul\":17948:17951   */\n      dup3\n        /* \"#utility.yul\":17944:17956   */\n      add\n        /* \"#utility.yul\":17937:17956   */\n      swap1\n      pop\n        /* \"#utility.yul\":17596:17962   */\n      swap2\n      swap1\n      pop\n      jump\t// out\n        /* \"#utility.yul\":17968:18387   */\n    tag_154:\n        /* \"#utility.yul\":18134:18138   */\n      0x00\n        /* \"#utility.yul\":18172:18174   */\n      0x20\n        /* \"#utility.yul\":18161:18170   */\n      dup3\n        /* \"#utility.yul\":18157:18175   */\n      add\n        /* \"#utility.yul\":18149:18175   */\n      swap1\n      pop\n        /* \"#utility.yul\":18221:18230   */\n      dup2\n        /* \"#utility.yul\":18215:18219   */\n      dup2\n        /* \"#utility.yul\":18211:18231   */\n      sub\n        /* \"#utility.yul\":18207:18208   */\n      0x00\n        /* \"#utility.yul\":18196:18205   */\n      dup4\n        /* \"#utility.yul\":18192:18209   */\n      add\n        /* \"#utility.yul\":18185:18232   */\n      mstore\n        /* \"#utility.yul\":18249:18380   */\n      tag_399\n        /* \"#utility.yul\":18375:18379   */\n      dup2\n        /* \"#utility.yul\":18249:18380   */\n      tag_217\n      jump\t// in\n    tag_399:\n        /* \"#utility.yul\":18241:18380   */\n      swap1\n      pop\n        /* \"#utility.yul\":17968:18387   */\n      swap2\n      swap1\n      pop\n      jump\t// out\n\n    auxdata: 0xa2646970667358221220d35515f941155b1f88c75599feb4568910d4c9de82d03c2050a29e6a488eaccb64736f6c634300080c0033\n}\n","bytecode":{"linkReferences":{},"object":"60806040523480156200001157600080fd5b5060405162001ab338038062001ab3833981810160405281019062000037919062000149565b82600260006101000a81548173ffffffffffffffffffffffffffffffffffffffff021916908373ffffffffffffffffffffffffffffffffffffffff16021790555083600381905550816006819055508042620000949190620001ea565b6007819055505050505062000247565b600080fd5b6000819050919050565b620000be81620000a9565b8114620000ca57600080fd5b50565b600081519050620000de81620000b3565b92915050565b600073ffffffffffffffffffffffffffffffffffffffff82169050919050565b60006200011182620000e4565b9050919050565b620001238162000104565b81146200012f57600080fd5b50565b600081519050620001438162000118565b92915050565b60008060008060808587031215620001665762000165620000a4565b5b60006200017687828801620000cd565b9450506020620001898782880162000132565b93505060406200019c87828801620000cd565b9250506060620001af87828801620000cd565b91505092959194509250565b7f4e487b7100000000000000000000000000000000000000000000000000000000600052601160045260246000fd5b6000620001f782620000a9565b91506200020483620000a9565b9250827fffffffffffffffffffffffffffffffffffffffffffffffffffffffffffffffff038211156200023c576200023b620001bb565b5b828201905092915050565b61185c80620002576000396000f3fe6080604052600436106100f75760003560e01c806382fde0931161008a578063b2d5ae4411610059578063b2d5ae4414610337578063c59ee1dc1461034e578063d7bb99ba14610379578063d7d1bbdb1461038357610106565b806382fde0931461028d5780638a9cfd55146102b8578063937e09b1146102e15780639fb42b1f1461030c57610106565b806340193883116100c657806340193883146101c75780634051ddac146101f2578063481c6a751461022157806381d12c581461024c57610106565b8063034410061461010b5780630a1443911461013457806329dcb0cf146101715780633410452a1461019c57610106565b36610106576101046103ac565b005b600080fd5b34801561011757600080fd5b50610132600480360381019061012d9190610e2a565b610526565b005b34801561014057600080fd5b5061015b60048036038101906101569190610eb5565b61073e565b6040516101689190610ef1565b60405180910390f35b34801561017d57600080fd5b50610186610756565b6040516101939190610ef1565b60405180910390f35b3480156101a857600080fd5b506101b161075c565b6040516101be9190610ef1565b60405180910390f35b3480156101d357600080fd5b506101dc610766565b6040516101e99190610ef1565b60405180910390f35b3480156101fe57600080fd5b5061020761076c565b604051610218959493929190610f1b565b60405180910390f35b34801561022d57600080fd5b506102366107b2565b6040516102439190610f6e565b60405180910390f35b34801561025857600080fd5b50610273600480360381019061026e9190610e2a565b6107d8565b60405161028495949392919061105e565b60405180910390f35b34801561029957600080fd5b506102a26108c3565b6040516102af9190610ef1565b60405180910390f35b3480156102c457600080fd5b506102df60048036038101906102da9190611219565b6108c9565b005b3480156102ed57600080fd5b506102f6610a56565b6040516103039190610ef1565b60405180910390f35b34801561031857600080fd5b50610321610a5c565b60405161032e9190610ef1565b60405180910390f35b34801561034357600080fd5b5061034c610a62565b005b34801561035a57600080fd5b50610363610b98565b6040516103709190610ef1565b60405180910390f35b6103816103ac565b005b34801561038f57600080fd5b506103aa60048036038101906103a59190610e2a565b610b9e565b005b60075442106103f0576040517f08c379a00000000000000000000000000000000000000000000000000000000081526004016103e7906112d4565b60405180910390fd5b6003543411610434576040517f08c379a000000000000000000000000000000000000000000000000000000000815260040161042b90611340565b60405180910390fd5b6000600460003373ffffffffffffffffffffffffffffffffffffffff1673ffffffffffffffffffffffffffffffffffffffff168152602001908152602001600020541415610495576005600081548092919061048f9061138f565b91905055505b34600460003373ffffffffffffffffffffffffffffffffffffffff1673ffffffffffffffffffffffffffffffffffffffff16815260200190815260200160002060008282546104e491906113d8565b925050819055507f2daf61dec57a2c194e9e87958b1a40a5c236b5e8c6041655d664ddbd16c29320333460405161051c92919061142e565b60405180910390a1565b600260009054906101000a900473ffffffffffffffffffffffffffffffffffffffff1673ffffffffffffffffffffffffffffffffffffffff163373ffffffffffffffffffffffffffffffffffffffff16146105b6576040517f08c379a00000000000000000000000000000000000000000000000000000000081526004016105ad906114c9565b60405180910390fd5b60065460085410156105c757600080fd5b600080600083815260200190815260200160002090508060030160149054906101000a900460ff161561062f576040517f08c379a00000000000000000000000000000000000000000000000000000000081526004016106269061155b565b60405180910390fd5b600260055461063e91906115aa565b81600201541161064d57600080fd5b8060030160009054906101000a900473ffffffffffffffffffffffffffffffffffffffff1673ffffffffffffffffffffffffffffffffffffffff166108fc82600101549081150290604051600060405180830381858888f193505050501580156106bb573d6000803e3d6000fd5b5060018160030160146101000a81548160ff0219169083151502179055507f2ae767896e987fd31514551c92e54dcd13f83142c6c581a4186921042af354ab8160030160009054906101000a900473ffffffffffffffffffffffffffffffffffffffff16826001015460405161073292919061163a565b60405180910390a15050565b60046020528060005260406000206000915090505481565b60075481565b6000600154905090565b60065481565b600080600080600060035447600154600554600260009054906101000a900473ffffffffffffffffffffffffffffffffffffffff16945094509450945094509091929394565b600260009054906101000a900473ffffffffffffffffffffffffffffffffffffffff1681565b60006020528060005260406000206000915090508060000180546107fb90611692565b80601f016020809104026020016040519081016040528092919081815260200182805461082790611692565b80156108745780601f1061084957610100808354040283529160200191610874565b820191906000526020600020905b81548152906001019060200180831161085757829003601f168201915b5050505050908060010154908060020154908060030160009054906101000a900473ffffffffffffffffffffffffffffffffffffffff16908060030160149054906101000a900460ff16905085565b60055481565b600260009054906101000a900473ffffffffffffffffffffffffffffffffffffffff1673ffffffffffffffffffffffffffffffffffffffff163373ffffffffffffffffffffffffffffffffffffffff1614610959576040517f08c379a0000000000000000000000000000000000000000000000000000000008152600401610950906114c9565b60405180910390fd5b600080600060015481526020019081526020016000209050600160008154809291906109849061138f565b9190505550838160000190805190602001906109a1929190610d3d565b50828160010181905550818160030160006101000a81548173ffffffffffffffffffffffffffffffffffffffff021916908373ffffffffffffffffffffffffffffffffffffffff16021790555060008160030160146101000a81548160ff021916908315150217905550600081600201819055507f5392bd80651676ccaaedec1afbe841d47e369223df0ba1586110b6426ee87a3a848385604051610a48939291906116c4565b60405180910390a150505050565b60035481565b60015481565b60075442118015610a765750600654600854105b610a7f57600080fd5b6000600460003373ffffffffffffffffffffffffffffffffffffffff1673ffffffffffffffffffffffffffffffffffffffff1681526020019081526020016000205411610acb57600080fd5b3373ffffffffffffffffffffffffffffffffffffffff166108fc600460003373ffffffffffffffffffffffffffffffffffffffff1673ffffffffffffffffffffffffffffffffffffffff168152602001908152602001600020549081150290604051600060405180830381858888f19350505050158015610b50573d6000803e3d6000fd5b506000600460003373ffffffffffffffffffffffffffffffffffffffff1673ffffffffffffffffffffffffffffffffffffffff16815260200190815260200160002081905550565b60085481565b6000600460003373ffffffffffffffffffffffffffffffffffffffff1673ffffffffffffffffffffffffffffffffffffffff1681526020019081526020016000205411610c20576040517f08c379a0000000000000000000000000000000000000000000000000000000008152600401610c1790611774565b60405180910390fd5b600080600083815260200190815260200160002090508060040160003373ffffffffffffffffffffffffffffffffffffffff1673ffffffffffffffffffffffffffffffffffffffff16815260200190815260200160002060009054906101000a900460ff1615610cc5576040517f08c379a0000000000000000000000000000000000000000000000000000000008152600401610cbc90611806565b60405180910390fd5b60018160040160003373ffffffffffffffffffffffffffffffffffffffff1673ffffffffffffffffffffffffffffffffffffffff16815260200190815260200160002060006101000a81548160ff021916908315150217905550806002016000815480929190610d349061138f565b91905055505050565b828054610d4990611692565b90600052602060002090601f016020900481019282610d6b5760008555610db2565b82601f10610d8457805160ff1916838001178555610db2565b82800160010185558215610db2579182015b82811115610db1578251825591602001919060010190610d96565b5b509050610dbf9190610dc3565b5090565b5b80821115610ddc576000816000905550600101610dc4565b5090565b6000604051905090565b600080fd5b600080fd5b6000819050919050565b610e0781610df4565b8114610e1257600080fd5b50565b600081359050610e2481610dfe565b92915050565b600060208284031215610e4057610e3f610dea565b5b6000610e4e84828501610e15565b91505092915050565b600073ffffffffffffffffffffffffffffffffffffffff82169050919050565b6000610e8282610e57565b9050919050565b610e9281610e77565b8114610e9d57600080fd5b50565b600081359050610eaf81610e89565b92915050565b600060208284031215610ecb57610eca610dea565b5b6000610ed984828501610ea0565b91505092915050565b610eeb81610df4565b82525050565b6000602082019050610f066000830184610ee2565b92915050565b610f1581610e77565b82525050565b600060a082019050610f306000830188610ee2565b610f3d6020830187610ee2565b610f4a6040830186610ee2565b610f576060830185610ee2565b610f646080830184610f0c565b9695505050505050565b6000602082019050610f836000830184610f0c565b92915050565b600081519050919050565b600082825260208201905092915050565b60005b83811015610fc3578082015181840152602081019050610fa8565b83811115610fd2576000848401525b50505050565b6000601f19601f8301169050919050565b6000610ff482610f89565b610ffe8185610f94565b935061100e818560208601610fa5565b61101781610fd8565b840191505092915050565b600061102d82610e57565b9050919050565b61103d81611022565b82525050565b60008115159050919050565b61105881611043565b82525050565b600060a08201905081810360008301526110788188610fe9565b90506110876020830187610ee2565b6110946040830186610ee2565b6110a16060830185611034565b6110ae608083018461104f565b9695505050505050565b600080fd5b600080fd5b7f4e487b7100000000000000000000000000000000000000000000000000000000600052604160045260246000fd5b6110fa82610fd8565b810181811067ffffffffffffffff82111715611119576111186110c2565b5b80604052505050565b600061112c610de0565b905061113882826110f1565b919050565b600067ffffffffffffffff821115611158576111576110c2565b5b61116182610fd8565b9050602081019050919050565b82818337600083830152505050565b600061119061118b8461113d565b611122565b9050828152602081018484840111156111ac576111ab6110bd565b5b6111b784828561116e565b509392505050565b600082601f8301126111d4576111d36110b8565b5b81356111e484826020860161117d565b91505092915050565b6111f681611022565b811461120157600080fd5b50565b600081359050611213816111ed565b92915050565b60008060006060848603121561123257611231610dea565b5b600084013567ffffffffffffffff8111156112505761124f610def565b5b61125c868287016111bf565b935050602061126d86828701610e15565b925050604061127e86828701611204565b9150509250925092565b7f43616d7061696e672068617320616c72656164792066696e6973686564210000600082015250565b60006112be601e83610f94565b91506112c982611288565b602082019050919050565b600060208201905081810360008301526112ed816112b1565b9050919050565b7f4d696e696d756d20436f6e747269627574696f6e206e6f74206d657421000000600082015250565b600061132a601d83610f94565b9150611335826112f4565b602082019050919050565b600060208201905081810360008301526113598161131d565b9050919050565b7f4e487b7100000000000000000000000000000000000000000000000000000000600052601160045260246000fd5b600061139a82610df4565b91507fffffffffffffffffffffffffffffffffffffffffffffffffffffffffffffffff8214156113cd576113cc611360565b5b600182019050919050565b60006113e382610df4565b91506113ee83610df4565b9250827fffffffffffffffffffffffffffffffffffffffffffffffffffffffffffffffff0382111561142357611422611360565b5b828201905092915050565b60006040820190506114436000830185610f0c565b6114506020830184610ee2565b9392505050565b7f4f6e6c79206d616e616765722063616e2063616c6c20746f207468697320667560008201527f6e63696f6e210000000000000000000000000000000000000000000000000000602082015250565b60006114b3602683610f94565b91506114be82611457565b604082019050919050565b600060208201905081810360008301526114e2816114a6565b9050919050565b7f54686520726571756573742068617320616c7265616479206265656e20636f6d60008201527f706c657465642100000000000000000000000000000000000000000000000000602082015250565b6000611545602783610f94565b9150611550826114e9565b604082019050919050565b6000602082019050818103600083015261157481611538565b9050919050565b7f4e487b7100000000000000000000000000000000000000000000000000000000600052601260045260246000fd5b60006115b582610df4565b91506115c083610df4565b9250826115d0576115cf61157b565b5b828204905092915050565b6000819050919050565b60006116006115fb6115f684610e57565b6115db565b610e57565b9050919050565b6000611612826115e5565b9050919050565b600061162482611607565b9050919050565b61163481611619565b82525050565b600060408201905061164f600083018561162b565b61165c6020830184610ee2565b9392505050565b7f4e487b7100000000000000000000000000000000000000000000000000000000600052602260045260246000fd5b600060028204905060018216806116aa57607f821691505b602082108114156116be576116bd611663565b5b50919050565b600060608201905081810360008301526116de8186610fe9565b90506116ed602083018561162b565b6116fa6040830184610ee2565b949350505050565b7f596f75206d757374206265206120636f6e7472696275746f7220746f2061707060008201527f726f766520612072657175657374210000000000000000000000000000000000602082015250565b600061175e602f83610f94565b915061176982611702565b604082019050919050565b6000602082019050818103600083015261178d81611751565b9050919050565b7f596f75206861766520616c726561647920617070726f7665642074686973207260008201527f6571756573742100000000000000000000000000000000000000000000000000602082015250565b60006117f0602783610f94565b91506117fb82611794565b604082019050919050565b6000602082019050818103600083015261181f816117e3565b905091905056fea2646970667358221220d35515f941155b1f88c75599feb4568910d4c9de82d03c2050a29e6a488eaccb64736f6c634300080c0033","opcodes":"PUSH1 0x80 PUSH1 0x40 MSTORE CALLVALUE DUP1 ISZERO PUSH3 0x11 JUMPI PUSH1 0x0 DUP1 REVERT JUMPDEST POP PUSH1 0x40 MLOAD PUSH3 0x1AB3 CODESIZE SUB DUP1 PUSH3 0x1AB3 DUP4 CODECOPY DUP2 DUP2 ADD PUSH1 0x40 MSTORE DUP2 ADD SWAP1 PUSH3 0x37 SWAP2 SWAP1 PUSH3 0x149 JUMP JUMPDEST DUP3 PUSH1 0x2 PUSH1 0x0 PUSH2 0x100 EXP DUP2 SLOAD DUP2 PUSH20 0xFFFFFFFFFFFFFFFFFFFFFFFFFFFFFFFFFFFFFFFF MUL NOT AND SWAP1 DUP4 PUSH20 0xFFFFFFFFFFFFFFFFFFFFFFFFFFFFFFFFFFFFFFFF AND MUL OR SWAP1 SSTORE POP DUP4 PUSH1 0x3 DUP2 SWAP1 SSTORE POP DUP2 PUSH1 0x6 DUP2 SWAP1 SSTORE POP DUP1 TIMESTAMP PUSH3 0x94 SWAP2 SWAP1 PUSH3 0x1EA JUMP JUMPDEST PUSH1 0x7 DUP2 SWAP1 SSTORE POP POP POP POP POP PUSH3 0x247 JUMP JUMPDEST PUSH1 0x0 DUP1 REVERT JUMPDEST PUSH1 0x0 DUP2 SWAP1 POP SWAP2 SWAP1 POP JUMP JUMPDEST PUSH3 0xBE DUP2 PUSH3 0xA9 JUMP JUMPDEST DUP2 EQ PUSH3 0xCA JUMPI PUSH1 0x0 DUP1 REVERT JUMPDEST POP JUMP JUMPDEST PUSH1 0x0 DUP2 MLOAD SWAP1 POP PUSH3 0xDE DUP2 PUSH3 0xB3 JUMP JUMPDEST SWAP3 SWAP2 POP POP JUMP JUMPDEST PUSH1 0x0 PUSH20 0xFFFFFFFFFFFFFFFFFFFFFFFFFFFFFFFFFFFFFFFF DUP3 AND SWAP1 POP SWAP2 SWAP1 POP JUMP JUMPDEST PUSH1 0x0 PUSH3 0x111 DUP3 PUSH3 0xE4 JUMP JUMPDEST SWAP1 POP SWAP2 SWAP1 POP JUMP JUMPDEST PUSH3 0x123 DUP2 PUSH3 0x104 JUMP JUMPDEST DUP2 EQ PUSH3 0x12F JUMPI PUSH1 0x0 DUP1 REVERT JUMPDEST POP JUMP JUMPDEST PUSH1 0x0 DUP2 MLOAD SWAP1 POP PUSH3 0x143 DUP2 PUSH3 0x118 JUMP JUMPDEST SWAP3 SWAP2 POP POP JUMP JUMPDEST PUSH1 0x0 DUP1 PUSH1 0x0 DUP1 PUSH1 0x80 DUP6 DUP8 SUB SLT ISZERO PUSH3 0x166 JUMPI PUSH3 0x165 PUSH3 0xA4 JUMP JUMPDEST JUMPDEST PUSH1 0x0 PUSH3 0x176 DUP8 DUP3 DUP9 ADD PUSH3 0xCD JUMP JUMPDEST SWAP5 POP POP PUSH1 0x20 PUSH3 0x189 DUP8 DUP3 DUP9 ADD PUSH3 0x132 JUMP JUMPDEST SWAP4 POP POP PUSH1 0x40 PUSH3 0x19C DUP8 DUP3 DUP9 ADD PUSH3 0xCD JUMP JUMPDEST SWAP3 POP POP PUSH1 0x60 PUSH3 0x1AF DUP8 DUP3 DUP9 ADD PUSH3 0xCD JUMP JUMPDEST SWAP2 POP POP SWAP3 SWAP6 SWAP2 SWAP5 POP SWAP3 POP JUMP JUMPDEST PUSH32 0x4E487B7100000000000000000000000000000000000000000000000000000000 PUSH1 0x0 MSTORE PUSH1 0x11 PUSH1 0x4 MSTORE PUSH1 0x24 PUSH1 0x0 REVERT JUMPDEST PUSH1 0x0 PUSH3 0x1F7 DUP3 PUSH3 0xA9 JUMP JUMPDEST SWAP2 POP PUSH3 0x204 DUP4 PUSH3 0xA9 JUMP JUMPDEST SWAP3 POP DUP3 PUSH32 0xFFFFFFFFFFFFFFFFFFFFFFFFFFFFFFFFFFFFFFFFFFFFFFFFFFFFFFFFFFFFFFFF SUB DUP3 GT ISZERO PUSH3 0x23C JUMPI PUSH3 0x23B PUSH3 0x1BB JUMP JUMPDEST JUMPDEST DUP3 DUP3 ADD SWAP1 POP SWAP3 SWAP2 POP POP JUMP JUMPDEST PUSH2 0x185C DUP1 PUSH3 0x257 PUSH1 0x0 CODECOPY PUSH1 0x0 RETURN INVALID PUSH1 0x80 PUSH1 0x40 MSTORE PUSH1 0x4 CALLDATASIZE LT PUSH2 0xF7 JUMPI PUSH1 0x0 CALLDATALOAD PUSH1 0xE0 SHR DUP1 PUSH4 0x82FDE093 GT PUSH2 0x8A JUMPI DUP1 PUSH4 0xB2D5AE44 GT PUSH2 0x59 JUMPI DUP1 PUSH4 0xB2D5AE44 EQ PUSH2 0x337 JUMPI DUP1 PUSH4 0xC59EE1DC EQ PUSH2 0x34E JUMPI DUP1 PUSH4 0xD7BB99BA EQ PUSH2 0x379 JUMPI DUP1 PUSH4 0xD7D1BBDB EQ PUSH2 0x383 JUMPI PUSH2 0x106 JUMP JUMPDEST DUP1 PUSH4 0x82FDE093 EQ PUSH2 0x28D JUMPI DUP1 PUSH4 0x8A9CFD55 EQ PUSH2 0x2B8 JUMPI DUP1 PUSH4 0x937E09B1 EQ PUSH2 0x2E1 JUMPI DUP1 PUSH4 0x9FB42B1F EQ PUSH2 0x30C JUMPI PUSH2 0x106 JUMP JUMPDEST DUP1 PUSH4 0x40193883 GT PUSH2 0xC6 JUMPI DUP1 PUSH4 0x40193883 EQ PUSH2 0x1C7 JUMPI DUP1 PUSH4 0x4051DDAC EQ PUSH2 0x1F2 JUMPI DUP1 PUSH4 0x481C6A75 EQ PUSH2 0x221 JUMPI DUP1 PUSH4 0x81D12C58 EQ PUSH2 0x24C JUMPI PUSH2 0x106 JUMP JUMPDEST DUP1 PUSH4 0x3441006 EQ PUSH2 0x10B JUMPI DUP1 PUSH4 0xA144391 EQ PUSH2 0x134 JUMPI DUP1 PUSH4 0x29DCB0CF EQ PUSH2 0x171 JUMPI DUP1 PUSH4 0x3410452A EQ PUSH2 0x19C JUMPI PUSH2 0x106 JUMP JUMPDEST CALLDATASIZE PUSH2 0x106 JUMPI PUSH2 0x104 PUSH2 0x3AC JUMP JUMPDEST STOP JUMPDEST PUSH1 0x0 DUP1 REVERT JUMPDEST CALLVALUE DUP1 ISZERO PUSH2 0x117 JUMPI PUSH1 0x0 DUP1 REVERT JUMPDEST POP PUSH2 0x132 PUSH1 0x4 DUP1 CALLDATASIZE SUB DUP2 ADD SWAP1 PUSH2 0x12D SWAP2 SWAP1 PUSH2 0xE2A JUMP JUMPDEST PUSH2 0x526 JUMP JUMPDEST STOP JUMPDEST CALLVALUE DUP1 ISZERO PUSH2 0x140 JUMPI PUSH1 0x0 DUP1 REVERT JUMPDEST POP PUSH2 0x15B PUSH1 0x4 DUP1 CALLDATASIZE SUB DUP2 ADD SWAP1 PUSH2 0x156 SWAP2 SWAP1 PUSH2 0xEB5 JUMP JUMPDEST PUSH2 0x73E JUMP JUMPDEST PUSH1 0x40 MLOAD PUSH2 0x168 SWAP2 SWAP1 PUSH2 0xEF1 JUMP JUMPDEST PUSH1 0x40 MLOAD DUP1 SWAP2 SUB SWAP1 RETURN JUMPDEST CALLVALUE DUP1 ISZERO PUSH2 0x17D JUMPI PUSH1 0x0 DUP1 REVERT JUMPDEST POP PUSH2 0x186 PUSH2 0x756 JUMP JUMPDEST PUSH1 0x40 MLOAD PUSH2 0x193 SWAP2 SWAP1 PUSH2 0xEF1 JUMP JUMPDEST PUSH1 0x40 MLOAD DUP1 SWAP2 SUB SWAP1 RETURN JUMPDEST CALLVALUE DUP1 ISZERO PUSH2 0x1A8 JUMPI PUSH1 0x0 DUP1 REVERT JUMPDEST POP PUSH2 0x1B1 PUSH2 0x75C JUMP JUMPDEST PUSH1 0x40 MLOAD PUSH2 0x1BE SWAP2 SWAP1 PUSH2 0xEF1 JUMP JUMPDEST PUSH1 0x40 MLOAD DUP1 SWAP2 SUB SWAP1 RETURN JUMPDEST CALLVALUE DUP1 ISZERO PUSH2 0x1D3 JUMPI PUSH1 0x0 DUP1 REVERT JUMPDEST POP PUSH2 0x1DC PUSH2 0x766 JUMP JUMPDEST PUSH1 0x40 MLOAD PUSH2 0x1E9 SWAP2 SWAP1 PUSH2 0xEF1 JUMP JUMPDEST PUSH1 0x40 MLOAD DUP1 SWAP2 SUB SWAP1 RETURN JUMPDEST CALLVALUE DUP1 ISZERO PUSH2 0x1FE JUMPI PUSH1 0x0 DUP1 REVERT JUMPDEST POP PUSH2 0x207 PUSH2 0x76C JUMP JUMPDEST PUSH1 0x40 MLOAD PUSH2 0x218 SWAP6 SWAP5 SWAP4 SWAP3 SWAP2 SWAP1 PUSH2 0xF1B JUMP JUMPDEST PUSH1 0x40 MLOAD DUP1 SWAP2 SUB SWAP1 RETURN JUMPDEST CALLVALUE DUP1 ISZERO PUSH2 0x22D JUMPI PUSH1 0x0 DUP1 REVERT JUMPDEST POP PUSH2 0x236 PUSH2 0x7B2 JUMP JUMPDEST PUSH1 0x40 MLOAD PUSH2 0x243 SWAP2 SWAP1 PUSH2 0xF6E JUMP JUMPDEST PUSH1 0x40 MLOAD DUP1 SWAP2 SUB SWAP1 RETURN JUMPDEST CALLVALUE DUP1 ISZERO PUSH2 0x258 JUMPI PUSH1 0x0 DUP1 REVERT JUMPDEST POP PUSH2 0x273 PUSH1 0x4 DUP1 CALLDATASIZE SUB DUP2 ADD SWAP1 PUSH2 0x26E SWAP2 SWAP1 PUSH2 0xE2A JUMP JUMPDEST PUSH2 0x7D8 JUMP JUMPDEST PUSH1 0x40 MLOAD PUSH2 0x284 SWAP6 SWAP5 SWAP4 SWAP3 SWAP2 SWAP1 PUSH2 0x105E JUMP JUMPDEST PUSH1 0x40 MLOAD DUP1 SWAP2 SUB SWAP1 RETURN JUMPDEST CALLVALUE DUP1 ISZERO PUSH2 0x299 JUMPI PUSH1 0x0 DUP1 REVERT JUMPDEST POP PUSH2 0x2A2 PUSH2 0x8C3 JUMP JUMPDEST PUSH1 0x40 MLOAD PUSH2 0x2AF SWAP2 SWAP1 PUSH2 0xEF1 JUMP JUMPDEST PUSH1 0x40 MLOAD DUP1 SWAP2 SUB SWAP1 RETURN JUMPDEST CALLVALUE DUP1 ISZERO PUSH2 0x2C4 JUMPI PUSH1 0x0 DUP1 REVERT JUMPDEST POP PUSH2 0x2DF PUSH1 0x4 DUP1 CALLDATASIZE SUB DUP2 ADD SWAP1 PUSH2 0x2DA SWAP2 SWAP1 PUSH2 0x1219 JUMP JUMPDEST PUSH2 0x8C9 JUMP JUMPDEST STOP JUMPDEST CALLVALUE DUP1 ISZERO PUSH2 0x2ED JUMPI PUSH1 0x0 DUP1 REVERT JUMPDEST POP PUSH2 0x2F6 PUSH2 0xA56 JUMP JUMPDEST PUSH1 0x40 MLOAD PUSH2 0x303 SWAP2 SWAP1 PUSH2 0xEF1 JUMP JUMPDEST PUSH1 0x40 MLOAD DUP1 SWAP2 SUB SWAP1 RETURN JUMPDEST CALLVALUE DUP1 ISZERO PUSH2 0x318 JUMPI PUSH1 0x0 DUP1 REVERT JUMPDEST POP PUSH2 0x321 PUSH2 0xA5C JUMP JUMPDEST PUSH1 0x40 MLOAD PUSH2 0x32E SWAP2 SWAP1 PUSH2 0xEF1 JUMP JUMPDEST PUSH1 0x40 MLOAD DUP1 SWAP2 SUB SWAP1 RETURN JUMPDEST CALLVALUE DUP1 ISZERO PUSH2 0x343 JUMPI PUSH1 0x0 DUP1 REVERT JUMPDEST POP PUSH2 0x34C PUSH2 0xA62 JUMP JUMPDEST STOP JUMPDEST CALLVALUE DUP1 ISZERO PUSH2 0x35A JUMPI PUSH1 0x0 DUP1 REVERT JUMPDEST POP PUSH2 0x363 PUSH2 0xB98 JUMP JUMPDEST PUSH1 0x40 MLOAD PUSH2 0x370 SWAP2 SWAP1 PUSH2 0xEF1 JUMP JUMPDEST PUSH1 0x40 MLOAD DUP1 SWAP2 SUB SWAP1 RETURN JUMPDEST PUSH2 0x381 PUSH2 0x3AC JUMP JUMPDEST STOP JUMPDEST CALLVALUE DUP1 ISZERO PUSH2 0x38F JUMPI PUSH1 0x0 DUP1 REVERT JUMPDEST POP PUSH2 0x3AA PUSH1 0x4 DUP1 CALLDATASIZE SUB DUP2 ADD SWAP1 PUSH2 0x3A5 SWAP2 SWAP1 PUSH2 0xE2A JUMP JUMPDEST PUSH2 0xB9E JUMP JUMPDEST STOP JUMPDEST PUSH1 0x7 SLOAD TIMESTAMP LT PUSH2 0x3F0 JUMPI PUSH1 0x40 MLOAD PUSH32 0x8C379A000000000000000000000000000000000000000000000000000000000 DUP2 MSTORE PUSH1 0x4 ADD PUSH2 0x3E7 SWAP1 PUSH2 0x12D4 JUMP JUMPDEST PUSH1 0x40 MLOAD DUP1 SWAP2 SUB SWAP1 REVERT JUMPDEST PUSH1 0x3 SLOAD CALLVALUE GT PUSH2 0x434 JUMPI PUSH1 0x40 MLOAD PUSH32 0x8C379A000000000000000000000000000000000000000000000000000000000 DUP2 MSTORE PUSH1 0x4 ADD PUSH2 0x42B SWAP1 PUSH2 0x1340 JUMP JUMPDEST PUSH1 0x40 MLOAD DUP1 SWAP2 SUB SWAP1 REVERT JUMPDEST PUSH1 0x0 PUSH1 0x4 PUSH1 0x0 CALLER PUSH20 0xFFFFFFFFFFFFFFFFFFFFFFFFFFFFFFFFFFFFFFFF AND PUSH20 0xFFFFFFFFFFFFFFFFFFFFFFFFFFFFFFFFFFFFFFFF AND DUP2 MSTORE PUSH1 0x20 ADD SWAP1 DUP2 MSTORE PUSH1 0x20 ADD PUSH1 0x0 KECCAK256 SLOAD EQ ISZERO PUSH2 0x495 JUMPI PUSH1 0x5 PUSH1 0x0 DUP2 SLOAD DUP1 SWAP3 SWAP2 SWAP1 PUSH2 0x48F SWAP1 PUSH2 0x138F JUMP JUMPDEST SWAP2 SWAP1 POP SSTORE POP JUMPDEST CALLVALUE PUSH1 0x4 PUSH1 0x0 CALLER PUSH20 0xFFFFFFFFFFFFFFFFFFFFFFFFFFFFFFFFFFFFFFFF AND PUSH20 0xFFFFFFFFFFFFFFFFFFFFFFFFFFFFFFFFFFFFFFFF AND DUP2 MSTORE PUSH1 0x20 ADD SWAP1 DUP2 MSTORE PUSH1 0x20 ADD PUSH1 0x0 KECCAK256 PUSH1 0x0 DUP3 DUP3 SLOAD PUSH2 0x4E4 SWAP2 SWAP1 PUSH2 0x13D8 JUMP JUMPDEST SWAP3 POP POP DUP2 SWAP1 SSTORE POP PUSH32 0x2DAF61DEC57A2C194E9E87958B1A40A5C236B5E8C6041655D664DDBD16C29320 CALLER CALLVALUE PUSH1 0x40 MLOAD PUSH2 0x51C SWAP3 SWAP2 SWAP1 PUSH2 0x142E JUMP JUMPDEST PUSH1 0x40 MLOAD DUP1 SWAP2 SUB SWAP1 LOG1 JUMP JUMPDEST PUSH1 0x2 PUSH1 0x0 SWAP1 SLOAD SWAP1 PUSH2 0x100 EXP SWAP1 DIV PUSH20 0xFFFFFFFFFFFFFFFFFFFFFFFFFFFFFFFFFFFFFFFF AND PUSH20 0xFFFFFFFFFFFFFFFFFFFFFFFFFFFFFFFFFFFFFFFF AND CALLER PUSH20 0xFFFFFFFFFFFFFFFFFFFFFFFFFFFFFFFFFFFFFFFF AND EQ PUSH2 0x5B6 JUMPI PUSH1 0x40 MLOAD PUSH32 0x8C379A000000000000000000000000000000000000000000000000000000000 DUP2 MSTORE PUSH1 0x4 ADD PUSH2 0x5AD SWAP1 PUSH2 0x14C9 JUMP JUMPDEST PUSH1 0x40 MLOAD DUP1 SWAP2 SUB SWAP1 REVERT JUMPDEST PUSH1 0x6 SLOAD PUSH1 0x8 SLOAD LT ISZERO PUSH2 0x5C7 JUMPI PUSH1 0x0 DUP1 REVERT JUMPDEST PUSH1 0x0 DUP1 PUSH1 0x0 DUP4 DUP2 MSTORE PUSH1 0x20 ADD SWAP1 DUP2 MSTORE PUSH1 0x20 ADD PUSH1 0x0 KECCAK256 SWAP1 POP DUP1 PUSH1 0x3 ADD PUSH1 0x14 SWAP1 SLOAD SWAP1 PUSH2 0x100 EXP SWAP1 DIV PUSH1 0xFF AND ISZERO PUSH2 0x62F JUMPI PUSH1 0x40 MLOAD PUSH32 0x8C379A000000000000000000000000000000000000000000000000000000000 DUP2 MSTORE PUSH1 0x4 ADD PUSH2 0x626 SWAP1 PUSH2 0x155B JUMP JUMPDEST PUSH1 0x40 MLOAD DUP1 SWAP2 SUB SWAP1 REVERT JUMPDEST PUSH1 0x2 PUSH1 0x5 SLOAD PUSH2 0x63E SWAP2 SWAP1 PUSH2 0x15AA JUMP JUMPDEST DUP2 PUSH1 0x2 ADD SLOAD GT PUSH2 0x64D JUMPI PUSH1 0x0 DUP1 REVERT JUMPDEST DUP1 PUSH1 0x3 ADD PUSH1 0x0 SWAP1 SLOAD SWAP1 PUSH2 0x100 EXP SWAP1 DIV PUSH20 0xFFFFFFFFFFFFFFFFFFFFFFFFFFFFFFFFFFFFFFFF AND PUSH20 0xFFFFFFFFFFFFFFFFFFFFFFFFFFFFFFFFFFFFFFFF AND PUSH2 0x8FC DUP3 PUSH1 0x1 ADD SLOAD SWAP1 DUP2 ISZERO MUL SWAP1 PUSH1 0x40 MLOAD PUSH1 0x0 PUSH1 0x40 MLOAD DUP1 DUP4 SUB DUP2 DUP6 DUP9 DUP9 CALL SWAP4 POP POP POP POP ISZERO DUP1 ISZERO PUSH2 0x6BB JUMPI RETURNDATASIZE PUSH1 0x0 DUP1 RETURNDATACOPY RETURNDATASIZE PUSH1 0x0 REVERT JUMPDEST POP PUSH1 0x1 DUP2 PUSH1 0x3 ADD PUSH1 0x14 PUSH2 0x100 EXP DUP2 SLOAD DUP2 PUSH1 0xFF MUL NOT AND SWAP1 DUP4 ISZERO ISZERO MUL OR SWAP1 SSTORE POP PUSH32 0x2AE767896E987FD31514551C92E54DCD13F83142C6C581A4186921042AF354AB DUP2 PUSH1 0x3 ADD PUSH1 0x0 SWAP1 SLOAD SWAP1 PUSH2 0x100 EXP SWAP1 DIV PUSH20 0xFFFFFFFFFFFFFFFFFFFFFFFFFFFFFFFFFFFFFFFF AND DUP3 PUSH1 0x1 ADD SLOAD PUSH1 0x40 MLOAD PUSH2 0x732 SWAP3 SWAP2 SWAP1 PUSH2 0x163A JUMP JUMPDEST PUSH1 0x40 MLOAD DUP1 SWAP2 SUB SWAP1 LOG1 POP POP JUMP JUMPDEST PUSH1 0x4 PUSH1 0x20 MSTORE DUP1 PUSH1 0x0 MSTORE PUSH1 0x40 PUSH1 0x0 KECCAK256 PUSH1 0x0 SWAP2 POP SWAP1 POP SLOAD DUP2 JUMP JUMPDEST PUSH1 0x7 SLOAD DUP2 JUMP JUMPDEST PUSH1 0x0 PUSH1 0x1 SLOAD SWAP1 POP SWAP1 JUMP JUMPDEST PUSH1 0x6 SLOAD DUP2 JUMP JUMPDEST PUSH1 0x0 DUP1 PUSH1 0x0 DUP1 PUSH1 0x0 PUSH1 0x3 SLOAD SELFBALANCE PUSH1 0x1 SLOAD PUSH1 0x5 SLOAD PUSH1 0x2 PUSH1 0x0 SWAP1 SLOAD SWAP1 PUSH2 0x100 EXP SWAP1 DIV PUSH20 0xFFFFFFFFFFFFFFFFFFFFFFFFFFFFFFFFFFFFFFFF AND SWAP5 POP SWAP5 POP SWAP5 POP SWAP5 POP SWAP5 POP SWAP1 SWAP2 SWAP3 SWAP4 SWAP5 JUMP JUMPDEST PUSH1 0x2 PUSH1 0x0 SWAP1 SLOAD SWAP1 PUSH2 0x100 EXP SWAP1 DIV PUSH20 0xFFFFFFFFFFFFFFFFFFFFFFFFFFFFFFFFFFFFFFFF AND DUP2 JUMP JUMPDEST PUSH1 0x0 PUSH1 0x20 MSTORE DUP1 PUSH1 0x0 MSTORE PUSH1 0x40 PUSH1 0x0 KECCAK256 PUSH1 0x0 SWAP2 POP SWAP1 POP DUP1 PUSH1 0x0 ADD DUP1 SLOAD PUSH2 0x7FB SWAP1 PUSH2 0x1692 JUMP JUMPDEST DUP1 PUSH1 0x1F ADD PUSH1 0x20 DUP1 SWAP2 DIV MUL PUSH1 0x20 ADD PUSH1 0x40 MLOAD SWAP1 DUP2 ADD PUSH1 0x40 MSTORE DUP1 SWAP3 SWAP2 SWAP1 DUP2 DUP2 MSTORE PUSH1 0x20 ADD DUP3 DUP1 SLOAD PUSH2 0x827 SWAP1 PUSH2 0x1692 JUMP JUMPDEST DUP1 ISZERO PUSH2 0x874 JUMPI DUP1 PUSH1 0x1F LT PUSH2 0x849 JUMPI PUSH2 0x100 DUP1 DUP4 SLOAD DIV MUL DUP4 MSTORE SWAP2 PUSH1 0x20 ADD SWAP2 PUSH2 0x874 JUMP JUMPDEST DUP3 ADD SWAP2 SWAP1 PUSH1 0x0 MSTORE PUSH1 0x20 PUSH1 0x0 KECCAK256 SWAP1 JUMPDEST DUP2 SLOAD DUP2 MSTORE SWAP1 PUSH1 0x1 ADD SWAP1 PUSH1 0x20 ADD DUP1 DUP4 GT PUSH2 0x857 JUMPI DUP3 SWAP1 SUB PUSH1 0x1F AND DUP3 ADD SWAP2 JUMPDEST POP POP POP POP POP SWAP1 DUP1 PUSH1 0x1 ADD SLOAD SWAP1 DUP1 PUSH1 0x2 ADD SLOAD SWAP1 DUP1 PUSH1 0x3 ADD PUSH1 0x0 SWAP1 SLOAD SWAP1 PUSH2 0x100 EXP SWAP1 DIV PUSH20 0xFFFFFFFFFFFFFFFFFFFFFFFFFFFFFFFFFFFFFFFF AND SWAP1 DUP1 PUSH1 0x3 ADD PUSH1 0x14 SWAP1 SLOAD SWAP1 PUSH2 0x100 EXP SWAP1 DIV PUSH1 0xFF AND SWAP1 POP DUP6 JUMP JUMPDEST PUSH1 0x5 SLOAD DUP2 JUMP JUMPDEST PUSH1 0x2 PUSH1 0x0 SWAP1 SLOAD SWAP1 PUSH2 0x100 EXP SWAP1 DIV PUSH20 0xFFFFFFFFFFFFFFFFFFFFFFFFFFFFFFFFFFFFFFFF AND PUSH20 0xFFFFFFFFFFFFFFFFFFFFFFFFFFFFFFFFFFFFFFFF AND CALLER PUSH20 0xFFFFFFFFFFFFFFFFFFFFFFFFFFFFFFFFFFFFFFFF AND EQ PUSH2 0x959 JUMPI PUSH1 0x40 MLOAD PUSH32 0x8C379A000000000000000000000000000000000000000000000000000000000 DUP2 MSTORE PUSH1 0x4 ADD PUSH2 0x950 SWAP1 PUSH2 0x14C9 JUMP JUMPDEST PUSH1 0x40 MLOAD DUP1 SWAP2 SUB SWAP1 REVERT JUMPDEST PUSH1 0x0 DUP1 PUSH1 0x0 PUSH1 0x1 SLOAD DUP2 MSTORE PUSH1 0x20 ADD SWAP1 DUP2 MSTORE PUSH1 0x20 ADD PUSH1 0x0 KECCAK256 SWAP1 POP PUSH1 0x1 PUSH1 0x0 DUP2 SLOAD DUP1 SWAP3 SWAP2 SWAP1 PUSH2 0x984 SWAP1 PUSH2 0x138F JUMP JUMPDEST SWAP2 SWAP1 POP SSTORE POP DUP4 DUP2 PUSH1 0x0 ADD SWAP1 DUP1 MLOAD SWAP1 PUSH1 0x20 ADD SWAP1 PUSH2 0x9A1 SWAP3 SWAP2 SWAP1 PUSH2 0xD3D JUMP JUMPDEST POP DUP3 DUP2 PUSH1 0x1 ADD DUP2 SWAP1 SSTORE POP DUP2 DUP2 PUSH1 0x3 ADD PUSH1 0x0 PUSH2 0x100 EXP DUP2 SLOAD DUP2 PUSH20 0xFFFFFFFFFFFFFFFFFFFFFFFFFFFFFFFFFFFFFFFF MUL NOT AND SWAP1 DUP4 PUSH20 0xFFFFFFFFFFFFFFFFFFFFFFFFFFFFFFFFFFFFFFFF AND MUL OR SWAP1 SSTORE POP PUSH1 0x0 DUP2 PUSH1 0x3 ADD PUSH1 0x14 PUSH2 0x100 EXP DUP2 SLOAD DUP2 PUSH1 0xFF MUL NOT AND SWAP1 DUP4 ISZERO ISZERO MUL OR SWAP1 SSTORE POP PUSH1 0x0 DUP2 PUSH1 0x2 ADD DUP2 SWAP1 SSTORE POP PUSH32 0x5392BD80651676CCAAEDEC1AFBE841D47E369223DF0BA1586110B6426EE87A3A DUP5 DUP4 DUP6 PUSH1 0x40 MLOAD PUSH2 0xA48 SWAP4 SWAP3 SWAP2 SWAP1 PUSH2 0x16C4 JUMP JUMPDEST PUSH1 0x40 MLOAD DUP1 SWAP2 SUB SWAP1 LOG1 POP POP POP POP JUMP JUMPDEST PUSH1 0x3 SLOAD DUP2 JUMP JUMPDEST PUSH1 0x1 SLOAD DUP2 JUMP JUMPDEST PUSH1 0x7 SLOAD TIMESTAMP GT DUP1 ISZERO PUSH2 0xA76 JUMPI POP PUSH1 0x6 SLOAD PUSH1 0x8 SLOAD LT JUMPDEST PUSH2 0xA7F JUMPI PUSH1 0x0 DUP1 REVERT JUMPDEST PUSH1 0x0 PUSH1 0x4 PUSH1 0x0 CALLER PUSH20 0xFFFFFFFFFFFFFFFFFFFFFFFFFFFFFFFFFFFFFFFF AND PUSH20 0xFFFFFFFFFFFFFFFFFFFFFFFFFFFFFFFFFFFFFFFF AND DUP2 MSTORE PUSH1 0x20 ADD SWAP1 DUP2 MSTORE PUSH1 0x20 ADD PUSH1 0x0 KECCAK256 SLOAD GT PUSH2 0xACB JUMPI PUSH1 0x0 DUP1 REVERT JUMPDEST CALLER PUSH20 0xFFFFFFFFFFFFFFFFFFFFFFFFFFFFFFFFFFFFFFFF AND PUSH2 0x8FC PUSH1 0x4 PUSH1 0x0 CALLER PUSH20 0xFFFFFFFFFFFFFFFFFFFFFFFFFFFFFFFFFFFFFFFF AND PUSH20 0xFFFFFFFFFFFFFFFFFFFFFFFFFFFFFFFFFFFFFFFF AND DUP2 MSTORE PUSH1 0x20 ADD SWAP1 DUP2 MSTORE PUSH1 0x20 ADD PUSH1 0x0 KECCAK256 SLOAD SWAP1 DUP2 ISZERO MUL SWAP1 PUSH1 0x40 MLOAD PUSH1 0x0 PUSH1 0x40 MLOAD DUP1 DUP4 SUB DUP2 DUP6 DUP9 DUP9 CALL SWAP4 POP POP POP POP ISZERO DUP1 ISZERO PUSH2 0xB50 JUMPI RETURNDATASIZE PUSH1 0x0 DUP1 RETURNDATACOPY RETURNDATASIZE PUSH1 0x0 REVERT JUMPDEST POP PUSH1 0x0 PUSH1 0x4 PUSH1 0x0 CALLER PUSH20 0xFFFFFFFFFFFFFFFFFFFFFFFFFFFFFFFFFFFFFFFF AND PUSH20 0xFFFFFFFFFFFFFFFFFFFFFFFFFFFFFFFFFFFFFFFF AND DUP2 MSTORE PUSH1 0x20 ADD SWAP1 DUP2 MSTORE PUSH1 0x20 ADD PUSH1 0x0 KECCAK256 DUP2 SWAP1 SSTORE POP JUMP JUMPDEST PUSH1 0x8 SLOAD DUP2 JUMP JUMPDEST PUSH1 0x0 PUSH1 0x4 PUSH1 0x0 CALLER PUSH20 0xFFFFFFFFFFFFFFFFFFFFFFFFFFFFFFFFFFFFFFFF AND PUSH20 0xFFFFFFFFFFFFFFFFFFFFFFFFFFFFFFFFFFFFFFFF AND DUP2 MSTORE PUSH1 0x20 ADD SWAP1 DUP2 MSTORE PUSH1 0x20 ADD PUSH1 0x0 KECCAK256 SLOAD GT PUSH2 0xC20 JUMPI PUSH1 0x40 MLOAD PUSH32 0x8C379A000000000000000000000000000000000000000000000000000000000 DUP2 MSTORE PUSH1 0x4 ADD PUSH2 0xC17 SWAP1 PUSH2 0x1774 JUMP JUMPDEST PUSH1 0x40 MLOAD DUP1 SWAP2 SUB SWAP1 REVERT JUMPDEST PUSH1 0x0 DUP1 PUSH1 0x0 DUP4 DUP2 MSTORE PUSH1 0x20 ADD SWAP1 DUP2 MSTORE PUSH1 0x20 ADD PUSH1 0x0 KECCAK256 SWAP1 POP DUP1 PUSH1 0x4 ADD PUSH1 0x0 CALLER PUSH20 0xFFFFFFFFFFFFFFFFFFFFFFFFFFFFFFFFFFFFFFFF AND PUSH20 0xFFFFFFFFFFFFFFFFFFFFFFFFFFFFFFFFFFFFFFFF AND DUP2 MSTORE PUSH1 0x20 ADD SWAP1 DUP2 MSTORE PUSH1 0x20 ADD PUSH1 0x0 KECCAK256 PUSH1 0x0 SWAP1 SLOAD SWAP1 PUSH2 0x100 EXP SWAP1 DIV PUSH1 0xFF AND ISZERO PUSH2 0xCC5 JUMPI PUSH1 0x40 MLOAD PUSH32 0x8C379A000000000000000000000000000000000000000000000000000000000 DUP2 MSTORE PUSH1 0x4 ADD PUSH2 0xCBC SWAP1 PUSH2 0x1806 JUMP JUMPDEST PUSH1 0x40 MLOAD DUP1 SWAP2 SUB SWAP1 REVERT JUMPDEST PUSH1 0x1 DUP2 PUSH1 0x4 ADD PUSH1 0x0 CALLER PUSH20 0xFFFFFFFFFFFFFFFFFFFFFFFFFFFFFFFFFFFFFFFF AND PUSH20 0xFFFFFFFFFFFFFFFFFFFFFFFFFFFFFFFFFFFFFFFF AND DUP2 MSTORE PUSH1 0x20 ADD SWAP1 DUP2 MSTORE PUSH1 0x20 ADD PUSH1 0x0 KECCAK256 PUSH1 0x0 PUSH2 0x100 EXP DUP2 SLOAD DUP2 PUSH1 0xFF MUL NOT AND SWAP1 DUP4 ISZERO ISZERO MUL OR SWAP1 SSTORE POP DUP1 PUSH1 0x2 ADD PUSH1 0x0 DUP2 SLOAD DUP1 SWAP3 SWAP2 SWAP1 PUSH2 0xD34 SWAP1 PUSH2 0x138F JUMP JUMPDEST SWAP2 SWAP1 POP SSTORE POP POP POP JUMP JUMPDEST DUP3 DUP1 SLOAD PUSH2 0xD49 SWAP1 PUSH2 0x1692 JUMP JUMPDEST SWAP1 PUSH1 0x0 MSTORE PUSH1 0x20 PUSH1 0x0 KECCAK256 SWAP1 PUSH1 0x1F ADD PUSH1 0x20 SWAP1 DIV DUP2 ADD SWAP3 DUP3 PUSH2 0xD6B JUMPI PUSH1 0x0 DUP6 SSTORE PUSH2 0xDB2 JUMP JUMPDEST DUP3 PUSH1 0x1F LT PUSH2 0xD84 JUMPI DUP1 MLOAD PUSH1 0xFF NOT AND DUP4 DUP1 ADD OR DUP6 SSTORE PUSH2 0xDB2 JUMP JUMPDEST DUP3 DUP1 ADD PUSH1 0x1 ADD DUP6 SSTORE DUP3 ISZERO PUSH2 0xDB2 JUMPI SWAP2 DUP3 ADD JUMPDEST DUP3 DUP2 GT ISZERO PUSH2 0xDB1 JUMPI DUP3 MLOAD DUP3 SSTORE SWAP2 PUSH1 0x20 ADD SWAP2 SWAP1 PUSH1 0x1 ADD SWAP1 PUSH2 0xD96 JUMP JUMPDEST JUMPDEST POP SWAP1 POP PUSH2 0xDBF SWAP2 SWAP1 PUSH2 0xDC3 JUMP JUMPDEST POP SWAP1 JUMP JUMPDEST JUMPDEST DUP1 DUP3 GT ISZERO PUSH2 0xDDC JUMPI PUSH1 0x0 DUP2 PUSH1 0x0 SWAP1 SSTORE POP PUSH1 0x1 ADD PUSH2 0xDC4 JUMP JUMPDEST POP SWAP1 JUMP JUMPDEST PUSH1 0x0 PUSH1 0x40 MLOAD SWAP1 POP SWAP1 JUMP JUMPDEST PUSH1 0x0 DUP1 REVERT JUMPDEST PUSH1 0x0 DUP1 REVERT JUMPDEST PUSH1 0x0 DUP2 SWAP1 POP SWAP2 SWAP1 POP JUMP JUMPDEST PUSH2 0xE07 DUP2 PUSH2 0xDF4 JUMP JUMPDEST DUP2 EQ PUSH2 0xE12 JUMPI PUSH1 0x0 DUP1 REVERT JUMPDEST POP JUMP JUMPDEST PUSH1 0x0 DUP2 CALLDATALOAD SWAP1 POP PUSH2 0xE24 DUP2 PUSH2 0xDFE JUMP JUMPDEST SWAP3 SWAP2 POP POP JUMP JUMPDEST PUSH1 0x0 PUSH1 0x20 DUP3 DUP5 SUB SLT ISZERO PUSH2 0xE40 JUMPI PUSH2 0xE3F PUSH2 0xDEA JUMP JUMPDEST JUMPDEST PUSH1 0x0 PUSH2 0xE4E DUP5 DUP3 DUP6 ADD PUSH2 0xE15 JUMP JUMPDEST SWAP2 POP POP SWAP3 SWAP2 POP POP JUMP JUMPDEST PUSH1 0x0 PUSH20 0xFFFFFFFFFFFFFFFFFFFFFFFFFFFFFFFFFFFFFFFF DUP3 AND SWAP1 POP SWAP2 SWAP1 POP JUMP JUMPDEST PUSH1 0x0 PUSH2 0xE82 DUP3 PUSH2 0xE57 JUMP JUMPDEST SWAP1 POP SWAP2 SWAP1 POP JUMP JUMPDEST PUSH2 0xE92 DUP2 PUSH2 0xE77 JUMP JUMPDEST DUP2 EQ PUSH2 0xE9D JUMPI PUSH1 0x0 DUP1 REVERT JUMPDEST POP JUMP JUMPDEST PUSH1 0x0 DUP2 CALLDATALOAD SWAP1 POP PUSH2 0xEAF DUP2 PUSH2 0xE89 JUMP JUMPDEST SWAP3 SWAP2 POP POP JUMP JUMPDEST PUSH1 0x0 PUSH1 0x20 DUP3 DUP5 SUB SLT ISZERO PUSH2 0xECB JUMPI PUSH2 0xECA PUSH2 0xDEA JUMP JUMPDEST JUMPDEST PUSH1 0x0 PUSH2 0xED9 DUP5 DUP3 DUP6 ADD PUSH2 0xEA0 JUMP JUMPDEST SWAP2 POP POP SWAP3 SWAP2 POP POP JUMP JUMPDEST PUSH2 0xEEB DUP2 PUSH2 0xDF4 JUMP JUMPDEST DUP3 MSTORE POP POP JUMP JUMPDEST PUSH1 0x0 PUSH1 0x20 DUP3 ADD SWAP1 POP PUSH2 0xF06 PUSH1 0x0 DUP4 ADD DUP5 PUSH2 0xEE2 JUMP JUMPDEST SWAP3 SWAP2 POP POP JUMP JUMPDEST PUSH2 0xF15 DUP2 PUSH2 0xE77 JUMP JUMPDEST DUP3 MSTORE POP POP JUMP JUMPDEST PUSH1 0x0 PUSH1 0xA0 DUP3 ADD SWAP1 POP PUSH2 0xF30 PUSH1 0x0 DUP4 ADD DUP9 PUSH2 0xEE2 JUMP JUMPDEST PUSH2 0xF3D PUSH1 0x20 DUP4 ADD DUP8 PUSH2 0xEE2 JUMP JUMPDEST PUSH2 0xF4A PUSH1 0x40 DUP4 ADD DUP7 PUSH2 0xEE2 JUMP JUMPDEST PUSH2 0xF57 PUSH1 0x60 DUP4 ADD DUP6 PUSH2 0xEE2 JUMP JUMPDEST PUSH2 0xF64 PUSH1 0x80 DUP4 ADD DUP5 PUSH2 0xF0C JUMP JUMPDEST SWAP7 SWAP6 POP POP POP POP POP POP JUMP JUMPDEST PUSH1 0x0 PUSH1 0x20 DUP3 ADD SWAP1 POP PUSH2 0xF83 PUSH1 0x0 DUP4 ADD DUP5 PUSH2 0xF0C JUMP JUMPDEST SWAP3 SWAP2 POP POP JUMP JUMPDEST PUSH1 0x0 DUP2 MLOAD SWAP1 POP SWAP2 SWAP1 POP JUMP JUMPDEST PUSH1 0x0 DUP3 DUP3 MSTORE PUSH1 0x20 DUP3 ADD SWAP1 POP SWAP3 SWAP2 POP POP JUMP JUMPDEST PUSH1 0x0 JUMPDEST DUP4 DUP2 LT ISZERO PUSH2 0xFC3 JUMPI DUP1 DUP3 ADD MLOAD DUP2 DUP5 ADD MSTORE PUSH1 0x20 DUP2 ADD SWAP1 POP PUSH2 0xFA8 JUMP JUMPDEST DUP4 DUP2 GT ISZERO PUSH2 0xFD2 JUMPI PUSH1 0x0 DUP5 DUP5 ADD MSTORE JUMPDEST POP POP POP POP JUMP JUMPDEST PUSH1 0x0 PUSH1 0x1F NOT PUSH1 0x1F DUP4 ADD AND SWAP1 POP SWAP2 SWAP1 POP JUMP JUMPDEST PUSH1 0x0 PUSH2 0xFF4 DUP3 PUSH2 0xF89 JUMP JUMPDEST PUSH2 0xFFE DUP2 DUP6 PUSH2 0xF94 JUMP JUMPDEST SWAP4 POP PUSH2 0x100E DUP2 DUP6 PUSH1 0x20 DUP7 ADD PUSH2 0xFA5 JUMP JUMPDEST PUSH2 0x1017 DUP2 PUSH2 0xFD8 JUMP JUMPDEST DUP5 ADD SWAP2 POP POP SWAP3 SWAP2 POP POP JUMP JUMPDEST PUSH1 0x0 PUSH2 0x102D DUP3 PUSH2 0xE57 JUMP JUMPDEST SWAP1 POP SWAP2 SWAP1 POP JUMP JUMPDEST PUSH2 0x103D DUP2 PUSH2 0x1022 JUMP JUMPDEST DUP3 MSTORE POP POP JUMP JUMPDEST PUSH1 0x0 DUP2 ISZERO ISZERO SWAP1 POP SWAP2 SWAP1 POP JUMP JUMPDEST PUSH2 0x1058 DUP2 PUSH2 0x1043 JUMP JUMPDEST DUP3 MSTORE POP POP JUMP JUMPDEST PUSH1 0x0 PUSH1 0xA0 DUP3 ADD SWAP1 POP DUP2 DUP2 SUB PUSH1 0x0 DUP4 ADD MSTORE PUSH2 0x1078 DUP2 DUP9 PUSH2 0xFE9 JUMP JUMPDEST SWAP1 POP PUSH2 0x1087 PUSH1 0x20 DUP4 ADD DUP8 PUSH2 0xEE2 JUMP JUMPDEST PUSH2 0x1094 PUSH1 0x40 DUP4 ADD DUP7 PUSH2 0xEE2 JUMP JUMPDEST PUSH2 0x10A1 PUSH1 0x60 DUP4 ADD DUP6 PUSH2 0x1034 JUMP JUMPDEST PUSH2 0x10AE PUSH1 0x80 DUP4 ADD DUP5 PUSH2 0x104F JUMP JUMPDEST SWAP7 SWAP6 POP POP POP POP POP POP JUMP JUMPDEST PUSH1 0x0 DUP1 REVERT JUMPDEST PUSH1 0x0 DUP1 REVERT JUMPDEST PUSH32 0x4E487B7100000000000000000000000000000000000000000000000000000000 PUSH1 0x0 MSTORE PUSH1 0x41 PUSH1 0x4 MSTORE PUSH1 0x24 PUSH1 0x0 REVERT JUMPDEST PUSH2 0x10FA DUP3 PUSH2 0xFD8 JUMP JUMPDEST DUP2 ADD DUP2 DUP2 LT PUSH8 0xFFFFFFFFFFFFFFFF DUP3 GT OR ISZERO PUSH2 0x1119 JUMPI PUSH2 0x1118 PUSH2 0x10C2 JUMP JUMPDEST JUMPDEST DUP1 PUSH1 0x40 MSTORE POP POP POP JUMP JUMPDEST PUSH1 0x0 PUSH2 0x112C PUSH2 0xDE0 JUMP JUMPDEST SWAP1 POP PUSH2 0x1138 DUP3 DUP3 PUSH2 0x10F1 JUMP JUMPDEST SWAP2 SWAP1 POP JUMP JUMPDEST PUSH1 0x0 PUSH8 0xFFFFFFFFFFFFFFFF DUP3 GT ISZERO PUSH2 0x1158 JUMPI PUSH2 0x1157 PUSH2 0x10C2 JUMP JUMPDEST JUMPDEST PUSH2 0x1161 DUP3 PUSH2 0xFD8 JUMP JUMPDEST SWAP1 POP PUSH1 0x20 DUP2 ADD SWAP1 POP SWAP2 SWAP1 POP JUMP JUMPDEST DUP3 DUP2 DUP4 CALLDATACOPY PUSH1 0x0 DUP4 DUP4 ADD MSTORE POP POP POP JUMP JUMPDEST PUSH1 0x0 PUSH2 0x1190 PUSH2 0x118B DUP5 PUSH2 0x113D JUMP JUMPDEST PUSH2 0x1122 JUMP JUMPDEST SWAP1 POP DUP3 DUP2 MSTORE PUSH1 0x20 DUP2 ADD DUP5 DUP5 DUP5 ADD GT ISZERO PUSH2 0x11AC JUMPI PUSH2 0x11AB PUSH2 0x10BD JUMP JUMPDEST JUMPDEST PUSH2 0x11B7 DUP5 DUP3 DUP6 PUSH2 0x116E JUMP JUMPDEST POP SWAP4 SWAP3 POP POP POP JUMP JUMPDEST PUSH1 0x0 DUP3 PUSH1 0x1F DUP4 ADD SLT PUSH2 0x11D4 JUMPI PUSH2 0x11D3 PUSH2 0x10B8 JUMP JUMPDEST JUMPDEST DUP2 CALLDATALOAD PUSH2 0x11E4 DUP5 DUP3 PUSH1 0x20 DUP7 ADD PUSH2 0x117D JUMP JUMPDEST SWAP2 POP POP SWAP3 SWAP2 POP POP JUMP JUMPDEST PUSH2 0x11F6 DUP2 PUSH2 0x1022 JUMP JUMPDEST DUP2 EQ PUSH2 0x1201 JUMPI PUSH1 0x0 DUP1 REVERT JUMPDEST POP JUMP JUMPDEST PUSH1 0x0 DUP2 CALLDATALOAD SWAP1 POP PUSH2 0x1213 DUP2 PUSH2 0x11ED JUMP JUMPDEST SWAP3 SWAP2 POP POP JUMP JUMPDEST PUSH1 0x0 DUP1 PUSH1 0x0 PUSH1 0x60 DUP5 DUP7 SUB SLT ISZERO PUSH2 0x1232 JUMPI PUSH2 0x1231 PUSH2 0xDEA JUMP JUMPDEST JUMPDEST PUSH1 0x0 DUP5 ADD CALLDATALOAD PUSH8 0xFFFFFFFFFFFFFFFF DUP2 GT ISZERO PUSH2 0x1250 JUMPI PUSH2 0x124F PUSH2 0xDEF JUMP JUMPDEST JUMPDEST PUSH2 0x125C DUP7 DUP3 DUP8 ADD PUSH2 0x11BF JUMP JUMPDEST SWAP4 POP POP PUSH1 0x20 PUSH2 0x126D DUP7 DUP3 DUP8 ADD PUSH2 0xE15 JUMP JUMPDEST SWAP3 POP POP PUSH1 0x40 PUSH2 0x127E DUP7 DUP3 DUP8 ADD PUSH2 0x1204 JUMP JUMPDEST SWAP2 POP POP SWAP3 POP SWAP3 POP SWAP3 JUMP JUMPDEST PUSH32 0x43616D7061696E672068617320616C72656164792066696E6973686564210000 PUSH1 0x0 DUP3 ADD MSTORE POP JUMP JUMPDEST PUSH1 0x0 PUSH2 0x12BE PUSH1 0x1E DUP4 PUSH2 0xF94 JUMP JUMPDEST SWAP2 POP PUSH2 0x12C9 DUP3 PUSH2 0x1288 JUMP JUMPDEST PUSH1 0x20 DUP3 ADD SWAP1 POP SWAP2 SWAP1 POP JUMP JUMPDEST PUSH1 0x0 PUSH1 0x20 DUP3 ADD SWAP1 POP DUP2 DUP2 SUB PUSH1 0x0 DUP4 ADD MSTORE PUSH2 0x12ED DUP2 PUSH2 0x12B1 JUMP JUMPDEST SWAP1 POP SWAP2 SWAP1 POP JUMP JUMPDEST PUSH32 0x4D696E696D756D20436F6E747269627574696F6E206E6F74206D657421000000 PUSH1 0x0 DUP3 ADD MSTORE POP JUMP JUMPDEST PUSH1 0x0 PUSH2 0x132A PUSH1 0x1D DUP4 PUSH2 0xF94 JUMP JUMPDEST SWAP2 POP PUSH2 0x1335 DUP3 PUSH2 0x12F4 JUMP JUMPDEST PUSH1 0x20 DUP3 ADD SWAP1 POP SWAP2 SWAP1 POP JUMP JUMPDEST PUSH1 0x0 PUSH1 0x20 DUP3 ADD SWAP1 POP DUP2 DUP2 SUB PUSH1 0x0 DUP4 ADD MSTORE PUSH2 0x1359 DUP2 PUSH2 0x131D JUMP JUMPDEST SWAP1 POP SWAP2 SWAP1 POP JUMP JUMPDEST PUSH32 0x4E487B7100000000000000000000000000000000000000000000000000000000 PUSH1 0x0 MSTORE PUSH1 0x11 PUSH1 0x4 MSTORE PUSH1 0x24 PUSH1 0x0 REVERT JUMPDEST PUSH1 0x0 PUSH2 0x139A DUP3 PUSH2 0xDF4 JUMP JUMPDEST SWAP2 POP PUSH32 0xFFFFFFFFFFFFFFFFFFFFFFFFFFFFFFFFFFFFFFFFFFFFFFFFFFFFFFFFFFFFFFFF DUP3 EQ ISZERO PUSH2 0x13CD JUMPI PUSH2 0x13CC PUSH2 0x1360 JUMP JUMPDEST JUMPDEST PUSH1 0x1 DUP3 ADD SWAP1 POP SWAP2 SWAP1 POP JUMP JUMPDEST PUSH1 0x0 PUSH2 0x13E3 DUP3 PUSH2 0xDF4 JUMP JUMPDEST SWAP2 POP PUSH2 0x13EE DUP4 PUSH2 0xDF4 JUMP JUMPDEST SWAP3 POP DUP3 PUSH32 0xFFFFFFFFFFFFFFFFFFFFFFFFFFFFFFFFFFFFFFFFFFFFFFFFFFFFFFFFFFFFFFFF SUB DUP3 GT ISZERO PUSH2 0x1423 JUMPI PUSH2 0x1422 PUSH2 0x1360 JUMP JUMPDEST JUMPDEST DUP3 DUP3 ADD SWAP1 POP SWAP3 SWAP2 POP POP JUMP JUMPDEST PUSH1 0x0 PUSH1 0x40 DUP3 ADD SWAP1 POP PUSH2 0x1443 PUSH1 0x0 DUP4 ADD DUP6 PUSH2 0xF0C JUMP JUMPDEST PUSH2 0x1450 PUSH1 0x20 DUP4 ADD DUP5 PUSH2 0xEE2 JUMP JUMPDEST SWAP4 SWAP3 POP POP POP JUMP JUMPDEST PUSH32 0x4F6E6C79206D616E616765722063616E2063616C6C20746F2074686973206675 PUSH1 0x0 DUP3 ADD MSTORE PUSH32 0x6E63696F6E210000000000000000000000000000000000000000000000000000 PUSH1 0x20 DUP3 ADD MSTORE POP JUMP JUMPDEST PUSH1 0x0 PUSH2 0x14B3 PUSH1 0x26 DUP4 PUSH2 0xF94 JUMP JUMPDEST SWAP2 POP PUSH2 0x14BE DUP3 PUSH2 0x1457 JUMP JUMPDEST PUSH1 0x40 DUP3 ADD SWAP1 POP SWAP2 SWAP1 POP JUMP JUMPDEST PUSH1 0x0 PUSH1 0x20 DUP3 ADD SWAP1 POP DUP2 DUP2 SUB PUSH1 0x0 DUP4 ADD MSTORE PUSH2 0x14E2 DUP2 PUSH2 0x14A6 JUMP JUMPDEST SWAP1 POP SWAP2 SWAP1 POP JUMP JUMPDEST PUSH32 0x54686520726571756573742068617320616C7265616479206265656E20636F6D PUSH1 0x0 DUP3 ADD MSTORE PUSH32 0x706C657465642100000000000000000000000000000000000000000000000000 PUSH1 0x20 DUP3 ADD MSTORE POP JUMP JUMPDEST PUSH1 0x0 PUSH2 0x1545 PUSH1 0x27 DUP4 PUSH2 0xF94 JUMP JUMPDEST SWAP2 POP PUSH2 0x1550 DUP3 PUSH2 0x14E9 JUMP JUMPDEST PUSH1 0x40 DUP3 ADD SWAP1 POP SWAP2 SWAP1 POP JUMP JUMPDEST PUSH1 0x0 PUSH1 0x20 DUP3 ADD SWAP1 POP DUP2 DUP2 SUB PUSH1 0x0 DUP4 ADD MSTORE PUSH2 0x1574 DUP2 PUSH2 0x1538 JUMP JUMPDEST SWAP1 POP SWAP2 SWAP1 POP JUMP JUMPDEST PUSH32 0x4E487B7100000000000000000000000000000000000000000000000000000000 PUSH1 0x0 MSTORE PUSH1 0x12 PUSH1 0x4 MSTORE PUSH1 0x24 PUSH1 0x0 REVERT JUMPDEST PUSH1 0x0 PUSH2 0x15B5 DUP3 PUSH2 0xDF4 JUMP JUMPDEST SWAP2 POP PUSH2 0x15C0 DUP4 PUSH2 0xDF4 JUMP JUMPDEST SWAP3 POP DUP3 PUSH2 0x15D0 JUMPI PUSH2 0x15CF PUSH2 0x157B JUMP JUMPDEST JUMPDEST DUP3 DUP3 DIV SWAP1 POP SWAP3 SWAP2 POP POP JUMP JUMPDEST PUSH1 0x0 DUP2 SWAP1 POP SWAP2 SWAP1 POP JUMP JUMPDEST PUSH1 0x0 PUSH2 0x1600 PUSH2 0x15FB PUSH2 0x15F6 DUP5 PUSH2 0xE57 JUMP JUMPDEST PUSH2 0x15DB JUMP JUMPDEST PUSH2 0xE57 JUMP JUMPDEST SWAP1 POP SWAP2 SWAP1 POP JUMP JUMPDEST PUSH1 0x0 PUSH2 0x1612 DUP3 PUSH2 0x15E5 JUMP JUMPDEST SWAP1 POP SWAP2 SWAP1 POP JUMP JUMPDEST PUSH1 0x0 PUSH2 0x1624 DUP3 PUSH2 0x1607 JUMP JUMPDEST SWAP1 POP SWAP2 SWAP1 POP JUMP JUMPDEST PUSH2 0x1634 DUP2 PUSH2 0x1619 JUMP JUMPDEST DUP3 MSTORE POP POP JUMP JUMPDEST PUSH1 0x0 PUSH1 0x40 DUP3 ADD SWAP1 POP PUSH2 0x164F PUSH1 0x0 DUP4 ADD DUP6 PUSH2 0x162B JUMP JUMPDEST PUSH2 0x165C PUSH1 0x20 DUP4 ADD DUP5 PUSH2 0xEE2 JUMP JUMPDEST SWAP4 SWAP3 POP POP POP JUMP JUMPDEST PUSH32 0x4E487B7100000000000000000000000000000000000000000000000000000000 PUSH1 0x0 MSTORE PUSH1 0x22 PUSH1 0x4 MSTORE PUSH1 0x24 PUSH1 0x0 REVERT JUMPDEST PUSH1 0x0 PUSH1 0x2 DUP3 DIV SWAP1 POP PUSH1 0x1 DUP3 AND DUP1 PUSH2 0x16AA JUMPI PUSH1 0x7F DUP3 AND SWAP2 POP JUMPDEST PUSH1 0x20 DUP3 LT DUP2 EQ ISZERO PUSH2 0x16BE JUMPI PUSH2 0x16BD PUSH2 0x1663 JUMP JUMPDEST JUMPDEST POP SWAP2 SWAP1 POP JUMP JUMPDEST PUSH1 0x0 PUSH1 0x60 DUP3 ADD SWAP1 POP DUP2 DUP2 SUB PUSH1 0x0 DUP4 ADD MSTORE PUSH2 0x16DE DUP2 DUP7 PUSH2 0xFE9 JUMP JUMPDEST SWAP1 POP PUSH2 0x16ED PUSH1 0x20 DUP4 ADD DUP6 PUSH2 0x162B JUMP JUMPDEST PUSH2 0x16FA PUSH1 0x40 DUP4 ADD DUP5 PUSH2 0xEE2 JUMP JUMPDEST SWAP5 SWAP4 POP POP POP POP JUMP JUMPDEST PUSH32 0x596F75206D757374206265206120636F6E7472696275746F7220746F20617070 PUSH1 0x0 DUP3 ADD MSTORE PUSH32 0x726F766520612072657175657374210000000000000000000000000000000000 PUSH1 0x20 DUP3 ADD MSTORE POP JUMP JUMPDEST PUSH1 0x0 PUSH2 0x175E PUSH1 0x2F DUP4 PUSH2 0xF94 JUMP JUMPDEST SWAP2 POP PUSH2 0x1769 DUP3 PUSH2 0x1702 JUMP JUMPDEST PUSH1 0x40 DUP3 ADD SWAP1 POP SWAP2 SWAP1 POP JUMP JUMPDEST PUSH1 0x0 PUSH1 0x20 DUP3 ADD SWAP1 POP DUP2 DUP2 SUB PUSH1 0x0 DUP4 ADD MSTORE PUSH2 0x178D DUP2 PUSH2 0x1751 JUMP JUMPDEST SWAP1 POP SWAP2 SWAP1 POP JUMP JUMPDEST PUSH32 0x596F75206861766520616C726561647920617070726F76656420746869732072 PUSH1 0x0 DUP3 ADD MSTORE PUSH32 0x6571756573742100000000000000000000000000000000000000000000000000 PUSH1 0x20 DUP3 ADD MSTORE POP JUMP JUMPDEST PUSH1 0x0 PUSH2 0x17F0 PUSH1 0x27 DUP4 PUSH2 0xF94 JUMP JUMPDEST SWAP2 POP PUSH2 0x17FB DUP3 PUSH2 0x1794 JUMP JUMPDEST PUSH1 0x40 DUP3 ADD SWAP1 POP SWAP2 SWAP1 POP JUMP JUMPDEST PUSH1 0x0 PUSH1 0x20 DUP3 ADD SWAP1 POP DUP2 DUP2 SUB PUSH1 0x0 DUP4 ADD MSTORE PUSH2 0x181F DUP2 PUSH2 0x17E3 JUMP JUMPDEST SWAP1 POP SWAP2 SWAP1 POP JUMP INVALID LOG2 PUSH5 0x6970667358 0x22 SLT KECCAK256 0xD3 SSTORE ISZERO 0xF9 COINBASE ISZERO JUMPDEST 0x1F DUP9 0xC7 SSTORE SWAP10 INVALID 0xB4 JUMP DUP10 LT 0xD4 0xC9 0xDE DUP3 0xD0 EXTCODECOPY KECCAK256 POP LOG2 SWAP15 PUSH11 0x488EACCB64736F6C634300 ADDMOD 0xC STOP CALLER "},"gasEstimates":{"creation":{"codeDepositCost":"1247200","executionCost":"infinite","totalCost":"infinite"},"external":{"approveRequest(uint256)":"infinite","approvers(address)":"2860","approversCount()":"2452","contribute()":"infinite","createRequest(string,uint256,address)":"infinite","deadline()":"2497","finalizeRequest(uint256)":"infinite","getRefund()":"infinite","getRequestsCount()":"2527","getSummary()":"infinite","goal()":"2452","manager()":"2581","minimumContribution()":"2496","numRequests()":"2518","raisedAmount()":"2473","requests(uint256)":"infinite"}},"methodIdentifiers":{"approveRequest(uint256)":"d7d1bbdb","approvers(address)":"0a144391","approversCount()":"82fde093","contribute()":"d7bb99ba","createRequest(string,uint256,address)":"8a9cfd55","deadline()":"29dcb0cf","finalizeRequest(uint256)":"03441006","getRefund()":"b2d5ae44","getRequestsCount()":"3410452a","getSummary()":"4051ddac","goal()":"40193883","manager()":"481c6a75","minimumContribution()":"937e09b1","numRequests()":"9fb42b1f","raisedAmount()":"c59ee1dc","requests(uint256)":"81d12c58"}},"storageLayout":{"storage":[{"astId":65,"contract":"Campaign.sol:Campaign","label":"requests","offset":0,"slot":"0","type":"t_mapping(t_uint256,t_struct(Request)60_storage)"},{"astId":67,"contract":"Campaign.sol:Campaign","label":"numRequests","offset":0,"slot":"1","type":"t_uint256"},{"astId":69,"contract":"Campaign.sol:Campaign","label":"manager","offset":0,"slot":"2","type":"t_address"},{"astId":71,"contract":"Campaign.sol:Campaign","label":"minimumContribution","offset":0,"slot":"3","type":"t_uint256"},{"astId":75,"contract":"Campaign.sol:Campaign","label":"approvers","offset":0,"slot":"4","type":"t_mapping(t_address,t_uint256)"},{"astId":77,"contract":"Campaign.sol:Campaign","label":"approversCount","offset":0,"slot":"5","type":"t_uint256"},{"astId":79,"contract":"Campaign.sol:Campaign","label":"goal","offset":0,"slot":"6","type":"t_uint256"},{"astId":81,"contract":"Campaign.sol:Campaign","label":"deadline","offset":0,"slot":"7","type":"t_uint256"},{"astId":83,"contract":"Campaign.sol:Campaign","label":"raisedAmount","offset":0,"slot":"8","type":"t_uint256"}],"types":{"t_address":{"encoding":"inplace","label":"address","numberOfBytes":"20"},"t_address_payable":{"encoding":"inplace","label":"address payable","numberOfBytes":"20"},"t_bool":{"encoding":"inplace","label":"bool","numberOfBytes":"1"},"t_mapping(t_address,t_bool)":{"encoding":"mapping","key":"t_address","label":"mapping(address => bool)","numberOfBytes":"32","value":"t_bool"},"t_mapping(t_address,t_uint256)":{"encoding":"mapping","key":"t_address","label":"mapping(address => uint256)","numberOfBytes":"32","value":"t_uint256"},"t_mapping(t_uint256,t_struct(Request)60_storage)":{"encoding":"mapping","key":"t_uint256","label":"mapping(uint256 => struct Campaign.Request)","numberOfBytes":"32","value":"t_struct(Request)60_storage"},"t_string_storage":{"encoding":"bytes","label":"string","numberOfBytes":"32"},"t_struct(Request)60_storage":{"encoding":"inplace","label":"struct Campaign.Request","members":[{"astId":47,"contract":"Campaign.sol:Campaign","label":"description","offset":0,"slot":"0","type":"t_string_storage"},{"astId":49,"contract":"Campaign.sol:Campaign","label":"value","offset":0,"slot":"1","type":"t_uint256"},{"astId":51,"contract":"Campaign.sol:Campaign","label":"approvalCount","offset":0,"slot":"2","type":"t_uint256"},{"astId":53,"contract":"Campaign.sol:Campaign","label":"recipient","offset":0,"slot":"3","type":"t_address_payable"},{"astId":55,"contract":"Campaign.sol:Campaign","label":"complete","offset":20,"slot":"3","type":"t_bool"},{"astId":59,"contract":"Campaign.sol:Campaign","label":"requestApprovers","offset":0,"slot":"4","type":"t_mapping(t_address,t_bool)"}],"numberOfBytes":"160"},"t_uint256":{"encoding":"inplace","label":"uint256","numberOfBytes":"32"}}},"userdoc":{"kind":"user","methods":{},"version":1}}