{"abi":[{"inputs":[{"internalType":"uint256","name":"_minimumContribution","type":"uint256"},{"internalType":"uint256","name":"_goal","type":"uint256"},{"internalType":"uint256","name":"_deadline","type":"uint256"}],"name":"createCampaign","outputs":[],"stateMutability":"nonpayable","type":"function"},{"inputs":[{"internalType":"uint256","name":"","type":"uint256"}],"name":"deployedCampaigns","outputs":[{"internalType":"contract Campaign","name":"","type":"address"}],"stateMutability":"view","type":"function"},{"inputs":[],"name":"getDeployedCampaigns","outputs":[{"internalType":"contract Campaign[]","name":"","type":"address[]"}],"stateMutability":"view","type":"function"}],"devdoc":{"kind":"dev","methods":{},"version":1},"evm":{"assembly":"    /* \"Campaign.sol\":65:494  contract CampaignFactory {... */\n  mstore(0x40, 0x80)\n  callvalue\n  dup1\n  iszero\n  tag_1\n  jumpi\n  0x00\n  dup1\n  revert\ntag_1:\n  pop\n  dataSize(sub_0)\n  dup1\n  dataOffset(sub_0)\n  0x00\n  codecopy\n  0x00\n  return\nstop\n\nsub_0: assembly {\n        /* \"Campaign.sol\":65:494  contract CampaignFactory {... */\n      mstore(0x40, 0x80)\n      callvalue\n      dup1\n      iszero\n      tag_1\n      jumpi\n      0x00\n      dup1\n      revert\n    tag_1:\n      pop\n      jumpi(tag_2, lt(calldatasize, 0x04))\n      shr(0xe0, calldataload(0x00))\n      dup1\n      0x339d50a5\n      eq\n      tag_3\n      jumpi\n      dup1\n      0x4acb9d4f\n      eq\n      tag_4\n      jumpi\n      dup1\n      0xf69d3158\n      eq\n      tag_5\n      jumpi\n    tag_2:\n      0x00\n      dup1\n      revert\n        /* \"Campaign.sol\":96:131  Campaign[] public deployedCampaigns */\n    tag_3:\n      tag_6\n      0x04\n      dup1\n      calldatasize\n      sub\n      dup2\n      add\n      swap1\n      tag_7\n      swap2\n      swap1\n      tag_8\n      jump\t// in\n    tag_7:\n      tag_9\n      jump\t// in\n    tag_6:\n      mload(0x40)\n      tag_10\n      swap2\n      swap1\n      tag_11\n      jump\t// in\n    tag_10:\n      mload(0x40)\n      dup1\n      swap2\n      sub\n      swap1\n      return\n        /* \"Campaign.sol\":379:492  function getDeployedCampaigns() public view returns (Campaign[] memory) {... */\n    tag_4:\n      tag_12\n      tag_13\n      jump\t// in\n    tag_12:\n      mload(0x40)\n      tag_14\n      swap2\n      swap1\n      tag_15\n      jump\t// in\n    tag_14:\n      mload(0x40)\n      dup1\n      swap2\n      sub\n      swap1\n      return\n        /* \"Campaign.sol\":138:373  function createCampaign(uint _minimumContribution, uint _goal, uint _deadline) public {... */\n    tag_5:\n      tag_16\n      0x04\n      dup1\n      calldatasize\n      sub\n      dup2\n      add\n      swap1\n      tag_17\n      swap2\n      swap1\n      tag_18\n      jump\t// in\n    tag_17:\n      tag_19\n      jump\t// in\n    tag_16:\n      stop\n        /* \"Campaign.sol\":96:131  Campaign[] public deployedCampaigns */\n    tag_9:\n      0x00\n      dup2\n      dup2\n      sload\n      dup2\n      lt\n      tag_20\n      jumpi\n      0x00\n      dup1\n      revert\n    tag_20:\n      swap1\n      0x00\n      mstore\n      keccak256(0x00, 0x20)\n      add\n      0x00\n      swap2\n      pop\n      sload\n      swap1\n      0x0100\n      exp\n      swap1\n      div\n      0xffffffffffffffffffffffffffffffffffffffff\n      and\n      dup2\n      jump\t// out\n        /* \"Campaign.sol\":379:492  function getDeployedCampaigns() public view returns (Campaign[] memory) {... */\n    tag_13:\n        /* \"Campaign.sol\":432:449  Campaign[] memory */\n      0x60\n        /* \"Campaign.sol\":468:485  deployedCampaigns */\n      0x00\n        /* \"Campaign.sol\":461:485  return deployedCampaigns */\n      dup1\n      sload\n      dup1\n      0x20\n      mul\n      0x20\n      add\n      mload(0x40)\n      swap1\n      dup2\n      add\n      0x40\n      mstore\n      dup1\n      swap3\n      swap2\n      swap1\n      dup2\n      dup2\n      mstore\n      0x20\n      add\n      dup3\n      dup1\n      sload\n      dup1\n      iszero\n      tag_23\n      jumpi\n      0x20\n      mul\n      dup3\n      add\n      swap2\n      swap1\n      0x00\n      mstore\n      keccak256(0x00, 0x20)\n      swap1\n    tag_24:\n      dup2\n      0x00\n      swap1\n      sload\n      swap1\n      0x0100\n      exp\n      swap1\n      div\n      0xffffffffffffffffffffffffffffffffffffffff\n      and\n      0xffffffffffffffffffffffffffffffffffffffff\n      and\n      dup2\n      mstore\n      0x20\n      add\n      swap1\n      0x01\n      add\n      swap1\n      dup1\n      dup4\n      gt\n      tag_24\n      jumpi\n    tag_23:\n      pop\n      pop\n      pop\n      pop\n      pop\n      swap1\n      pop\n        /* \"Campaign.sol\":379:492  function getDeployedCampaigns() public view returns (Campaign[] memory) {... */\n      swap1\n      jump\t// out\n        /* \"Campaign.sol\":138:373  function createCampaign(uint _minimumContribution, uint _goal, uint _deadline) public {... */\n    tag_19:\n        /* \"Campaign.sol\":234:254  Campaign newCampaign */\n      0x00\n        /* \"Campaign.sol\":270:290  _minimumContribution */\n      dup4\n        /* \"Campaign.sol\":292:302  msg.sender */\n      caller\n        /* \"Campaign.sol\":304:309  _goal */\n      dup5\n        /* \"Campaign.sol\":311:320  _deadline */\n      dup5\n        /* \"Campaign.sol\":257:321  new Campaign(_minimumContribution, msg.sender, _goal, _deadline) */\n      mload(0x40)\n      tag_26\n      swap1\n      tag_27\n      jump\t// in\n    tag_26:\n      tag_28\n      swap5\n      swap4\n      swap3\n      swap2\n      swap1\n      tag_29\n      jump\t// in\n    tag_28:\n      mload(0x40)\n      dup1\n      swap2\n      sub\n      swap1\n      0x00\n      create\n      dup1\n      iszero\n      dup1\n      iszero\n      tag_30\n      jumpi\n      returndatasize\n      0x00\n      dup1\n      returndatacopy\n      revert(0x00, returndatasize)\n    tag_30:\n      pop\n        /* \"Campaign.sol\":234:321  Campaign newCampaign = new Campaign(_minimumContribution, msg.sender, _goal, _deadline) */\n      swap1\n      pop\n        /* \"Campaign.sol\":331:348  deployedCampaigns */\n      0x00\n        /* \"Campaign.sol\":354:365  newCampaign */\n      dup2\n        /* \"Campaign.sol\":331:366  deployedCampaigns.push(newCampaign) */\n      swap1\n      dup1\n      0x01\n      dup2\n      sload\n      add\n      dup1\n      dup3\n      sstore\n      dup1\n      swap2\n      pop\n      pop\n      0x01\n      swap1\n      sub\n      swap1\n      0x00\n      mstore\n      keccak256(0x00, 0x20)\n      add\n      0x00\n      swap1\n      swap2\n      swap1\n      swap2\n      swap1\n      swap2\n      0x0100\n      exp\n      dup2\n      sload\n      dup2\n      0xffffffffffffffffffffffffffffffffffffffff\n      mul\n      not\n      and\n      swap1\n      dup4\n      0xffffffffffffffffffffffffffffffffffffffff\n      and\n      mul\n      or\n      swap1\n      sstore\n      pop\n        /* \"Campaign.sol\":224:373  {... */\n      pop\n        /* \"Campaign.sol\":138:373  function createCampaign(uint _minimumContribution, uint _goal, uint _deadline) public {... */\n      pop\n      pop\n      pop\n      jump\t// out\n    tag_27:\n      dataSize(sub_0)\n      dup1\n      dataOffset(sub_0)\n      dup4\n      codecopy\n      add\n      swap1\n      jump\t// out\n        /* \"#utility.yul\":88:205   */\n    tag_33:\n        /* \"#utility.yul\":197:198   */\n      0x00\n        /* \"#utility.yul\":194:195   */\n      dup1\n        /* \"#utility.yul\":187:199   */\n      revert\n        /* \"#utility.yul\":334:411   */\n    tag_35:\n        /* \"#utility.yul\":371:378   */\n      0x00\n        /* \"#utility.yul\":400:405   */\n      dup2\n        /* \"#utility.yul\":389:405   */\n      swap1\n      pop\n        /* \"#utility.yul\":334:411   */\n      swap2\n      swap1\n      pop\n      jump\t// out\n        /* \"#utility.yul\":417:539   */\n    tag_36:\n        /* \"#utility.yul\":490:514   */\n      tag_60\n        /* \"#utility.yul\":508:513   */\n      dup2\n        /* \"#utility.yul\":490:514   */\n      tag_35\n      jump\t// in\n    tag_60:\n        /* \"#utility.yul\":483:488   */\n      dup2\n        /* \"#utility.yul\":480:515   */\n      eq\n        /* \"#utility.yul\":470:533   */\n      tag_61\n      jumpi\n        /* \"#utility.yul\":529:530   */\n      0x00\n        /* \"#utility.yul\":526:527   */\n      dup1\n        /* \"#utility.yul\":519:531   */\n      revert\n        /* \"#utility.yul\":470:533   */\n    tag_61:\n        /* \"#utility.yul\":417:539   */\n      pop\n      jump\t// out\n        /* \"#utility.yul\":545:684   */\n    tag_37:\n        /* \"#utility.yul\":591:596   */\n      0x00\n        /* \"#utility.yul\":629:635   */\n      dup2\n        /* \"#utility.yul\":616:636   */\n      calldataload\n        /* \"#utility.yul\":607:636   */\n      swap1\n      pop\n        /* \"#utility.yul\":645:678   */\n      tag_63\n        /* \"#utility.yul\":672:677   */\n      dup2\n        /* \"#utility.yul\":645:678   */\n      tag_36\n      jump\t// in\n    tag_63:\n        /* \"#utility.yul\":545:684   */\n      swap3\n      swap2\n      pop\n      pop\n      jump\t// out\n        /* \"#utility.yul\":690:1019   */\n    tag_8:\n        /* \"#utility.yul\":749:755   */\n      0x00\n        /* \"#utility.yul\":798:800   */\n      0x20\n        /* \"#utility.yul\":786:795   */\n      dup3\n        /* \"#utility.yul\":777:784   */\n      dup5\n        /* \"#utility.yul\":773:796   */\n      sub\n        /* \"#utility.yul\":769:801   */\n      slt\n        /* \"#utility.yul\":766:885   */\n      iszero\n      tag_65\n      jumpi\n        /* \"#utility.yul\":804:883   */\n      tag_66\n      tag_33\n      jump\t// in\n    tag_66:\n        /* \"#utility.yul\":766:885   */\n    tag_65:\n        /* \"#utility.yul\":924:925   */\n      0x00\n        /* \"#utility.yul\":949:1002   */\n      tag_67\n        /* \"#utility.yul\":994:1001   */\n      dup5\n        /* \"#utility.yul\":985:991   */\n      dup3\n        /* \"#utility.yul\":974:983   */\n      dup6\n        /* \"#utility.yul\":970:992   */\n      add\n        /* \"#utility.yul\":949:1002   */\n      tag_37\n      jump\t// in\n    tag_67:\n        /* \"#utility.yul\":939:1002   */\n      swap2\n      pop\n        /* \"#utility.yul\":895:1012   */\n      pop\n        /* \"#utility.yul\":690:1019   */\n      swap3\n      swap2\n      pop\n      pop\n      jump\t// out\n        /* \"#utility.yul\":1025:1151   */\n    tag_38:\n        /* \"#utility.yul\":1062:1069   */\n      0x00\n        /* \"#utility.yul\":1102:1144   */\n      0xffffffffffffffffffffffffffffffffffffffff\n        /* \"#utility.yul\":1095:1100   */\n      dup3\n        /* \"#utility.yul\":1091:1145   */\n      and\n        /* \"#utility.yul\":1080:1145   */\n      swap1\n      pop\n        /* \"#utility.yul\":1025:1151   */\n      swap2\n      swap1\n      pop\n      jump\t// out\n        /* \"#utility.yul\":1157:1217   */\n    tag_39:\n        /* \"#utility.yul\":1185:1188   */\n      0x00\n        /* \"#utility.yul\":1206:1211   */\n      dup2\n        /* \"#utility.yul\":1199:1211   */\n      swap1\n      pop\n        /* \"#utility.yul\":1157:1217   */\n      swap2\n      swap1\n      pop\n      jump\t// out\n        /* \"#utility.yul\":1223:1365   */\n    tag_40:\n        /* \"#utility.yul\":1273:1282   */\n      0x00\n        /* \"#utility.yul\":1306:1359   */\n      tag_71\n        /* \"#utility.yul\":1324:1358   */\n      tag_72\n        /* \"#utility.yul\":1333:1357   */\n      tag_73\n        /* \"#utility.yul\":1351:1356   */\n      dup5\n        /* \"#utility.yul\":1333:1357   */\n      tag_38\n      jump\t// in\n    tag_73:\n        /* \"#utility.yul\":1324:1358   */\n      tag_39\n      jump\t// in\n    tag_72:\n        /* \"#utility.yul\":1306:1359   */\n      tag_38\n      jump\t// in\n    tag_71:\n        /* \"#utility.yul\":1293:1359   */\n      swap1\n      pop\n        /* \"#utility.yul\":1223:1365   */\n      swap2\n      swap1\n      pop\n      jump\t// out\n        /* \"#utility.yul\":1371:1505   */\n    tag_41:\n        /* \"#utility.yul\":1429:1438   */\n      0x00\n        /* \"#utility.yul\":1462:1499   */\n      tag_75\n        /* \"#utility.yul\":1493:1498   */\n      dup3\n        /* \"#utility.yul\":1462:1499   */\n      tag_40\n      jump\t// in\n    tag_75:\n        /* \"#utility.yul\":1449:1499   */\n      swap1\n      pop\n        /* \"#utility.yul\":1371:1505   */\n      swap2\n      swap1\n      pop\n      jump\t// out\n        /* \"#utility.yul\":1511:1669   */\n    tag_42:\n        /* \"#utility.yul\":1585:1594   */\n      0x00\n        /* \"#utility.yul\":1618:1663   */\n      tag_77\n        /* \"#utility.yul\":1657:1662   */\n      dup3\n        /* \"#utility.yul\":1618:1663   */\n      tag_41\n      jump\t// in\n    tag_77:\n        /* \"#utility.yul\":1605:1663   */\n      swap1\n      pop\n        /* \"#utility.yul\":1511:1669   */\n      swap2\n      swap1\n      pop\n      jump\t// out\n        /* \"#utility.yul\":1675:1854   */\n    tag_43:\n        /* \"#utility.yul\":1786:1847   */\n      tag_79\n        /* \"#utility.yul\":1841:1846   */\n      dup2\n        /* \"#utility.yul\":1786:1847   */\n      tag_42\n      jump\t// in\n    tag_79:\n        /* \"#utility.yul\":1781:1784   */\n      dup3\n        /* \"#utility.yul\":1774:1848   */\n      mstore\n        /* \"#utility.yul\":1675:1854   */\n      pop\n      pop\n      jump\t// out\n        /* \"#utility.yul\":1860:2130   */\n    tag_11:\n        /* \"#utility.yul\":1977:1981   */\n      0x00\n        /* \"#utility.yul\":2015:2017   */\n      0x20\n        /* \"#utility.yul\":2004:2013   */\n      dup3\n        /* \"#utility.yul\":2000:2018   */\n      add\n        /* \"#utility.yul\":1992:2018   */\n      swap1\n      pop\n        /* \"#utility.yul\":2028:2123   */\n      tag_81\n        /* \"#utility.yul\":2120:2121   */\n      0x00\n        /* \"#utility.yul\":2109:2118   */\n      dup4\n        /* \"#utility.yul\":2105:2122   */\n      add\n        /* \"#utility.yul\":2096:2102   */\n      dup5\n        /* \"#utility.yul\":2028:2123   */\n      tag_43\n      jump\t// in\n    tag_81:\n        /* \"#utility.yul\":1860:2130   */\n      swap3\n      swap2\n      pop\n      pop\n      jump\t// out\n        /* \"#utility.yul\":2136:2266   */\n    tag_44:\n        /* \"#utility.yul\":2219:2225   */\n      0x00\n        /* \"#utility.yul\":2253:2258   */\n      dup2\n        /* \"#utility.yul\":2247:2259   */\n      mload\n        /* \"#utility.yul\":2237:2259   */\n      swap1\n      pop\n        /* \"#utility.yul\":2136:2266   */\n      swap2\n      swap1\n      pop\n      jump\t// out\n        /* \"#utility.yul\":2272:2464   */\n    tag_45:\n        /* \"#utility.yul\":2379:2390   */\n      0x00\n        /* \"#utility.yul\":2413:2419   */\n      dup3\n        /* \"#utility.yul\":2408:2411   */\n      dup3\n        /* \"#utility.yul\":2401:2420   */\n      mstore\n        /* \"#utility.yul\":2453:2457   */\n      0x20\n        /* \"#utility.yul\":2448:2451   */\n      dup3\n        /* \"#utility.yul\":2444:2458   */\n      add\n        /* \"#utility.yul\":2429:2458   */\n      swap1\n      pop\n        /* \"#utility.yul\":2272:2464   */\n      swap3\n      swap2\n      pop\n      pop\n      jump\t// out\n        /* \"#utility.yul\":2470:2618   */\n    tag_46:\n        /* \"#utility.yul\":2553:2557   */\n      0x00\n        /* \"#utility.yul\":2576:2579   */\n      dup2\n        /* \"#utility.yul\":2568:2579   */\n      swap1\n      pop\n        /* \"#utility.yul\":2606:2610   */\n      0x20\n        /* \"#utility.yul\":2601:2604   */\n      dup3\n        /* \"#utility.yul\":2597:2611   */\n      add\n        /* \"#utility.yul\":2589:2611   */\n      swap1\n      pop\n        /* \"#utility.yul\":2470:2618   */\n      swap2\n      swap1\n      pop\n      jump\t// out\n        /* \"#utility.yul\":2624:2793   */\n    tag_47:\n        /* \"#utility.yul\":2725:2786   */\n      tag_86\n        /* \"#utility.yul\":2780:2785   */\n      dup2\n        /* \"#utility.yul\":2725:2786   */\n      tag_42\n      jump\t// in\n    tag_86:\n        /* \"#utility.yul\":2720:2723   */\n      dup3\n        /* \"#utility.yul\":2713:2787   */\n      mstore\n        /* \"#utility.yul\":2624:2793   */\n      pop\n      pop\n      jump\t// out\n        /* \"#utility.yul\":2799:3026   */\n    tag_48:\n        /* \"#utility.yul\":2892:2902   */\n      0x00\n        /* \"#utility.yul\":2913:2983   */\n      tag_88\n        /* \"#utility.yul\":2979:2982   */\n      dup4\n        /* \"#utility.yul\":2971:2977   */\n      dup4\n        /* \"#utility.yul\":2913:2983   */\n      tag_47\n      jump\t// in\n    tag_88:\n        /* \"#utility.yul\":3015:3019   */\n      0x20\n        /* \"#utility.yul\":3010:3013   */\n      dup4\n        /* \"#utility.yul\":3006:3020   */\n      add\n        /* \"#utility.yul\":2992:3020   */\n      swap1\n      pop\n        /* \"#utility.yul\":2799:3026   */\n      swap3\n      swap2\n      pop\n      pop\n      jump\t// out\n        /* \"#utility.yul\":3032:3161   */\n    tag_49:\n        /* \"#utility.yul\":3118:3122   */\n      0x00\n        /* \"#utility.yul\":3150:3154   */\n      0x20\n        /* \"#utility.yul\":3145:3148   */\n      dup3\n        /* \"#utility.yul\":3141:3155   */\n      add\n        /* \"#utility.yul\":3133:3155   */\n      swap1\n      pop\n        /* \"#utility.yul\":3032:3161   */\n      swap2\n      swap1\n      pop\n      jump\t// out\n        /* \"#utility.yul\":3215:4051   */\n    tag_50:\n        /* \"#utility.yul\":3358:3361   */\n      0x00\n        /* \"#utility.yul\":3387:3457   */\n      tag_91\n        /* \"#utility.yul\":3451:3456   */\n      dup3\n        /* \"#utility.yul\":3387:3457   */\n      tag_44\n      jump\t// in\n    tag_91:\n        /* \"#utility.yul\":3473:3567   */\n      tag_92\n        /* \"#utility.yul\":3560:3566   */\n      dup2\n        /* \"#utility.yul\":3555:3558   */\n      dup6\n        /* \"#utility.yul\":3473:3567   */\n      tag_45\n      jump\t// in\n    tag_92:\n        /* \"#utility.yul\":3466:3567   */\n      swap4\n      pop\n        /* \"#utility.yul\":3591:3663   */\n      tag_93\n        /* \"#utility.yul\":3657:3662   */\n      dup4\n        /* \"#utility.yul\":3591:3663   */\n      tag_46\n      jump\t// in\n    tag_93:\n        /* \"#utility.yul\":3686:3693   */\n      dup1\n        /* \"#utility.yul\":3717:3718   */\n      0x00\n        /* \"#utility.yul\":3702:4026   */\n    tag_94:\n        /* \"#utility.yul\":3727:3733   */\n      dup4\n        /* \"#utility.yul\":3724:3725   */\n      dup2\n        /* \"#utility.yul\":3721:3734   */\n      lt\n        /* \"#utility.yul\":3702:4026   */\n      iszero\n      tag_96\n      jumpi\n        /* \"#utility.yul\":3803:3809   */\n      dup2\n        /* \"#utility.yul\":3797:3810   */\n      mload\n        /* \"#utility.yul\":3830:3917   */\n      tag_97\n        /* \"#utility.yul\":3913:3916   */\n      dup9\n        /* \"#utility.yul\":3898:3911   */\n      dup3\n        /* \"#utility.yul\":3830:3917   */\n      tag_48\n      jump\t// in\n    tag_97:\n        /* \"#utility.yul\":3823:3917   */\n      swap8\n      pop\n        /* \"#utility.yul\":3940:4016   */\n      tag_98\n        /* \"#utility.yul\":4009:4015   */\n      dup4\n        /* \"#utility.yul\":3940:4016   */\n      tag_49\n      jump\t// in\n    tag_98:\n        /* \"#utility.yul\":3930:4016   */\n      swap3\n      pop\n        /* \"#utility.yul\":3762:4026   */\n      pop\n        /* \"#utility.yul\":3749:3750   */\n      0x01\n        /* \"#utility.yul\":3746:3747   */\n      dup2\n        /* \"#utility.yul\":3742:3751   */\n      add\n        /* \"#utility.yul\":3737:3751   */\n      swap1\n      pop\n        /* \"#utility.yul\":3702:4026   */\n      jump(tag_94)\n    tag_96:\n        /* \"#utility.yul\":3706:3720   */\n      pop\n        /* \"#utility.yul\":4042:4045   */\n      dup6\n        /* \"#utility.yul\":4035:4045   */\n      swap4\n      pop\n        /* \"#utility.yul\":3363:4051   */\n      pop\n      pop\n      pop\n        /* \"#utility.yul\":3215:4051   */\n      swap3\n      swap2\n      pop\n      pop\n      jump\t// out\n        /* \"#utility.yul\":4057:4478   */\n    tag_15:\n        /* \"#utility.yul\":4224:4228   */\n      0x00\n        /* \"#utility.yul\":4262:4264   */\n      0x20\n        /* \"#utility.yul\":4251:4260   */\n      dup3\n        /* \"#utility.yul\":4247:4265   */\n      add\n        /* \"#utility.yul\":4239:4265   */\n      swap1\n      pop\n        /* \"#utility.yul\":4311:4320   */\n      dup2\n        /* \"#utility.yul\":4305:4309   */\n      dup2\n        /* \"#utility.yul\":4301:4321   */\n      sub\n        /* \"#utility.yul\":4297:4298   */\n      0x00\n        /* \"#utility.yul\":4286:4295   */\n      dup4\n        /* \"#utility.yul\":4282:4299   */\n      add\n        /* \"#utility.yul\":4275:4322   */\n      mstore\n        /* \"#utility.yul\":4339:4471   */\n      tag_100\n        /* \"#utility.yul\":4466:4470   */\n      dup2\n        /* \"#utility.yul\":4457:4463   */\n      dup5\n        /* \"#utility.yul\":4339:4471   */\n      tag_50\n      jump\t// in\n    tag_100:\n        /* \"#utility.yul\":4331:4471   */\n      swap1\n      pop\n        /* \"#utility.yul\":4057:4478   */\n      swap3\n      swap2\n      pop\n      pop\n      jump\t// out\n        /* \"#utility.yul\":4484:5103   */\n    tag_18:\n        /* \"#utility.yul\":4561:4567   */\n      0x00\n        /* \"#utility.yul\":4569:4575   */\n      dup1\n        /* \"#utility.yul\":4577:4583   */\n      0x00\n        /* \"#utility.yul\":4626:4628   */\n      0x60\n        /* \"#utility.yul\":4614:4623   */\n      dup5\n        /* \"#utility.yul\":4605:4612   */\n      dup7\n        /* \"#utility.yul\":4601:4624   */\n      sub\n        /* \"#utility.yul\":4597:4629   */\n      slt\n        /* \"#utility.yul\":4594:4713   */\n      iszero\n      tag_102\n      jumpi\n        /* \"#utility.yul\":4632:4711   */\n      tag_103\n      tag_33\n      jump\t// in\n    tag_103:\n        /* \"#utility.yul\":4594:4713   */\n    tag_102:\n        /* \"#utility.yul\":4752:4753   */\n      0x00\n        /* \"#utility.yul\":4777:4830   */\n      tag_104\n        /* \"#utility.yul\":4822:4829   */\n      dup7\n        /* \"#utility.yul\":4813:4819   */\n      dup3\n        /* \"#utility.yul\":4802:4811   */\n      dup8\n        /* \"#utility.yul\":4798:4820   */\n      add\n        /* \"#utility.yul\":4777:4830   */\n      tag_37\n      jump\t// in\n    tag_104:\n        /* \"#utility.yul\":4767:4830   */\n      swap4\n      pop\n        /* \"#utility.yul\":4723:4840   */\n      pop\n        /* \"#utility.yul\":4879:4881   */\n      0x20\n        /* \"#utility.yul\":4905:4958   */\n      tag_105\n        /* \"#utility.yul\":4950:4957   */\n      dup7\n        /* \"#utility.yul\":4941:4947   */\n      dup3\n        /* \"#utility.yul\":4930:4939   */\n      dup8\n        /* \"#utility.yul\":4926:4948   */\n      add\n        /* \"#utility.yul\":4905:4958   */\n      tag_37\n      jump\t// in\n    tag_105:\n        /* \"#utility.yul\":4895:4958   */\n      swap3\n      pop\n        /* \"#utility.yul\":4850:4968   */\n      pop\n        /* \"#utility.yul\":5007:5009   */\n      0x40\n        /* \"#utility.yul\":5033:5086   */\n      tag_106\n        /* \"#utility.yul\":5078:5085   */\n      dup7\n        /* \"#utility.yul\":5069:5075   */\n      dup3\n        /* \"#utility.yul\":5058:5067   */\n      dup8\n        /* \"#utility.yul\":5054:5076   */\n      add\n        /* \"#utility.yul\":5033:5086   */\n      tag_37\n      jump\t// in\n    tag_106:\n        /* \"#utility.yul\":5023:5086   */\n      swap2\n      pop\n        /* \"#utility.yul\":4978:5096   */\n      pop\n        /* \"#utility.yul\":4484:5103   */\n      swap3\n      pop\n      swap3\n      pop\n      swap3\n      jump\t// out\n        /* \"#utility.yul\":5109:5227   */\n    tag_51:\n        /* \"#utility.yul\":5196:5220   */\n      tag_108\n        /* \"#utility.yul\":5214:5219   */\n      dup2\n        /* \"#utility.yul\":5196:5220   */\n      tag_35\n      jump\t// in\n    tag_108:\n        /* \"#utility.yul\":5191:5194   */\n      dup3\n        /* \"#utility.yul\":5184:5221   */\n      mstore\n        /* \"#utility.yul\":5109:5227   */\n      pop\n      pop\n      jump\t// out\n        /* \"#utility.yul\":5233:5329   */\n    tag_52:\n        /* \"#utility.yul\":5270:5277   */\n      0x00\n        /* \"#utility.yul\":5299:5323   */\n      tag_110\n        /* \"#utility.yul\":5317:5322   */\n      dup3\n        /* \"#utility.yul\":5299:5323   */\n      tag_38\n      jump\t// in\n    tag_110:\n        /* \"#utility.yul\":5288:5323   */\n      swap1\n      pop\n        /* \"#utility.yul\":5233:5329   */\n      swap2\n      swap1\n      pop\n      jump\t// out\n        /* \"#utility.yul\":5335:5453   */\n    tag_53:\n        /* \"#utility.yul\":5422:5446   */\n      tag_112\n        /* \"#utility.yul\":5440:5445   */\n      dup2\n        /* \"#utility.yul\":5422:5446   */\n      tag_52\n      jump\t// in\n    tag_112:\n        /* \"#utility.yul\":5417:5420   */\n      dup3\n        /* \"#utility.yul\":5410:5447   */\n      mstore\n        /* \"#utility.yul\":5335:5453   */\n      pop\n      pop\n      jump\t// out\n        /* \"#utility.yul\":5459:6012   */\n    tag_29:\n        /* \"#utility.yul\":5636:5640   */\n      0x00\n        /* \"#utility.yul\":5674:5677   */\n      0x80\n        /* \"#utility.yul\":5663:5672   */\n      dup3\n        /* \"#utility.yul\":5659:5678   */\n      add\n        /* \"#utility.yul\":5651:5678   */\n      swap1\n      pop\n        /* \"#utility.yul\":5688:5759   */\n      tag_114\n        /* \"#utility.yul\":5756:5757   */\n      0x00\n        /* \"#utility.yul\":5745:5754   */\n      dup4\n        /* \"#utility.yul\":5741:5758   */\n      add\n        /* \"#utility.yul\":5732:5738   */\n      dup8\n        /* \"#utility.yul\":5688:5759   */\n      tag_51\n      jump\t// in\n    tag_114:\n        /* \"#utility.yul\":5769:5841   */\n      tag_115\n        /* \"#utility.yul\":5837:5839   */\n      0x20\n        /* \"#utility.yul\":5826:5835   */\n      dup4\n        /* \"#utility.yul\":5822:5840   */\n      add\n        /* \"#utility.yul\":5813:5819   */\n      dup7\n        /* \"#utility.yul\":5769:5841   */\n      tag_53\n      jump\t// in\n    tag_115:\n        /* \"#utility.yul\":5851:5923   */\n      tag_116\n        /* \"#utility.yul\":5919:5921   */\n      0x40\n        /* \"#utility.yul\":5908:5917   */\n      dup4\n        /* \"#utility.yul\":5904:5922   */\n      add\n        /* \"#utility.yul\":5895:5901   */\n      dup6\n        /* \"#utility.yul\":5851:5923   */\n      tag_51\n      jump\t// in\n    tag_116:\n        /* \"#utility.yul\":5933:6005   */\n      tag_117\n        /* \"#utility.yul\":6001:6003   */\n      0x60\n        /* \"#utility.yul\":5990:5999   */\n      dup4\n        /* \"#utility.yul\":5986:6004   */\n      add\n        /* \"#utility.yul\":5977:5983   */\n      dup5\n        /* \"#utility.yul\":5933:6005   */\n      tag_51\n      jump\t// in\n    tag_117:\n        /* \"#utility.yul\":5459:6012   */\n      swap6\n      swap5\n      pop\n      pop\n      pop\n      pop\n      pop\n      jump\t// out\n    stop\n\n    sub_0: assembly {\n            /* \"Campaign.sol\":496:4193  contract Campaign {... */\n          mstore(0x40, 0x80)\n            /* \"Campaign.sol\":1411:1629  constructor(uint _minimum, address _creator, uint _goal, uint _deadline) {... */\n          callvalue\n          dup1\n          iszero\n          tag_1\n          jumpi\n          0x00\n          dup1\n          revert\n        tag_1:\n          pop\n          mload(0x40)\n          sub(codesize, bytecodeSize)\n          dup1\n          bytecodeSize\n          dup4\n          codecopy\n          dup2\n          dup2\n          add\n          0x40\n          mstore\n          dup2\n          add\n          swap1\n          tag_2\n          swap2\n          swap1\n          tag_3\n          jump\t// in\n        tag_2:\n            /* \"Campaign.sol\":1504:1512  _creator */\n          dup3\n            /* \"Campaign.sol\":1494:1501  manager */\n          0x02\n          0x00\n            /* \"Campaign.sol\":1494:1512  manager = _creator */\n          0x0100\n          exp\n          dup2\n          sload\n          dup2\n          0xffffffffffffffffffffffffffffffffffffffff\n          mul\n          not\n          and\n          swap1\n          dup4\n          0xffffffffffffffffffffffffffffffffffffffff\n          and\n          mul\n          or\n          swap1\n          sstore\n          pop\n            /* \"Campaign.sol\":1544:1552  _minimum */\n          dup4\n            /* \"Campaign.sol\":1522:1541  minimumContribution */\n          0x03\n            /* \"Campaign.sol\":1522:1552  minimumContribution = _minimum */\n          dup2\n          swap1\n          sstore\n          pop\n            /* \"Campaign.sol\":1569:1574  _goal */\n          dup2\n            /* \"Campaign.sol\":1562:1566  goal */\n          0x06\n            /* \"Campaign.sol\":1562:1574  goal = _goal */\n          dup2\n          swap1\n          sstore\n          pop\n            /* \"Campaign.sol\":1613:1622  _deadline */\n          dup1\n            /* \"Campaign.sol\":1595:1610  block.timestamp */\n          timestamp\n            /* \"Campaign.sol\":1595:1622  block.timestamp + _deadline */\n          tag_6\n          swap2\n          swap1\n          tag_7\n          jump\t// in\n        tag_6:\n            /* \"Campaign.sol\":1584:1592  deadline */\n          0x07\n            /* \"Campaign.sol\":1584:1622  deadline = block.timestamp + _deadline */\n          dup2\n          swap1\n          sstore\n          pop\n            /* \"Campaign.sol\":1411:1629  constructor(uint _minimum, address _creator, uint _goal, uint _deadline) {... */\n          pop\n          pop\n          pop\n          pop\n            /* \"Campaign.sol\":496:4193  contract Campaign {... */\n          jump(tag_8)\n            /* \"#utility.yul\":88:205   */\n        tag_10:\n            /* \"#utility.yul\":197:198   */\n          0x00\n            /* \"#utility.yul\":194:195   */\n          dup1\n            /* \"#utility.yul\":187:199   */\n          revert\n            /* \"#utility.yul\":334:411   */\n        tag_12:\n            /* \"#utility.yul\":371:378   */\n          0x00\n            /* \"#utility.yul\":400:405   */\n          dup2\n            /* \"#utility.yul\":389:405   */\n          swap1\n          pop\n            /* \"#utility.yul\":334:411   */\n          swap2\n          swap1\n          pop\n          jump\t// out\n            /* \"#utility.yul\":417:539   */\n        tag_13:\n            /* \"#utility.yul\":490:514   */\n          tag_26\n            /* \"#utility.yul\":508:513   */\n          dup2\n            /* \"#utility.yul\":490:514   */\n          tag_12\n          jump\t// in\n        tag_26:\n            /* \"#utility.yul\":483:488   */\n          dup2\n            /* \"#utility.yul\":480:515   */\n          eq\n            /* \"#utility.yul\":470:533   */\n          tag_27\n          jumpi\n            /* \"#utility.yul\":529:530   */\n          0x00\n            /* \"#utility.yul\":526:527   */\n          dup1\n            /* \"#utility.yul\":519:531   */\n          revert\n            /* \"#utility.yul\":470:533   */\n        tag_27:\n            /* \"#utility.yul\":417:539   */\n          pop\n          jump\t// out\n            /* \"#utility.yul\":545:688   */\n        tag_14:\n            /* \"#utility.yul\":602:607   */\n          0x00\n            /* \"#utility.yul\":633:639   */\n          dup2\n            /* \"#utility.yul\":627:640   */\n          mload\n            /* \"#utility.yul\":618:640   */\n          swap1\n          pop\n            /* \"#utility.yul\":649:682   */\n          tag_29\n            /* \"#utility.yul\":676:681   */\n          dup2\n            /* \"#utility.yul\":649:682   */\n          tag_13\n          jump\t// in\n        tag_29:\n            /* \"#utility.yul\":545:688   */\n          swap3\n          swap2\n          pop\n          pop\n          jump\t// out\n            /* \"#utility.yul\":694:820   */\n        tag_15:\n            /* \"#utility.yul\":731:738   */\n          0x00\n            /* \"#utility.yul\":771:813   */\n          0xffffffffffffffffffffffffffffffffffffffff\n            /* \"#utility.yul\":764:769   */\n          dup3\n            /* \"#utility.yul\":760:814   */\n          and\n            /* \"#utility.yul\":749:814   */\n          swap1\n          pop\n            /* \"#utility.yul\":694:820   */\n          swap2\n          swap1\n          pop\n          jump\t// out\n            /* \"#utility.yul\":826:922   */\n        tag_16:\n            /* \"#utility.yul\":863:870   */\n          0x00\n            /* \"#utility.yul\":892:916   */\n          tag_32\n            /* \"#utility.yul\":910:915   */\n          dup3\n            /* \"#utility.yul\":892:916   */\n          tag_15\n          jump\t// in\n        tag_32:\n            /* \"#utility.yul\":881:916   */\n          swap1\n          pop\n            /* \"#utility.yul\":826:922   */\n          swap2\n          swap1\n          pop\n          jump\t// out\n            /* \"#utility.yul\":928:1050   */\n        tag_17:\n            /* \"#utility.yul\":1001:1025   */\n          tag_34\n            /* \"#utility.yul\":1019:1024   */\n          dup2\n            /* \"#utility.yul\":1001:1025   */\n          tag_16\n          jump\t// in\n        tag_34:\n            /* \"#utility.yul\":994:999   */\n          dup2\n            /* \"#utility.yul\":991:1026   */\n          eq\n            /* \"#utility.yul\":981:1044   */\n          tag_35\n          jumpi\n            /* \"#utility.yul\":1040:1041   */\n          0x00\n            /* \"#utility.yul\":1037:1038   */\n          dup1\n            /* \"#utility.yul\":1030:1042   */\n          revert\n            /* \"#utility.yul\":981:1044   */\n        tag_35:\n            /* \"#utility.yul\":928:1050   */\n          pop\n          jump\t// out\n            /* \"#utility.yul\":1056:1199   */\n        tag_18:\n            /* \"#utility.yul\":1113:1118   */\n          0x00\n            /* \"#utility.yul\":1144:1150   */\n          dup2\n            /* \"#utility.yul\":1138:1151   */\n          mload\n            /* \"#utility.yul\":1129:1151   */\n          swap1\n          pop\n            /* \"#utility.yul\":1160:1193   */\n          tag_37\n            /* \"#utility.yul\":1187:1192   */\n          dup2\n            /* \"#utility.yul\":1160:1193   */\n          tag_17\n          jump\t// in\n        tag_37:\n            /* \"#utility.yul\":1056:1199   */\n          swap3\n          swap2\n          pop\n          pop\n          jump\t// out\n            /* \"#utility.yul\":1205:2025   */\n        tag_3:\n            /* \"#utility.yul\":1302:1308   */\n          0x00\n            /* \"#utility.yul\":1310:1316   */\n          dup1\n            /* \"#utility.yul\":1318:1324   */\n          0x00\n            /* \"#utility.yul\":1326:1332   */\n          dup1\n            /* \"#utility.yul\":1375:1378   */\n          0x80\n            /* \"#utility.yul\":1363:1372   */\n          dup6\n            /* \"#utility.yul\":1354:1361   */\n          dup8\n            /* \"#utility.yul\":1350:1373   */\n          sub\n            /* \"#utility.yul\":1346:1379   */\n          slt\n            /* \"#utility.yul\":1343:1463   */\n          iszero\n          tag_39\n          jumpi\n            /* \"#utility.yul\":1382:1461   */\n          tag_40\n          tag_10\n          jump\t// in\n        tag_40:\n            /* \"#utility.yul\":1343:1463   */\n        tag_39:\n            /* \"#utility.yul\":1502:1503   */\n          0x00\n            /* \"#utility.yul\":1527:1591   */\n          tag_41\n            /* \"#utility.yul\":1583:1590   */\n          dup8\n            /* \"#utility.yul\":1574:1580   */\n          dup3\n            /* \"#utility.yul\":1563:1572   */\n          dup9\n            /* \"#utility.yul\":1559:1581   */\n          add\n            /* \"#utility.yul\":1527:1591   */\n          tag_14\n          jump\t// in\n        tag_41:\n            /* \"#utility.yul\":1517:1591   */\n          swap5\n          pop\n            /* \"#utility.yul\":1473:1601   */\n          pop\n            /* \"#utility.yul\":1640:1642   */\n          0x20\n            /* \"#utility.yul\":1666:1730   */\n          tag_42\n            /* \"#utility.yul\":1722:1729   */\n          dup8\n            /* \"#utility.yul\":1713:1719   */\n          dup3\n            /* \"#utility.yul\":1702:1711   */\n          dup9\n            /* \"#utility.yul\":1698:1720   */\n          add\n            /* \"#utility.yul\":1666:1730   */\n          tag_18\n          jump\t// in\n        tag_42:\n            /* \"#utility.yul\":1656:1730   */\n          swap4\n          pop\n            /* \"#utility.yul\":1611:1740   */\n          pop\n            /* \"#utility.yul\":1779:1781   */\n          0x40\n            /* \"#utility.yul\":1805:1869   */\n          tag_43\n            /* \"#utility.yul\":1861:1868   */\n          dup8\n            /* \"#utility.yul\":1852:1858   */\n          dup3\n            /* \"#utility.yul\":1841:1850   */\n          dup9\n            /* \"#utility.yul\":1837:1859   */\n          add\n            /* \"#utility.yul\":1805:1869   */\n          tag_14\n          jump\t// in\n        tag_43:\n            /* \"#utility.yul\":1795:1869   */\n          swap3\n          pop\n            /* \"#utility.yul\":1750:1879   */\n          pop\n            /* \"#utility.yul\":1918:1920   */\n          0x60\n            /* \"#utility.yul\":1944:2008   */\n          tag_44\n            /* \"#utility.yul\":2000:2007   */\n          dup8\n            /* \"#utility.yul\":1991:1997   */\n          dup3\n            /* \"#utility.yul\":1980:1989   */\n          dup9\n            /* \"#utility.yul\":1976:1998   */\n          add\n            /* \"#utility.yul\":1944:2008   */\n          tag_14\n          jump\t// in\n        tag_44:\n            /* \"#utility.yul\":1934:2008   */\n          swap2\n          pop\n            /* \"#utility.yul\":1889:2018   */\n          pop\n            /* \"#utility.yul\":1205:2025   */\n          swap3\n          swap6\n          swap2\n          swap5\n          pop\n          swap3\n          pop\n          jump\t// out\n            /* \"#utility.yul\":2031:2211   */\n        tag_19:\n            /* \"#utility.yul\":2079:2156   */\n          0x4e487b7100000000000000000000000000000000000000000000000000000000\n            /* \"#utility.yul\":2076:2077   */\n          0x00\n            /* \"#utility.yul\":2069:2157   */\n          mstore\n            /* \"#utility.yul\":2176:2180   */\n          0x11\n            /* \"#utility.yul\":2173:2174   */\n          0x04\n            /* \"#utility.yul\":2166:2181   */\n          mstore\n            /* \"#utility.yul\":2200:2204   */\n          0x24\n            /* \"#utility.yul\":2197:2198   */\n          0x00\n            /* \"#utility.yul\":2190:2205   */\n          revert\n            /* \"#utility.yul\":2217:2522   */\n        tag_7:\n            /* \"#utility.yul\":2257:2260   */\n          0x00\n            /* \"#utility.yul\":2276:2296   */\n          tag_47\n            /* \"#utility.yul\":2294:2295   */\n          dup3\n            /* \"#utility.yul\":2276:2296   */\n          tag_12\n          jump\t// in\n        tag_47:\n            /* \"#utility.yul\":2271:2296   */\n          swap2\n          pop\n            /* \"#utility.yul\":2310:2330   */\n          tag_48\n            /* \"#utility.yul\":2328:2329   */\n          dup4\n            /* \"#utility.yul\":2310:2330   */\n          tag_12\n          jump\t// in\n        tag_48:\n            /* \"#utility.yul\":2305:2330   */\n          swap3\n          pop\n            /* \"#utility.yul\":2464:2465   */\n          dup3\n            /* \"#utility.yul\":2396:2462   */\n          0xffffffffffffffffffffffffffffffffffffffffffffffffffffffffffffffff\n            /* \"#utility.yul\":2392:2466   */\n          sub\n            /* \"#utility.yul\":2389:2390   */\n          dup3\n            /* \"#utility.yul\":2386:2467   */\n          gt\n            /* \"#utility.yul\":2383:2490   */\n          iszero\n          tag_49\n          jumpi\n            /* \"#utility.yul\":2470:2488   */\n          tag_50\n          tag_19\n          jump\t// in\n        tag_50:\n            /* \"#utility.yul\":2383:2490   */\n        tag_49:\n            /* \"#utility.yul\":2514:2515   */\n          dup3\n            /* \"#utility.yul\":2511:2512   */\n          dup3\n            /* \"#utility.yul\":2507:2516   */\n          add\n            /* \"#utility.yul\":2500:2516   */\n          swap1\n          pop\n            /* \"#utility.yul\":2217:2522   */\n          swap3\n          swap2\n          pop\n          pop\n          jump\t// out\n            /* \"Campaign.sol\":496:4193  contract Campaign {... */\n        tag_8:\n          dataSize(sub_0)\n          dup1\n          dataOffset(sub_0)\n          0x00\n          codecopy\n          0x00\n          return\n        stop\n\n        sub_0: assembly {\n                /* \"Campaign.sol\":496:4193  contract Campaign {... */\n              mstore(0x40, 0x80)\n              jumpi(tag_1, lt(calldatasize, 0x04))\n              shr(0xe0, calldataload(0x00))\n              dup1\n              0x82fde093\n              gt\n              tag_19\n              jumpi\n              dup1\n              0xb2d5ae44\n              gt\n              tag_20\n              jumpi\n              dup1\n              0xb2d5ae44\n              eq\n              tag_15\n              jumpi\n              dup1\n              0xc59ee1dc\n              eq\n              tag_16\n              jumpi\n              dup1\n              0xd7bb99ba\n              eq\n              tag_17\n              jumpi\n              dup1\n              0xd7d1bbdb\n              eq\n              tag_18\n              jumpi\n              jump(tag_2)\n            tag_20:\n              dup1\n              0x82fde093\n              eq\n              tag_11\n              jumpi\n              dup1\n              0x8a9cfd55\n              eq\n              tag_12\n              jumpi\n              dup1\n              0x937e09b1\n              eq\n              tag_13\n              jumpi\n              dup1\n              0x9fb42b1f\n              eq\n              tag_14\n              jumpi\n              jump(tag_2)\n            tag_19:\n              dup1\n              0x40193883\n              gt\n              tag_21\n              jumpi\n              dup1\n              0x40193883\n              eq\n              tag_7\n              jumpi\n              dup1\n              0x4051ddac\n              eq\n              tag_8\n              jumpi\n              dup1\n              0x481c6a75\n              eq\n              tag_9\n              jumpi\n              dup1\n              0x81d12c58\n              eq\n              tag_10\n              jumpi\n              jump(tag_2)\n            tag_21:\n              dup1\n              0x03441006\n              eq\n              tag_3\n              jumpi\n              dup1\n              0x0a144391\n              eq\n              tag_4\n              jumpi\n              dup1\n              0x29dcb0cf\n              eq\n              tag_5\n              jumpi\n              dup1\n              0x3410452a\n              eq\n              tag_6\n              jumpi\n              jump(tag_2)\n            tag_1:\n              jumpi(tag_2, calldatasize)\n                /* \"Campaign.sol\":1672:1684  contribute() */\n              tag_24\n                /* \"Campaign.sol\":1672:1682  contribute */\n              tag_25\n                /* \"Campaign.sol\":1672:1684  contribute() */\n              jump\t// in\n            tag_24:\n                /* \"Campaign.sol\":496:4193  contract Campaign {... */\n              stop\n            tag_2:\n              0x00\n              dup1\n              revert\n                /* \"Campaign.sol\":3355:3823  function finalizeRequest(uint _index) public restrictedToManager {... */\n            tag_3:\n              callvalue\n              dup1\n              iszero\n              tag_26\n              jumpi\n              0x00\n              dup1\n              revert\n            tag_26:\n              pop\n              tag_27\n              0x04\n              dup1\n              calldatasize\n              sub\n              dup2\n              add\n              swap1\n              tag_28\n              swap2\n              swap1\n              tag_29\n              jump\t// in\n            tag_28:\n              tag_30\n              jump\t// in\n            tag_27:\n              stop\n                /* \"Campaign.sol\":882:923  mapping(address => uint) public approvers */\n            tag_4:\n              callvalue\n              dup1\n              iszero\n              tag_31\n              jumpi\n              0x00\n              dup1\n              revert\n            tag_31:\n              pop\n              tag_32\n              0x04\n              dup1\n              calldatasize\n              sub\n              dup2\n              add\n              swap1\n              tag_33\n              swap2\n              swap1\n              tag_34\n              jump\t// in\n            tag_33:\n              tag_35\n              jump\t// in\n            tag_32:\n              mload(0x40)\n              tag_36\n              swap2\n              swap1\n              tag_37\n              jump\t// in\n            tag_36:\n              mload(0x40)\n              dup1\n              swap2\n              sub\n              swap1\n              return\n                /* \"Campaign.sol\":984:1004  uint public deadline */\n            tag_5:\n              callvalue\n              dup1\n              iszero\n              tag_38\n              jumpi\n              0x00\n              dup1\n              revert\n            tag_38:\n              pop\n              tag_39\n              tag_40\n              jump\t// in\n            tag_39:\n              mload(0x40)\n              tag_41\n              swap2\n              swap1\n              tag_37\n              jump\t// in\n            tag_41:\n              mload(0x40)\n              dup1\n              swap2\n              sub\n              swap1\n              return\n                /* \"Campaign.sol\":4101:4191  function getRequestsCount() public view returns (uint) {... */\n            tag_6:\n              callvalue\n              dup1\n              iszero\n              tag_42\n              jumpi\n              0x00\n              dup1\n              revert\n            tag_42:\n              pop\n              tag_43\n              tag_44\n              jump\t// in\n            tag_43:\n              mload(0x40)\n              tag_45\n              swap2\n              swap1\n              tag_37\n              jump\t// in\n            tag_45:\n              mload(0x40)\n              dup1\n              swap2\n              sub\n              swap1\n              return\n                /* \"Campaign.sol\":962:978  uint public goal */\n            tag_7:\n              callvalue\n              dup1\n              iszero\n              tag_46\n              jumpi\n              0x00\n              dup1\n              revert\n            tag_46:\n              pop\n              tag_47\n              tag_48\n              jump\t// in\n            tag_47:\n              mload(0x40)\n              tag_49\n              swap2\n              swap1\n              tag_37\n              jump\t// in\n            tag_49:\n              mload(0x40)\n              dup1\n              swap2\n              sub\n              swap1\n              return\n                /* \"Campaign.sol\":3829:4095  function getSummary() public view returns (... */\n            tag_8:\n              callvalue\n              dup1\n              iszero\n              tag_50\n              jumpi\n              0x00\n              dup1\n              revert\n            tag_50:\n              pop\n              tag_51\n              tag_52\n              jump\t// in\n            tag_51:\n              mload(0x40)\n              tag_53\n              swap6\n              swap5\n              swap4\n              swap3\n              swap2\n              swap1\n              tag_54\n              jump\t// in\n            tag_53:\n              mload(0x40)\n              dup1\n              swap2\n              sub\n              swap1\n              return\n                /* \"Campaign.sol\":817:839  address public manager */\n            tag_9:\n              callvalue\n              dup1\n              iszero\n              tag_55\n              jumpi\n              0x00\n              dup1\n              revert\n            tag_55:\n              pop\n              tag_56\n              tag_57\n              jump\t// in\n            tag_56:\n              mload(0x40)\n              tag_58\n              swap2\n              swap1\n              tag_59\n              jump\t// in\n            tag_58:\n              mload(0x40)\n              dup1\n              swap2\n              sub\n              swap1\n              return\n                /* \"Campaign.sol\":741:781  mapping(uint => Request) public requests */\n            tag_10:\n              callvalue\n              dup1\n              iszero\n              tag_60\n              jumpi\n              0x00\n              dup1\n              revert\n            tag_60:\n              pop\n              tag_61\n              0x04\n              dup1\n              calldatasize\n              sub\n              dup2\n              add\n              swap1\n              tag_62\n              swap2\n              swap1\n              tag_29\n              jump\t// in\n            tag_62:\n              tag_63\n              jump\t// in\n            tag_61:\n              mload(0x40)\n              tag_64\n              swap6\n              swap5\n              swap4\n              swap3\n              swap2\n              swap1\n              tag_65\n              jump\t// in\n            tag_64:\n              mload(0x40)\n              dup1\n              swap2\n              sub\n              swap1\n              return\n                /* \"Campaign.sol\":929:955  uint public approversCount */\n            tag_11:\n              callvalue\n              dup1\n              iszero\n              tag_66\n              jumpi\n              0x00\n              dup1\n              revert\n            tag_66:\n              pop\n              tag_67\n              tag_68\n              jump\t// in\n            tag_67:\n              mload(0x40)\n              tag_69\n              swap2\n              swap1\n              tag_37\n              jump\t// in\n            tag_69:\n              mload(0x40)\n              dup1\n              swap2\n              sub\n              swap1\n              return\n                /* \"Campaign.sol\":2422:2912  function createRequest(string memory _description, uint _value, address payable _recipient)... */\n            tag_12:\n              callvalue\n              dup1\n              iszero\n              tag_70\n              jumpi\n              0x00\n              dup1\n              revert\n            tag_70:\n              pop\n              tag_71\n              0x04\n              dup1\n              calldatasize\n              sub\n              dup2\n              add\n              swap1\n              tag_72\n              swap2\n              swap1\n              tag_73\n              jump\t// in\n            tag_72:\n              tag_74\n              jump\t// in\n            tag_71:\n              stop\n                /* \"Campaign.sol\":845:876  uint public minimumContribution */\n            tag_13:\n              callvalue\n              dup1\n              iszero\n              tag_75\n              jumpi\n              0x00\n              dup1\n              revert\n            tag_75:\n              pop\n              tag_76\n              tag_77\n              jump\t// in\n            tag_76:\n              mload(0x40)\n              tag_78\n              swap2\n              swap1\n              tag_37\n              jump\t// in\n            tag_78:\n              mload(0x40)\n              dup1\n              swap2\n              sub\n              swap1\n              return\n                /* \"Campaign.sol\":787:810  uint public numRequests */\n            tag_14:\n              callvalue\n              dup1\n              iszero\n              tag_79\n              jumpi\n              0x00\n              dup1\n              revert\n            tag_79:\n              pop\n              tag_80\n              tag_81\n              jump\t// in\n            tag_80:\n              mload(0x40)\n              tag_82\n              swap2\n              swap1\n              tag_37\n              jump\t// in\n            tag_82:\n              mload(0x40)\n              dup1\n              swap2\n              sub\n              swap1\n              return\n                /* \"Campaign.sol\":2172:2416  function getRefund() public {... */\n            tag_15:\n              callvalue\n              dup1\n              iszero\n              tag_83\n              jumpi\n              0x00\n              dup1\n              revert\n            tag_83:\n              pop\n              tag_84\n              tag_85\n              jump\t// in\n            tag_84:\n              stop\n                /* \"Campaign.sol\":1022:1046  uint public raisedAmount */\n            tag_16:\n              callvalue\n              dup1\n              iszero\n              tag_86\n              jumpi\n              0x00\n              dup1\n              revert\n            tag_86:\n              pop\n              tag_87\n              tag_88\n              jump\t// in\n            tag_87:\n              mload(0x40)\n              tag_89\n              swap2\n              swap1\n              tag_37\n              jump\t// in\n            tag_89:\n              mload(0x40)\n              dup1\n              swap2\n              sub\n              swap1\n              return\n                /* \"Campaign.sol\":1697:2119  function contribute() public payable {... */\n            tag_17:\n              tag_90\n              tag_25\n              jump\t// in\n            tag_90:\n              stop\n                /* \"Campaign.sol\":2918:3302  function approveRequest(uint _index) public {... */\n            tag_18:\n              callvalue\n              dup1\n              iszero\n              tag_91\n              jumpi\n              0x00\n              dup1\n              revert\n            tag_91:\n              pop\n              tag_92\n              0x04\n              dup1\n              calldatasize\n              sub\n              dup2\n              add\n              swap1\n              tag_93\n              swap2\n              swap1\n              tag_29\n              jump\t// in\n            tag_93:\n              tag_94\n              jump\t// in\n            tag_92:\n              stop\n                /* \"Campaign.sol\":1697:2119  function contribute() public payable {... */\n            tag_25:\n                /* \"Campaign.sol\":1770:1778  deadline */\n              sload(0x07)\n                /* \"Campaign.sol\":1752:1767  block.timestamp */\n              timestamp\n                /* \"Campaign.sol\":1752:1778  block.timestamp < deadline */\n              lt\n                /* \"Campaign.sol\":1744:1813  require(block.timestamp < deadline, \"Campaing has already finished!\") */\n              tag_96\n              jumpi\n              mload(0x40)\n              0x08c379a000000000000000000000000000000000000000000000000000000000\n              dup2\n              mstore\n              0x04\n              add\n              tag_97\n              swap1\n              tag_98\n              jump\t// in\n            tag_97:\n              mload(0x40)\n              dup1\n              swap2\n              sub\n              swap1\n              revert\n            tag_96:\n                /* \"Campaign.sol\":1843:1862  minimumContribution */\n              sload(0x03)\n                /* \"Campaign.sol\":1831:1840  msg.value */\n              callvalue\n                /* \"Campaign.sol\":1831:1862  msg.value > minimumContribution */\n              gt\n                /* \"Campaign.sol\":1823:1896  require(msg.value > minimumContribution, \"Minimum Contribution not met!\") */\n              tag_99\n              jumpi\n              mload(0x40)\n              0x08c379a000000000000000000000000000000000000000000000000000000000\n              dup2\n              mstore\n              0x04\n              add\n              tag_100\n              swap1\n              tag_101\n              jump\t// in\n            tag_100:\n              mload(0x40)\n              dup1\n              swap2\n              sub\n              swap1\n              revert\n            tag_99:\n                /* \"Campaign.sol\":1936:1937  0 */\n              0x00\n                /* \"Campaign.sol\":1911:1920  approvers */\n              0x04\n                /* \"Campaign.sol\":1911:1932  approvers[msg.sender] */\n              0x00\n                /* \"Campaign.sol\":1921:1931  msg.sender */\n              caller\n                /* \"Campaign.sol\":1911:1932  approvers[msg.sender] */\n              0xffffffffffffffffffffffffffffffffffffffff\n              and\n              0xffffffffffffffffffffffffffffffffffffffff\n              and\n              dup2\n              mstore\n              0x20\n              add\n              swap1\n              dup2\n              mstore\n              0x20\n              add\n              0x00\n              keccak256\n              sload\n                /* \"Campaign.sol\":1911:1937  approvers[msg.sender] == 0 */\n              eq\n                /* \"Campaign.sol\":1907:1980  if (approvers[msg.sender] == 0) {... */\n              iszero\n              tag_102\n              jumpi\n                /* \"Campaign.sol\":1953:1967  approversCount */\n              0x05\n              0x00\n                /* \"Campaign.sol\":1953:1969  approversCount++ */\n              dup2\n              sload\n              dup1\n              swap3\n              swap2\n              swap1\n              tag_103\n              swap1\n              tag_104\n              jump\t// in\n            tag_103:\n              swap2\n              swap1\n              pop\n              sstore\n              pop\n                /* \"Campaign.sol\":1907:1980  if (approvers[msg.sender] == 0) {... */\n            tag_102:\n                /* \"Campaign.sol\":2014:2023  msg.value */\n              callvalue\n                /* \"Campaign.sol\":1989:1998  approvers */\n              0x04\n                /* \"Campaign.sol\":1989:2010  approvers[msg.sender] */\n              0x00\n                /* \"Campaign.sol\":1999:2009  msg.sender */\n              caller\n                /* \"Campaign.sol\":1989:2010  approvers[msg.sender] */\n              0xffffffffffffffffffffffffffffffffffffffff\n              and\n              0xffffffffffffffffffffffffffffffffffffffff\n              and\n              dup2\n              mstore\n              0x20\n              add\n              swap1\n              dup2\n              mstore\n              0x20\n              add\n              0x00\n              keccak256\n              0x00\n                /* \"Campaign.sol\":1989:2023  approvers[msg.sender] += msg.value */\n              dup3\n              dup3\n              sload\n              tag_105\n              swap2\n              swap1\n              tag_106\n              jump\t// in\n            tag_105:\n              swap3\n              pop\n              pop\n              dup2\n              swap1\n              sstore\n              pop\n                /* \"Campaign.sol\":2049:2058  msg.value */\n              callvalue\n                /* \"Campaign.sol\":2033:2045  raisedAmount */\n              0x08\n              0x00\n                /* \"Campaign.sol\":2033:2058  raisedAmount += msg.value */\n              dup3\n              dup3\n              sload\n              tag_107\n              swap2\n              swap1\n              tag_106\n              jump\t// in\n            tag_107:\n              swap3\n              pop\n              pop\n              dup2\n              swap1\n              sstore\n              pop\n                /* \"Campaign.sol\":2074:2112  ContributeEvent(msg.sender, msg.value) */\n              0x2daf61dec57a2c194e9e87958b1a40a5c236b5e8c6041655d664ddbd16c29320\n                /* \"Campaign.sol\":2090:2100  msg.sender */\n              caller\n                /* \"Campaign.sol\":2102:2111  msg.value */\n              callvalue\n                /* \"Campaign.sol\":2074:2112  ContributeEvent(msg.sender, msg.value) */\n              mload(0x40)\n              tag_108\n              swap3\n              swap2\n              swap1\n              tag_109\n              jump\t// in\n            tag_108:\n              mload(0x40)\n              dup1\n              swap2\n              sub\n              swap1\n              log1\n                /* \"Campaign.sol\":1697:2119  function contribute() public payable {... */\n              jump\t// out\n                /* \"Campaign.sol\":3355:3823  function finalizeRequest(uint _index) public restrictedToManager {... */\n            tag_30:\n                /* \"Campaign.sol\":1337:1344  manager */\n              0x02\n              0x00\n              swap1\n              sload\n              swap1\n              0x0100\n              exp\n              swap1\n              div\n              0xffffffffffffffffffffffffffffffffffffffff\n              and\n                /* \"Campaign.sol\":1323:1344  msg.sender == manager */\n              0xffffffffffffffffffffffffffffffffffffffff\n              and\n                /* \"Campaign.sol\":1323:1333  msg.sender */\n              caller\n                /* \"Campaign.sol\":1323:1344  msg.sender == manager */\n              0xffffffffffffffffffffffffffffffffffffffff\n              and\n              eq\n                /* \"Campaign.sol\":1315:1387  require(msg.sender == manager, \"Only manager can call to this funcion!\") */\n              tag_111\n              jumpi\n              mload(0x40)\n              0x08c379a000000000000000000000000000000000000000000000000000000000\n              dup2\n              mstore\n              0x04\n              add\n              tag_112\n              swap1\n              tag_113\n              jump\t// in\n            tag_112:\n              mload(0x40)\n              dup1\n              swap2\n              sub\n              swap1\n              revert\n            tag_111:\n                /* \"Campaign.sol\":3454:3458  goal */\n              sload(0x06)\n                /* \"Campaign.sol\":3438:3450  raisedAmount */\n              sload(0x08)\n                /* \"Campaign.sol\":3438:3458  raisedAmount >= goal */\n              lt\n              iszero\n                /* \"Campaign.sol\":3430:3459  require(raisedAmount >= goal) */\n              tag_115\n              jumpi\n              0x00\n              dup1\n              revert\n            tag_115:\n                /* \"Campaign.sol\":3469:3492  Request storage request */\n              0x00\n                /* \"Campaign.sol\":3495:3503  requests */\n              dup1\n                /* \"Campaign.sol\":3495:3511  requests[_index] */\n              0x00\n                /* \"Campaign.sol\":3504:3510  _index */\n              dup4\n                /* \"Campaign.sol\":3495:3511  requests[_index] */\n              dup2\n              mstore\n              0x20\n              add\n              swap1\n              dup2\n              mstore\n              0x20\n              add\n              0x00\n              keccak256\n                /* \"Campaign.sol\":3469:3511  Request storage request = requests[_index] */\n              swap1\n              pop\n                /* \"Campaign.sol\":3530:3537  request */\n              dup1\n                /* \"Campaign.sol\":3530:3546  request.complete */\n              0x03\n              add\n              0x14\n              swap1\n              sload\n              swap1\n              0x0100\n              exp\n              swap1\n              div\n              0xff\n              and\n                /* \"Campaign.sol\":3529:3546  !request.complete */\n              iszero\n                /* \"Campaign.sol\":3521:3590  require(!request.complete, \"The request has already been completed!\") */\n              tag_116\n              jumpi\n              mload(0x40)\n              0x08c379a000000000000000000000000000000000000000000000000000000000\n              dup2\n              mstore\n              0x04\n              add\n              tag_117\n              swap1\n              tag_118\n              jump\t// in\n            tag_117:\n              mload(0x40)\n              dup1\n              swap2\n              sub\n              swap1\n              revert\n            tag_116:\n                /* \"Campaign.sol\":3650:3651  2 */\n              0x02\n                /* \"Campaign.sol\":3633:3647  approversCount */\n              sload(0x05)\n                /* \"Campaign.sol\":3633:3651  approversCount / 2 */\n              tag_119\n              swap2\n              swap1\n              tag_120\n              jump\t// in\n            tag_119:\n                /* \"Campaign.sol\":3608:3615  request */\n              dup2\n                /* \"Campaign.sol\":3608:3629  request.approvalCount */\n              0x02\n              add\n              sload\n                /* \"Campaign.sol\":3608:3652  request.approvalCount > (approversCount / 2) */\n              gt\n                /* \"Campaign.sol\":3600:3653  require(request.approvalCount > (approversCount / 2)) */\n              tag_121\n              jumpi\n              0x00\n              dup1\n              revert\n            tag_121:\n                /* \"Campaign.sol\":3672:3679  request */\n              dup1\n                /* \"Campaign.sol\":3672:3689  request.recipient */\n              0x03\n              add\n              0x00\n              swap1\n              sload\n              swap1\n              0x0100\n              exp\n              swap1\n              div\n              0xffffffffffffffffffffffffffffffffffffffff\n              and\n                /* \"Campaign.sol\":3672:3698  request.recipient.transfer */\n              0xffffffffffffffffffffffffffffffffffffffff\n              and\n                /* \"Campaign.sol\":3672:3713  request.recipient.transfer(request.value) */\n              0x08fc\n                /* \"Campaign.sol\":3699:3706  request */\n              dup3\n                /* \"Campaign.sol\":3699:3712  request.value */\n              0x01\n              add\n              sload\n                /* \"Campaign.sol\":3672:3713  request.recipient.transfer(request.value) */\n              swap1\n              dup2\n              iszero\n              mul\n              swap1\n              mload(0x40)\n              0x00\n              mload(0x40)\n              dup1\n              dup4\n              sub\n              dup2\n              dup6\n              dup9\n              dup9\n              call\n              swap4\n              pop\n              pop\n              pop\n              pop\n              iszero\n              dup1\n              iszero\n              tag_123\n              jumpi\n              returndatasize\n              0x00\n              dup1\n              returndatacopy\n              revert(0x00, returndatasize)\n            tag_123:\n              pop\n                /* \"Campaign.sol\":3742:3746  true */\n              0x01\n                /* \"Campaign.sol\":3723:3730  request */\n              dup2\n                /* \"Campaign.sol\":3723:3739  request.complete */\n              0x03\n              add\n              0x14\n                /* \"Campaign.sol\":3723:3746  request.complete = true */\n              0x0100\n              exp\n              dup2\n              sload\n              dup2\n              0xff\n              mul\n              not\n              and\n              swap1\n              dup4\n              iszero\n              iszero\n              mul\n              or\n              swap1\n              sstore\n              pop\n                /* \"Campaign.sol\":3762:3816  FinalizeRequestEvent(request.recipient, request.value) */\n              0x2ae767896e987fd31514551c92e54dcd13f83142c6c581a4186921042af354ab\n                /* \"Campaign.sol\":3783:3790  request */\n              dup2\n                /* \"Campaign.sol\":3783:3800  request.recipient */\n              0x03\n              add\n              0x00\n              swap1\n              sload\n              swap1\n              0x0100\n              exp\n              swap1\n              div\n              0xffffffffffffffffffffffffffffffffffffffff\n              and\n                /* \"Campaign.sol\":3802:3809  request */\n              dup3\n                /* \"Campaign.sol\":3802:3815  request.value */\n              0x01\n              add\n              sload\n                /* \"Campaign.sol\":3762:3816  FinalizeRequestEvent(request.recipient, request.value) */\n              mload(0x40)\n              tag_124\n              swap3\n              swap2\n              swap1\n              tag_125\n              jump\t// in\n            tag_124:\n              mload(0x40)\n              dup1\n              swap2\n              sub\n              swap1\n              log1\n                /* \"Campaign.sol\":3420:3823  {... */\n              pop\n                /* \"Campaign.sol\":3355:3823  function finalizeRequest(uint _index) public restrictedToManager {... */\n              pop\n              jump\t// out\n                /* \"Campaign.sol\":882:923  mapping(address => uint) public approvers */\n            tag_35:\n              mstore(0x20, 0x04)\n              dup1\n              0x00\n              mstore\n              keccak256(0x00, 0x40)\n              0x00\n              swap2\n              pop\n              swap1\n              pop\n              sload\n              dup2\n              jump\t// out\n                /* \"Campaign.sol\":984:1004  uint public deadline */\n            tag_40:\n              sload(0x07)\n              dup2\n              jump\t// out\n                /* \"Campaign.sol\":4101:4191  function getRequestsCount() public view returns (uint) {... */\n            tag_44:\n                /* \"Campaign.sol\":4150:4154  uint */\n              0x00\n                /* \"Campaign.sol\":4173:4184  numRequests */\n              sload(0x01)\n                /* \"Campaign.sol\":4166:4184  return numRequests */\n              swap1\n              pop\n                /* \"Campaign.sol\":4101:4191  function getRequestsCount() public view returns (uint) {... */\n              swap1\n              jump\t// out\n                /* \"Campaign.sol\":962:978  uint public goal */\n            tag_48:\n              sload(0x06)\n              dup2\n              jump\t// out\n                /* \"Campaign.sol\":3829:4095  function getSummary() public view returns (... */\n            tag_52:\n                /* \"Campaign.sol\":3881:3885  uint */\n              0x00\n                /* \"Campaign.sol\":3887:3891  uint */\n              dup1\n                /* \"Campaign.sol\":3893:3897  uint */\n              0x00\n                /* \"Campaign.sol\":3899:3903  uint */\n              dup1\n                /* \"Campaign.sol\":3905:3912  address */\n              0x00\n                /* \"Campaign.sol\":3950:3969  minimumContribution */\n              sload(0x03)\n                /* \"Campaign.sol\":3983:4004  address(this).balance */\n              selfbalance\n                /* \"Campaign.sol\":4018:4029  numRequests */\n              sload(0x01)\n                /* \"Campaign.sol\":4043:4057  approversCount */\n              sload(0x05)\n                /* \"Campaign.sol\":4071:4078  manager */\n              0x02\n              0x00\n              swap1\n              sload\n              swap1\n              0x0100\n              exp\n              swap1\n              div\n              0xffffffffffffffffffffffffffffffffffffffff\n              and\n                /* \"Campaign.sol\":3929:4088  return (... */\n              swap5\n              pop\n              swap5\n              pop\n              swap5\n              pop\n              swap5\n              pop\n              swap5\n              pop\n                /* \"Campaign.sol\":3829:4095  function getSummary() public view returns (... */\n              swap1\n              swap2\n              swap3\n              swap4\n              swap5\n              jump\t// out\n                /* \"Campaign.sol\":817:839  address public manager */\n            tag_57:\n              0x02\n              0x00\n              swap1\n              sload\n              swap1\n              0x0100\n              exp\n              swap1\n              div\n              0xffffffffffffffffffffffffffffffffffffffff\n              and\n              dup2\n              jump\t// out\n                /* \"Campaign.sol\":741:781  mapping(uint => Request) public requests */\n            tag_63:\n              mstore(0x20, 0x00)\n              dup1\n              0x00\n              mstore\n              keccak256(0x00, 0x40)\n              0x00\n              swap2\n              pop\n              swap1\n              pop\n              dup1\n              0x00\n              add\n              dup1\n              sload\n              tag_128\n              swap1\n              tag_129\n              jump\t// in\n            tag_128:\n              dup1\n              0x1f\n              add\n              0x20\n              dup1\n              swap2\n              div\n              mul\n              0x20\n              add\n              mload(0x40)\n              swap1\n              dup2\n              add\n              0x40\n              mstore\n              dup1\n              swap3\n              swap2\n              swap1\n              dup2\n              dup2\n              mstore\n              0x20\n              add\n              dup3\n              dup1\n              sload\n              tag_130\n              swap1\n              tag_129\n              jump\t// in\n            tag_130:\n              dup1\n              iszero\n              tag_131\n              jumpi\n              dup1\n              0x1f\n              lt\n              tag_132\n              jumpi\n              0x0100\n              dup1\n              dup4\n              sload\n              div\n              mul\n              dup4\n              mstore\n              swap2\n              0x20\n              add\n              swap2\n              jump(tag_131)\n            tag_132:\n              dup3\n              add\n              swap2\n              swap1\n              0x00\n              mstore\n              keccak256(0x00, 0x20)\n              swap1\n            tag_133:\n              dup2\n              sload\n              dup2\n              mstore\n              swap1\n              0x01\n              add\n              swap1\n              0x20\n              add\n              dup1\n              dup4\n              gt\n              tag_133\n              jumpi\n              dup3\n              swap1\n              sub\n              0x1f\n              and\n              dup3\n              add\n              swap2\n            tag_131:\n              pop\n              pop\n              pop\n              pop\n              pop\n              swap1\n              dup1\n              0x01\n              add\n              sload\n              swap1\n              dup1\n              0x02\n              add\n              sload\n              swap1\n              dup1\n              0x03\n              add\n              0x00\n              swap1\n              sload\n              swap1\n              0x0100\n              exp\n              swap1\n              div\n              0xffffffffffffffffffffffffffffffffffffffff\n              and\n              swap1\n              dup1\n              0x03\n              add\n              0x14\n              swap1\n              sload\n              swap1\n              0x0100\n              exp\n              swap1\n              div\n              0xff\n              and\n              swap1\n              pop\n              dup6\n              jump\t// out\n                /* \"Campaign.sol\":929:955  uint public approversCount */\n            tag_68:\n              sload(0x05)\n              dup2\n              jump\t// out\n                /* \"Campaign.sol\":2422:2912  function createRequest(string memory _description, uint _value, address payable _recipient)... */\n            tag_74:\n                /* \"Campaign.sol\":1337:1344  manager */\n              0x02\n              0x00\n              swap1\n              sload\n              swap1\n              0x0100\n              exp\n              swap1\n              div\n              0xffffffffffffffffffffffffffffffffffffffff\n              and\n                /* \"Campaign.sol\":1323:1344  msg.sender == manager */\n              0xffffffffffffffffffffffffffffffffffffffff\n              and\n                /* \"Campaign.sol\":1323:1333  msg.sender */\n              caller\n                /* \"Campaign.sol\":1323:1344  msg.sender == manager */\n              0xffffffffffffffffffffffffffffffffffffffff\n              and\n              eq\n                /* \"Campaign.sol\":1315:1387  require(msg.sender == manager, \"Only manager can call to this funcion!\") */\n              tag_135\n              jumpi\n              mload(0x40)\n              0x08c379a000000000000000000000000000000000000000000000000000000000\n              dup2\n              mstore\n              0x04\n              add\n              tag_136\n              swap1\n              tag_113\n              jump\t// in\n            tag_136:\n              mload(0x40)\n              dup1\n              swap2\n              sub\n              swap1\n              revert\n            tag_135:\n                /* \"Campaign.sol\":2563:2589  Request storage newRequest */\n              0x00\n                /* \"Campaign.sol\":2592:2600  requests */\n              dup1\n                /* \"Campaign.sol\":2592:2613  requests[numRequests] */\n              0x00\n                /* \"Campaign.sol\":2601:2612  numRequests */\n              sload(0x01)\n                /* \"Campaign.sol\":2592:2613  requests[numRequests] */\n              dup2\n              mstore\n              0x20\n              add\n              swap1\n              dup2\n              mstore\n              0x20\n              add\n              0x00\n              keccak256\n                /* \"Campaign.sol\":2563:2613  Request storage newRequest = requests[numRequests] */\n              swap1\n              pop\n                /* \"Campaign.sol\":2623:2634  numRequests */\n              0x01\n              0x00\n                /* \"Campaign.sol\":2623:2636  numRequests++ */\n              dup2\n              sload\n              dup1\n              swap3\n              swap2\n              swap1\n              tag_138\n              swap1\n              tag_104\n              jump\t// in\n            tag_138:\n              swap2\n              swap1\n              pop\n              sstore\n              pop\n                /* \"Campaign.sol\":2672:2684  _description */\n              dup4\n                /* \"Campaign.sol\":2647:2657  newRequest */\n              dup2\n                /* \"Campaign.sol\":2647:2669  newRequest.description */\n              0x00\n              add\n                /* \"Campaign.sol\":2647:2684  newRequest.description = _description */\n              swap1\n              dup1\n              mload\n              swap1\n              0x20\n              add\n              swap1\n              tag_139\n              swap3\n              swap2\n              swap1\n              tag_140\n              jump\t// in\n            tag_139:\n              pop\n                /* \"Campaign.sol\":2713:2719  _value */\n              dup3\n                /* \"Campaign.sol\":2694:2704  newRequest */\n              dup2\n                /* \"Campaign.sol\":2694:2710  newRequest.value */\n              0x01\n              add\n                /* \"Campaign.sol\":2694:2719  newRequest.value = _value */\n              dup2\n              swap1\n              sstore\n              pop\n                /* \"Campaign.sol\":2752:2762  _recipient */\n              dup2\n                /* \"Campaign.sol\":2729:2739  newRequest */\n              dup2\n                /* \"Campaign.sol\":2729:2749  newRequest.recipient */\n              0x03\n              add\n              0x00\n                /* \"Campaign.sol\":2729:2762  newRequest.recipient = _recipient */\n              0x0100\n              exp\n              dup2\n              sload\n              dup2\n              0xffffffffffffffffffffffffffffffffffffffff\n              mul\n              not\n              and\n              swap1\n              dup4\n              0xffffffffffffffffffffffffffffffffffffffff\n              and\n              mul\n              or\n              swap1\n              sstore\n              pop\n                /* \"Campaign.sol\":2794:2799  false */\n              0x00\n                /* \"Campaign.sol\":2772:2782  newRequest */\n              dup2\n                /* \"Campaign.sol\":2772:2791  newRequest.complete */\n              0x03\n              add\n              0x14\n                /* \"Campaign.sol\":2772:2799  newRequest.complete = false */\n              0x0100\n              exp\n              dup2\n              sload\n              dup2\n              0xff\n              mul\n              not\n              and\n              swap1\n              dup4\n              iszero\n              iszero\n              mul\n              or\n              swap1\n              sstore\n              pop\n                /* \"Campaign.sol\":2836:2837  0 */\n              0x00\n                /* \"Campaign.sol\":2809:2819  newRequest */\n              dup2\n                /* \"Campaign.sol\":2809:2833  newRequest.approvalCount */\n              0x02\n              add\n                /* \"Campaign.sol\":2809:2837  newRequest.approvalCount = 0 */\n              dup2\n              swap1\n              sstore\n              pop\n                /* \"Campaign.sol\":2853:2905  CreateRequestEvent(_description, _recipient, _value) */\n              0x5392bd80651676ccaaedec1afbe841d47e369223df0ba1586110b6426ee87a3a\n                /* \"Campaign.sol\":2872:2884  _description */\n              dup5\n                /* \"Campaign.sol\":2886:2896  _recipient */\n              dup4\n                /* \"Campaign.sol\":2898:2904  _value */\n              dup6\n                /* \"Campaign.sol\":2853:2905  CreateRequestEvent(_description, _recipient, _value) */\n              mload(0x40)\n              tag_141\n              swap4\n              swap3\n              swap2\n              swap1\n              tag_142\n              jump\t// in\n            tag_141:\n              mload(0x40)\n              dup1\n              swap2\n              sub\n              swap1\n              log1\n                /* \"Campaign.sol\":2553:2912  {... */\n              pop\n                /* \"Campaign.sol\":2422:2912  function createRequest(string memory _description, uint _value, address payable _recipient)... */\n              pop\n              pop\n              pop\n              jump\t// out\n                /* \"Campaign.sol\":845:876  uint public minimumContribution */\n            tag_77:\n              sload(0x03)\n              dup2\n              jump\t// out\n                /* \"Campaign.sol\":787:810  uint public numRequests */\n            tag_81:\n              sload(0x01)\n              dup2\n              jump\t// out\n                /* \"Campaign.sol\":2172:2416  function getRefund() public {... */\n            tag_85:\n                /* \"Campaign.sol\":2236:2244  deadline */\n              sload(0x07)\n                /* \"Campaign.sol\":2218:2233  block.timestamp */\n              timestamp\n                /* \"Campaign.sol\":2218:2244  block.timestamp > deadline */\n              gt\n                /* \"Campaign.sol\":2218:2267  block.timestamp > deadline && raisedAmount < goal */\n              dup1\n              iszero\n              tag_144\n              jumpi\n              pop\n                /* \"Campaign.sol\":2263:2267  goal */\n              sload(0x06)\n                /* \"Campaign.sol\":2248:2260  raisedAmount */\n              sload(0x08)\n                /* \"Campaign.sol\":2248:2267  raisedAmount < goal */\n              lt\n                /* \"Campaign.sol\":2218:2267  block.timestamp > deadline && raisedAmount < goal */\n            tag_144:\n                /* \"Campaign.sol\":2210:2268  require(block.timestamp > deadline && raisedAmount < goal) */\n              tag_145\n              jumpi\n              0x00\n              dup1\n              revert\n            tag_145:\n                /* \"Campaign.sol\":2310:2311  0 */\n              0x00\n                /* \"Campaign.sol\":2286:2295  approvers */\n              0x04\n                /* \"Campaign.sol\":2286:2307  approvers[msg.sender] */\n              0x00\n                /* \"Campaign.sol\":2296:2306  msg.sender */\n              caller\n                /* \"Campaign.sol\":2286:2307  approvers[msg.sender] */\n              0xffffffffffffffffffffffffffffffffffffffff\n              and\n              0xffffffffffffffffffffffffffffffffffffffff\n              and\n              dup2\n              mstore\n              0x20\n              add\n              swap1\n              dup2\n              mstore\n              0x20\n              add\n              0x00\n              keccak256\n              sload\n                /* \"Campaign.sol\":2286:2311  approvers[msg.sender] > 0 */\n              gt\n                /* \"Campaign.sol\":2278:2312  require(approvers[msg.sender] > 0) */\n              tag_146\n              jumpi\n              0x00\n              dup1\n              revert\n            tag_146:\n                /* \"Campaign.sol\":2331:2341  msg.sender */\n              caller\n                /* \"Campaign.sol\":2323:2351  payable(msg.sender).transfer */\n              0xffffffffffffffffffffffffffffffffffffffff\n              and\n                /* \"Campaign.sol\":2323:2374  payable(msg.sender).transfer(approvers[msg.sender]) */\n              0x08fc\n                /* \"Campaign.sol\":2352:2361  approvers */\n              0x04\n                /* \"Campaign.sol\":2352:2373  approvers[msg.sender] */\n              0x00\n                /* \"Campaign.sol\":2362:2372  msg.sender */\n              caller\n                /* \"Campaign.sol\":2352:2373  approvers[msg.sender] */\n              0xffffffffffffffffffffffffffffffffffffffff\n              and\n              0xffffffffffffffffffffffffffffffffffffffff\n              and\n              dup2\n              mstore\n              0x20\n              add\n              swap1\n              dup2\n              mstore\n              0x20\n              add\n              0x00\n              keccak256\n              sload\n                /* \"Campaign.sol\":2323:2374  payable(msg.sender).transfer(approvers[msg.sender]) */\n              swap1\n              dup2\n              iszero\n              mul\n              swap1\n              mload(0x40)\n              0x00\n              mload(0x40)\n              dup1\n              dup4\n              sub\n              dup2\n              dup6\n              dup9\n              dup9\n              call\n              swap4\n              pop\n              pop\n              pop\n              pop\n              iszero\n              dup1\n              iszero\n              tag_148\n              jumpi\n              returndatasize\n              0x00\n              dup1\n              returndatacopy\n              revert(0x00, returndatasize)\n            tag_148:\n              pop\n                /* \"Campaign.sol\":2408:2409  0 */\n              0x00\n                /* \"Campaign.sol\":2384:2393  approvers */\n              0x04\n                /* \"Campaign.sol\":2384:2405  approvers[msg.sender] */\n              0x00\n                /* \"Campaign.sol\":2394:2404  msg.sender */\n              caller\n                /* \"Campaign.sol\":2384:2405  approvers[msg.sender] */\n              0xffffffffffffffffffffffffffffffffffffffff\n              and\n              0xffffffffffffffffffffffffffffffffffffffff\n              and\n              dup2\n              mstore\n              0x20\n              add\n              swap1\n              dup2\n              mstore\n              0x20\n              add\n              0x00\n              keccak256\n                /* \"Campaign.sol\":2384:2409  approvers[msg.sender] = 0 */\n              dup2\n              swap1\n              sstore\n              pop\n                /* \"Campaign.sol\":2172:2416  function getRefund() public {... */\n              jump\t// out\n                /* \"Campaign.sol\":1022:1046  uint public raisedAmount */\n            tag_88:\n              sload(0x08)\n              dup2\n              jump\t// out\n                /* \"Campaign.sol\":2918:3302  function approveRequest(uint _index) public {... */\n            tag_94:\n                /* \"Campaign.sol\":3004:3005  0 */\n              0x00\n                /* \"Campaign.sol\":2980:2989  approvers */\n              0x04\n                /* \"Campaign.sol\":2980:3001  approvers[msg.sender] */\n              0x00\n                /* \"Campaign.sol\":2990:3000  msg.sender */\n              caller\n                /* \"Campaign.sol\":2980:3001  approvers[msg.sender] */\n              0xffffffffffffffffffffffffffffffffffffffff\n              and\n              0xffffffffffffffffffffffffffffffffffffffff\n              and\n              dup2\n              mstore\n              0x20\n              add\n              swap1\n              dup2\n              mstore\n              0x20\n              add\n              0x00\n              keccak256\n              sload\n                /* \"Campaign.sol\":2980:3005  approvers[msg.sender] > 0 */\n              gt\n                /* \"Campaign.sol\":2972:3057  require(approvers[msg.sender] > 0, \"You must be a contributor to approve a request!\") */\n              tag_150\n              jumpi\n              mload(0x40)\n              0x08c379a000000000000000000000000000000000000000000000000000000000\n              dup2\n              mstore\n              0x04\n              add\n              tag_151\n              swap1\n              tag_152\n              jump\t// in\n            tag_151:\n              mload(0x40)\n              dup1\n              swap2\n              sub\n              swap1\n              revert\n            tag_150:\n                /* \"Campaign.sol\":3067:3090  Request storage request */\n              0x00\n                /* \"Campaign.sol\":3093:3101  requests */\n              dup1\n                /* \"Campaign.sol\":3093:3109  requests[_index] */\n              0x00\n                /* \"Campaign.sol\":3102:3108  _index */\n              dup4\n                /* \"Campaign.sol\":3093:3109  requests[_index] */\n              dup2\n              mstore\n              0x20\n              add\n              swap1\n              dup2\n              mstore\n              0x20\n              add\n              0x00\n              keccak256\n                /* \"Campaign.sol\":3067:3109  Request storage request = requests[_index] */\n              swap1\n              pop\n                /* \"Campaign.sol\":3128:3135  request */\n              dup1\n                /* \"Campaign.sol\":3128:3152  request.requestApprovers */\n              0x04\n              add\n                /* \"Campaign.sol\":3128:3164  request.requestApprovers[msg.sender] */\n              0x00\n                /* \"Campaign.sol\":3153:3163  msg.sender */\n              caller\n                /* \"Campaign.sol\":3128:3164  request.requestApprovers[msg.sender] */\n              0xffffffffffffffffffffffffffffffffffffffff\n              and\n              0xffffffffffffffffffffffffffffffffffffffff\n              and\n              dup2\n              mstore\n              0x20\n              add\n              swap1\n              dup2\n              mstore\n              0x20\n              add\n              0x00\n              keccak256\n              0x00\n              swap1\n              sload\n              swap1\n              0x0100\n              exp\n              swap1\n              div\n              0xff\n              and\n                /* \"Campaign.sol\":3127:3164  !request.requestApprovers[msg.sender] */\n              iszero\n                /* \"Campaign.sol\":3119:3208  require(!request.requestApprovers[msg.sender], \"You have already approved this request!\") */\n              tag_153\n              jumpi\n              mload(0x40)\n              0x08c379a000000000000000000000000000000000000000000000000000000000\n              dup2\n              mstore\n              0x04\n              add\n              tag_154\n              swap1\n              tag_155\n              jump\t// in\n            tag_154:\n              mload(0x40)\n              dup1\n              swap2\n              sub\n              swap1\n              revert\n            tag_153:\n                /* \"Campaign.sol\":3258:3262  true */\n              0x01\n                /* \"Campaign.sol\":3219:3226  request */\n              dup2\n                /* \"Campaign.sol\":3219:3243  request.requestApprovers */\n              0x04\n              add\n                /* \"Campaign.sol\":3219:3255  request.requestApprovers[msg.sender] */\n              0x00\n                /* \"Campaign.sol\":3244:3254  msg.sender */\n              caller\n                /* \"Campaign.sol\":3219:3255  request.requestApprovers[msg.sender] */\n              0xffffffffffffffffffffffffffffffffffffffff\n              and\n              0xffffffffffffffffffffffffffffffffffffffff\n              and\n              dup2\n              mstore\n              0x20\n              add\n              swap1\n              dup2\n              mstore\n              0x20\n              add\n              0x00\n              keccak256\n              0x00\n                /* \"Campaign.sol\":3219:3262  request.requestApprovers[msg.sender] = true */\n              0x0100\n              exp\n              dup2\n              sload\n              dup2\n              0xff\n              mul\n              not\n              and\n              swap1\n              dup4\n              iszero\n              iszero\n              mul\n              or\n              swap1\n              sstore\n              pop\n                /* \"Campaign.sol\":3272:3279  request */\n              dup1\n                /* \"Campaign.sol\":3272:3293  request.approvalCount */\n              0x02\n              add\n              0x00\n                /* \"Campaign.sol\":3272:3295  request.approvalCount++ */\n              dup2\n              sload\n              dup1\n              swap3\n              swap2\n              swap1\n              tag_156\n              swap1\n              tag_104\n              jump\t// in\n            tag_156:\n              swap2\n              swap1\n              pop\n              sstore\n              pop\n                /* \"Campaign.sol\":2962:3302  {... */\n              pop\n                /* \"Campaign.sol\":2918:3302  function approveRequest(uint _index) public {... */\n              pop\n              jump\t// out\n            tag_140:\n              dup3\n              dup1\n              sload\n              tag_157\n              swap1\n              tag_129\n              jump\t// in\n            tag_157:\n              swap1\n              0x00\n              mstore\n              keccak256(0x00, 0x20)\n              swap1\n              0x1f\n              add\n              0x20\n              swap1\n              div\n              dup2\n              add\n              swap3\n              dup3\n              tag_159\n              jumpi\n              0x00\n              dup6\n              sstore\n              jump(tag_158)\n            tag_159:\n              dup3\n              0x1f\n              lt\n              tag_160\n              jumpi\n              dup1\n              mload\n              not(0xff)\n              and\n              dup4\n              dup1\n              add\n              or\n              dup6\n              sstore\n              jump(tag_158)\n            tag_160:\n              dup3\n              dup1\n              add\n              0x01\n              add\n              dup6\n              sstore\n              dup3\n              iszero\n              tag_158\n              jumpi\n              swap2\n              dup3\n              add\n            tag_161:\n              dup3\n              dup2\n              gt\n              iszero\n              tag_162\n              jumpi\n              dup3\n              mload\n              dup3\n              sstore\n              swap2\n              0x20\n              add\n              swap2\n              swap1\n              0x01\n              add\n              swap1\n              jump(tag_161)\n            tag_162:\n            tag_158:\n              pop\n              swap1\n              pop\n              tag_163\n              swap2\n              swap1\n              tag_164\n              jump\t// in\n            tag_163:\n              pop\n              swap1\n              jump\t// out\n            tag_164:\n            tag_165:\n              dup1\n              dup3\n              gt\n              iszero\n              tag_166\n              jumpi\n              0x00\n              dup2\n              0x00\n              swap1\n              sstore\n              pop\n              0x01\n              add\n              jump(tag_165)\n            tag_166:\n              pop\n              swap1\n              jump\t// out\n                /* \"#utility.yul\":7:82   */\n            tag_167:\n                /* \"#utility.yul\":40:46   */\n              0x00\n                /* \"#utility.yul\":73:75   */\n              0x40\n                /* \"#utility.yul\":67:76   */\n              mload\n                /* \"#utility.yul\":57:76   */\n              swap1\n              pop\n                /* \"#utility.yul\":7:82   */\n              swap1\n              jump\t// out\n                /* \"#utility.yul\":88:205   */\n            tag_168:\n                /* \"#utility.yul\":197:198   */\n              0x00\n                /* \"#utility.yul\":194:195   */\n              dup1\n                /* \"#utility.yul\":187:199   */\n              revert\n                /* \"#utility.yul\":211:328   */\n            tag_169:\n                /* \"#utility.yul\":320:321   */\n              0x00\n                /* \"#utility.yul\":317:318   */\n              dup1\n                /* \"#utility.yul\":310:322   */\n              revert\n                /* \"#utility.yul\":334:411   */\n            tag_170:\n                /* \"#utility.yul\":371:378   */\n              0x00\n                /* \"#utility.yul\":400:405   */\n              dup2\n                /* \"#utility.yul\":389:405   */\n              swap1\n              pop\n                /* \"#utility.yul\":334:411   */\n              swap2\n              swap1\n              pop\n              jump\t// out\n                /* \"#utility.yul\":417:539   */\n            tag_171:\n                /* \"#utility.yul\":490:514   */\n              tag_225\n                /* \"#utility.yul\":508:513   */\n              dup2\n                /* \"#utility.yul\":490:514   */\n              tag_170\n              jump\t// in\n            tag_225:\n                /* \"#utility.yul\":483:488   */\n              dup2\n                /* \"#utility.yul\":480:515   */\n              eq\n                /* \"#utility.yul\":470:533   */\n              tag_226\n              jumpi\n                /* \"#utility.yul\":529:530   */\n              0x00\n                /* \"#utility.yul\":526:527   */\n              dup1\n                /* \"#utility.yul\":519:531   */\n              revert\n                /* \"#utility.yul\":470:533   */\n            tag_226:\n                /* \"#utility.yul\":417:539   */\n              pop\n              jump\t// out\n                /* \"#utility.yul\":545:684   */\n            tag_172:\n                /* \"#utility.yul\":591:596   */\n              0x00\n                /* \"#utility.yul\":629:635   */\n              dup2\n                /* \"#utility.yul\":616:636   */\n              calldataload\n                /* \"#utility.yul\":607:636   */\n              swap1\n              pop\n                /* \"#utility.yul\":645:678   */\n              tag_228\n                /* \"#utility.yul\":672:677   */\n              dup2\n                /* \"#utility.yul\":645:678   */\n              tag_171\n              jump\t// in\n            tag_228:\n                /* \"#utility.yul\":545:684   */\n              swap3\n              swap2\n              pop\n              pop\n              jump\t// out\n                /* \"#utility.yul\":690:1019   */\n            tag_29:\n                /* \"#utility.yul\":749:755   */\n              0x00\n                /* \"#utility.yul\":798:800   */\n              0x20\n                /* \"#utility.yul\":786:795   */\n              dup3\n                /* \"#utility.yul\":777:784   */\n              dup5\n                /* \"#utility.yul\":773:796   */\n              sub\n                /* \"#utility.yul\":769:801   */\n              slt\n                /* \"#utility.yul\":766:885   */\n              iszero\n              tag_230\n              jumpi\n                /* \"#utility.yul\":804:883   */\n              tag_231\n              tag_168\n              jump\t// in\n            tag_231:\n                /* \"#utility.yul\":766:885   */\n            tag_230:\n                /* \"#utility.yul\":924:925   */\n              0x00\n                /* \"#utility.yul\":949:1002   */\n              tag_232\n                /* \"#utility.yul\":994:1001   */\n              dup5\n                /* \"#utility.yul\":985:991   */\n              dup3\n                /* \"#utility.yul\":974:983   */\n              dup6\n                /* \"#utility.yul\":970:992   */\n              add\n                /* \"#utility.yul\":949:1002   */\n              tag_172\n              jump\t// in\n            tag_232:\n                /* \"#utility.yul\":939:1002   */\n              swap2\n              pop\n                /* \"#utility.yul\":895:1012   */\n              pop\n                /* \"#utility.yul\":690:1019   */\n              swap3\n              swap2\n              pop\n              pop\n              jump\t// out\n                /* \"#utility.yul\":1025:1151   */\n            tag_173:\n                /* \"#utility.yul\":1062:1069   */\n              0x00\n                /* \"#utility.yul\":1102:1144   */\n              0xffffffffffffffffffffffffffffffffffffffff\n                /* \"#utility.yul\":1095:1100   */\n              dup3\n                /* \"#utility.yul\":1091:1145   */\n              and\n                /* \"#utility.yul\":1080:1145   */\n              swap1\n              pop\n                /* \"#utility.yul\":1025:1151   */\n              swap2\n              swap1\n              pop\n              jump\t// out\n                /* \"#utility.yul\":1157:1253   */\n            tag_174:\n                /* \"#utility.yul\":1194:1201   */\n              0x00\n                /* \"#utility.yul\":1223:1247   */\n              tag_235\n                /* \"#utility.yul\":1241:1246   */\n              dup3\n                /* \"#utility.yul\":1223:1247   */\n              tag_173\n              jump\t// in\n            tag_235:\n                /* \"#utility.yul\":1212:1247   */\n              swap1\n              pop\n                /* \"#utility.yul\":1157:1253   */\n              swap2\n              swap1\n              pop\n              jump\t// out\n                /* \"#utility.yul\":1259:1381   */\n            tag_175:\n                /* \"#utility.yul\":1332:1356   */\n              tag_237\n                /* \"#utility.yul\":1350:1355   */\n              dup2\n                /* \"#utility.yul\":1332:1356   */\n              tag_174\n              jump\t// in\n            tag_237:\n                /* \"#utility.yul\":1325:1330   */\n              dup2\n                /* \"#utility.yul\":1322:1357   */\n              eq\n                /* \"#utility.yul\":1312:1375   */\n              tag_238\n              jumpi\n                /* \"#utility.yul\":1371:1372   */\n              0x00\n                /* \"#utility.yul\":1368:1369   */\n              dup1\n                /* \"#utility.yul\":1361:1373   */\n              revert\n                /* \"#utility.yul\":1312:1375   */\n            tag_238:\n                /* \"#utility.yul\":1259:1381   */\n              pop\n              jump\t// out\n                /* \"#utility.yul\":1387:1526   */\n            tag_176:\n                /* \"#utility.yul\":1433:1438   */\n              0x00\n                /* \"#utility.yul\":1471:1477   */\n              dup2\n                /* \"#utility.yul\":1458:1478   */\n              calldataload\n                /* \"#utility.yul\":1449:1478   */\n              swap1\n              pop\n                /* \"#utility.yul\":1487:1520   */\n              tag_240\n                /* \"#utility.yul\":1514:1519   */\n              dup2\n                /* \"#utility.yul\":1487:1520   */\n              tag_175\n              jump\t// in\n            tag_240:\n                /* \"#utility.yul\":1387:1526   */\n              swap3\n              swap2\n              pop\n              pop\n              jump\t// out\n                /* \"#utility.yul\":1532:1861   */\n            tag_34:\n                /* \"#utility.yul\":1591:1597   */\n              0x00\n                /* \"#utility.yul\":1640:1642   */\n              0x20\n                /* \"#utility.yul\":1628:1637   */\n              dup3\n                /* \"#utility.yul\":1619:1626   */\n              dup5\n                /* \"#utility.yul\":1615:1638   */\n              sub\n                /* \"#utility.yul\":1611:1643   */\n              slt\n                /* \"#utility.yul\":1608:1727   */\n              iszero\n              tag_242\n              jumpi\n                /* \"#utility.yul\":1646:1725   */\n              tag_243\n              tag_168\n              jump\t// in\n            tag_243:\n                /* \"#utility.yul\":1608:1727   */\n            tag_242:\n                /* \"#utility.yul\":1766:1767   */\n              0x00\n                /* \"#utility.yul\":1791:1844   */\n              tag_244\n                /* \"#utility.yul\":1836:1843   */\n              dup5\n                /* \"#utility.yul\":1827:1833   */\n              dup3\n                /* \"#utility.yul\":1816:1825   */\n              dup6\n                /* \"#utility.yul\":1812:1834   */\n              add\n                /* \"#utility.yul\":1791:1844   */\n              tag_176\n              jump\t// in\n            tag_244:\n                /* \"#utility.yul\":1781:1844   */\n              swap2\n              pop\n                /* \"#utility.yul\":1737:1854   */\n              pop\n                /* \"#utility.yul\":1532:1861   */\n              swap3\n              swap2\n              pop\n              pop\n              jump\t// out\n                /* \"#utility.yul\":1867:1985   */\n            tag_177:\n                /* \"#utility.yul\":1954:1978   */\n              tag_246\n                /* \"#utility.yul\":1972:1977   */\n              dup2\n                /* \"#utility.yul\":1954:1978   */\n              tag_170\n              jump\t// in\n            tag_246:\n                /* \"#utility.yul\":1949:1952   */\n              dup3\n                /* \"#utility.yul\":1942:1979   */\n              mstore\n                /* \"#utility.yul\":1867:1985   */\n              pop\n              pop\n              jump\t// out\n                /* \"#utility.yul\":1991:2213   */\n            tag_37:\n                /* \"#utility.yul\":2084:2088   */\n              0x00\n                /* \"#utility.yul\":2122:2124   */\n              0x20\n                /* \"#utility.yul\":2111:2120   */\n              dup3\n                /* \"#utility.yul\":2107:2125   */\n              add\n                /* \"#utility.yul\":2099:2125   */\n              swap1\n              pop\n                /* \"#utility.yul\":2135:2206   */\n              tag_248\n                /* \"#utility.yul\":2203:2204   */\n              0x00\n                /* \"#utility.yul\":2192:2201   */\n              dup4\n                /* \"#utility.yul\":2188:2205   */\n              add\n                /* \"#utility.yul\":2179:2185   */\n              dup5\n                /* \"#utility.yul\":2135:2206   */\n              tag_177\n              jump\t// in\n            tag_248:\n                /* \"#utility.yul\":1991:2213   */\n              swap3\n              swap2\n              pop\n              pop\n              jump\t// out\n                /* \"#utility.yul\":2219:2337   */\n            tag_178:\n                /* \"#utility.yul\":2306:2330   */\n              tag_250\n                /* \"#utility.yul\":2324:2329   */\n              dup2\n                /* \"#utility.yul\":2306:2330   */\n              tag_174\n              jump\t// in\n            tag_250:\n                /* \"#utility.yul\":2301:2304   */\n              dup3\n                /* \"#utility.yul\":2294:2331   */\n              mstore\n                /* \"#utility.yul\":2219:2337   */\n              pop\n              pop\n              jump\t// out\n                /* \"#utility.yul\":2343:3007   */\n            tag_54:\n                /* \"#utility.yul\":2548:2552   */\n              0x00\n                /* \"#utility.yul\":2586:2589   */\n              0xa0\n                /* \"#utility.yul\":2575:2584   */\n              dup3\n                /* \"#utility.yul\":2571:2590   */\n              add\n                /* \"#utility.yul\":2563:2590   */\n              swap1\n              pop\n                /* \"#utility.yul\":2600:2671   */\n              tag_252\n                /* \"#utility.yul\":2668:2669   */\n              0x00\n                /* \"#utility.yul\":2657:2666   */\n              dup4\n                /* \"#utility.yul\":2653:2670   */\n              add\n                /* \"#utility.yul\":2644:2650   */\n              dup9\n                /* \"#utility.yul\":2600:2671   */\n              tag_177\n              jump\t// in\n            tag_252:\n                /* \"#utility.yul\":2681:2753   */\n              tag_253\n                /* \"#utility.yul\":2749:2751   */\n              0x20\n                /* \"#utility.yul\":2738:2747   */\n              dup4\n                /* \"#utility.yul\":2734:2752   */\n              add\n                /* \"#utility.yul\":2725:2731   */\n              dup8\n                /* \"#utility.yul\":2681:2753   */\n              tag_177\n              jump\t// in\n            tag_253:\n                /* \"#utility.yul\":2763:2835   */\n              tag_254\n                /* \"#utility.yul\":2831:2833   */\n              0x40\n                /* \"#utility.yul\":2820:2829   */\n              dup4\n                /* \"#utility.yul\":2816:2834   */\n              add\n                /* \"#utility.yul\":2807:2813   */\n              dup7\n                /* \"#utility.yul\":2763:2835   */\n              tag_177\n              jump\t// in\n            tag_254:\n                /* \"#utility.yul\":2845:2917   */\n              tag_255\n                /* \"#utility.yul\":2913:2915   */\n              0x60\n                /* \"#utility.yul\":2902:2911   */\n              dup4\n                /* \"#utility.yul\":2898:2916   */\n              add\n                /* \"#utility.yul\":2889:2895   */\n              dup6\n                /* \"#utility.yul\":2845:2917   */\n              tag_177\n              jump\t// in\n            tag_255:\n                /* \"#utility.yul\":2927:3000   */\n              tag_256\n                /* \"#utility.yul\":2995:2998   */\n              0x80\n                /* \"#utility.yul\":2984:2993   */\n              dup4\n                /* \"#utility.yul\":2980:2999   */\n              add\n                /* \"#utility.yul\":2971:2977   */\n              dup5\n                /* \"#utility.yul\":2927:3000   */\n              tag_178\n              jump\t// in\n            tag_256:\n                /* \"#utility.yul\":2343:3007   */\n              swap7\n              swap6\n              pop\n              pop\n              pop\n              pop\n              pop\n              pop\n              jump\t// out\n                /* \"#utility.yul\":3013:3235   */\n            tag_59:\n                /* \"#utility.yul\":3106:3110   */\n              0x00\n                /* \"#utility.yul\":3144:3146   */\n              0x20\n                /* \"#utility.yul\":3133:3142   */\n              dup3\n                /* \"#utility.yul\":3129:3147   */\n              add\n                /* \"#utility.yul\":3121:3147   */\n              swap1\n              pop\n                /* \"#utility.yul\":3157:3228   */\n              tag_258\n                /* \"#utility.yul\":3225:3226   */\n              0x00\n                /* \"#utility.yul\":3214:3223   */\n              dup4\n                /* \"#utility.yul\":3210:3227   */\n              add\n                /* \"#utility.yul\":3201:3207   */\n              dup5\n                /* \"#utility.yul\":3157:3228   */\n              tag_178\n              jump\t// in\n            tag_258:\n                /* \"#utility.yul\":3013:3235   */\n              swap3\n              swap2\n              pop\n              pop\n              jump\t// out\n                /* \"#utility.yul\":3241:3340   */\n            tag_179:\n                /* \"#utility.yul\":3293:3299   */\n              0x00\n                /* \"#utility.yul\":3327:3332   */\n              dup2\n                /* \"#utility.yul\":3321:3333   */\n              mload\n                /* \"#utility.yul\":3311:3333   */\n              swap1\n              pop\n                /* \"#utility.yul\":3241:3340   */\n              swap2\n              swap1\n              pop\n              jump\t// out\n                /* \"#utility.yul\":3346:3515   */\n            tag_180:\n                /* \"#utility.yul\":3430:3441   */\n              0x00\n                /* \"#utility.yul\":3464:3470   */\n              dup3\n                /* \"#utility.yul\":3459:3462   */\n              dup3\n                /* \"#utility.yul\":3452:3471   */\n              mstore\n                /* \"#utility.yul\":3504:3508   */\n              0x20\n                /* \"#utility.yul\":3499:3502   */\n              dup3\n                /* \"#utility.yul\":3495:3509   */\n              add\n                /* \"#utility.yul\":3480:3509   */\n              swap1\n              pop\n                /* \"#utility.yul\":3346:3515   */\n              swap3\n              swap2\n              pop\n              pop\n              jump\t// out\n                /* \"#utility.yul\":3521:3828   */\n            tag_181:\n                /* \"#utility.yul\":3589:3590   */\n              0x00\n                /* \"#utility.yul\":3599:3712   */\n            tag_262:\n                /* \"#utility.yul\":3613:3619   */\n              dup4\n                /* \"#utility.yul\":3610:3611   */\n              dup2\n                /* \"#utility.yul\":3607:3620   */\n              lt\n                /* \"#utility.yul\":3599:3712   */\n              iszero\n              tag_264\n              jumpi\n                /* \"#utility.yul\":3698:3699   */\n              dup1\n                /* \"#utility.yul\":3693:3696   */\n              dup3\n                /* \"#utility.yul\":3689:3700   */\n              add\n                /* \"#utility.yul\":3683:3701   */\n              mload\n                /* \"#utility.yul\":3679:3680   */\n              dup2\n                /* \"#utility.yul\":3674:3677   */\n              dup5\n                /* \"#utility.yul\":3670:3681   */\n              add\n                /* \"#utility.yul\":3663:3702   */\n              mstore\n                /* \"#utility.yul\":3635:3637   */\n              0x20\n                /* \"#utility.yul\":3632:3633   */\n              dup2\n                /* \"#utility.yul\":3628:3638   */\n              add\n                /* \"#utility.yul\":3623:3638   */\n              swap1\n              pop\n                /* \"#utility.yul\":3599:3712   */\n              jump(tag_262)\n            tag_264:\n                /* \"#utility.yul\":3730:3736   */\n              dup4\n                /* \"#utility.yul\":3727:3728   */\n              dup2\n                /* \"#utility.yul\":3724:3737   */\n              gt\n                /* \"#utility.yul\":3721:3822   */\n              iszero\n              tag_265\n              jumpi\n                /* \"#utility.yul\":3810:3811   */\n              0x00\n                /* \"#utility.yul\":3801:3807   */\n              dup5\n                /* \"#utility.yul\":3796:3799   */\n              dup5\n                /* \"#utility.yul\":3792:3808   */\n              add\n                /* \"#utility.yul\":3785:3812   */\n              mstore\n                /* \"#utility.yul\":3721:3822   */\n            tag_265:\n                /* \"#utility.yul\":3570:3828   */\n              pop\n                /* \"#utility.yul\":3521:3828   */\n              pop\n              pop\n              pop\n              jump\t// out\n                /* \"#utility.yul\":3834:3936   */\n            tag_182:\n                /* \"#utility.yul\":3875:3881   */\n              0x00\n                /* \"#utility.yul\":3926:3928   */\n              0x1f\n                /* \"#utility.yul\":3922:3929   */\n              not\n                /* \"#utility.yul\":3917:3919   */\n              0x1f\n                /* \"#utility.yul\":3910:3915   */\n              dup4\n                /* \"#utility.yul\":3906:3920   */\n              add\n                /* \"#utility.yul\":3902:3930   */\n              and\n                /* \"#utility.yul\":3892:3930   */\n              swap1\n              pop\n                /* \"#utility.yul\":3834:3936   */\n              swap2\n              swap1\n              pop\n              jump\t// out\n                /* \"#utility.yul\":3942:4306   */\n            tag_183:\n                /* \"#utility.yul\":4030:4033   */\n              0x00\n                /* \"#utility.yul\":4058:4097   */\n              tag_268\n                /* \"#utility.yul\":4091:4096   */\n              dup3\n                /* \"#utility.yul\":4058:4097   */\n              tag_179\n              jump\t// in\n            tag_268:\n                /* \"#utility.yul\":4113:4184   */\n              tag_269\n                /* \"#utility.yul\":4177:4183   */\n              dup2\n                /* \"#utility.yul\":4172:4175   */\n              dup6\n                /* \"#utility.yul\":4113:4184   */\n              tag_180\n              jump\t// in\n            tag_269:\n                /* \"#utility.yul\":4106:4184   */\n              swap4\n              pop\n                /* \"#utility.yul\":4193:4245   */\n              tag_270\n                /* \"#utility.yul\":4238:4244   */\n              dup2\n                /* \"#utility.yul\":4233:4236   */\n              dup6\n                /* \"#utility.yul\":4226:4230   */\n              0x20\n                /* \"#utility.yul\":4219:4224   */\n              dup7\n                /* \"#utility.yul\":4215:4231   */\n              add\n                /* \"#utility.yul\":4193:4245   */\n              tag_181\n              jump\t// in\n            tag_270:\n                /* \"#utility.yul\":4270:4299   */\n              tag_271\n                /* \"#utility.yul\":4292:4298   */\n              dup2\n                /* \"#utility.yul\":4270:4299   */\n              tag_182\n              jump\t// in\n            tag_271:\n                /* \"#utility.yul\":4265:4268   */\n              dup5\n                /* \"#utility.yul\":4261:4300   */\n              add\n                /* \"#utility.yul\":4254:4300   */\n              swap2\n              pop\n                /* \"#utility.yul\":4034:4306   */\n              pop\n                /* \"#utility.yul\":3942:4306   */\n              swap3\n              swap2\n              pop\n              pop\n              jump\t// out\n                /* \"#utility.yul\":4312:4416   */\n            tag_184:\n                /* \"#utility.yul\":4357:4364   */\n              0x00\n                /* \"#utility.yul\":4386:4410   */\n              tag_273\n                /* \"#utility.yul\":4404:4409   */\n              dup3\n                /* \"#utility.yul\":4386:4410   */\n              tag_173\n              jump\t// in\n            tag_273:\n                /* \"#utility.yul\":4375:4410   */\n              swap1\n              pop\n                /* \"#utility.yul\":4312:4416   */\n              swap2\n              swap1\n              pop\n              jump\t// out\n                /* \"#utility.yul\":4422:4564   */\n            tag_185:\n                /* \"#utility.yul\":4525:4557   */\n              tag_275\n                /* \"#utility.yul\":4551:4556   */\n              dup2\n                /* \"#utility.yul\":4525:4557   */\n              tag_184\n              jump\t// in\n            tag_275:\n                /* \"#utility.yul\":4520:4523   */\n              dup3\n                /* \"#utility.yul\":4513:4558   */\n              mstore\n                /* \"#utility.yul\":4422:4564   */\n              pop\n              pop\n              jump\t// out\n                /* \"#utility.yul\":4570:4660   */\n            tag_186:\n                /* \"#utility.yul\":4604:4611   */\n              0x00\n                /* \"#utility.yul\":4647:4652   */\n              dup2\n                /* \"#utility.yul\":4640:4653   */\n              iszero\n                /* \"#utility.yul\":4633:4654   */\n              iszero\n                /* \"#utility.yul\":4622:4654   */\n              swap1\n              pop\n                /* \"#utility.yul\":4570:4660   */\n              swap2\n              swap1\n              pop\n              jump\t// out\n                /* \"#utility.yul\":4666:4775   */\n            tag_187:\n                /* \"#utility.yul\":4747:4768   */\n              tag_278\n                /* \"#utility.yul\":4762:4767   */\n              dup2\n                /* \"#utility.yul\":4747:4768   */\n              tag_186\n              jump\t// in\n            tag_278:\n                /* \"#utility.yul\":4742:4745   */\n              dup3\n                /* \"#utility.yul\":4735:4769   */\n              mstore\n                /* \"#utility.yul\":4666:4775   */\n              pop\n              pop\n              jump\t// out\n                /* \"#utility.yul\":4781:5556   */\n            tag_65:\n                /* \"#utility.yul\":5016:5020   */\n              0x00\n                /* \"#utility.yul\":5054:5057   */\n              0xa0\n                /* \"#utility.yul\":5043:5052   */\n              dup3\n                /* \"#utility.yul\":5039:5058   */\n              add\n                /* \"#utility.yul\":5031:5058   */\n              swap1\n              pop\n                /* \"#utility.yul\":5104:5113   */\n              dup2\n                /* \"#utility.yul\":5098:5102   */\n              dup2\n                /* \"#utility.yul\":5094:5114   */\n              sub\n                /* \"#utility.yul\":5090:5091   */\n              0x00\n                /* \"#utility.yul\":5079:5088   */\n              dup4\n                /* \"#utility.yul\":5075:5092   */\n              add\n                /* \"#utility.yul\":5068:5115   */\n              mstore\n                /* \"#utility.yul\":5132:5210   */\n              tag_280\n                /* \"#utility.yul\":5205:5209   */\n              dup2\n                /* \"#utility.yul\":5196:5202   */\n              dup9\n                /* \"#utility.yul\":5132:5210   */\n              tag_183\n              jump\t// in\n            tag_280:\n                /* \"#utility.yul\":5124:5210   */\n              swap1\n              pop\n                /* \"#utility.yul\":5220:5292   */\n              tag_281\n                /* \"#utility.yul\":5288:5290   */\n              0x20\n                /* \"#utility.yul\":5277:5286   */\n              dup4\n                /* \"#utility.yul\":5273:5291   */\n              add\n                /* \"#utility.yul\":5264:5270   */\n              dup8\n                /* \"#utility.yul\":5220:5292   */\n              tag_177\n              jump\t// in\n            tag_281:\n                /* \"#utility.yul\":5302:5374   */\n              tag_282\n                /* \"#utility.yul\":5370:5372   */\n              0x40\n                /* \"#utility.yul\":5359:5368   */\n              dup4\n                /* \"#utility.yul\":5355:5373   */\n              add\n                /* \"#utility.yul\":5346:5352   */\n              dup7\n                /* \"#utility.yul\":5302:5374   */\n              tag_177\n              jump\t// in\n            tag_282:\n                /* \"#utility.yul\":5384:5472   */\n              tag_283\n                /* \"#utility.yul\":5468:5470   */\n              0x60\n                /* \"#utility.yul\":5457:5466   */\n              dup4\n                /* \"#utility.yul\":5453:5471   */\n              add\n                /* \"#utility.yul\":5444:5450   */\n              dup6\n                /* \"#utility.yul\":5384:5472   */\n              tag_185\n              jump\t// in\n            tag_283:\n                /* \"#utility.yul\":5482:5549   */\n              tag_284\n                /* \"#utility.yul\":5544:5547   */\n              0x80\n                /* \"#utility.yul\":5533:5542   */\n              dup4\n                /* \"#utility.yul\":5529:5548   */\n              add\n                /* \"#utility.yul\":5520:5526   */\n              dup5\n                /* \"#utility.yul\":5482:5549   */\n              tag_187\n              jump\t// in\n            tag_284:\n                /* \"#utility.yul\":4781:5556   */\n              swap7\n              swap6\n              pop\n              pop\n              pop\n              pop\n              pop\n              pop\n              jump\t// out\n                /* \"#utility.yul\":5562:5679   */\n            tag_188:\n                /* \"#utility.yul\":5671:5672   */\n              0x00\n                /* \"#utility.yul\":5668:5669   */\n              dup1\n                /* \"#utility.yul\":5661:5673   */\n              revert\n                /* \"#utility.yul\":5685:5802   */\n            tag_189:\n                /* \"#utility.yul\":5794:5795   */\n              0x00\n                /* \"#utility.yul\":5791:5792   */\n              dup1\n                /* \"#utility.yul\":5784:5796   */\n              revert\n                /* \"#utility.yul\":5808:5988   */\n            tag_190:\n                /* \"#utility.yul\":5856:5933   */\n              0x4e487b7100000000000000000000000000000000000000000000000000000000\n                /* \"#utility.yul\":5853:5854   */\n              0x00\n                /* \"#utility.yul\":5846:5934   */\n              mstore\n                /* \"#utility.yul\":5953:5957   */\n              0x41\n                /* \"#utility.yul\":5950:5951   */\n              0x04\n                /* \"#utility.yul\":5943:5958   */\n              mstore\n                /* \"#utility.yul\":5977:5981   */\n              0x24\n                /* \"#utility.yul\":5974:5975   */\n              0x00\n                /* \"#utility.yul\":5967:5982   */\n              revert\n                /* \"#utility.yul\":5994:6275   */\n            tag_191:\n                /* \"#utility.yul\":6077:6104   */\n              tag_289\n                /* \"#utility.yul\":6099:6103   */\n              dup3\n                /* \"#utility.yul\":6077:6104   */\n              tag_182\n              jump\t// in\n            tag_289:\n                /* \"#utility.yul\":6069:6075   */\n              dup2\n                /* \"#utility.yul\":6065:6105   */\n              add\n                /* \"#utility.yul\":6207:6213   */\n              dup2\n                /* \"#utility.yul\":6195:6205   */\n              dup2\n                /* \"#utility.yul\":6192:6214   */\n              lt\n                /* \"#utility.yul\":6171:6189   */\n              0xffffffffffffffff\n                /* \"#utility.yul\":6159:6169   */\n              dup3\n                /* \"#utility.yul\":6156:6190   */\n              gt\n                /* \"#utility.yul\":6153:6215   */\n              or\n                /* \"#utility.yul\":6150:6238   */\n              iszero\n              tag_290\n              jumpi\n                /* \"#utility.yul\":6218:6236   */\n              tag_291\n              tag_190\n              jump\t// in\n            tag_291:\n                /* \"#utility.yul\":6150:6238   */\n            tag_290:\n                /* \"#utility.yul\":6258:6268   */\n              dup1\n                /* \"#utility.yul\":6254:6256   */\n              0x40\n                /* \"#utility.yul\":6247:6269   */\n              mstore\n                /* \"#utility.yul\":6037:6275   */\n              pop\n                /* \"#utility.yul\":5994:6275   */\n              pop\n              pop\n              jump\t// out\n                /* \"#utility.yul\":6281:6410   */\n            tag_192:\n                /* \"#utility.yul\":6315:6321   */\n              0x00\n                /* \"#utility.yul\":6342:6362   */\n              tag_293\n              tag_167\n              jump\t// in\n            tag_293:\n                /* \"#utility.yul\":6332:6362   */\n              swap1\n              pop\n                /* \"#utility.yul\":6371:6404   */\n              tag_294\n                /* \"#utility.yul\":6399:6403   */\n              dup3\n                /* \"#utility.yul\":6391:6397   */\n              dup3\n                /* \"#utility.yul\":6371:6404   */\n              tag_191\n              jump\t// in\n            tag_294:\n                /* \"#utility.yul\":6281:6410   */\n              swap2\n              swap1\n              pop\n              jump\t// out\n                /* \"#utility.yul\":6416:6724   */\n            tag_193:\n                /* \"#utility.yul\":6478:6482   */\n              0x00\n                /* \"#utility.yul\":6568:6586   */\n              0xffffffffffffffff\n                /* \"#utility.yul\":6560:6566   */\n              dup3\n                /* \"#utility.yul\":6557:6587   */\n              gt\n                /* \"#utility.yul\":6554:6610   */\n              iszero\n              tag_296\n              jumpi\n                /* \"#utility.yul\":6590:6608   */\n              tag_297\n              tag_190\n              jump\t// in\n            tag_297:\n                /* \"#utility.yul\":6554:6610   */\n            tag_296:\n                /* \"#utility.yul\":6628:6657   */\n              tag_298\n                /* \"#utility.yul\":6650:6656   */\n              dup3\n                /* \"#utility.yul\":6628:6657   */\n              tag_182\n              jump\t// in\n            tag_298:\n                /* \"#utility.yul\":6620:6657   */\n              swap1\n              pop\n                /* \"#utility.yul\":6712:6716   */\n              0x20\n                /* \"#utility.yul\":6706:6710   */\n              dup2\n                /* \"#utility.yul\":6702:6717   */\n              add\n                /* \"#utility.yul\":6694:6717   */\n              swap1\n              pop\n                /* \"#utility.yul\":6416:6724   */\n              swap2\n              swap1\n              pop\n              jump\t// out\n                /* \"#utility.yul\":6730:6884   */\n            tag_194:\n                /* \"#utility.yul\":6814:6820   */\n              dup3\n                /* \"#utility.yul\":6809:6812   */\n              dup2\n                /* \"#utility.yul\":6804:6807   */\n              dup4\n                /* \"#utility.yul\":6791:6821   */\n              calldatacopy\n                /* \"#utility.yul\":6876:6877   */\n              0x00\n                /* \"#utility.yul\":6867:6873   */\n              dup4\n                /* \"#utility.yul\":6862:6865   */\n              dup4\n                /* \"#utility.yul\":6858:6874   */\n              add\n                /* \"#utility.yul\":6851:6878   */\n              mstore\n                /* \"#utility.yul\":6730:6884   */\n              pop\n              pop\n              pop\n              jump\t// out\n                /* \"#utility.yul\":6890:7302   */\n            tag_195:\n                /* \"#utility.yul\":6968:6973   */\n              0x00\n                /* \"#utility.yul\":6993:7059   */\n              tag_301\n                /* \"#utility.yul\":7009:7058   */\n              tag_302\n                /* \"#utility.yul\":7051:7057   */\n              dup5\n                /* \"#utility.yul\":7009:7058   */\n              tag_193\n              jump\t// in\n            tag_302:\n                /* \"#utility.yul\":6993:7059   */\n              tag_192\n              jump\t// in\n            tag_301:\n                /* \"#utility.yul\":6984:7059   */\n              swap1\n              pop\n                /* \"#utility.yul\":7082:7088   */\n              dup3\n                /* \"#utility.yul\":7075:7080   */\n              dup2\n                /* \"#utility.yul\":7068:7089   */\n              mstore\n                /* \"#utility.yul\":7120:7124   */\n              0x20\n                /* \"#utility.yul\":7113:7118   */\n              dup2\n                /* \"#utility.yul\":7109:7125   */\n              add\n                /* \"#utility.yul\":7158:7161   */\n              dup5\n                /* \"#utility.yul\":7149:7155   */\n              dup5\n                /* \"#utility.yul\":7144:7147   */\n              dup5\n                /* \"#utility.yul\":7140:7156   */\n              add\n                /* \"#utility.yul\":7137:7162   */\n              gt\n                /* \"#utility.yul\":7134:7246   */\n              iszero\n              tag_303\n              jumpi\n                /* \"#utility.yul\":7165:7244   */\n              tag_304\n              tag_189\n              jump\t// in\n            tag_304:\n                /* \"#utility.yul\":7134:7246   */\n            tag_303:\n                /* \"#utility.yul\":7255:7296   */\n              tag_305\n                /* \"#utility.yul\":7289:7295   */\n              dup5\n                /* \"#utility.yul\":7284:7287   */\n              dup3\n                /* \"#utility.yul\":7279:7282   */\n              dup6\n                /* \"#utility.yul\":7255:7296   */\n              tag_194\n              jump\t// in\n            tag_305:\n                /* \"#utility.yul\":6974:7302   */\n              pop\n                /* \"#utility.yul\":6890:7302   */\n              swap4\n              swap3\n              pop\n              pop\n              pop\n              jump\t// out\n                /* \"#utility.yul\":7322:7662   */\n            tag_196:\n                /* \"#utility.yul\":7378:7383   */\n              0x00\n                /* \"#utility.yul\":7427:7430   */\n              dup3\n                /* \"#utility.yul\":7420:7424   */\n              0x1f\n                /* \"#utility.yul\":7412:7418   */\n              dup4\n                /* \"#utility.yul\":7408:7425   */\n              add\n                /* \"#utility.yul\":7404:7431   */\n              slt\n                /* \"#utility.yul\":7394:7516   */\n              tag_307\n              jumpi\n                /* \"#utility.yul\":7435:7514   */\n              tag_308\n              tag_188\n              jump\t// in\n            tag_308:\n                /* \"#utility.yul\":7394:7516   */\n            tag_307:\n                /* \"#utility.yul\":7552:7558   */\n              dup2\n                /* \"#utility.yul\":7539:7559   */\n              calldataload\n                /* \"#utility.yul\":7577:7656   */\n              tag_309\n                /* \"#utility.yul\":7652:7655   */\n              dup5\n                /* \"#utility.yul\":7644:7650   */\n              dup3\n                /* \"#utility.yul\":7637:7641   */\n              0x20\n                /* \"#utility.yul\":7629:7635   */\n              dup7\n                /* \"#utility.yul\":7625:7642   */\n              add\n                /* \"#utility.yul\":7577:7656   */\n              tag_195\n              jump\t// in\n            tag_309:\n                /* \"#utility.yul\":7568:7656   */\n              swap2\n              pop\n                /* \"#utility.yul\":7384:7662   */\n              pop\n                /* \"#utility.yul\":7322:7662   */\n              swap3\n              swap2\n              pop\n              pop\n              jump\t// out\n                /* \"#utility.yul\":7668:7806   */\n            tag_197:\n                /* \"#utility.yul\":7749:7781   */\n              tag_311\n                /* \"#utility.yul\":7775:7780   */\n              dup2\n                /* \"#utility.yul\":7749:7781   */\n              tag_184\n              jump\t// in\n            tag_311:\n                /* \"#utility.yul\":7742:7747   */\n              dup2\n                /* \"#utility.yul\":7739:7782   */\n              eq\n                /* \"#utility.yul\":7729:7800   */\n              tag_312\n              jumpi\n                /* \"#utility.yul\":7796:7797   */\n              0x00\n                /* \"#utility.yul\":7793:7794   */\n              dup1\n                /* \"#utility.yul\":7786:7798   */\n              revert\n                /* \"#utility.yul\":7729:7800   */\n            tag_312:\n                /* \"#utility.yul\":7668:7806   */\n              pop\n              jump\t// out\n                /* \"#utility.yul\":7812:7967   */\n            tag_198:\n                /* \"#utility.yul\":7866:7871   */\n              0x00\n                /* \"#utility.yul\":7904:7910   */\n              dup2\n                /* \"#utility.yul\":7891:7911   */\n              calldataload\n                /* \"#utility.yul\":7882:7911   */\n              swap1\n              pop\n                /* \"#utility.yul\":7920:7961   */\n              tag_314\n                /* \"#utility.yul\":7955:7960   */\n              dup2\n                /* \"#utility.yul\":7920:7961   */\n              tag_197\n              jump\t// in\n            tag_314:\n                /* \"#utility.yul\":7812:7967   */\n              swap3\n              swap2\n              pop\n              pop\n              jump\t// out\n                /* \"#utility.yul\":7973:8788   */\n            tag_73:\n                /* \"#utility.yul\":8068:8074   */\n              0x00\n                /* \"#utility.yul\":8076:8082   */\n              dup1\n                /* \"#utility.yul\":8084:8090   */\n              0x00\n                /* \"#utility.yul\":8133:8135   */\n              0x60\n                /* \"#utility.yul\":8121:8130   */\n              dup5\n                /* \"#utility.yul\":8112:8119   */\n              dup7\n                /* \"#utility.yul\":8108:8131   */\n              sub\n                /* \"#utility.yul\":8104:8136   */\n              slt\n                /* \"#utility.yul\":8101:8220   */\n              iszero\n              tag_316\n              jumpi\n                /* \"#utility.yul\":8139:8218   */\n              tag_317\n              tag_168\n              jump\t// in\n            tag_317:\n                /* \"#utility.yul\":8101:8220   */\n            tag_316:\n                /* \"#utility.yul\":8287:8288   */\n              0x00\n                /* \"#utility.yul\":8276:8285   */\n              dup5\n                /* \"#utility.yul\":8272:8289   */\n              add\n                /* \"#utility.yul\":8259:8290   */\n              calldataload\n                /* \"#utility.yul\":8317:8335   */\n              0xffffffffffffffff\n                /* \"#utility.yul\":8309:8315   */\n              dup2\n                /* \"#utility.yul\":8306:8336   */\n              gt\n                /* \"#utility.yul\":8303:8420   */\n              iszero\n              tag_318\n              jumpi\n                /* \"#utility.yul\":8339:8418   */\n              tag_319\n              tag_169\n              jump\t// in\n            tag_319:\n                /* \"#utility.yul\":8303:8420   */\n            tag_318:\n                /* \"#utility.yul\":8444:8507   */\n              tag_320\n                /* \"#utility.yul\":8499:8506   */\n              dup7\n                /* \"#utility.yul\":8490:8496   */\n              dup3\n                /* \"#utility.yul\":8479:8488   */\n              dup8\n                /* \"#utility.yul\":8475:8497   */\n              add\n                /* \"#utility.yul\":8444:8507   */\n              tag_196\n              jump\t// in\n            tag_320:\n                /* \"#utility.yul\":8434:8507   */\n              swap4\n              pop\n                /* \"#utility.yul\":8230:8517   */\n              pop\n                /* \"#utility.yul\":8556:8558   */\n              0x20\n                /* \"#utility.yul\":8582:8635   */\n              tag_321\n                /* \"#utility.yul\":8627:8634   */\n              dup7\n                /* \"#utility.yul\":8618:8624   */\n              dup3\n                /* \"#utility.yul\":8607:8616   */\n              dup8\n                /* \"#utility.yul\":8603:8625   */\n              add\n                /* \"#utility.yul\":8582:8635   */\n              tag_172\n              jump\t// in\n            tag_321:\n                /* \"#utility.yul\":8572:8635   */\n              swap3\n              pop\n                /* \"#utility.yul\":8527:8645   */\n              pop\n                /* \"#utility.yul\":8684:8686   */\n              0x40\n                /* \"#utility.yul\":8710:8771   */\n              tag_322\n                /* \"#utility.yul\":8763:8770   */\n              dup7\n                /* \"#utility.yul\":8754:8760   */\n              dup3\n                /* \"#utility.yul\":8743:8752   */\n              dup8\n                /* \"#utility.yul\":8739:8761   */\n              add\n                /* \"#utility.yul\":8710:8771   */\n              tag_198\n              jump\t// in\n            tag_322:\n                /* \"#utility.yul\":8700:8771   */\n              swap2\n              pop\n                /* \"#utility.yul\":8655:8781   */\n              pop\n                /* \"#utility.yul\":7973:8788   */\n              swap3\n              pop\n              swap3\n              pop\n              swap3\n              jump\t// out\n                /* \"#utility.yul\":8794:8974   */\n            tag_199:\n                /* \"#utility.yul\":8934:8966   */\n              0x43616d7061696e672068617320616c72656164792066696e6973686564210000\n                /* \"#utility.yul\":8930:8931   */\n              0x00\n                /* \"#utility.yul\":8922:8928   */\n              dup3\n                /* \"#utility.yul\":8918:8932   */\n              add\n                /* \"#utility.yul\":8911:8967   */\n              mstore\n                /* \"#utility.yul\":8794:8974   */\n              pop\n              jump\t// out\n                /* \"#utility.yul\":8980:9346   */\n            tag_200:\n                /* \"#utility.yul\":9122:9125   */\n              0x00\n                /* \"#utility.yul\":9143:9210   */\n              tag_325\n                /* \"#utility.yul\":9207:9209   */\n              0x1e\n                /* \"#utility.yul\":9202:9205   */\n              dup4\n                /* \"#utility.yul\":9143:9210   */\n              tag_180\n              jump\t// in\n            tag_325:\n                /* \"#utility.yul\":9136:9210   */\n              swap2\n              pop\n                /* \"#utility.yul\":9219:9312   */\n              tag_326\n                /* \"#utility.yul\":9308:9311   */\n              dup3\n                /* \"#utility.yul\":9219:9312   */\n              tag_199\n              jump\t// in\n            tag_326:\n                /* \"#utility.yul\":9337:9339   */\n              0x20\n                /* \"#utility.yul\":9332:9335   */\n              dup3\n                /* \"#utility.yul\":9328:9340   */\n              add\n                /* \"#utility.yul\":9321:9340   */\n              swap1\n              pop\n                /* \"#utility.yul\":8980:9346   */\n              swap2\n              swap1\n              pop\n              jump\t// out\n                /* \"#utility.yul\":9352:9771   */\n            tag_98:\n                /* \"#utility.yul\":9518:9522   */\n              0x00\n                /* \"#utility.yul\":9556:9558   */\n              0x20\n                /* \"#utility.yul\":9545:9554   */\n              dup3\n                /* \"#utility.yul\":9541:9559   */\n              add\n                /* \"#utility.yul\":9533:9559   */\n              swap1\n              pop\n                /* \"#utility.yul\":9605:9614   */\n              dup2\n                /* \"#utility.yul\":9599:9603   */\n              dup2\n                /* \"#utility.yul\":9595:9615   */\n              sub\n                /* \"#utility.yul\":9591:9592   */\n              0x00\n                /* \"#utility.yul\":9580:9589   */\n              dup4\n                /* \"#utility.yul\":9576:9593   */\n              add\n                /* \"#utility.yul\":9569:9616   */\n              mstore\n                /* \"#utility.yul\":9633:9764   */\n              tag_328\n                /* \"#utility.yul\":9759:9763   */\n              dup2\n                /* \"#utility.yul\":9633:9764   */\n              tag_200\n              jump\t// in\n            tag_328:\n                /* \"#utility.yul\":9625:9764   */\n              swap1\n              pop\n                /* \"#utility.yul\":9352:9771   */\n              swap2\n              swap1\n              pop\n              jump\t// out\n                /* \"#utility.yul\":9777:9956   */\n            tag_201:\n                /* \"#utility.yul\":9917:9948   */\n              0x4d696e696d756d20436f6e747269627574696f6e206e6f74206d657421000000\n                /* \"#utility.yul\":9913:9914   */\n              0x00\n                /* \"#utility.yul\":9905:9911   */\n              dup3\n                /* \"#utility.yul\":9901:9915   */\n              add\n                /* \"#utility.yul\":9894:9949   */\n              mstore\n                /* \"#utility.yul\":9777:9956   */\n              pop\n              jump\t// out\n                /* \"#utility.yul\":9962:10328   */\n            tag_202:\n                /* \"#utility.yul\":10104:10107   */\n              0x00\n                /* \"#utility.yul\":10125:10192   */\n              tag_331\n                /* \"#utility.yul\":10189:10191   */\n              0x1d\n                /* \"#utility.yul\":10184:10187   */\n              dup4\n                /* \"#utility.yul\":10125:10192   */\n              tag_180\n              jump\t// in\n            tag_331:\n                /* \"#utility.yul\":10118:10192   */\n              swap2\n              pop\n                /* \"#utility.yul\":10201:10294   */\n              tag_332\n                /* \"#utility.yul\":10290:10293   */\n              dup3\n                /* \"#utility.yul\":10201:10294   */\n              tag_201\n              jump\t// in\n            tag_332:\n                /* \"#utility.yul\":10319:10321   */\n              0x20\n                /* \"#utility.yul\":10314:10317   */\n              dup3\n                /* \"#utility.yul\":10310:10322   */\n              add\n                /* \"#utility.yul\":10303:10322   */\n              swap1\n              pop\n                /* \"#utility.yul\":9962:10328   */\n              swap2\n              swap1\n              pop\n              jump\t// out\n                /* \"#utility.yul\":10334:10753   */\n            tag_101:\n                /* \"#utility.yul\":10500:10504   */\n              0x00\n                /* \"#utility.yul\":10538:10540   */\n              0x20\n                /* \"#utility.yul\":10527:10536   */\n              dup3\n                /* \"#utility.yul\":10523:10541   */\n              add\n                /* \"#utility.yul\":10515:10541   */\n              swap1\n              pop\n                /* \"#utility.yul\":10587:10596   */\n              dup2\n                /* \"#utility.yul\":10581:10585   */\n              dup2\n                /* \"#utility.yul\":10577:10597   */\n              sub\n                /* \"#utility.yul\":10573:10574   */\n              0x00\n                /* \"#utility.yul\":10562:10571   */\n              dup4\n                /* \"#utility.yul\":10558:10575   */\n              add\n                /* \"#utility.yul\":10551:10598   */\n              mstore\n                /* \"#utility.yul\":10615:10746   */\n              tag_334\n                /* \"#utility.yul\":10741:10745   */\n              dup2\n                /* \"#utility.yul\":10615:10746   */\n              tag_202\n              jump\t// in\n            tag_334:\n                /* \"#utility.yul\":10607:10746   */\n              swap1\n              pop\n                /* \"#utility.yul\":10334:10753   */\n              swap2\n              swap1\n              pop\n              jump\t// out\n                /* \"#utility.yul\":10759:10939   */\n            tag_203:\n                /* \"#utility.yul\":10807:10884   */\n              0x4e487b7100000000000000000000000000000000000000000000000000000000\n                /* \"#utility.yul\":10804:10805   */\n              0x00\n                /* \"#utility.yul\":10797:10885   */\n              mstore\n                /* \"#utility.yul\":10904:10908   */\n              0x11\n                /* \"#utility.yul\":10901:10902   */\n              0x04\n                /* \"#utility.yul\":10894:10909   */\n              mstore\n                /* \"#utility.yul\":10928:10932   */\n              0x24\n                /* \"#utility.yul\":10925:10926   */\n              0x00\n                /* \"#utility.yul\":10918:10933   */\n              revert\n                /* \"#utility.yul\":10945:11178   */\n            tag_104:\n                /* \"#utility.yul\":10984:10987   */\n              0x00\n                /* \"#utility.yul\":11007:11031   */\n              tag_337\n                /* \"#utility.yul\":11025:11030   */\n              dup3\n                /* \"#utility.yul\":11007:11031   */\n              tag_170\n              jump\t// in\n            tag_337:\n                /* \"#utility.yul\":10998:11031   */\n              swap2\n              pop\n                /* \"#utility.yul\":11053:11119   */\n              0xffffffffffffffffffffffffffffffffffffffffffffffffffffffffffffffff\n                /* \"#utility.yul\":11046:11051   */\n              dup3\n                /* \"#utility.yul\":11043:11120   */\n              eq\n                /* \"#utility.yul\":11040:11143   */\n              iszero\n              tag_338\n              jumpi\n                /* \"#utility.yul\":11123:11141   */\n              tag_339\n              tag_203\n              jump\t// in\n            tag_339:\n                /* \"#utility.yul\":11040:11143   */\n            tag_338:\n                /* \"#utility.yul\":11170:11171   */\n              0x01\n                /* \"#utility.yul\":11163:11168   */\n              dup3\n                /* \"#utility.yul\":11159:11172   */\n              add\n                /* \"#utility.yul\":11152:11172   */\n              swap1\n              pop\n                /* \"#utility.yul\":10945:11178   */\n              swap2\n              swap1\n              pop\n              jump\t// out\n                /* \"#utility.yul\":11184:11489   */\n            tag_106:\n                /* \"#utility.yul\":11224:11227   */\n              0x00\n                /* \"#utility.yul\":11243:11263   */\n              tag_341\n                /* \"#utility.yul\":11261:11262   */\n              dup3\n                /* \"#utility.yul\":11243:11263   */\n              tag_170\n              jump\t// in\n            tag_341:\n                /* \"#utility.yul\":11238:11263   */\n              swap2\n              pop\n                /* \"#utility.yul\":11277:11297   */\n              tag_342\n                /* \"#utility.yul\":11295:11296   */\n              dup4\n                /* \"#utility.yul\":11277:11297   */\n              tag_170\n              jump\t// in\n            tag_342:\n                /* \"#utility.yul\":11272:11297   */\n              swap3\n              pop\n                /* \"#utility.yul\":11431:11432   */\n              dup3\n                /* \"#utility.yul\":11363:11429   */\n              0xffffffffffffffffffffffffffffffffffffffffffffffffffffffffffffffff\n                /* \"#utility.yul\":11359:11433   */\n              sub\n                /* \"#utility.yul\":11356:11357   */\n              dup3\n                /* \"#utility.yul\":11353:11434   */\n              gt\n                /* \"#utility.yul\":11350:11457   */\n              iszero\n              tag_343\n              jumpi\n                /* \"#utility.yul\":11437:11455   */\n              tag_344\n              tag_203\n              jump\t// in\n            tag_344:\n                /* \"#utility.yul\":11350:11457   */\n            tag_343:\n                /* \"#utility.yul\":11481:11482   */\n              dup3\n                /* \"#utility.yul\":11478:11479   */\n              dup3\n                /* \"#utility.yul\":11474:11483   */\n              add\n                /* \"#utility.yul\":11467:11483   */\n              swap1\n              pop\n                /* \"#utility.yul\":11184:11489   */\n              swap3\n              swap2\n              pop\n              pop\n              jump\t// out\n                /* \"#utility.yul\":11495:11827   */\n            tag_109:\n                /* \"#utility.yul\":11616:11620   */\n              0x00\n                /* \"#utility.yul\":11654:11656   */\n              0x40\n                /* \"#utility.yul\":11643:11652   */\n              dup3\n                /* \"#utility.yul\":11639:11657   */\n              add\n                /* \"#utility.yul\":11631:11657   */\n              swap1\n              pop\n                /* \"#utility.yul\":11667:11738   */\n              tag_346\n                /* \"#utility.yul\":11735:11736   */\n              0x00\n                /* \"#utility.yul\":11724:11733   */\n              dup4\n                /* \"#utility.yul\":11720:11737   */\n              add\n                /* \"#utility.yul\":11711:11717   */\n              dup6\n                /* \"#utility.yul\":11667:11738   */\n              tag_178\n              jump\t// in\n            tag_346:\n                /* \"#utility.yul\":11748:11820   */\n              tag_347\n                /* \"#utility.yul\":11816:11818   */\n              0x20\n                /* \"#utility.yul\":11805:11814   */\n              dup4\n                /* \"#utility.yul\":11801:11819   */\n              add\n                /* \"#utility.yul\":11792:11798   */\n              dup5\n                /* \"#utility.yul\":11748:11820   */\n              tag_177\n              jump\t// in\n            tag_347:\n                /* \"#utility.yul\":11495:11827   */\n              swap4\n              swap3\n              pop\n              pop\n              pop\n              jump\t// out\n                /* \"#utility.yul\":11833:12058   */\n            tag_204:\n                /* \"#utility.yul\":11973:12007   */\n              0x4f6e6c79206d616e616765722063616e2063616c6c20746f2074686973206675\n                /* \"#utility.yul\":11969:11970   */\n              0x00\n                /* \"#utility.yul\":11961:11967   */\n              dup3\n                /* \"#utility.yul\":11957:11971   */\n              add\n                /* \"#utility.yul\":11950:12008   */\n              mstore\n                /* \"#utility.yul\":12042:12050   */\n              0x6e63696f6e210000000000000000000000000000000000000000000000000000\n                /* \"#utility.yul\":12037:12039   */\n              0x20\n                /* \"#utility.yul\":12029:12035   */\n              dup3\n                /* \"#utility.yul\":12025:12040   */\n              add\n                /* \"#utility.yul\":12018:12051   */\n              mstore\n                /* \"#utility.yul\":11833:12058   */\n              pop\n              jump\t// out\n                /* \"#utility.yul\":12064:12430   */\n            tag_205:\n                /* \"#utility.yul\":12206:12209   */\n              0x00\n                /* \"#utility.yul\":12227:12294   */\n              tag_350\n                /* \"#utility.yul\":12291:12293   */\n              0x26\n                /* \"#utility.yul\":12286:12289   */\n              dup4\n                /* \"#utility.yul\":12227:12294   */\n              tag_180\n              jump\t// in\n            tag_350:\n                /* \"#utility.yul\":12220:12294   */\n              swap2\n              pop\n                /* \"#utility.yul\":12303:12396   */\n              tag_351\n                /* \"#utility.yul\":12392:12395   */\n              dup3\n                /* \"#utility.yul\":12303:12396   */\n              tag_204\n              jump\t// in\n            tag_351:\n                /* \"#utility.yul\":12421:12423   */\n              0x40\n                /* \"#utility.yul\":12416:12419   */\n              dup3\n                /* \"#utility.yul\":12412:12424   */\n              add\n                /* \"#utility.yul\":12405:12424   */\n              swap1\n              pop\n                /* \"#utility.yul\":12064:12430   */\n              swap2\n              swap1\n              pop\n              jump\t// out\n                /* \"#utility.yul\":12436:12855   */\n            tag_113:\n                /* \"#utility.yul\":12602:12606   */\n              0x00\n                /* \"#utility.yul\":12640:12642   */\n              0x20\n                /* \"#utility.yul\":12629:12638   */\n              dup3\n                /* \"#utility.yul\":12625:12643   */\n              add\n                /* \"#utility.yul\":12617:12643   */\n              swap1\n              pop\n                /* \"#utility.yul\":12689:12698   */\n              dup2\n                /* \"#utility.yul\":12683:12687   */\n              dup2\n                /* \"#utility.yul\":12679:12699   */\n              sub\n                /* \"#utility.yul\":12675:12676   */\n              0x00\n                /* \"#utility.yul\":12664:12673   */\n              dup4\n                /* \"#utility.yul\":12660:12677   */\n              add\n                /* \"#utility.yul\":12653:12700   */\n              mstore\n                /* \"#utility.yul\":12717:12848   */\n              tag_353\n                /* \"#utility.yul\":12843:12847   */\n              dup2\n                /* \"#utility.yul\":12717:12848   */\n              tag_205\n              jump\t// in\n            tag_353:\n                /* \"#utility.yul\":12709:12848   */\n              swap1\n              pop\n                /* \"#utility.yul\":12436:12855   */\n              swap2\n              swap1\n              pop\n              jump\t// out\n                /* \"#utility.yul\":12861:13087   */\n            tag_206:\n                /* \"#utility.yul\":13001:13035   */\n              0x54686520726571756573742068617320616c7265616479206265656e20636f6d\n                /* \"#utility.yul\":12997:12998   */\n              0x00\n                /* \"#utility.yul\":12989:12995   */\n              dup3\n                /* \"#utility.yul\":12985:12999   */\n              add\n                /* \"#utility.yul\":12978:13036   */\n              mstore\n                /* \"#utility.yul\":13070:13079   */\n              0x706c657465642100000000000000000000000000000000000000000000000000\n                /* \"#utility.yul\":13065:13067   */\n              0x20\n                /* \"#utility.yul\":13057:13063   */\n              dup3\n                /* \"#utility.yul\":13053:13068   */\n              add\n                /* \"#utility.yul\":13046:13080   */\n              mstore\n                /* \"#utility.yul\":12861:13087   */\n              pop\n              jump\t// out\n                /* \"#utility.yul\":13093:13459   */\n            tag_207:\n                /* \"#utility.yul\":13235:13238   */\n              0x00\n                /* \"#utility.yul\":13256:13323   */\n              tag_356\n                /* \"#utility.yul\":13320:13322   */\n              0x27\n                /* \"#utility.yul\":13315:13318   */\n              dup4\n                /* \"#utility.yul\":13256:13323   */\n              tag_180\n              jump\t// in\n            tag_356:\n                /* \"#utility.yul\":13249:13323   */\n              swap2\n              pop\n                /* \"#utility.yul\":13332:13425   */\n              tag_357\n                /* \"#utility.yul\":13421:13424   */\n              dup3\n                /* \"#utility.yul\":13332:13425   */\n              tag_206\n              jump\t// in\n            tag_357:\n                /* \"#utility.yul\":13450:13452   */\n              0x40\n                /* \"#utility.yul\":13445:13448   */\n              dup3\n                /* \"#utility.yul\":13441:13453   */\n              add\n                /* \"#utility.yul\":13434:13453   */\n              swap1\n              pop\n                /* \"#utility.yul\":13093:13459   */\n              swap2\n              swap1\n              pop\n              jump\t// out\n                /* \"#utility.yul\":13465:13884   */\n            tag_118:\n                /* \"#utility.yul\":13631:13635   */\n              0x00\n                /* \"#utility.yul\":13669:13671   */\n              0x20\n                /* \"#utility.yul\":13658:13667   */\n              dup3\n                /* \"#utility.yul\":13654:13672   */\n              add\n                /* \"#utility.yul\":13646:13672   */\n              swap1\n              pop\n                /* \"#utility.yul\":13718:13727   */\n              dup2\n                /* \"#utility.yul\":13712:13716   */\n              dup2\n                /* \"#utility.yul\":13708:13728   */\n              sub\n                /* \"#utility.yul\":13704:13705   */\n              0x00\n                /* \"#utility.yul\":13693:13702   */\n              dup4\n                /* \"#utility.yul\":13689:13706   */\n              add\n                /* \"#utility.yul\":13682:13729   */\n              mstore\n                /* \"#utility.yul\":13746:13877   */\n              tag_359\n                /* \"#utility.yul\":13872:13876   */\n              dup2\n                /* \"#utility.yul\":13746:13877   */\n              tag_207\n              jump\t// in\n            tag_359:\n                /* \"#utility.yul\":13738:13877   */\n              swap1\n              pop\n                /* \"#utility.yul\":13465:13884   */\n              swap2\n              swap1\n              pop\n              jump\t// out\n                /* \"#utility.yul\":13890:14070   */\n            tag_208:\n                /* \"#utility.yul\":13938:14015   */\n              0x4e487b7100000000000000000000000000000000000000000000000000000000\n                /* \"#utility.yul\":13935:13936   */\n              0x00\n                /* \"#utility.yul\":13928:14016   */\n              mstore\n                /* \"#utility.yul\":14035:14039   */\n              0x12\n                /* \"#utility.yul\":14032:14033   */\n              0x04\n                /* \"#utility.yul\":14025:14040   */\n              mstore\n                /* \"#utility.yul\":14059:14063   */\n              0x24\n                /* \"#utility.yul\":14056:14057   */\n              0x00\n                /* \"#utility.yul\":14049:14064   */\n              revert\n                /* \"#utility.yul\":14076:14261   */\n            tag_120:\n                /* \"#utility.yul\":14116:14117   */\n              0x00\n                /* \"#utility.yul\":14133:14153   */\n              tag_362\n                /* \"#utility.yul\":14151:14152   */\n              dup3\n                /* \"#utility.yul\":14133:14153   */\n              tag_170\n              jump\t// in\n            tag_362:\n                /* \"#utility.yul\":14128:14153   */\n              swap2\n              pop\n                /* \"#utility.yul\":14167:14187   */\n              tag_363\n                /* \"#utility.yul\":14185:14186   */\n              dup4\n                /* \"#utility.yul\":14167:14187   */\n              tag_170\n              jump\t// in\n            tag_363:\n                /* \"#utility.yul\":14162:14187   */\n              swap3\n              pop\n                /* \"#utility.yul\":14206:14207   */\n              dup3\n                /* \"#utility.yul\":14196:14231   */\n              tag_364\n              jumpi\n                /* \"#utility.yul\":14211:14229   */\n              tag_365\n              tag_208\n              jump\t// in\n            tag_365:\n                /* \"#utility.yul\":14196:14231   */\n            tag_364:\n                /* \"#utility.yul\":14253:14254   */\n              dup3\n                /* \"#utility.yul\":14250:14251   */\n              dup3\n                /* \"#utility.yul\":14246:14255   */\n              div\n                /* \"#utility.yul\":14241:14255   */\n              swap1\n              pop\n                /* \"#utility.yul\":14076:14261   */\n              swap3\n              swap2\n              pop\n              pop\n              jump\t// out\n                /* \"#utility.yul\":14267:14327   */\n            tag_209:\n                /* \"#utility.yul\":14295:14298   */\n              0x00\n                /* \"#utility.yul\":14316:14321   */\n              dup2\n                /* \"#utility.yul\":14309:14321   */\n              swap1\n              pop\n                /* \"#utility.yul\":14267:14327   */\n              swap2\n              swap1\n              pop\n              jump\t// out\n                /* \"#utility.yul\":14333:14475   */\n            tag_210:\n                /* \"#utility.yul\":14383:14392   */\n              0x00\n                /* \"#utility.yul\":14416:14469   */\n              tag_368\n                /* \"#utility.yul\":14434:14468   */\n              tag_369\n                /* \"#utility.yul\":14443:14467   */\n              tag_370\n                /* \"#utility.yul\":14461:14466   */\n              dup5\n                /* \"#utility.yul\":14443:14467   */\n              tag_173\n              jump\t// in\n            tag_370:\n                /* \"#utility.yul\":14434:14468   */\n              tag_209\n              jump\t// in\n            tag_369:\n                /* \"#utility.yul\":14416:14469   */\n              tag_173\n              jump\t// in\n            tag_368:\n                /* \"#utility.yul\":14403:14469   */\n              swap1\n              pop\n                /* \"#utility.yul\":14333:14475   */\n              swap2\n              swap1\n              pop\n              jump\t// out\n                /* \"#utility.yul\":14481:14607   */\n            tag_211:\n                /* \"#utility.yul\":14531:14540   */\n              0x00\n                /* \"#utility.yul\":14564:14601   */\n              tag_372\n                /* \"#utility.yul\":14595:14600   */\n              dup3\n                /* \"#utility.yul\":14564:14601   */\n              tag_210\n              jump\t// in\n            tag_372:\n                /* \"#utility.yul\":14551:14601   */\n              swap1\n              pop\n                /* \"#utility.yul\":14481:14607   */\n              swap2\n              swap1\n              pop\n              jump\t// out\n                /* \"#utility.yul\":14613:14747   */\n            tag_212:\n                /* \"#utility.yul\":14671:14680   */\n              0x00\n                /* \"#utility.yul\":14704:14741   */\n              tag_374\n                /* \"#utility.yul\":14735:14740   */\n              dup3\n                /* \"#utility.yul\":14704:14741   */\n              tag_211\n              jump\t// in\n            tag_374:\n                /* \"#utility.yul\":14691:14741   */\n              swap1\n              pop\n                /* \"#utility.yul\":14613:14747   */\n              swap2\n              swap1\n              pop\n              jump\t// out\n                /* \"#utility.yul\":14753:14900   */\n            tag_213:\n                /* \"#utility.yul\":14848:14893   */\n              tag_376\n                /* \"#utility.yul\":14887:14892   */\n              dup2\n                /* \"#utility.yul\":14848:14893   */\n              tag_212\n              jump\t// in\n            tag_376:\n                /* \"#utility.yul\":14843:14846   */\n              dup3\n                /* \"#utility.yul\":14836:14894   */\n              mstore\n                /* \"#utility.yul\":14753:14900   */\n              pop\n              pop\n              jump\t// out\n                /* \"#utility.yul\":14906:15254   */\n            tag_125:\n                /* \"#utility.yul\":15035:15039   */\n              0x00\n                /* \"#utility.yul\":15073:15075   */\n              0x40\n                /* \"#utility.yul\":15062:15071   */\n              dup3\n                /* \"#utility.yul\":15058:15076   */\n              add\n                /* \"#utility.yul\":15050:15076   */\n              swap1\n              pop\n                /* \"#utility.yul\":15086:15165   */\n              tag_378\n                /* \"#utility.yul\":15162:15163   */\n              0x00\n                /* \"#utility.yul\":15151:15160   */\n              dup4\n                /* \"#utility.yul\":15147:15164   */\n              add\n                /* \"#utility.yul\":15138:15144   */\n              dup6\n                /* \"#utility.yul\":15086:15165   */\n              tag_213\n              jump\t// in\n            tag_378:\n                /* \"#utility.yul\":15175:15247   */\n              tag_379\n                /* \"#utility.yul\":15243:15245   */\n              0x20\n                /* \"#utility.yul\":15232:15241   */\n              dup4\n                /* \"#utility.yul\":15228:15246   */\n              add\n                /* \"#utility.yul\":15219:15225   */\n              dup5\n                /* \"#utility.yul\":15175:15247   */\n              tag_177\n              jump\t// in\n            tag_379:\n                /* \"#utility.yul\":14906:15254   */\n              swap4\n              swap3\n              pop\n              pop\n              pop\n              jump\t// out\n                /* \"#utility.yul\":15260:15440   */\n            tag_214:\n                /* \"#utility.yul\":15308:15385   */\n              0x4e487b7100000000000000000000000000000000000000000000000000000000\n                /* \"#utility.yul\":15305:15306   */\n              0x00\n                /* \"#utility.yul\":15298:15386   */\n              mstore\n                /* \"#utility.yul\":15405:15409   */\n              0x22\n                /* \"#utility.yul\":15402:15403   */\n              0x04\n                /* \"#utility.yul\":15395:15410   */\n              mstore\n                /* \"#utility.yul\":15429:15433   */\n              0x24\n                /* \"#utility.yul\":15426:15427   */\n              0x00\n                /* \"#utility.yul\":15419:15434   */\n              revert\n                /* \"#utility.yul\":15446:15766   */\n            tag_129:\n                /* \"#utility.yul\":15490:15496   */\n              0x00\n                /* \"#utility.yul\":15527:15528   */\n              0x02\n                /* \"#utility.yul\":15521:15525   */\n              dup3\n                /* \"#utility.yul\":15517:15529   */\n              div\n                /* \"#utility.yul\":15507:15529   */\n              swap1\n              pop\n                /* \"#utility.yul\":15574:15575   */\n              0x01\n                /* \"#utility.yul\":15568:15572   */\n              dup3\n                /* \"#utility.yul\":15564:15576   */\n              and\n                /* \"#utility.yul\":15595:15613   */\n              dup1\n                /* \"#utility.yul\":15585:15666   */\n              tag_382\n              jumpi\n                /* \"#utility.yul\":15651:15655   */\n              0x7f\n                /* \"#utility.yul\":15643:15649   */\n              dup3\n                /* \"#utility.yul\":15639:15656   */\n              and\n                /* \"#utility.yul\":15629:15656   */\n              swap2\n              pop\n                /* \"#utility.yul\":15585:15666   */\n            tag_382:\n                /* \"#utility.yul\":15713:15715   */\n              0x20\n                /* \"#utility.yul\":15705:15711   */\n              dup3\n                /* \"#utility.yul\":15702:15716   */\n              lt\n                /* \"#utility.yul\":15682:15700   */\n              dup2\n                /* \"#utility.yul\":15679:15717   */\n              eq\n                /* \"#utility.yul\":15676:15760   */\n              iszero\n              tag_383\n              jumpi\n                /* \"#utility.yul\":15732:15750   */\n              tag_384\n              tag_214\n              jump\t// in\n            tag_384:\n                /* \"#utility.yul\":15676:15760   */\n            tag_383:\n                /* \"#utility.yul\":15497:15766   */\n              pop\n                /* \"#utility.yul\":15446:15766   */\n              swap2\n              swap1\n              pop\n              jump\t// out\n                /* \"#utility.yul\":15772:16321   */\n            tag_142:\n                /* \"#utility.yul\":15949:15953   */\n              0x00\n                /* \"#utility.yul\":15987:15989   */\n              0x60\n                /* \"#utility.yul\":15976:15985   */\n              dup3\n                /* \"#utility.yul\":15972:15990   */\n              add\n                /* \"#utility.yul\":15964:15990   */\n              swap1\n              pop\n                /* \"#utility.yul\":16036:16045   */\n              dup2\n                /* \"#utility.yul\":16030:16034   */\n              dup2\n                /* \"#utility.yul\":16026:16046   */\n              sub\n                /* \"#utility.yul\":16022:16023   */\n              0x00\n                /* \"#utility.yul\":16011:16020   */\n              dup4\n                /* \"#utility.yul\":16007:16024   */\n              add\n                /* \"#utility.yul\":16000:16047   */\n              mstore\n                /* \"#utility.yul\":16064:16142   */\n              tag_386\n                /* \"#utility.yul\":16137:16141   */\n              dup2\n                /* \"#utility.yul\":16128:16134   */\n              dup7\n                /* \"#utility.yul\":16064:16142   */\n              tag_183\n              jump\t// in\n            tag_386:\n                /* \"#utility.yul\":16056:16142   */\n              swap1\n              pop\n                /* \"#utility.yul\":16152:16232   */\n              tag_387\n                /* \"#utility.yul\":16228:16230   */\n              0x20\n                /* \"#utility.yul\":16217:16226   */\n              dup4\n                /* \"#utility.yul\":16213:16231   */\n              add\n                /* \"#utility.yul\":16204:16210   */\n              dup6\n                /* \"#utility.yul\":16152:16232   */\n              tag_213\n              jump\t// in\n            tag_387:\n                /* \"#utility.yul\":16242:16314   */\n              tag_388\n                /* \"#utility.yul\":16310:16312   */\n              0x40\n                /* \"#utility.yul\":16299:16308   */\n              dup4\n                /* \"#utility.yul\":16295:16313   */\n              add\n                /* \"#utility.yul\":16286:16292   */\n              dup5\n                /* \"#utility.yul\":16242:16314   */\n              tag_177\n              jump\t// in\n            tag_388:\n                /* \"#utility.yul\":15772:16321   */\n              swap5\n              swap4\n              pop\n              pop\n              pop\n              pop\n              jump\t// out\n                /* \"#utility.yul\":16327:16561   */\n            tag_215:\n                /* \"#utility.yul\":16467:16501   */\n              0x596f75206d757374206265206120636f6e7472696275746f7220746f20617070\n                /* \"#utility.yul\":16463:16464   */\n              0x00\n                /* \"#utility.yul\":16455:16461   */\n              dup3\n                /* \"#utility.yul\":16451:16465   */\n              add\n                /* \"#utility.yul\":16444:16502   */\n              mstore\n                /* \"#utility.yul\":16536:16553   */\n              0x726f766520612072657175657374210000000000000000000000000000000000\n                /* \"#utility.yul\":16531:16533   */\n              0x20\n                /* \"#utility.yul\":16523:16529   */\n              dup3\n                /* \"#utility.yul\":16519:16534   */\n              add\n                /* \"#utility.yul\":16512:16554   */\n              mstore\n                /* \"#utility.yul\":16327:16561   */\n              pop\n              jump\t// out\n                /* \"#utility.yul\":16567:16933   */\n            tag_216:\n                /* \"#utility.yul\":16709:16712   */\n              0x00\n                /* \"#utility.yul\":16730:16797   */\n              tag_391\n                /* \"#utility.yul\":16794:16796   */\n              0x2f\n                /* \"#utility.yul\":16789:16792   */\n              dup4\n                /* \"#utility.yul\":16730:16797   */\n              tag_180\n              jump\t// in\n            tag_391:\n                /* \"#utility.yul\":16723:16797   */\n              swap2\n              pop\n                /* \"#utility.yul\":16806:16899   */\n              tag_392\n                /* \"#utility.yul\":16895:16898   */\n              dup3\n                /* \"#utility.yul\":16806:16899   */\n              tag_215\n              jump\t// in\n            tag_392:\n                /* \"#utility.yul\":16924:16926   */\n              0x40\n                /* \"#utility.yul\":16919:16922   */\n              dup3\n                /* \"#utility.yul\":16915:16927   */\n              add\n                /* \"#utility.yul\":16908:16927   */\n              swap1\n              pop\n                /* \"#utility.yul\":16567:16933   */\n              swap2\n              swap1\n              pop\n              jump\t// out\n                /* \"#utility.yul\":16939:17358   */\n            tag_152:\n                /* \"#utility.yul\":17105:17109   */\n              0x00\n                /* \"#utility.yul\":17143:17145   */\n              0x20\n                /* \"#utility.yul\":17132:17141   */\n              dup3\n                /* \"#utility.yul\":17128:17146   */\n              add\n                /* \"#utility.yul\":17120:17146   */\n              swap1\n              pop\n                /* \"#utility.yul\":17192:17201   */\n              dup2\n                /* \"#utility.yul\":17186:17190   */\n              dup2\n                /* \"#utility.yul\":17182:17202   */\n              sub\n                /* \"#utility.yul\":17178:17179   */\n              0x00\n                /* \"#utility.yul\":17167:17176   */\n              dup4\n                /* \"#utility.yul\":17163:17180   */\n              add\n                /* \"#utility.yul\":17156:17203   */\n              mstore\n                /* \"#utility.yul\":17220:17351   */\n              tag_394\n                /* \"#utility.yul\":17346:17350   */\n              dup2\n                /* \"#utility.yul\":17220:17351   */\n              tag_216\n              jump\t// in\n            tag_394:\n                /* \"#utility.yul\":17212:17351   */\n              swap1\n              pop\n                /* \"#utility.yul\":16939:17358   */\n              swap2\n              swap1\n              pop\n              jump\t// out\n                /* \"#utility.yul\":17364:17590   */\n            tag_217:\n                /* \"#utility.yul\":17504:17538   */\n              0x596f75206861766520616c726561647920617070726f76656420746869732072\n                /* \"#utility.yul\":17500:17501   */\n              0x00\n                /* \"#utility.yul\":17492:17498   */\n              dup3\n                /* \"#utility.yul\":17488:17502   */\n              add\n                /* \"#utility.yul\":17481:17539   */\n              mstore\n                /* \"#utility.yul\":17573:17582   */\n              0x6571756573742100000000000000000000000000000000000000000000000000\n                /* \"#utility.yul\":17568:17570   */\n              0x20\n                /* \"#utility.yul\":17560:17566   */\n              dup3\n                /* \"#utility.yul\":17556:17571   */\n              add\n                /* \"#utility.yul\":17549:17583   */\n              mstore\n                /* \"#utility.yul\":17364:17590   */\n              pop\n              jump\t// out\n                /* \"#utility.yul\":17596:17962   */\n            tag_218:\n                /* \"#utility.yul\":17738:17741   */\n              0x00\n                /* \"#utility.yul\":17759:17826   */\n              tag_397\n                /* \"#utility.yul\":17823:17825   */\n              0x27\n                /* \"#utility.yul\":17818:17821   */\n              dup4\n                /* \"#utility.yul\":17759:17826   */\n              tag_180\n              jump\t// in\n            tag_397:\n                /* \"#utility.yul\":17752:17826   */\n              swap2\n              pop\n                /* \"#utility.yul\":17835:17928   */\n              tag_398\n                /* \"#utility.yul\":17924:17927   */\n              dup3\n                /* \"#utility.yul\":17835:17928   */\n              tag_217\n              jump\t// in\n            tag_398:\n                /* \"#utility.yul\":17953:17955   */\n              0x40\n                /* \"#utility.yul\":17948:17951   */\n              dup3\n                /* \"#utility.yul\":17944:17956   */\n              add\n                /* \"#utility.yul\":17937:17956   */\n              swap1\n              pop\n                /* \"#utility.yul\":17596:17962   */\n              swap2\n              swap1\n              pop\n              jump\t// out\n                /* \"#utility.yul\":17968:18387   */\n            tag_155:\n                /* \"#utility.yul\":18134:18138   */\n              0x00\n                /* \"#utility.yul\":18172:18174   */\n              0x20\n                /* \"#utility.yul\":18161:18170   */\n              dup3\n                /* \"#utility.yul\":18157:18175   */\n              add\n                /* \"#utility.yul\":18149:18175   */\n              swap1\n              pop\n                /* \"#utility.yul\":18221:18230   */\n              dup2\n                /* \"#utility.yul\":18215:18219   */\n              dup2\n                /* \"#utility.yul\":18211:18231   */\n              sub\n                /* \"#utility.yul\":18207:18208   */\n              0x00\n                /* \"#utility.yul\":18196:18205   */\n              dup4\n                /* \"#utility.yul\":18192:18209   */\n              add\n                /* \"#utility.yul\":18185:18232   */\n              mstore\n                /* \"#utility.yul\":18249:18380   */\n              tag_400\n                /* \"#utility.yul\":18375:18379   */\n              dup2\n                /* \"#utility.yul\":18249:18380   */\n              tag_218\n              jump\t// in\n            tag_400:\n                /* \"#utility.yul\":18241:18380   */\n              swap1\n              pop\n                /* \"#utility.yul\":17968:18387   */\n              swap2\n              swap1\n              pop\n              jump\t// out\n\n            auxdata: 0xa2646970667358221220f4bc82e8be8b21d7663af9b38dbf5aa1acb9fa2353a3fe77148875ef9a5f6e4464736f6c634300080c0033\n        }\n    }\n\n    auxdata: 0xa2646970667358221220bb6588eb8458a084e9e08d8ba0c04f3334888aed4570e2d6ceeb0684c9acd5bc64736f6c634300080c0033\n}\n","bytecode":{"linkReferences":{},"object":"608060405234801561001057600080fd5b50611fdd806100206000396000f3fe608060405234801561001057600080fd5b50600436106100415760003560e01c8063339d50a5146100465780634acb9d4f14610076578063f69d315814610094575b600080fd5b610060600480360381019061005b919061026c565b6100b0565b60405161006d9190610318565b60405180910390f35b61007e6100ef565b60405161008b91906103f1565b60405180910390f35b6100ae60048036038101906100a99190610413565b61017d565b005b600081815481106100c057600080fd5b906000526020600020016000915054906101000a900473ffffffffffffffffffffffffffffffffffffffff1681565b6060600080548060200260200160405190810160405280929190818152602001828054801561017357602002820191906000526020600020905b8160009054906101000a900473ffffffffffffffffffffffffffffffffffffffff1673ffffffffffffffffffffffffffffffffffffffff1681526020019060010190808311610129575b5050505050905090565b60008333848460405161018f90610224565b61019c9493929190610496565b604051809103906000f0801580156101b8573d6000803e3d6000fd5b5090506000819080600181540180825580915050600190039060005260206000200160009091909190916101000a81548173ffffffffffffffffffffffffffffffffffffffff021916908373ffffffffffffffffffffffffffffffffffffffff16021790555050505050565b611acc806104dc83390190565b600080fd5b6000819050919050565b61024981610236565b811461025457600080fd5b50565b60008135905061026681610240565b92915050565b60006020828403121561028257610281610231565b5b600061029084828501610257565b91505092915050565b600073ffffffffffffffffffffffffffffffffffffffff82169050919050565b6000819050919050565b60006102de6102d96102d484610299565b6102b9565b610299565b9050919050565b60006102f0826102c3565b9050919050565b6000610302826102e5565b9050919050565b610312816102f7565b82525050565b600060208201905061032d6000830184610309565b92915050565b600081519050919050565b600082825260208201905092915050565b6000819050602082019050919050565b610368816102f7565b82525050565b600061037a838361035f565b60208301905092915050565b6000602082019050919050565b600061039e82610333565b6103a8818561033e565b93506103b38361034f565b8060005b838110156103e45781516103cb888261036e565b97506103d683610386565b9250506001810190506103b7565b5085935050505092915050565b6000602082019050818103600083015261040b8184610393565b905092915050565b60008060006060848603121561042c5761042b610231565b5b600061043a86828701610257565b935050602061044b86828701610257565b925050604061045c86828701610257565b9150509250925092565b61046f81610236565b82525050565b600061048082610299565b9050919050565b61049081610475565b82525050565b60006080820190506104ab6000830187610466565b6104b86020830186610487565b6104c56040830185610466565b6104d26060830184610466565b9594505050505056fe60806040523480156200001157600080fd5b5060405162001acc38038062001acc833981810160405281019062000037919062000149565b82600260006101000a81548173ffffffffffffffffffffffffffffffffffffffff021916908373ffffffffffffffffffffffffffffffffffffffff16021790555083600381905550816006819055508042620000949190620001ea565b6007819055505050505062000247565b600080fd5b6000819050919050565b620000be81620000a9565b8114620000ca57600080fd5b50565b600081519050620000de81620000b3565b92915050565b600073ffffffffffffffffffffffffffffffffffffffff82169050919050565b60006200011182620000e4565b9050919050565b620001238162000104565b81146200012f57600080fd5b50565b600081519050620001438162000118565b92915050565b60008060008060808587031215620001665762000165620000a4565b5b60006200017687828801620000cd565b9450506020620001898782880162000132565b93505060406200019c87828801620000cd565b9250506060620001af87828801620000cd565b91505092959194509250565b7f4e487b7100000000000000000000000000000000000000000000000000000000600052601160045260246000fd5b6000620001f782620000a9565b91506200020483620000a9565b9250827fffffffffffffffffffffffffffffffffffffffffffffffffffffffffffffffff038211156200023c576200023b620001bb565b5b828201905092915050565b61187580620002576000396000f3fe6080604052600436106100f75760003560e01c806382fde0931161008a578063b2d5ae4411610059578063b2d5ae4414610337578063c59ee1dc1461034e578063d7bb99ba14610379578063d7d1bbdb1461038357610106565b806382fde0931461028d5780638a9cfd55146102b8578063937e09b1146102e15780639fb42b1f1461030c57610106565b806340193883116100c657806340193883146101c75780634051ddac146101f2578063481c6a751461022157806381d12c581461024c57610106565b8063034410061461010b5780630a1443911461013457806329dcb0cf146101715780633410452a1461019c57610106565b36610106576101046103ac565b005b600080fd5b34801561011757600080fd5b50610132600480360381019061012d9190610e43565b61053f565b005b34801561014057600080fd5b5061015b60048036038101906101569190610ece565b610757565b6040516101689190610f0a565b60405180910390f35b34801561017d57600080fd5b5061018661076f565b6040516101939190610f0a565b60405180910390f35b3480156101a857600080fd5b506101b1610775565b6040516101be9190610f0a565b60405180910390f35b3480156101d357600080fd5b506101dc61077f565b6040516101e99190610f0a565b60405180910390f35b3480156101fe57600080fd5b50610207610785565b604051610218959493929190610f34565b60405180910390f35b34801561022d57600080fd5b506102366107cb565b6040516102439190610f87565b60405180910390f35b34801561025857600080fd5b50610273600480360381019061026e9190610e43565b6107f1565b604051610284959493929190611077565b60405180910390f35b34801561029957600080fd5b506102a26108dc565b6040516102af9190610f0a565b60405180910390f35b3480156102c457600080fd5b506102df60048036038101906102da9190611232565b6108e2565b005b3480156102ed57600080fd5b506102f6610a6f565b6040516103039190610f0a565b60405180910390f35b34801561031857600080fd5b50610321610a75565b60405161032e9190610f0a565b60405180910390f35b34801561034357600080fd5b5061034c610a7b565b005b34801561035a57600080fd5b50610363610bb1565b6040516103709190610f0a565b60405180910390f35b6103816103ac565b005b34801561038f57600080fd5b506103aa60048036038101906103a59190610e43565b610bb7565b005b60075442106103f0576040517f08c379a00000000000000000000000000000000000000000000000000000000081526004016103e7906112ed565b60405180910390fd5b6003543411610434576040517f08c379a000000000000000000000000000000000000000000000000000000000815260040161042b90611359565b60405180910390fd5b6000600460003373ffffffffffffffffffffffffffffffffffffffff1673ffffffffffffffffffffffffffffffffffffffff168152602001908152602001600020541415610495576005600081548092919061048f906113a8565b91905055505b34600460003373ffffffffffffffffffffffffffffffffffffffff1673ffffffffffffffffffffffffffffffffffffffff16815260200190815260200160002060008282546104e491906113f1565b9250508190555034600860008282546104fd91906113f1565b925050819055507f2daf61dec57a2c194e9e87958b1a40a5c236b5e8c6041655d664ddbd16c293203334604051610535929190611447565b60405180910390a1565b600260009054906101000a900473ffffffffffffffffffffffffffffffffffffffff1673ffffffffffffffffffffffffffffffffffffffff163373ffffffffffffffffffffffffffffffffffffffff16146105cf576040517f08c379a00000000000000000000000000000000000000000000000000000000081526004016105c6906114e2565b60405180910390fd5b60065460085410156105e057600080fd5b600080600083815260200190815260200160002090508060030160149054906101000a900460ff1615610648576040517f08c379a000000000000000000000000000000000000000000000000000000000815260040161063f90611574565b60405180910390fd5b600260055461065791906115c3565b81600201541161066657600080fd5b8060030160009054906101000a900473ffffffffffffffffffffffffffffffffffffffff1673ffffffffffffffffffffffffffffffffffffffff166108fc82600101549081150290604051600060405180830381858888f193505050501580156106d4573d6000803e3d6000fd5b5060018160030160146101000a81548160ff0219169083151502179055507f2ae767896e987fd31514551c92e54dcd13f83142c6c581a4186921042af354ab8160030160009054906101000a900473ffffffffffffffffffffffffffffffffffffffff16826001015460405161074b929190611653565b60405180910390a15050565b60046020528060005260406000206000915090505481565b60075481565b6000600154905090565b60065481565b600080600080600060035447600154600554600260009054906101000a900473ffffffffffffffffffffffffffffffffffffffff16945094509450945094509091929394565b600260009054906101000a900473ffffffffffffffffffffffffffffffffffffffff1681565b6000602052806000526040600020600091509050806000018054610814906116ab565b80601f0160208091040260200160405190810160405280929190818152602001828054610840906116ab565b801561088d5780601f106108625761010080835404028352916020019161088d565b820191906000526020600020905b81548152906001019060200180831161087057829003601f168201915b5050505050908060010154908060020154908060030160009054906101000a900473ffffffffffffffffffffffffffffffffffffffff16908060030160149054906101000a900460ff16905085565b60055481565b600260009054906101000a900473ffffffffffffffffffffffffffffffffffffffff1673ffffffffffffffffffffffffffffffffffffffff163373ffffffffffffffffffffffffffffffffffffffff1614610972576040517f08c379a0000000000000000000000000000000000000000000000000000000008152600401610969906114e2565b60405180910390fd5b6000806000600154815260200190815260200160002090506001600081548092919061099d906113a8565b9190505550838160000190805190602001906109ba929190610d56565b50828160010181905550818160030160006101000a81548173ffffffffffffffffffffffffffffffffffffffff021916908373ffffffffffffffffffffffffffffffffffffffff16021790555060008160030160146101000a81548160ff021916908315150217905550600081600201819055507f5392bd80651676ccaaedec1afbe841d47e369223df0ba1586110b6426ee87a3a848385604051610a61939291906116dd565b60405180910390a150505050565b60035481565b60015481565b60075442118015610a8f5750600654600854105b610a9857600080fd5b6000600460003373ffffffffffffffffffffffffffffffffffffffff1673ffffffffffffffffffffffffffffffffffffffff1681526020019081526020016000205411610ae457600080fd5b3373ffffffffffffffffffffffffffffffffffffffff166108fc600460003373ffffffffffffffffffffffffffffffffffffffff1673ffffffffffffffffffffffffffffffffffffffff168152602001908152602001600020549081150290604051600060405180830381858888f19350505050158015610b69573d6000803e3d6000fd5b506000600460003373ffffffffffffffffffffffffffffffffffffffff1673ffffffffffffffffffffffffffffffffffffffff16815260200190815260200160002081905550565b60085481565b6000600460003373ffffffffffffffffffffffffffffffffffffffff1673ffffffffffffffffffffffffffffffffffffffff1681526020019081526020016000205411610c39576040517f08c379a0000000000000000000000000000000000000000000000000000000008152600401610c309061178d565b60405180910390fd5b600080600083815260200190815260200160002090508060040160003373ffffffffffffffffffffffffffffffffffffffff1673ffffffffffffffffffffffffffffffffffffffff16815260200190815260200160002060009054906101000a900460ff1615610cde576040517f08c379a0000000000000000000000000000000000000000000000000000000008152600401610cd59061181f565b60405180910390fd5b60018160040160003373ffffffffffffffffffffffffffffffffffffffff1673ffffffffffffffffffffffffffffffffffffffff16815260200190815260200160002060006101000a81548160ff021916908315150217905550806002016000815480929190610d4d906113a8565b91905055505050565b828054610d62906116ab565b90600052602060002090601f016020900481019282610d845760008555610dcb565b82601f10610d9d57805160ff1916838001178555610dcb565b82800160010185558215610dcb579182015b82811115610dca578251825591602001919060010190610daf565b5b509050610dd89190610ddc565b5090565b5b80821115610df5576000816000905550600101610ddd565b5090565b6000604051905090565b600080fd5b600080fd5b6000819050919050565b610e2081610e0d565b8114610e2b57600080fd5b50565b600081359050610e3d81610e17565b92915050565b600060208284031215610e5957610e58610e03565b5b6000610e6784828501610e2e565b91505092915050565b600073ffffffffffffffffffffffffffffffffffffffff82169050919050565b6000610e9b82610e70565b9050919050565b610eab81610e90565b8114610eb657600080fd5b50565b600081359050610ec881610ea2565b92915050565b600060208284031215610ee457610ee3610e03565b5b6000610ef284828501610eb9565b91505092915050565b610f0481610e0d565b82525050565b6000602082019050610f1f6000830184610efb565b92915050565b610f2e81610e90565b82525050565b600060a082019050610f496000830188610efb565b610f566020830187610efb565b610f636040830186610efb565b610f706060830185610efb565b610f7d6080830184610f25565b9695505050505050565b6000602082019050610f9c6000830184610f25565b92915050565b600081519050919050565b600082825260208201905092915050565b60005b83811015610fdc578082015181840152602081019050610fc1565b83811115610feb576000848401525b50505050565b6000601f19601f8301169050919050565b600061100d82610fa2565b6110178185610fad565b9350611027818560208601610fbe565b61103081610ff1565b840191505092915050565b600061104682610e70565b9050919050565b6110568161103b565b82525050565b60008115159050919050565b6110718161105c565b82525050565b600060a08201905081810360008301526110918188611002565b90506110a06020830187610efb565b6110ad6040830186610efb565b6110ba606083018561104d565b6110c76080830184611068565b9695505050505050565b600080fd5b600080fd5b7f4e487b7100000000000000000000000000000000000000000000000000000000600052604160045260246000fd5b61111382610ff1565b810181811067ffffffffffffffff82111715611132576111316110db565b5b80604052505050565b6000611145610df9565b9050611151828261110a565b919050565b600067ffffffffffffffff821115611171576111706110db565b5b61117a82610ff1565b9050602081019050919050565b82818337600083830152505050565b60006111a96111a484611156565b61113b565b9050828152602081018484840111156111c5576111c46110d6565b5b6111d0848285611187565b509392505050565b600082601f8301126111ed576111ec6110d1565b5b81356111fd848260208601611196565b91505092915050565b61120f8161103b565b811461121a57600080fd5b50565b60008135905061122c81611206565b92915050565b60008060006060848603121561124b5761124a610e03565b5b600084013567ffffffffffffffff81111561126957611268610e08565b5b611275868287016111d8565b935050602061128686828701610e2e565b92505060406112978682870161121d565b9150509250925092565b7f43616d7061696e672068617320616c72656164792066696e6973686564210000600082015250565b60006112d7601e83610fad565b91506112e2826112a1565b602082019050919050565b60006020820190508181036000830152611306816112ca565b9050919050565b7f4d696e696d756d20436f6e747269627574696f6e206e6f74206d657421000000600082015250565b6000611343601d83610fad565b915061134e8261130d565b602082019050919050565b6000602082019050818103600083015261137281611336565b9050919050565b7f4e487b7100000000000000000000000000000000000000000000000000000000600052601160045260246000fd5b60006113b382610e0d565b91507fffffffffffffffffffffffffffffffffffffffffffffffffffffffffffffffff8214156113e6576113e5611379565b5b600182019050919050565b60006113fc82610e0d565b915061140783610e0d565b9250827fffffffffffffffffffffffffffffffffffffffffffffffffffffffffffffffff0382111561143c5761143b611379565b5b828201905092915050565b600060408201905061145c6000830185610f25565b6114696020830184610efb565b9392505050565b7f4f6e6c79206d616e616765722063616e2063616c6c20746f207468697320667560008201527f6e63696f6e210000000000000000000000000000000000000000000000000000602082015250565b60006114cc602683610fad565b91506114d782611470565b604082019050919050565b600060208201905081810360008301526114fb816114bf565b9050919050565b7f54686520726571756573742068617320616c7265616479206265656e20636f6d60008201527f706c657465642100000000000000000000000000000000000000000000000000602082015250565b600061155e602783610fad565b915061156982611502565b604082019050919050565b6000602082019050818103600083015261158d81611551565b9050919050565b7f4e487b7100000000000000000000000000000000000000000000000000000000600052601260045260246000fd5b60006115ce82610e0d565b91506115d983610e0d565b9250826115e9576115e8611594565b5b828204905092915050565b6000819050919050565b600061161961161461160f84610e70565b6115f4565b610e70565b9050919050565b600061162b826115fe565b9050919050565b600061163d82611620565b9050919050565b61164d81611632565b82525050565b60006040820190506116686000830185611644565b6116756020830184610efb565b9392505050565b7f4e487b7100000000000000000000000000000000000000000000000000000000600052602260045260246000fd5b600060028204905060018216806116c357607f821691505b602082108114156116d7576116d661167c565b5b50919050565b600060608201905081810360008301526116f78186611002565b90506117066020830185611644565b6117136040830184610efb565b949350505050565b7f596f75206d757374206265206120636f6e7472696275746f7220746f2061707060008201527f726f766520612072657175657374210000000000000000000000000000000000602082015250565b6000611777602f83610fad565b91506117828261171b565b604082019050919050565b600060208201905081810360008301526117a68161176a565b9050919050565b7f596f75206861766520616c726561647920617070726f7665642074686973207260008201527f6571756573742100000000000000000000000000000000000000000000000000602082015250565b6000611809602783610fad565b9150611814826117ad565b604082019050919050565b60006020820190508181036000830152611838816117fc565b905091905056fea2646970667358221220f4bc82e8be8b21d7663af9b38dbf5aa1acb9fa2353a3fe77148875ef9a5f6e4464736f6c634300080c0033a2646970667358221220bb6588eb8458a084e9e08d8ba0c04f3334888aed4570e2d6ceeb0684c9acd5bc64736f6c634300080c0033","opcodes":"PUSH1 0x80 PUSH1 0x40 MSTORE CALLVALUE DUP1 ISZERO PUSH2 0x10 JUMPI PUSH1 0x0 DUP1 REVERT JUMPDEST POP PUSH2 0x1FDD DUP1 PUSH2 0x20 PUSH1 0x0 CODECOPY PUSH1 0x0 RETURN INVALID PUSH1 0x80 PUSH1 0x40 MSTORE CALLVALUE DUP1 ISZERO PUSH2 0x10 JUMPI PUSH1 0x0 DUP1 REVERT JUMPDEST POP PUSH1 0x4 CALLDATASIZE LT PUSH2 0x41 JUMPI PUSH1 0x0 CALLDATALOAD PUSH1 0xE0 SHR DUP1 PUSH4 0x339D50A5 EQ PUSH2 0x46 JUMPI DUP1 PUSH4 0x4ACB9D4F EQ PUSH2 0x76 JUMPI DUP1 PUSH4 0xF69D3158 EQ PUSH2 0x94 JUMPI JUMPDEST PUSH1 0x0 DUP1 REVERT JUMPDEST PUSH2 0x60 PUSH1 0x4 DUP1 CALLDATASIZE SUB DUP2 ADD SWAP1 PUSH2 0x5B SWAP2 SWAP1 PUSH2 0x26C JUMP JUMPDEST PUSH2 0xB0 JUMP JUMPDEST PUSH1 0x40 MLOAD PUSH2 0x6D SWAP2 SWAP1 PUSH2 0x318 JUMP JUMPDEST PUSH1 0x40 MLOAD DUP1 SWAP2 SUB SWAP1 RETURN JUMPDEST PUSH2 0x7E PUSH2 0xEF JUMP JUMPDEST PUSH1 0x40 MLOAD PUSH2 0x8B SWAP2 SWAP1 PUSH2 0x3F1 JUMP JUMPDEST PUSH1 0x40 MLOAD DUP1 SWAP2 SUB SWAP1 RETURN JUMPDEST PUSH2 0xAE PUSH1 0x4 DUP1 CALLDATASIZE SUB DUP2 ADD SWAP1 PUSH2 0xA9 SWAP2 SWAP1 PUSH2 0x413 JUMP JUMPDEST PUSH2 0x17D JUMP JUMPDEST STOP JUMPDEST PUSH1 0x0 DUP2 DUP2 SLOAD DUP2 LT PUSH2 0xC0 JUMPI PUSH1 0x0 DUP1 REVERT JUMPDEST SWAP1 PUSH1 0x0 MSTORE PUSH1 0x20 PUSH1 0x0 KECCAK256 ADD PUSH1 0x0 SWAP2 POP SLOAD SWAP1 PUSH2 0x100 EXP SWAP1 DIV PUSH20 0xFFFFFFFFFFFFFFFFFFFFFFFFFFFFFFFFFFFFFFFF AND DUP2 JUMP JUMPDEST PUSH1 0x60 PUSH1 0x0 DUP1 SLOAD DUP1 PUSH1 0x20 MUL PUSH1 0x20 ADD PUSH1 0x40 MLOAD SWAP1 DUP2 ADD PUSH1 0x40 MSTORE DUP1 SWAP3 SWAP2 SWAP1 DUP2 DUP2 MSTORE PUSH1 0x20 ADD DUP3 DUP1 SLOAD DUP1 ISZERO PUSH2 0x173 JUMPI PUSH1 0x20 MUL DUP3 ADD SWAP2 SWAP1 PUSH1 0x0 MSTORE PUSH1 0x20 PUSH1 0x0 KECCAK256 SWAP1 JUMPDEST DUP2 PUSH1 0x0 SWAP1 SLOAD SWAP1 PUSH2 0x100 EXP SWAP1 DIV PUSH20 0xFFFFFFFFFFFFFFFFFFFFFFFFFFFFFFFFFFFFFFFF AND PUSH20 0xFFFFFFFFFFFFFFFFFFFFFFFFFFFFFFFFFFFFFFFF AND DUP2 MSTORE PUSH1 0x20 ADD SWAP1 PUSH1 0x1 ADD SWAP1 DUP1 DUP4 GT PUSH2 0x129 JUMPI JUMPDEST POP POP POP POP POP SWAP1 POP SWAP1 JUMP JUMPDEST PUSH1 0x0 DUP4 CALLER DUP5 DUP5 PUSH1 0x40 MLOAD PUSH2 0x18F SWAP1 PUSH2 0x224 JUMP JUMPDEST PUSH2 0x19C SWAP5 SWAP4 SWAP3 SWAP2 SWAP1 PUSH2 0x496 JUMP JUMPDEST PUSH1 0x40 MLOAD DUP1 SWAP2 SUB SWAP1 PUSH1 0x0 CREATE DUP1 ISZERO DUP1 ISZERO PUSH2 0x1B8 JUMPI RETURNDATASIZE PUSH1 0x0 DUP1 RETURNDATACOPY RETURNDATASIZE PUSH1 0x0 REVERT JUMPDEST POP SWAP1 POP PUSH1 0x0 DUP2 SWAP1 DUP1 PUSH1 0x1 DUP2 SLOAD ADD DUP1 DUP3 SSTORE DUP1 SWAP2 POP POP PUSH1 0x1 SWAP1 SUB SWAP1 PUSH1 0x0 MSTORE PUSH1 0x20 PUSH1 0x0 KECCAK256 ADD PUSH1 0x0 SWAP1 SWAP2 SWAP1 SWAP2 SWAP1 SWAP2 PUSH2 0x100 EXP DUP2 SLOAD DUP2 PUSH20 0xFFFFFFFFFFFFFFFFFFFFFFFFFFFFFFFFFFFFFFFF MUL NOT AND SWAP1 DUP4 PUSH20 0xFFFFFFFFFFFFFFFFFFFFFFFFFFFFFFFFFFFFFFFF AND MUL OR SWAP1 SSTORE POP POP POP POP POP JUMP JUMPDEST PUSH2 0x1ACC DUP1 PUSH2 0x4DC DUP4 CODECOPY ADD SWAP1 JUMP JUMPDEST PUSH1 0x0 DUP1 REVERT JUMPDEST PUSH1 0x0 DUP2 SWAP1 POP SWAP2 SWAP1 POP JUMP JUMPDEST PUSH2 0x249 DUP2 PUSH2 0x236 JUMP JUMPDEST DUP2 EQ PUSH2 0x254 JUMPI PUSH1 0x0 DUP1 REVERT JUMPDEST POP JUMP JUMPDEST PUSH1 0x0 DUP2 CALLDATALOAD SWAP1 POP PUSH2 0x266 DUP2 PUSH2 0x240 JUMP JUMPDEST SWAP3 SWAP2 POP POP JUMP JUMPDEST PUSH1 0x0 PUSH1 0x20 DUP3 DUP5 SUB SLT ISZERO PUSH2 0x282 JUMPI PUSH2 0x281 PUSH2 0x231 JUMP JUMPDEST JUMPDEST PUSH1 0x0 PUSH2 0x290 DUP5 DUP3 DUP6 ADD PUSH2 0x257 JUMP JUMPDEST SWAP2 POP POP SWAP3 SWAP2 POP POP JUMP JUMPDEST PUSH1 0x0 PUSH20 0xFFFFFFFFFFFFFFFFFFFFFFFFFFFFFFFFFFFFFFFF DUP3 AND SWAP1 POP SWAP2 SWAP1 POP JUMP JUMPDEST PUSH1 0x0 DUP2 SWAP1 POP SWAP2 SWAP1 POP JUMP JUMPDEST PUSH1 0x0 PUSH2 0x2DE PUSH2 0x2D9 PUSH2 0x2D4 DUP5 PUSH2 0x299 JUMP JUMPDEST PUSH2 0x2B9 JUMP JUMPDEST PUSH2 0x299 JUMP JUMPDEST SWAP1 POP SWAP2 SWAP1 POP JUMP JUMPDEST PUSH1 0x0 PUSH2 0x2F0 DUP3 PUSH2 0x2C3 JUMP JUMPDEST SWAP1 POP SWAP2 SWAP1 POP JUMP JUMPDEST PUSH1 0x0 PUSH2 0x302 DUP3 PUSH2 0x2E5 JUMP JUMPDEST SWAP1 POP SWAP2 SWAP1 POP JUMP JUMPDEST PUSH2 0x312 DUP2 PUSH2 0x2F7 JUMP JUMPDEST DUP3 MSTORE POP POP JUMP JUMPDEST PUSH1 0x0 PUSH1 0x20 DUP3 ADD SWAP1 POP PUSH2 0x32D PUSH1 0x0 DUP4 ADD DUP5 PUSH2 0x309 JUMP JUMPDEST SWAP3 SWAP2 POP POP JUMP JUMPDEST PUSH1 0x0 DUP2 MLOAD SWAP1 POP SWAP2 SWAP1 POP JUMP JUMPDEST PUSH1 0x0 DUP3 DUP3 MSTORE PUSH1 0x20 DUP3 ADD SWAP1 POP SWAP3 SWAP2 POP POP JUMP JUMPDEST PUSH1 0x0 DUP2 SWAP1 POP PUSH1 0x20 DUP3 ADD SWAP1 POP SWAP2 SWAP1 POP JUMP JUMPDEST PUSH2 0x368 DUP2 PUSH2 0x2F7 JUMP JUMPDEST DUP3 MSTORE POP POP JUMP JUMPDEST PUSH1 0x0 PUSH2 0x37A DUP4 DUP4 PUSH2 0x35F JUMP JUMPDEST PUSH1 0x20 DUP4 ADD SWAP1 POP SWAP3 SWAP2 POP POP JUMP JUMPDEST PUSH1 0x0 PUSH1 0x20 DUP3 ADD SWAP1 POP SWAP2 SWAP1 POP JUMP JUMPDEST PUSH1 0x0 PUSH2 0x39E DUP3 PUSH2 0x333 JUMP JUMPDEST PUSH2 0x3A8 DUP2 DUP6 PUSH2 0x33E JUMP JUMPDEST SWAP4 POP PUSH2 0x3B3 DUP4 PUSH2 0x34F JUMP JUMPDEST DUP1 PUSH1 0x0 JUMPDEST DUP4 DUP2 LT ISZERO PUSH2 0x3E4 JUMPI DUP2 MLOAD PUSH2 0x3CB DUP9 DUP3 PUSH2 0x36E JUMP JUMPDEST SWAP8 POP PUSH2 0x3D6 DUP4 PUSH2 0x386 JUMP JUMPDEST SWAP3 POP POP PUSH1 0x1 DUP2 ADD SWAP1 POP PUSH2 0x3B7 JUMP JUMPDEST POP DUP6 SWAP4 POP POP POP POP SWAP3 SWAP2 POP POP JUMP JUMPDEST PUSH1 0x0 PUSH1 0x20 DUP3 ADD SWAP1 POP DUP2 DUP2 SUB PUSH1 0x0 DUP4 ADD MSTORE PUSH2 0x40B DUP2 DUP5 PUSH2 0x393 JUMP JUMPDEST SWAP1 POP SWAP3 SWAP2 POP POP JUMP JUMPDEST PUSH1 0x0 DUP1 PUSH1 0x0 PUSH1 0x60 DUP5 DUP7 SUB SLT ISZERO PUSH2 0x42C JUMPI PUSH2 0x42B PUSH2 0x231 JUMP JUMPDEST JUMPDEST PUSH1 0x0 PUSH2 0x43A DUP7 DUP3 DUP8 ADD PUSH2 0x257 JUMP JUMPDEST SWAP4 POP POP PUSH1 0x20 PUSH2 0x44B DUP7 DUP3 DUP8 ADD PUSH2 0x257 JUMP JUMPDEST SWAP3 POP POP PUSH1 0x40 PUSH2 0x45C DUP7 DUP3 DUP8 ADD PUSH2 0x257 JUMP JUMPDEST SWAP2 POP POP SWAP3 POP SWAP3 POP SWAP3 JUMP JUMPDEST PUSH2 0x46F DUP2 PUSH2 0x236 JUMP JUMPDEST DUP3 MSTORE POP POP JUMP JUMPDEST PUSH1 0x0 PUSH2 0x480 DUP3 PUSH2 0x299 JUMP JUMPDEST SWAP1 POP SWAP2 SWAP1 POP JUMP JUMPDEST PUSH2 0x490 DUP2 PUSH2 0x475 JUMP JUMPDEST DUP3 MSTORE POP POP JUMP JUMPDEST PUSH1 0x0 PUSH1 0x80 DUP3 ADD SWAP1 POP PUSH2 0x4AB PUSH1 0x0 DUP4 ADD DUP8 PUSH2 0x466 JUMP JUMPDEST PUSH2 0x4B8 PUSH1 0x20 DUP4 ADD DUP7 PUSH2 0x487 JUMP JUMPDEST PUSH2 0x4C5 PUSH1 0x40 DUP4 ADD DUP6 PUSH2 0x466 JUMP JUMPDEST PUSH2 0x4D2 PUSH1 0x60 DUP4 ADD DUP5 PUSH2 0x466 JUMP JUMPDEST SWAP6 SWAP5 POP POP POP POP POP JUMP INVALID PUSH1 0x80 PUSH1 0x40 MSTORE CALLVALUE DUP1 ISZERO PUSH3 0x11 JUMPI PUSH1 0x0 DUP1 REVERT JUMPDEST POP PUSH1 0x40 MLOAD PUSH3 0x1ACC CODESIZE SUB DUP1 PUSH3 0x1ACC DUP4 CODECOPY DUP2 DUP2 ADD PUSH1 0x40 MSTORE DUP2 ADD SWAP1 PUSH3 0x37 SWAP2 SWAP1 PUSH3 0x149 JUMP JUMPDEST DUP3 PUSH1 0x2 PUSH1 0x0 PUSH2 0x100 EXP DUP2 SLOAD DUP2 PUSH20 0xFFFFFFFFFFFFFFFFFFFFFFFFFFFFFFFFFFFFFFFF MUL NOT AND SWAP1 DUP4 PUSH20 0xFFFFFFFFFFFFFFFFFFFFFFFFFFFFFFFFFFFFFFFF AND MUL OR SWAP1 SSTORE POP DUP4 PUSH1 0x3 DUP2 SWAP1 SSTORE POP DUP2 PUSH1 0x6 DUP2 SWAP1 SSTORE POP DUP1 TIMESTAMP PUSH3 0x94 SWAP2 SWAP1 PUSH3 0x1EA JUMP JUMPDEST PUSH1 0x7 DUP2 SWAP1 SSTORE POP POP POP POP POP PUSH3 0x247 JUMP JUMPDEST PUSH1 0x0 DUP1 REVERT JUMPDEST PUSH1 0x0 DUP2 SWAP1 POP SWAP2 SWAP1 POP JUMP JUMPDEST PUSH3 0xBE DUP2 PUSH3 0xA9 JUMP JUMPDEST DUP2 EQ PUSH3 0xCA JUMPI PUSH1 0x0 DUP1 REVERT JUMPDEST POP JUMP JUMPDEST PUSH1 0x0 DUP2 MLOAD SWAP1 POP PUSH3 0xDE DUP2 PUSH3 0xB3 JUMP JUMPDEST SWAP3 SWAP2 POP POP JUMP JUMPDEST PUSH1 0x0 PUSH20 0xFFFFFFFFFFFFFFFFFFFFFFFFFFFFFFFFFFFFFFFF DUP3 AND SWAP1 POP SWAP2 SWAP1 POP JUMP JUMPDEST PUSH1 0x0 PUSH3 0x111 DUP3 PUSH3 0xE4 JUMP JUMPDEST SWAP1 POP SWAP2 SWAP1 POP JUMP JUMPDEST PUSH3 0x123 DUP2 PUSH3 0x104 JUMP JUMPDEST DUP2 EQ PUSH3 0x12F JUMPI PUSH1 0x0 DUP1 REVERT JUMPDEST POP JUMP JUMPDEST PUSH1 0x0 DUP2 MLOAD SWAP1 POP PUSH3 0x143 DUP2 PUSH3 0x118 JUMP JUMPDEST SWAP3 SWAP2 POP POP JUMP JUMPDEST PUSH1 0x0 DUP1 PUSH1 0x0 DUP1 PUSH1 0x80 DUP6 DUP8 SUB SLT ISZERO PUSH3 0x166 JUMPI PUSH3 0x165 PUSH3 0xA4 JUMP JUMPDEST JUMPDEST PUSH1 0x0 PUSH3 0x176 DUP8 DUP3 DUP9 ADD PUSH3 0xCD JUMP JUMPDEST SWAP5 POP POP PUSH1 0x20 PUSH3 0x189 DUP8 DUP3 DUP9 ADD PUSH3 0x132 JUMP JUMPDEST SWAP4 POP POP PUSH1 0x40 PUSH3 0x19C DUP8 DUP3 DUP9 ADD PUSH3 0xCD JUMP JUMPDEST SWAP3 POP POP PUSH1 0x60 PUSH3 0x1AF DUP8 DUP3 DUP9 ADD PUSH3 0xCD JUMP JUMPDEST SWAP2 POP POP SWAP3 SWAP6 SWAP2 SWAP5 POP SWAP3 POP JUMP JUMPDEST PUSH32 0x4E487B7100000000000000000000000000000000000000000000000000000000 PUSH1 0x0 MSTORE PUSH1 0x11 PUSH1 0x4 MSTORE PUSH1 0x24 PUSH1 0x0 REVERT JUMPDEST PUSH1 0x0 PUSH3 0x1F7 DUP3 PUSH3 0xA9 JUMP JUMPDEST SWAP2 POP PUSH3 0x204 DUP4 PUSH3 0xA9 JUMP JUMPDEST SWAP3 POP DUP3 PUSH32 0xFFFFFFFFFFFFFFFFFFFFFFFFFFFFFFFFFFFFFFFFFFFFFFFFFFFFFFFFFFFFFFFF SUB DUP3 GT ISZERO PUSH3 0x23C JUMPI PUSH3 0x23B PUSH3 0x1BB JUMP JUMPDEST JUMPDEST DUP3 DUP3 ADD SWAP1 POP SWAP3 SWAP2 POP POP JUMP JUMPDEST PUSH2 0x1875 DUP1 PUSH3 0x257 PUSH1 0x0 CODECOPY PUSH1 0x0 RETURN INVALID PUSH1 0x80 PUSH1 0x40 MSTORE PUSH1 0x4 CALLDATASIZE LT PUSH2 0xF7 JUMPI PUSH1 0x0 CALLDATALOAD PUSH1 0xE0 SHR DUP1 PUSH4 0x82FDE093 GT PUSH2 0x8A JUMPI DUP1 PUSH4 0xB2D5AE44 GT PUSH2 0x59 JUMPI DUP1 PUSH4 0xB2D5AE44 EQ PUSH2 0x337 JUMPI DUP1 PUSH4 0xC59EE1DC EQ PUSH2 0x34E JUMPI DUP1 PUSH4 0xD7BB99BA EQ PUSH2 0x379 JUMPI DUP1 PUSH4 0xD7D1BBDB EQ PUSH2 0x383 JUMPI PUSH2 0x106 JUMP JUMPDEST DUP1 PUSH4 0x82FDE093 EQ PUSH2 0x28D JUMPI DUP1 PUSH4 0x8A9CFD55 EQ PUSH2 0x2B8 JUMPI DUP1 PUSH4 0x937E09B1 EQ PUSH2 0x2E1 JUMPI DUP1 PUSH4 0x9FB42B1F EQ PUSH2 0x30C JUMPI PUSH2 0x106 JUMP JUMPDEST DUP1 PUSH4 0x40193883 GT PUSH2 0xC6 JUMPI DUP1 PUSH4 0x40193883 EQ PUSH2 0x1C7 JUMPI DUP1 PUSH4 0x4051DDAC EQ PUSH2 0x1F2 JUMPI DUP1 PUSH4 0x481C6A75 EQ PUSH2 0x221 JUMPI DUP1 PUSH4 0x81D12C58 EQ PUSH2 0x24C JUMPI PUSH2 0x106 JUMP JUMPDEST DUP1 PUSH4 0x3441006 EQ PUSH2 0x10B JUMPI DUP1 PUSH4 0xA144391 EQ PUSH2 0x134 JUMPI DUP1 PUSH4 0x29DCB0CF EQ PUSH2 0x171 JUMPI DUP1 PUSH4 0x3410452A EQ PUSH2 0x19C JUMPI PUSH2 0x106 JUMP JUMPDEST CALLDATASIZE PUSH2 0x106 JUMPI PUSH2 0x104 PUSH2 0x3AC JUMP JUMPDEST STOP JUMPDEST PUSH1 0x0 DUP1 REVERT JUMPDEST CALLVALUE DUP1 ISZERO PUSH2 0x117 JUMPI PUSH1 0x0 DUP1 REVERT JUMPDEST POP PUSH2 0x132 PUSH1 0x4 DUP1 CALLDATASIZE SUB DUP2 ADD SWAP1 PUSH2 0x12D SWAP2 SWAP1 PUSH2 0xE43 JUMP JUMPDEST PUSH2 0x53F JUMP JUMPDEST STOP JUMPDEST CALLVALUE DUP1 ISZERO PUSH2 0x140 JUMPI PUSH1 0x0 DUP1 REVERT JUMPDEST POP PUSH2 0x15B PUSH1 0x4 DUP1 CALLDATASIZE SUB DUP2 ADD SWAP1 PUSH2 0x156 SWAP2 SWAP1 PUSH2 0xECE JUMP JUMPDEST PUSH2 0x757 JUMP JUMPDEST PUSH1 0x40 MLOAD PUSH2 0x168 SWAP2 SWAP1 PUSH2 0xF0A JUMP JUMPDEST PUSH1 0x40 MLOAD DUP1 SWAP2 SUB SWAP1 RETURN JUMPDEST CALLVALUE DUP1 ISZERO PUSH2 0x17D JUMPI PUSH1 0x0 DUP1 REVERT JUMPDEST POP PUSH2 0x186 PUSH2 0x76F JUMP JUMPDEST PUSH1 0x40 MLOAD PUSH2 0x193 SWAP2 SWAP1 PUSH2 0xF0A JUMP JUMPDEST PUSH1 0x40 MLOAD DUP1 SWAP2 SUB SWAP1 RETURN JUMPDEST CALLVALUE DUP1 ISZERO PUSH2 0x1A8 JUMPI PUSH1 0x0 DUP1 REVERT JUMPDEST POP PUSH2 0x1B1 PUSH2 0x775 JUMP JUMPDEST PUSH1 0x40 MLOAD PUSH2 0x1BE SWAP2 SWAP1 PUSH2 0xF0A JUMP JUMPDEST PUSH1 0x40 MLOAD DUP1 SWAP2 SUB SWAP1 RETURN JUMPDEST CALLVALUE DUP1 ISZERO PUSH2 0x1D3 JUMPI PUSH1 0x0 DUP1 REVERT JUMPDEST POP PUSH2 0x1DC PUSH2 0x77F JUMP JUMPDEST PUSH1 0x40 MLOAD PUSH2 0x1E9 SWAP2 SWAP1 PUSH2 0xF0A JUMP JUMPDEST PUSH1 0x40 MLOAD DUP1 SWAP2 SUB SWAP1 RETURN JUMPDEST CALLVALUE DUP1 ISZERO PUSH2 0x1FE JUMPI PUSH1 0x0 DUP1 REVERT JUMPDEST POP PUSH2 0x207 PUSH2 0x785 JUMP JUMPDEST PUSH1 0x40 MLOAD PUSH2 0x218 SWAP6 SWAP5 SWAP4 SWAP3 SWAP2 SWAP1 PUSH2 0xF34 JUMP JUMPDEST PUSH1 0x40 MLOAD DUP1 SWAP2 SUB SWAP1 RETURN JUMPDEST CALLVALUE DUP1 ISZERO PUSH2 0x22D JUMPI PUSH1 0x0 DUP1 REVERT JUMPDEST POP PUSH2 0x236 PUSH2 0x7CB JUMP JUMPDEST PUSH1 0x40 MLOAD PUSH2 0x243 SWAP2 SWAP1 PUSH2 0xF87 JUMP JUMPDEST PUSH1 0x40 MLOAD DUP1 SWAP2 SUB SWAP1 RETURN JUMPDEST CALLVALUE DUP1 ISZERO PUSH2 0x258 JUMPI PUSH1 0x0 DUP1 REVERT JUMPDEST POP PUSH2 0x273 PUSH1 0x4 DUP1 CALLDATASIZE SUB DUP2 ADD SWAP1 PUSH2 0x26E SWAP2 SWAP1 PUSH2 0xE43 JUMP JUMPDEST PUSH2 0x7F1 JUMP JUMPDEST PUSH1 0x40 MLOAD PUSH2 0x284 SWAP6 SWAP5 SWAP4 SWAP3 SWAP2 SWAP1 PUSH2 0x1077 JUMP JUMPDEST PUSH1 0x40 MLOAD DUP1 SWAP2 SUB SWAP1 RETURN JUMPDEST CALLVALUE DUP1 ISZERO PUSH2 0x299 JUMPI PUSH1 0x0 DUP1 REVERT JUMPDEST POP PUSH2 0x2A2 PUSH2 0x8DC JUMP JUMPDEST PUSH1 0x40 MLOAD PUSH2 0x2AF SWAP2 SWAP1 PUSH2 0xF0A JUMP JUMPDEST PUSH1 0x40 MLOAD DUP1 SWAP2 SUB SWAP1 RETURN JUMPDEST CALLVALUE DUP1 ISZERO PUSH2 0x2C4 JUMPI PUSH1 0x0 DUP1 REVERT JUMPDEST POP PUSH2 0x2DF PUSH1 0x4 DUP1 CALLDATASIZE SUB DUP2 ADD SWAP1 PUSH2 0x2DA SWAP2 SWAP1 PUSH2 0x1232 JUMP JUMPDEST PUSH2 0x8E2 JUMP JUMPDEST STOP JUMPDEST CALLVALUE DUP1 ISZERO PUSH2 0x2ED JUMPI PUSH1 0x0 DUP1 REVERT JUMPDEST POP PUSH2 0x2F6 PUSH2 0xA6F JUMP JUMPDEST PUSH1 0x40 MLOAD PUSH2 0x303 SWAP2 SWAP1 PUSH2 0xF0A JUMP JUMPDEST PUSH1 0x40 MLOAD DUP1 SWAP2 SUB SWAP1 RETURN JUMPDEST CALLVALUE DUP1 ISZERO PUSH2 0x318 JUMPI PUSH1 0x0 DUP1 REVERT JUMPDEST POP PUSH2 0x321 PUSH2 0xA75 JUMP JUMPDEST PUSH1 0x40 MLOAD PUSH2 0x32E SWAP2 SWAP1 PUSH2 0xF0A JUMP JUMPDEST PUSH1 0x40 MLOAD DUP1 SWAP2 SUB SWAP1 RETURN JUMPDEST CALLVALUE DUP1 ISZERO PUSH2 0x343 JUMPI PUSH1 0x0 DUP1 REVERT JUMPDEST POP PUSH2 0x34C PUSH2 0xA7B JUMP JUMPDEST STOP JUMPDEST CALLVALUE DUP1 ISZERO PUSH2 0x35A JUMPI PUSH1 0x0 DUP1 REVERT JUMPDEST POP PUSH2 0x363 PUSH2 0xBB1 JUMP JUMPDEST PUSH1 0x40 MLOAD PUSH2 0x370 SWAP2 SWAP1 PUSH2 0xF0A JUMP JUMPDEST PUSH1 0x40 MLOAD DUP1 SWAP2 SUB SWAP1 RETURN JUMPDEST PUSH2 0x381 PUSH2 0x3AC JUMP JUMPDEST STOP JUMPDEST CALLVALUE DUP1 ISZERO PUSH2 0x38F JUMPI PUSH1 0x0 DUP1 REVERT JUMPDEST POP PUSH2 0x3AA PUSH1 0x4 DUP1 CALLDATASIZE SUB DUP2 ADD SWAP1 PUSH2 0x3A5 SWAP2 SWAP1 PUSH2 0xE43 JUMP JUMPDEST PUSH2 0xBB7 JUMP JUMPDEST STOP JUMPDEST PUSH1 0x7 SLOAD TIMESTAMP LT PUSH2 0x3F0 JUMPI PUSH1 0x40 MLOAD PUSH32 0x8C379A000000000000000000000000000000000000000000000000000000000 DUP2 MSTORE PUSH1 0x4 ADD PUSH2 0x3E7 SWAP1 PUSH2 0x12ED JUMP JUMPDEST PUSH1 0x40 MLOAD DUP1 SWAP2 SUB SWAP1 REVERT JUMPDEST PUSH1 0x3 SLOAD CALLVALUE GT PUSH2 0x434 JUMPI PUSH1 0x40 MLOAD PUSH32 0x8C379A000000000000000000000000000000000000000000000000000000000 DUP2 MSTORE PUSH1 0x4 ADD PUSH2 0x42B SWAP1 PUSH2 0x1359 JUMP JUMPDEST PUSH1 0x40 MLOAD DUP1 SWAP2 SUB SWAP1 REVERT JUMPDEST PUSH1 0x0 PUSH1 0x4 PUSH1 0x0 CALLER PUSH20 0xFFFFFFFFFFFFFFFFFFFFFFFFFFFFFFFFFFFFFFFF AND PUSH20 0xFFFFFFFFFFFFFFFFFFFFFFFFFFFFFFFFFFFFFFFF AND DUP2 MSTORE PUSH1 0x20 ADD SWAP1 DUP2 MSTORE PUSH1 0x20 ADD PUSH1 0x0 KECCAK256 SLOAD EQ ISZERO PUSH2 0x495 JUMPI PUSH1 0x5 PUSH1 0x0 DUP2 SLOAD DUP1 SWAP3 SWAP2 SWAP1 PUSH2 0x48F SWAP1 PUSH2 0x13A8 JUMP JUMPDEST SWAP2 SWAP1 POP SSTORE POP JUMPDEST CALLVALUE PUSH1 0x4 PUSH1 0x0 CALLER PUSH20 0xFFFFFFFFFFFFFFFFFFFFFFFFFFFFFFFFFFFFFFFF AND PUSH20 0xFFFFFFFFFFFFFFFFFFFFFFFFFFFFFFFFFFFFFFFF AND DUP2 MSTORE PUSH1 0x20 ADD SWAP1 DUP2 MSTORE PUSH1 0x20 ADD PUSH1 0x0 KECCAK256 PUSH1 0x0 DUP3 DUP3 SLOAD PUSH2 0x4E4 SWAP2 SWAP1 PUSH2 0x13F1 JUMP JUMPDEST SWAP3 POP POP DUP2 SWAP1 SSTORE POP CALLVALUE PUSH1 0x8 PUSH1 0x0 DUP3 DUP3 SLOAD PUSH2 0x4FD SWAP2 SWAP1 PUSH2 0x13F1 JUMP JUMPDEST SWAP3 POP POP DUP2 SWAP1 SSTORE POP PUSH32 0x2DAF61DEC57A2C194E9E87958B1A40A5C236B5E8C6041655D664DDBD16C29320 CALLER CALLVALUE PUSH1 0x40 MLOAD PUSH2 0x535 SWAP3 SWAP2 SWAP1 PUSH2 0x1447 JUMP JUMPDEST PUSH1 0x40 MLOAD DUP1 SWAP2 SUB SWAP1 LOG1 JUMP JUMPDEST PUSH1 0x2 PUSH1 0x0 SWAP1 SLOAD SWAP1 PUSH2 0x100 EXP SWAP1 DIV PUSH20 0xFFFFFFFFFFFFFFFFFFFFFFFFFFFFFFFFFFFFFFFF AND PUSH20 0xFFFFFFFFFFFFFFFFFFFFFFFFFFFFFFFFFFFFFFFF AND CALLER PUSH20 0xFFFFFFFFFFFFFFFFFFFFFFFFFFFFFFFFFFFFFFFF AND EQ PUSH2 0x5CF JUMPI PUSH1 0x40 MLOAD PUSH32 0x8C379A000000000000000000000000000000000000000000000000000000000 DUP2 MSTORE PUSH1 0x4 ADD PUSH2 0x5C6 SWAP1 PUSH2 0x14E2 JUMP JUMPDEST PUSH1 0x40 MLOAD DUP1 SWAP2 SUB SWAP1 REVERT JUMPDEST PUSH1 0x6 SLOAD PUSH1 0x8 SLOAD LT ISZERO PUSH2 0x5E0 JUMPI PUSH1 0x0 DUP1 REVERT JUMPDEST PUSH1 0x0 DUP1 PUSH1 0x0 DUP4 DUP2 MSTORE PUSH1 0x20 ADD SWAP1 DUP2 MSTORE PUSH1 0x20 ADD PUSH1 0x0 KECCAK256 SWAP1 POP DUP1 PUSH1 0x3 ADD PUSH1 0x14 SWAP1 SLOAD SWAP1 PUSH2 0x100 EXP SWAP1 DIV PUSH1 0xFF AND ISZERO PUSH2 0x648 JUMPI PUSH1 0x40 MLOAD PUSH32 0x8C379A000000000000000000000000000000000000000000000000000000000 DUP2 MSTORE PUSH1 0x4 ADD PUSH2 0x63F SWAP1 PUSH2 0x1574 JUMP JUMPDEST PUSH1 0x40 MLOAD DUP1 SWAP2 SUB SWAP1 REVERT JUMPDEST PUSH1 0x2 PUSH1 0x5 SLOAD PUSH2 0x657 SWAP2 SWAP1 PUSH2 0x15C3 JUMP JUMPDEST DUP2 PUSH1 0x2 ADD SLOAD GT PUSH2 0x666 JUMPI PUSH1 0x0 DUP1 REVERT JUMPDEST DUP1 PUSH1 0x3 ADD PUSH1 0x0 SWAP1 SLOAD SWAP1 PUSH2 0x100 EXP SWAP1 DIV PUSH20 0xFFFFFFFFFFFFFFFFFFFFFFFFFFFFFFFFFFFFFFFF AND PUSH20 0xFFFFFFFFFFFFFFFFFFFFFFFFFFFFFFFFFFFFFFFF AND PUSH2 0x8FC DUP3 PUSH1 0x1 ADD SLOAD SWAP1 DUP2 ISZERO MUL SWAP1 PUSH1 0x40 MLOAD PUSH1 0x0 PUSH1 0x40 MLOAD DUP1 DUP4 SUB DUP2 DUP6 DUP9 DUP9 CALL SWAP4 POP POP POP POP ISZERO DUP1 ISZERO PUSH2 0x6D4 JUMPI RETURNDATASIZE PUSH1 0x0 DUP1 RETURNDATACOPY RETURNDATASIZE PUSH1 0x0 REVERT JUMPDEST POP PUSH1 0x1 DUP2 PUSH1 0x3 ADD PUSH1 0x14 PUSH2 0x100 EXP DUP2 SLOAD DUP2 PUSH1 0xFF MUL NOT AND SWAP1 DUP4 ISZERO ISZERO MUL OR SWAP1 SSTORE POP PUSH32 0x2AE767896E987FD31514551C92E54DCD13F83142C6C581A4186921042AF354AB DUP2 PUSH1 0x3 ADD PUSH1 0x0 SWAP1 SLOAD SWAP1 PUSH2 0x100 EXP SWAP1 DIV PUSH20 0xFFFFFFFFFFFFFFFFFFFFFFFFFFFFFFFFFFFFFFFF AND DUP3 PUSH1 0x1 ADD SLOAD PUSH1 0x40 MLOAD PUSH2 0x74B SWAP3 SWAP2 SWAP1 PUSH2 0x1653 JUMP JUMPDEST PUSH1 0x40 MLOAD DUP1 SWAP2 SUB SWAP1 LOG1 POP POP JUMP JUMPDEST PUSH1 0x4 PUSH1 0x20 MSTORE DUP1 PUSH1 0x0 MSTORE PUSH1 0x40 PUSH1 0x0 KECCAK256 PUSH1 0x0 SWAP2 POP SWAP1 POP SLOAD DUP2 JUMP JUMPDEST PUSH1 0x7 SLOAD DUP2 JUMP JUMPDEST PUSH1 0x0 PUSH1 0x1 SLOAD SWAP1 POP SWAP1 JUMP JUMPDEST PUSH1 0x6 SLOAD DUP2 JUMP JUMPDEST PUSH1 0x0 DUP1 PUSH1 0x0 DUP1 PUSH1 0x0 PUSH1 0x3 SLOAD SELFBALANCE PUSH1 0x1 SLOAD PUSH1 0x5 SLOAD PUSH1 0x2 PUSH1 0x0 SWAP1 SLOAD SWAP1 PUSH2 0x100 EXP SWAP1 DIV PUSH20 0xFFFFFFFFFFFFFFFFFFFFFFFFFFFFFFFFFFFFFFFF AND SWAP5 POP SWAP5 POP SWAP5 POP SWAP5 POP SWAP5 POP SWAP1 SWAP2 SWAP3 SWAP4 SWAP5 JUMP JUMPDEST PUSH1 0x2 PUSH1 0x0 SWAP1 SLOAD SWAP1 PUSH2 0x100 EXP SWAP1 DIV PUSH20 0xFFFFFFFFFFFFFFFFFFFFFFFFFFFFFFFFFFFFFFFF AND DUP2 JUMP JUMPDEST PUSH1 0x0 PUSH1 0x20 MSTORE DUP1 PUSH1 0x0 MSTORE PUSH1 0x40 PUSH1 0x0 KECCAK256 PUSH1 0x0 SWAP2 POP SWAP1 POP DUP1 PUSH1 0x0 ADD DUP1 SLOAD PUSH2 0x814 SWAP1 PUSH2 0x16AB JUMP JUMPDEST DUP1 PUSH1 0x1F ADD PUSH1 0x20 DUP1 SWAP2 DIV MUL PUSH1 0x20 ADD PUSH1 0x40 MLOAD SWAP1 DUP2 ADD PUSH1 0x40 MSTORE DUP1 SWAP3 SWAP2 SWAP1 DUP2 DUP2 MSTORE PUSH1 0x20 ADD DUP3 DUP1 SLOAD PUSH2 0x840 SWAP1 PUSH2 0x16AB JUMP JUMPDEST DUP1 ISZERO PUSH2 0x88D JUMPI DUP1 PUSH1 0x1F LT PUSH2 0x862 JUMPI PUSH2 0x100 DUP1 DUP4 SLOAD DIV MUL DUP4 MSTORE SWAP2 PUSH1 0x20 ADD SWAP2 PUSH2 0x88D JUMP JUMPDEST DUP3 ADD SWAP2 SWAP1 PUSH1 0x0 MSTORE PUSH1 0x20 PUSH1 0x0 KECCAK256 SWAP1 JUMPDEST DUP2 SLOAD DUP2 MSTORE SWAP1 PUSH1 0x1 ADD SWAP1 PUSH1 0x20 ADD DUP1 DUP4 GT PUSH2 0x870 JUMPI DUP3 SWAP1 SUB PUSH1 0x1F AND DUP3 ADD SWAP2 JUMPDEST POP POP POP POP POP SWAP1 DUP1 PUSH1 0x1 ADD SLOAD SWAP1 DUP1 PUSH1 0x2 ADD SLOAD SWAP1 DUP1 PUSH1 0x3 ADD PUSH1 0x0 SWAP1 SLOAD SWAP1 PUSH2 0x100 EXP SWAP1 DIV PUSH20 0xFFFFFFFFFFFFFFFFFFFFFFFFFFFFFFFFFFFFFFFF AND SWAP1 DUP1 PUSH1 0x3 ADD PUSH1 0x14 SWAP1 SLOAD SWAP1 PUSH2 0x100 EXP SWAP1 DIV PUSH1 0xFF AND SWAP1 POP DUP6 JUMP JUMPDEST PUSH1 0x5 SLOAD DUP2 JUMP JUMPDEST PUSH1 0x2 PUSH1 0x0 SWAP1 SLOAD SWAP1 PUSH2 0x100 EXP SWAP1 DIV PUSH20 0xFFFFFFFFFFFFFFFFFFFFFFFFFFFFFFFFFFFFFFFF AND PUSH20 0xFFFFFFFFFFFFFFFFFFFFFFFFFFFFFFFFFFFFFFFF AND CALLER PUSH20 0xFFFFFFFFFFFFFFFFFFFFFFFFFFFFFFFFFFFFFFFF AND EQ PUSH2 0x972 JUMPI PUSH1 0x40 MLOAD PUSH32 0x8C379A000000000000000000000000000000000000000000000000000000000 DUP2 MSTORE PUSH1 0x4 ADD PUSH2 0x969 SWAP1 PUSH2 0x14E2 JUMP JUMPDEST PUSH1 0x40 MLOAD DUP1 SWAP2 SUB SWAP1 REVERT JUMPDEST PUSH1 0x0 DUP1 PUSH1 0x0 PUSH1 0x1 SLOAD DUP2 MSTORE PUSH1 0x20 ADD SWAP1 DUP2 MSTORE PUSH1 0x20 ADD PUSH1 0x0 KECCAK256 SWAP1 POP PUSH1 0x1 PUSH1 0x0 DUP2 SLOAD DUP1 SWAP3 SWAP2 SWAP1 PUSH2 0x99D SWAP1 PUSH2 0x13A8 JUMP JUMPDEST SWAP2 SWAP1 POP SSTORE POP DUP4 DUP2 PUSH1 0x0 ADD SWAP1 DUP1 MLOAD SWAP1 PUSH1 0x20 ADD SWAP1 PUSH2 0x9BA SWAP3 SWAP2 SWAP1 PUSH2 0xD56 JUMP JUMPDEST POP DUP3 DUP2 PUSH1 0x1 ADD DUP2 SWAP1 SSTORE POP DUP2 DUP2 PUSH1 0x3 ADD PUSH1 0x0 PUSH2 0x100 EXP DUP2 SLOAD DUP2 PUSH20 0xFFFFFFFFFFFFFFFFFFFFFFFFFFFFFFFFFFFFFFFF MUL NOT AND SWAP1 DUP4 PUSH20 0xFFFFFFFFFFFFFFFFFFFFFFFFFFFFFFFFFFFFFFFF AND MUL OR SWAP1 SSTORE POP PUSH1 0x0 DUP2 PUSH1 0x3 ADD PUSH1 0x14 PUSH2 0x100 EXP DUP2 SLOAD DUP2 PUSH1 0xFF MUL NOT AND SWAP1 DUP4 ISZERO ISZERO MUL OR SWAP1 SSTORE POP PUSH1 0x0 DUP2 PUSH1 0x2 ADD DUP2 SWAP1 SSTORE POP PUSH32 0x5392BD80651676CCAAEDEC1AFBE841D47E369223DF0BA1586110B6426EE87A3A DUP5 DUP4 DUP6 PUSH1 0x40 MLOAD PUSH2 0xA61 SWAP4 SWAP3 SWAP2 SWAP1 PUSH2 0x16DD JUMP JUMPDEST PUSH1 0x40 MLOAD DUP1 SWAP2 SUB SWAP1 LOG1 POP POP POP POP JUMP JUMPDEST PUSH1 0x3 SLOAD DUP2 JUMP JUMPDEST PUSH1 0x1 SLOAD DUP2 JUMP JUMPDEST PUSH1 0x7 SLOAD TIMESTAMP GT DUP1 ISZERO PUSH2 0xA8F JUMPI POP PUSH1 0x6 SLOAD PUSH1 0x8 SLOAD LT JUMPDEST PUSH2 0xA98 JUMPI PUSH1 0x0 DUP1 REVERT JUMPDEST PUSH1 0x0 PUSH1 0x4 PUSH1 0x0 CALLER PUSH20 0xFFFFFFFFFFFFFFFFFFFFFFFFFFFFFFFFFFFFFFFF AND PUSH20 0xFFFFFFFFFFFFFFFFFFFFFFFFFFFFFFFFFFFFFFFF AND DUP2 MSTORE PUSH1 0x20 ADD SWAP1 DUP2 MSTORE PUSH1 0x20 ADD PUSH1 0x0 KECCAK256 SLOAD GT PUSH2 0xAE4 JUMPI PUSH1 0x0 DUP1 REVERT JUMPDEST CALLER PUSH20 0xFFFFFFFFFFFFFFFFFFFFFFFFFFFFFFFFFFFFFFFF AND PUSH2 0x8FC PUSH1 0x4 PUSH1 0x0 CALLER PUSH20 0xFFFFFFFFFFFFFFFFFFFFFFFFFFFFFFFFFFFFFFFF AND PUSH20 0xFFFFFFFFFFFFFFFFFFFFFFFFFFFFFFFFFFFFFFFF AND DUP2 MSTORE PUSH1 0x20 ADD SWAP1 DUP2 MSTORE PUSH1 0x20 ADD PUSH1 0x0 KECCAK256 SLOAD SWAP1 DUP2 ISZERO MUL SWAP1 PUSH1 0x40 MLOAD PUSH1 0x0 PUSH1 0x40 MLOAD DUP1 DUP4 SUB DUP2 DUP6 DUP9 DUP9 CALL SWAP4 POP POP POP POP ISZERO DUP1 ISZERO PUSH2 0xB69 JUMPI RETURNDATASIZE PUSH1 0x0 DUP1 RETURNDATACOPY RETURNDATASIZE PUSH1 0x0 REVERT JUMPDEST POP PUSH1 0x0 PUSH1 0x4 PUSH1 0x0 CALLER PUSH20 0xFFFFFFFFFFFFFFFFFFFFFFFFFFFFFFFFFFFFFFFF AND PUSH20 0xFFFFFFFFFFFFFFFFFFFFFFFFFFFFFFFFFFFFFFFF AND DUP2 MSTORE PUSH1 0x20 ADD SWAP1 DUP2 MSTORE PUSH1 0x20 ADD PUSH1 0x0 KECCAK256 DUP2 SWAP1 SSTORE POP JUMP JUMPDEST PUSH1 0x8 SLOAD DUP2 JUMP JUMPDEST PUSH1 0x0 PUSH1 0x4 PUSH1 0x0 CALLER PUSH20 0xFFFFFFFFFFFFFFFFFFFFFFFFFFFFFFFFFFFFFFFF AND PUSH20 0xFFFFFFFFFFFFFFFFFFFFFFFFFFFFFFFFFFFFFFFF AND DUP2 MSTORE PUSH1 0x20 ADD SWAP1 DUP2 MSTORE PUSH1 0x20 ADD PUSH1 0x0 KECCAK256 SLOAD GT PUSH2 0xC39 JUMPI PUSH1 0x40 MLOAD PUSH32 0x8C379A000000000000000000000000000000000000000000000000000000000 DUP2 MSTORE PUSH1 0x4 ADD PUSH2 0xC30 SWAP1 PUSH2 0x178D JUMP JUMPDEST PUSH1 0x40 MLOAD DUP1 SWAP2 SUB SWAP1 REVERT JUMPDEST PUSH1 0x0 DUP1 PUSH1 0x0 DUP4 DUP2 MSTORE PUSH1 0x20 ADD SWAP1 DUP2 MSTORE PUSH1 0x20 ADD PUSH1 0x0 KECCAK256 SWAP1 POP DUP1 PUSH1 0x4 ADD PUSH1 0x0 CALLER PUSH20 0xFFFFFFFFFFFFFFFFFFFFFFFFFFFFFFFFFFFFFFFF AND PUSH20 0xFFFFFFFFFFFFFFFFFFFFFFFFFFFFFFFFFFFFFFFF AND DUP2 MSTORE PUSH1 0x20 ADD SWAP1 DUP2 MSTORE PUSH1 0x20 ADD PUSH1 0x0 KECCAK256 PUSH1 0x0 SWAP1 SLOAD SWAP1 PUSH2 0x100 EXP SWAP1 DIV PUSH1 0xFF AND ISZERO PUSH2 0xCDE JUMPI PUSH1 0x40 MLOAD PUSH32 0x8C379A000000000000000000000000000000000000000000000000000000000 DUP2 MSTORE PUSH1 0x4 ADD PUSH2 0xCD5 SWAP1 PUSH2 0x181F JUMP JUMPDEST PUSH1 0x40 MLOAD DUP1 SWAP2 SUB SWAP1 REVERT JUMPDEST PUSH1 0x1 DUP2 PUSH1 0x4 ADD PUSH1 0x0 CALLER PUSH20 0xFFFFFFFFFFFFFFFFFFFFFFFFFFFFFFFFFFFFFFFF AND PUSH20 0xFFFFFFFFFFFFFFFFFFFFFFFFFFFFFFFFFFFFFFFF AND DUP2 MSTORE PUSH1 0x20 ADD SWAP1 DUP2 MSTORE PUSH1 0x20 ADD PUSH1 0x0 KECCAK256 PUSH1 0x0 PUSH2 0x100 EXP DUP2 SLOAD DUP2 PUSH1 0xFF MUL NOT AND SWAP1 DUP4 ISZERO ISZERO MUL OR SWAP1 SSTORE POP DUP1 PUSH1 0x2 ADD PUSH1 0x0 DUP2 SLOAD DUP1 SWAP3 SWAP2 SWAP1 PUSH2 0xD4D SWAP1 PUSH2 0x13A8 JUMP JUMPDEST SWAP2 SWAP1 POP SSTORE POP POP POP JUMP JUMPDEST DUP3 DUP1 SLOAD PUSH2 0xD62 SWAP1 PUSH2 0x16AB JUMP JUMPDEST SWAP1 PUSH1 0x0 MSTORE PUSH1 0x20 PUSH1 0x0 KECCAK256 SWAP1 PUSH1 0x1F ADD PUSH1 0x20 SWAP1 DIV DUP2 ADD SWAP3 DUP3 PUSH2 0xD84 JUMPI PUSH1 0x0 DUP6 SSTORE PUSH2 0xDCB JUMP JUMPDEST DUP3 PUSH1 0x1F LT PUSH2 0xD9D JUMPI DUP1 MLOAD PUSH1 0xFF NOT AND DUP4 DUP1 ADD OR DUP6 SSTORE PUSH2 0xDCB JUMP JUMPDEST DUP3 DUP1 ADD PUSH1 0x1 ADD DUP6 SSTORE DUP3 ISZERO PUSH2 0xDCB JUMPI SWAP2 DUP3 ADD JUMPDEST DUP3 DUP2 GT ISZERO PUSH2 0xDCA JUMPI DUP3 MLOAD DUP3 SSTORE SWAP2 PUSH1 0x20 ADD SWAP2 SWAP1 PUSH1 0x1 ADD SWAP1 PUSH2 0xDAF JUMP JUMPDEST JUMPDEST POP SWAP1 POP PUSH2 0xDD8 SWAP2 SWAP1 PUSH2 0xDDC JUMP JUMPDEST POP SWAP1 JUMP JUMPDEST JUMPDEST DUP1 DUP3 GT ISZERO PUSH2 0xDF5 JUMPI PUSH1 0x0 DUP2 PUSH1 0x0 SWAP1 SSTORE POP PUSH1 0x1 ADD PUSH2 0xDDD JUMP JUMPDEST POP SWAP1 JUMP JUMPDEST PUSH1 0x0 PUSH1 0x40 MLOAD SWAP1 POP SWAP1 JUMP JUMPDEST PUSH1 0x0 DUP1 REVERT JUMPDEST PUSH1 0x0 DUP1 REVERT JUMPDEST PUSH1 0x0 DUP2 SWAP1 POP SWAP2 SWAP1 POP JUMP JUMPDEST PUSH2 0xE20 DUP2 PUSH2 0xE0D JUMP JUMPDEST DUP2 EQ PUSH2 0xE2B JUMPI PUSH1 0x0 DUP1 REVERT JUMPDEST POP JUMP JUMPDEST PUSH1 0x0 DUP2 CALLDATALOAD SWAP1 POP PUSH2 0xE3D DUP2 PUSH2 0xE17 JUMP JUMPDEST SWAP3 SWAP2 POP POP JUMP JUMPDEST PUSH1 0x0 PUSH1 0x20 DUP3 DUP5 SUB SLT ISZERO PUSH2 0xE59 JUMPI PUSH2 0xE58 PUSH2 0xE03 JUMP JUMPDEST JUMPDEST PUSH1 0x0 PUSH2 0xE67 DUP5 DUP3 DUP6 ADD PUSH2 0xE2E JUMP JUMPDEST SWAP2 POP POP SWAP3 SWAP2 POP POP JUMP JUMPDEST PUSH1 0x0 PUSH20 0xFFFFFFFFFFFFFFFFFFFFFFFFFFFFFFFFFFFFFFFF DUP3 AND SWAP1 POP SWAP2 SWAP1 POP JUMP JUMPDEST PUSH1 0x0 PUSH2 0xE9B DUP3 PUSH2 0xE70 JUMP JUMPDEST SWAP1 POP SWAP2 SWAP1 POP JUMP JUMPDEST PUSH2 0xEAB DUP2 PUSH2 0xE90 JUMP JUMPDEST DUP2 EQ PUSH2 0xEB6 JUMPI PUSH1 0x0 DUP1 REVERT JUMPDEST POP JUMP JUMPDEST PUSH1 0x0 DUP2 CALLDATALOAD SWAP1 POP PUSH2 0xEC8 DUP2 PUSH2 0xEA2 JUMP JUMPDEST SWAP3 SWAP2 POP POP JUMP JUMPDEST PUSH1 0x0 PUSH1 0x20 DUP3 DUP5 SUB SLT ISZERO PUSH2 0xEE4 JUMPI PUSH2 0xEE3 PUSH2 0xE03 JUMP JUMPDEST JUMPDEST PUSH1 0x0 PUSH2 0xEF2 DUP5 DUP3 DUP6 ADD PUSH2 0xEB9 JUMP JUMPDEST SWAP2 POP POP SWAP3 SWAP2 POP POP JUMP JUMPDEST PUSH2 0xF04 DUP2 PUSH2 0xE0D JUMP JUMPDEST DUP3 MSTORE POP POP JUMP JUMPDEST PUSH1 0x0 PUSH1 0x20 DUP3 ADD SWAP1 POP PUSH2 0xF1F PUSH1 0x0 DUP4 ADD DUP5 PUSH2 0xEFB JUMP JUMPDEST SWAP3 SWAP2 POP POP JUMP JUMPDEST PUSH2 0xF2E DUP2 PUSH2 0xE90 JUMP JUMPDEST DUP3 MSTORE POP POP JUMP JUMPDEST PUSH1 0x0 PUSH1 0xA0 DUP3 ADD SWAP1 POP PUSH2 0xF49 PUSH1 0x0 DUP4 ADD DUP9 PUSH2 0xEFB JUMP JUMPDEST PUSH2 0xF56 PUSH1 0x20 DUP4 ADD DUP8 PUSH2 0xEFB JUMP JUMPDEST PUSH2 0xF63 PUSH1 0x40 DUP4 ADD DUP7 PUSH2 0xEFB JUMP JUMPDEST PUSH2 0xF70 PUSH1 0x60 DUP4 ADD DUP6 PUSH2 0xEFB JUMP JUMPDEST PUSH2 0xF7D PUSH1 0x80 DUP4 ADD DUP5 PUSH2 0xF25 JUMP JUMPDEST SWAP7 SWAP6 POP POP POP POP POP POP JUMP JUMPDEST PUSH1 0x0 PUSH1 0x20 DUP3 ADD SWAP1 POP PUSH2 0xF9C PUSH1 0x0 DUP4 ADD DUP5 PUSH2 0xF25 JUMP JUMPDEST SWAP3 SWAP2 POP POP JUMP JUMPDEST PUSH1 0x0 DUP2 MLOAD SWAP1 POP SWAP2 SWAP1 POP JUMP JUMPDEST PUSH1 0x0 DUP3 DUP3 MSTORE PUSH1 0x20 DUP3 ADD SWAP1 POP SWAP3 SWAP2 POP POP JUMP JUMPDEST PUSH1 0x0 JUMPDEST DUP4 DUP2 LT ISZERO PUSH2 0xFDC JUMPI DUP1 DUP3 ADD MLOAD DUP2 DUP5 ADD MSTORE PUSH1 0x20 DUP2 ADD SWAP1 POP PUSH2 0xFC1 JUMP JUMPDEST DUP4 DUP2 GT ISZERO PUSH2 0xFEB JUMPI PUSH1 0x0 DUP5 DUP5 ADD MSTORE JUMPDEST POP POP POP POP JUMP JUMPDEST PUSH1 0x0 PUSH1 0x1F NOT PUSH1 0x1F DUP4 ADD AND SWAP1 POP SWAP2 SWAP1 POP JUMP JUMPDEST PUSH1 0x0 PUSH2 0x100D DUP3 PUSH2 0xFA2 JUMP JUMPDEST PUSH2 0x1017 DUP2 DUP6 PUSH2 0xFAD JUMP JUMPDEST SWAP4 POP PUSH2 0x1027 DUP2 DUP6 PUSH1 0x20 DUP7 ADD PUSH2 0xFBE JUMP JUMPDEST PUSH2 0x1030 DUP2 PUSH2 0xFF1 JUMP JUMPDEST DUP5 ADD SWAP2 POP POP SWAP3 SWAP2 POP POP JUMP JUMPDEST PUSH1 0x0 PUSH2 0x1046 DUP3 PUSH2 0xE70 JUMP JUMPDEST SWAP1 POP SWAP2 SWAP1 POP JUMP JUMPDEST PUSH2 0x1056 DUP2 PUSH2 0x103B JUMP JUMPDEST DUP3 MSTORE POP POP JUMP JUMPDEST PUSH1 0x0 DUP2 ISZERO ISZERO SWAP1 POP SWAP2 SWAP1 POP JUMP JUMPDEST PUSH2 0x1071 DUP2 PUSH2 0x105C JUMP JUMPDEST DUP3 MSTORE POP POP JUMP JUMPDEST PUSH1 0x0 PUSH1 0xA0 DUP3 ADD SWAP1 POP DUP2 DUP2 SUB PUSH1 0x0 DUP4 ADD MSTORE PUSH2 0x1091 DUP2 DUP9 PUSH2 0x1002 JUMP JUMPDEST SWAP1 POP PUSH2 0x10A0 PUSH1 0x20 DUP4 ADD DUP8 PUSH2 0xEFB JUMP JUMPDEST PUSH2 0x10AD PUSH1 0x40 DUP4 ADD DUP7 PUSH2 0xEFB JUMP JUMPDEST PUSH2 0x10BA PUSH1 0x60 DUP4 ADD DUP6 PUSH2 0x104D JUMP JUMPDEST PUSH2 0x10C7 PUSH1 0x80 DUP4 ADD DUP5 PUSH2 0x1068 JUMP JUMPDEST SWAP7 SWAP6 POP POP POP POP POP POP JUMP JUMPDEST PUSH1 0x0 DUP1 REVERT JUMPDEST PUSH1 0x0 DUP1 REVERT JUMPDEST PUSH32 0x4E487B7100000000000000000000000000000000000000000000000000000000 PUSH1 0x0 MSTORE PUSH1 0x41 PUSH1 0x4 MSTORE PUSH1 0x24 PUSH1 0x0 REVERT JUMPDEST PUSH2 0x1113 DUP3 PUSH2 0xFF1 JUMP JUMPDEST DUP2 ADD DUP2 DUP2 LT PUSH8 0xFFFFFFFFFFFFFFFF DUP3 GT OR ISZERO PUSH2 0x1132 JUMPI PUSH2 0x1131 PUSH2 0x10DB JUMP JUMPDEST JUMPDEST DUP1 PUSH1 0x40 MSTORE POP POP POP JUMP JUMPDEST PUSH1 0x0 PUSH2 0x1145 PUSH2 0xDF9 JUMP JUMPDEST SWAP1 POP PUSH2 0x1151 DUP3 DUP3 PUSH2 0x110A JUMP JUMPDEST SWAP2 SWAP1 POP JUMP JUMPDEST PUSH1 0x0 PUSH8 0xFFFFFFFFFFFFFFFF DUP3 GT ISZERO PUSH2 0x1171 JUMPI PUSH2 0x1170 PUSH2 0x10DB JUMP JUMPDEST JUMPDEST PUSH2 0x117A DUP3 PUSH2 0xFF1 JUMP JUMPDEST SWAP1 POP PUSH1 0x20 DUP2 ADD SWAP1 POP SWAP2 SWAP1 POP JUMP JUMPDEST DUP3 DUP2 DUP4 CALLDATACOPY PUSH1 0x0 DUP4 DUP4 ADD MSTORE POP POP POP JUMP JUMPDEST PUSH1 0x0 PUSH2 0x11A9 PUSH2 0x11A4 DUP5 PUSH2 0x1156 JUMP JUMPDEST PUSH2 0x113B JUMP JUMPDEST SWAP1 POP DUP3 DUP2 MSTORE PUSH1 0x20 DUP2 ADD DUP5 DUP5 DUP5 ADD GT ISZERO PUSH2 0x11C5 JUMPI PUSH2 0x11C4 PUSH2 0x10D6 JUMP JUMPDEST JUMPDEST PUSH2 0x11D0 DUP5 DUP3 DUP6 PUSH2 0x1187 JUMP JUMPDEST POP SWAP4 SWAP3 POP POP POP JUMP JUMPDEST PUSH1 0x0 DUP3 PUSH1 0x1F DUP4 ADD SLT PUSH2 0x11ED JUMPI PUSH2 0x11EC PUSH2 0x10D1 JUMP JUMPDEST JUMPDEST DUP2 CALLDATALOAD PUSH2 0x11FD DUP5 DUP3 PUSH1 0x20 DUP7 ADD PUSH2 0x1196 JUMP JUMPDEST SWAP2 POP POP SWAP3 SWAP2 POP POP JUMP JUMPDEST PUSH2 0x120F DUP2 PUSH2 0x103B JUMP JUMPDEST DUP2 EQ PUSH2 0x121A JUMPI PUSH1 0x0 DUP1 REVERT JUMPDEST POP JUMP JUMPDEST PUSH1 0x0 DUP2 CALLDATALOAD SWAP1 POP PUSH2 0x122C DUP2 PUSH2 0x1206 JUMP JUMPDEST SWAP3 SWAP2 POP POP JUMP JUMPDEST PUSH1 0x0 DUP1 PUSH1 0x0 PUSH1 0x60 DUP5 DUP7 SUB SLT ISZERO PUSH2 0x124B JUMPI PUSH2 0x124A PUSH2 0xE03 JUMP JUMPDEST JUMPDEST PUSH1 0x0 DUP5 ADD CALLDATALOAD PUSH8 0xFFFFFFFFFFFFFFFF DUP2 GT ISZERO PUSH2 0x1269 JUMPI PUSH2 0x1268 PUSH2 0xE08 JUMP JUMPDEST JUMPDEST PUSH2 0x1275 DUP7 DUP3 DUP8 ADD PUSH2 0x11D8 JUMP JUMPDEST SWAP4 POP POP PUSH1 0x20 PUSH2 0x1286 DUP7 DUP3 DUP8 ADD PUSH2 0xE2E JUMP JUMPDEST SWAP3 POP POP PUSH1 0x40 PUSH2 0x1297 DUP7 DUP3 DUP8 ADD PUSH2 0x121D JUMP JUMPDEST SWAP2 POP POP SWAP3 POP SWAP3 POP SWAP3 JUMP JUMPDEST PUSH32 0x43616D7061696E672068617320616C72656164792066696E6973686564210000 PUSH1 0x0 DUP3 ADD MSTORE POP JUMP JUMPDEST PUSH1 0x0 PUSH2 0x12D7 PUSH1 0x1E DUP4 PUSH2 0xFAD JUMP JUMPDEST SWAP2 POP PUSH2 0x12E2 DUP3 PUSH2 0x12A1 JUMP JUMPDEST PUSH1 0x20 DUP3 ADD SWAP1 POP SWAP2 SWAP1 POP JUMP JUMPDEST PUSH1 0x0 PUSH1 0x20 DUP3 ADD SWAP1 POP DUP2 DUP2 SUB PUSH1 0x0 DUP4 ADD MSTORE PUSH2 0x1306 DUP2 PUSH2 0x12CA JUMP JUMPDEST SWAP1 POP SWAP2 SWAP1 POP JUMP JUMPDEST PUSH32 0x4D696E696D756D20436F6E747269627574696F6E206E6F74206D657421000000 PUSH1 0x0 DUP3 ADD MSTORE POP JUMP JUMPDEST PUSH1 0x0 PUSH2 0x1343 PUSH1 0x1D DUP4 PUSH2 0xFAD JUMP JUMPDEST SWAP2 POP PUSH2 0x134E DUP3 PUSH2 0x130D JUMP JUMPDEST PUSH1 0x20 DUP3 ADD SWAP1 POP SWAP2 SWAP1 POP JUMP JUMPDEST PUSH1 0x0 PUSH1 0x20 DUP3 ADD SWAP1 POP DUP2 DUP2 SUB PUSH1 0x0 DUP4 ADD MSTORE PUSH2 0x1372 DUP2 PUSH2 0x1336 JUMP JUMPDEST SWAP1 POP SWAP2 SWAP1 POP JUMP JUMPDEST PUSH32 0x4E487B7100000000000000000000000000000000000000000000000000000000 PUSH1 0x0 MSTORE PUSH1 0x11 PUSH1 0x4 MSTORE PUSH1 0x24 PUSH1 0x0 REVERT JUMPDEST PUSH1 0x0 PUSH2 0x13B3 DUP3 PUSH2 0xE0D JUMP JUMPDEST SWAP2 POP PUSH32 0xFFFFFFFFFFFFFFFFFFFFFFFFFFFFFFFFFFFFFFFFFFFFFFFFFFFFFFFFFFFFFFFF DUP3 EQ ISZERO PUSH2 0x13E6 JUMPI PUSH2 0x13E5 PUSH2 0x1379 JUMP JUMPDEST JUMPDEST PUSH1 0x1 DUP3 ADD SWAP1 POP SWAP2 SWAP1 POP JUMP JUMPDEST PUSH1 0x0 PUSH2 0x13FC DUP3 PUSH2 0xE0D JUMP JUMPDEST SWAP2 POP PUSH2 0x1407 DUP4 PUSH2 0xE0D JUMP JUMPDEST SWAP3 POP DUP3 PUSH32 0xFFFFFFFFFFFFFFFFFFFFFFFFFFFFFFFFFFFFFFFFFFFFFFFFFFFFFFFFFFFFFFFF SUB DUP3 GT ISZERO PUSH2 0x143C JUMPI PUSH2 0x143B PUSH2 0x1379 JUMP JUMPDEST JUMPDEST DUP3 DUP3 ADD SWAP1 POP SWAP3 SWAP2 POP POP JUMP JUMPDEST PUSH1 0x0 PUSH1 0x40 DUP3 ADD SWAP1 POP PUSH2 0x145C PUSH1 0x0 DUP4 ADD DUP6 PUSH2 0xF25 JUMP JUMPDEST PUSH2 0x1469 PUSH1 0x20 DUP4 ADD DUP5 PUSH2 0xEFB JUMP JUMPDEST SWAP4 SWAP3 POP POP POP JUMP JUMPDEST PUSH32 0x4F6E6C79206D616E616765722063616E2063616C6C20746F2074686973206675 PUSH1 0x0 DUP3 ADD MSTORE PUSH32 0x6E63696F6E210000000000000000000000000000000000000000000000000000 PUSH1 0x20 DUP3 ADD MSTORE POP JUMP JUMPDEST PUSH1 0x0 PUSH2 0x14CC PUSH1 0x26 DUP4 PUSH2 0xFAD JUMP JUMPDEST SWAP2 POP PUSH2 0x14D7 DUP3 PUSH2 0x1470 JUMP JUMPDEST PUSH1 0x40 DUP3 ADD SWAP1 POP SWAP2 SWAP1 POP JUMP JUMPDEST PUSH1 0x0 PUSH1 0x20 DUP3 ADD SWAP1 POP DUP2 DUP2 SUB PUSH1 0x0 DUP4 ADD MSTORE PUSH2 0x14FB DUP2 PUSH2 0x14BF JUMP JUMPDEST SWAP1 POP SWAP2 SWAP1 POP JUMP JUMPDEST PUSH32 0x54686520726571756573742068617320616C7265616479206265656E20636F6D PUSH1 0x0 DUP3 ADD MSTORE PUSH32 0x706C657465642100000000000000000000000000000000000000000000000000 PUSH1 0x20 DUP3 ADD MSTORE POP JUMP JUMPDEST PUSH1 0x0 PUSH2 0x155E PUSH1 0x27 DUP4 PUSH2 0xFAD JUMP JUMPDEST SWAP2 POP PUSH2 0x1569 DUP3 PUSH2 0x1502 JUMP JUMPDEST PUSH1 0x40 DUP3 ADD SWAP1 POP SWAP2 SWAP1 POP JUMP JUMPDEST PUSH1 0x0 PUSH1 0x20 DUP3 ADD SWAP1 POP DUP2 DUP2 SUB PUSH1 0x0 DUP4 ADD MSTORE PUSH2 0x158D DUP2 PUSH2 0x1551 JUMP JUMPDEST SWAP1 POP SWAP2 SWAP1 POP JUMP JUMPDEST PUSH32 0x4E487B7100000000000000000000000000000000000000000000000000000000 PUSH1 0x0 MSTORE PUSH1 0x12 PUSH1 0x4 MSTORE PUSH1 0x24 PUSH1 0x0 REVERT JUMPDEST PUSH1 0x0 PUSH2 0x15CE DUP3 PUSH2 0xE0D JUMP JUMPDEST SWAP2 POP PUSH2 0x15D9 DUP4 PUSH2 0xE0D JUMP JUMPDEST SWAP3 POP DUP3 PUSH2 0x15E9 JUMPI PUSH2 0x15E8 PUSH2 0x1594 JUMP JUMPDEST JUMPDEST DUP3 DUP3 DIV SWAP1 POP SWAP3 SWAP2 POP POP JUMP JUMPDEST PUSH1 0x0 DUP2 SWAP1 POP SWAP2 SWAP1 POP JUMP JUMPDEST PUSH1 0x0 PUSH2 0x1619 PUSH2 0x1614 PUSH2 0x160F DUP5 PUSH2 0xE70 JUMP JUMPDEST PUSH2 0x15F4 JUMP JUMPDEST PUSH2 0xE70 JUMP JUMPDEST SWAP1 POP SWAP2 SWAP1 POP JUMP JUMPDEST PUSH1 0x0 PUSH2 0x162B DUP3 PUSH2 0x15FE JUMP JUMPDEST SWAP1 POP SWAP2 SWAP1 POP JUMP JUMPDEST PUSH1 0x0 PUSH2 0x163D DUP3 PUSH2 0x1620 JUMP JUMPDEST SWAP1 POP SWAP2 SWAP1 POP JUMP JUMPDEST PUSH2 0x164D DUP2 PUSH2 0x1632 JUMP JUMPDEST DUP3 MSTORE POP POP JUMP JUMPDEST PUSH1 0x0 PUSH1 0x40 DUP3 ADD SWAP1 POP PUSH2 0x1668 PUSH1 0x0 DUP4 ADD DUP6 PUSH2 0x1644 JUMP JUMPDEST PUSH2 0x1675 PUSH1 0x20 DUP4 ADD DUP5 PUSH2 0xEFB JUMP JUMPDEST SWAP4 SWAP3 POP POP POP JUMP JUMPDEST PUSH32 0x4E487B7100000000000000000000000000000000000000000000000000000000 PUSH1 0x0 MSTORE PUSH1 0x22 PUSH1 0x4 MSTORE PUSH1 0x24 PUSH1 0x0 REVERT JUMPDEST PUSH1 0x0 PUSH1 0x2 DUP3 DIV SWAP1 POP PUSH1 0x1 DUP3 AND DUP1 PUSH2 0x16C3 JUMPI PUSH1 0x7F DUP3 AND SWAP2 POP JUMPDEST PUSH1 0x20 DUP3 LT DUP2 EQ ISZERO PUSH2 0x16D7 JUMPI PUSH2 0x16D6 PUSH2 0x167C JUMP JUMPDEST JUMPDEST POP SWAP2 SWAP1 POP JUMP JUMPDEST PUSH1 0x0 PUSH1 0x60 DUP3 ADD SWAP1 POP DUP2 DUP2 SUB PUSH1 0x0 DUP4 ADD MSTORE PUSH2 0x16F7 DUP2 DUP7 PUSH2 0x1002 JUMP JUMPDEST SWAP1 POP PUSH2 0x1706 PUSH1 0x20 DUP4 ADD DUP6 PUSH2 0x1644 JUMP JUMPDEST PUSH2 0x1713 PUSH1 0x40 DUP4 ADD DUP5 PUSH2 0xEFB JUMP JUMPDEST SWAP5 SWAP4 POP POP POP POP JUMP JUMPDEST PUSH32 0x596F75206D757374206265206120636F6E7472696275746F7220746F20617070 PUSH1 0x0 DUP3 ADD MSTORE PUSH32 0x726F766520612072657175657374210000000000000000000000000000000000 PUSH1 0x20 DUP3 ADD MSTORE POP JUMP JUMPDEST PUSH1 0x0 PUSH2 0x1777 PUSH1 0x2F DUP4 PUSH2 0xFAD JUMP JUMPDEST SWAP2 POP PUSH2 0x1782 DUP3 PUSH2 0x171B JUMP JUMPDEST PUSH1 0x40 DUP3 ADD SWAP1 POP SWAP2 SWAP1 POP JUMP JUMPDEST PUSH1 0x0 PUSH1 0x20 DUP3 ADD SWAP1 POP DUP2 DUP2 SUB PUSH1 0x0 DUP4 ADD MSTORE PUSH2 0x17A6 DUP2 PUSH2 0x176A JUMP JUMPDEST SWAP1 POP SWAP2 SWAP1 POP JUMP JUMPDEST PUSH32 0x596F75206861766520616C726561647920617070726F76656420746869732072 PUSH1 0x0 DUP3 ADD MSTORE PUSH32 0x6571756573742100000000000000000000000000000000000000000000000000 PUSH1 0x20 DUP3 ADD MSTORE POP JUMP JUMPDEST PUSH1 0x0 PUSH2 0x1809 PUSH1 0x27 DUP4 PUSH2 0xFAD JUMP JUMPDEST SWAP2 POP PUSH2 0x1814 DUP3 PUSH2 0x17AD JUMP JUMPDEST PUSH1 0x40 DUP3 ADD SWAP1 POP SWAP2 SWAP1 POP JUMP JUMPDEST PUSH1 0x0 PUSH1 0x20 DUP3 ADD SWAP1 POP DUP2 DUP2 SUB PUSH1 0x0 DUP4 ADD MSTORE PUSH2 0x1838 DUP2 PUSH2 0x17FC JUMP JUMPDEST SWAP1 POP SWAP2 SWAP1 POP JUMP INVALID LOG2 PUSH5 0x6970667358 0x22 SLT KECCAK256 DELEGATECALL 0xBC DUP3 0xE8 0xBE DUP12 0x21 0xD7 PUSH7 0x3AF9B38DBF5AA1 0xAC 0xB9 STATICCALL 0x23 MSTORE8 LOG3 INVALID PUSH24 0x148875EF9A5F6E4464736F6C634300080C0033A264697066 PUSH20 0x58221220BB6588EB8458A084E9E08D8BA0C04F33 CALLVALUE DUP9 DUP11 0xED GASLIMIT PUSH17 0xE2D6CEEB0684C9ACD5BC64736F6C634300 ADDMOD 0xC STOP CALLER "},"gasEstimates":{"creation":{"codeDepositCost":"1631400","executionCost":"1708","totalCost":"1633108"},"external":{"createCampaign(uint256,uint256,uint256)":"infinite","deployedCampaigns(uint256)":"infinite","getDeployedCampaigns()":"infinite"}},"methodIdentifiers":{"createCampaign(uint256,uint256,uint256)":"f69d3158","deployedCampaigns(uint256)":"339d50a5","getDeployedCampaigns()":"4acb9d4f"}},"storageLayout":{"storage":[{"astId":5,"contract":"Campaign.sol:CampaignFactory","label":"deployedCampaigns","offset":0,"slot":"0","type":"t_array(t_contract(Campaign)446)dyn_storage"}],"types":{"t_array(t_contract(Campaign)446)dyn_storage":{"base":"t_contract(Campaign)446","encoding":"dynamic_array","label":"contract Campaign[]","numberOfBytes":"32"},"t_contract(Campaign)446":{"encoding":"inplace","label":"contract Campaign","numberOfBytes":"20"}}},"userdoc":{"kind":"user","methods":{},"version":1}}